{
  "contractName": "BazaarERC1155Collection",
  "abi": [
    {
      "inputs": [],
      "stateMutability": "nonpayable",
      "type": "constructor"
    },
    {
      "anonymous": false,
      "inputs": [
        {
          "indexed": true,
          "internalType": "address",
          "name": "account",
          "type": "address"
        },
        {
          "indexed": true,
          "internalType": "address",
          "name": "operator",
          "type": "address"
        },
        {
          "indexed": false,
          "internalType": "bool",
          "name": "approved",
          "type": "bool"
        }
      ],
      "name": "ApprovalForAll",
      "type": "event"
    },
    {
      "anonymous": false,
      "inputs": [
        {
          "indexed": true,
          "internalType": "address",
          "name": "operator",
          "type": "address"
        },
        {
          "indexed": true,
          "internalType": "address",
          "name": "from",
          "type": "address"
        },
        {
          "indexed": true,
          "internalType": "address",
          "name": "to",
          "type": "address"
        },
        {
          "indexed": false,
          "internalType": "uint256[]",
          "name": "ids",
          "type": "uint256[]"
        },
        {
          "indexed": false,
          "internalType": "uint256[]",
          "name": "values",
          "type": "uint256[]"
        }
      ],
      "name": "TransferBatch",
      "type": "event"
    },
    {
      "anonymous": false,
      "inputs": [
        {
          "indexed": true,
          "internalType": "address",
          "name": "operator",
          "type": "address"
        },
        {
          "indexed": true,
          "internalType": "address",
          "name": "from",
          "type": "address"
        },
        {
          "indexed": true,
          "internalType": "address",
          "name": "to",
          "type": "address"
        },
        {
          "indexed": false,
          "internalType": "uint256",
          "name": "id",
          "type": "uint256"
        },
        {
          "indexed": false,
          "internalType": "uint256",
          "name": "value",
          "type": "uint256"
        }
      ],
      "name": "TransferSingle",
      "type": "event"
    },
    {
      "anonymous": false,
      "inputs": [
        {
          "indexed": false,
          "internalType": "string",
          "name": "value",
          "type": "string"
        },
        {
          "indexed": true,
          "internalType": "uint256",
          "name": "id",
          "type": "uint256"
        }
      ],
      "name": "URI",
      "type": "event"
    },
    {
      "inputs": [
        {
          "internalType": "address",
          "name": "account",
          "type": "address"
        },
        {
          "internalType": "uint256",
          "name": "id",
          "type": "uint256"
        }
      ],
      "name": "balanceOf",
      "outputs": [
        {
          "internalType": "uint256",
          "name": "",
          "type": "uint256"
        }
      ],
      "stateMutability": "view",
      "type": "function"
    },
    {
      "inputs": [
        {
          "internalType": "address[]",
          "name": "accounts",
          "type": "address[]"
        },
        {
          "internalType": "uint256[]",
          "name": "ids",
          "type": "uint256[]"
        }
      ],
      "name": "balanceOfBatch",
      "outputs": [
        {
          "internalType": "uint256[]",
          "name": "",
          "type": "uint256[]"
        }
      ],
      "stateMutability": "view",
      "type": "function"
    },
    {
      "inputs": [
        {
          "internalType": "address",
          "name": "account",
          "type": "address"
        },
        {
          "internalType": "address",
          "name": "operator",
          "type": "address"
        }
      ],
      "name": "isApprovedForAll",
      "outputs": [
        {
          "internalType": "bool",
          "name": "",
          "type": "bool"
        }
      ],
      "stateMutability": "view",
      "type": "function"
    },
    {
      "inputs": [],
      "name": "name",
      "outputs": [
        {
          "internalType": "string",
          "name": "",
          "type": "string"
        }
      ],
      "stateMutability": "view",
      "type": "function"
    },
    {
      "inputs": [
        {
          "internalType": "address",
          "name": "from",
          "type": "address"
        },
        {
          "internalType": "address",
          "name": "to",
          "type": "address"
        },
        {
          "internalType": "uint256[]",
          "name": "ids",
          "type": "uint256[]"
        },
        {
          "internalType": "uint256[]",
          "name": "amounts",
          "type": "uint256[]"
        },
        {
          "internalType": "bytes",
          "name": "data",
          "type": "bytes"
        }
      ],
      "name": "safeBatchTransferFrom",
      "outputs": [],
      "stateMutability": "nonpayable",
      "type": "function"
    },
    {
      "inputs": [
        {
          "internalType": "address",
          "name": "from",
          "type": "address"
        },
        {
          "internalType": "address",
          "name": "to",
          "type": "address"
        },
        {
          "internalType": "uint256",
          "name": "id",
          "type": "uint256"
        },
        {
          "internalType": "uint256",
          "name": "amount",
          "type": "uint256"
        },
        {
          "internalType": "bytes",
          "name": "data",
          "type": "bytes"
        }
      ],
      "name": "safeTransferFrom",
      "outputs": [],
      "stateMutability": "nonpayable",
      "type": "function"
    },
    {
      "inputs": [
        {
          "internalType": "address",
          "name": "operator",
          "type": "address"
        },
        {
          "internalType": "bool",
          "name": "approved",
          "type": "bool"
        }
      ],
      "name": "setApprovalForAll",
      "outputs": [],
      "stateMutability": "nonpayable",
      "type": "function"
    },
    {
      "inputs": [
        {
          "internalType": "bytes4",
          "name": "interfaceId",
          "type": "bytes4"
        }
      ],
      "name": "supportsInterface",
      "outputs": [
        {
          "internalType": "bool",
          "name": "",
          "type": "bool"
        }
      ],
      "stateMutability": "view",
      "type": "function"
    },
    {
      "inputs": [
        {
          "internalType": "address payable",
          "name": "newOwner",
          "type": "address"
        }
      ],
      "name": "transferOwnership",
      "outputs": [],
      "stateMutability": "nonpayable",
      "type": "function"
    },
    {
      "inputs": [
        {
          "internalType": "uint256",
          "name": "",
          "type": "uint256"
        }
      ],
      "name": "uri",
      "outputs": [
        {
          "internalType": "string",
          "name": "",
          "type": "string"
        }
      ],
      "stateMutability": "view",
      "type": "function"
    },
    {
      "inputs": [
        {
          "internalType": "uint256",
          "name": "total",
          "type": "uint256"
        }
      ],
      "name": "mint",
      "outputs": [
        {
          "internalType": "bool",
          "name": "",
          "type": "bool"
        }
      ],
      "stateMutability": "nonpayable",
      "type": "function"
    },
    {
      "inputs": [
        {
          "internalType": "string",
          "name": "newuri",
          "type": "string"
        }
      ],
      "name": "setURI",
      "outputs": [
        {
          "internalType": "bool",
          "name": "",
          "type": "bool"
        }
      ],
      "stateMutability": "nonpayable",
      "type": "function"
    },
    {
      "inputs": [
        {
          "internalType": "string",
          "name": "newuri",
          "type": "string"
        }
      ],
      "name": "setContractURI",
      "outputs": [
        {
          "internalType": "bool",
          "name": "",
          "type": "bool"
        }
      ],
      "stateMutability": "nonpayable",
      "type": "function"
    },
    {
      "inputs": [
        {
          "internalType": "string",
          "name": "_name",
          "type": "string"
        }
      ],
      "name": "setCollectionName",
      "outputs": [
        {
          "internalType": "bool",
          "name": "",
          "type": "bool"
        }
      ],
      "stateMutability": "nonpayable",
      "type": "function"
    },
    {
      "inputs": [],
      "name": "contractURI",
      "outputs": [
        {
          "internalType": "string",
          "name": "",
          "type": "string"
        }
      ],
      "stateMutability": "view",
      "type": "function"
    }
  ],
  "bytecode": "0x608060405260016004553480156200001657600080fd5b506040518060600160405280603881526020016200414e6038913962000042816200013060201b60201c565b5033600360006101000a81548173ffffffffffffffffffffffffffffffffffffffff021916908373ffffffffffffffffffffffffffffffffffffffff160217905550604051806060016040528060348152602001620041866034913960069080519060200190620000b592919062000683565b506040518060400160405280601181526020017f42617a6161722045524331313535207633000000000000000000000000000000815250600590805190602001906200010392919062000683565b506200011660056200014c60201b60201c565b5062000129600a6200014c60201b60201c565b5062000ee5565b80600290805190602001906200014892919062000683565b5050565b600060018210158015620001615750600a8211155b620001a3576040517f08c379a00000000000000000000000000000000000000000000000000000000081526004016200019a90620007ba565b60405180910390fd5b620001de3360046000815480929190620001bd9062000815565b919050558460405180602001604052806000815250620001e760201b60201c565b60019050919050565b600073ffffffffffffffffffffffffffffffffffffffff168473ffffffffffffffffffffffffffffffffffffffff160362000259576040517f08c379a00000000000000000000000000000000000000000000000000000000081526004016200025090620008d8565b60405180910390fd5b60006200026b620003ce60201b60201c565b905060006200028085620003d660201b60201c565b905060006200029585620003d660201b60201c565b9050620002ae836000898585896200045760201b60201c565b8460008088815260200190815260200160002060008973ffffffffffffffffffffffffffffffffffffffff1673ffffffffffffffffffffffffffffffffffffffff16815260200190815260200160002060008282546200030f9190620008fa565b925050819055508673ffffffffffffffffffffffffffffffffffffffff16600073ffffffffffffffffffffffffffffffffffffffff168473ffffffffffffffffffffffffffffffffffffffff167fc3d58168c5ae7397731d063d5bbf3d657854427343f4c083240f7aacaa2d0f6289896040516200038f92919062000968565b60405180910390a4620003ae836000898585896200045f60201b60201c565b620003c5836000898989896200046760201b60201c565b50505050505050565b600033905090565b60606000600167ffffffffffffffff811115620003f857620003f762000995565b5b604051908082528060200260200182016040528015620004275781602001602082028036833780820191505090505b5090508281600081518110620004425762000441620009c4565b5b60200260200101818152505080915050919050565b505050505050565b505050505050565b620004938473ffffffffffffffffffffffffffffffffffffffff166200066060201b62000e201760201c565b1562000658578373ffffffffffffffffffffffffffffffffffffffff1663f23a6e6187878686866040518663ffffffff1660e01b8152600401620004dc95949392919062000adc565b6020604051808303816000875af19250505080156200051b57506040513d601f19601f8201168201806040525081019062000518919062000bac565b60015b620005cc576200052a62000beb565b806308c379a0036200058d57506200054162000c46565b806200054e57506200058f565b806040517f08c379a000000000000000000000000000000000000000000000000000000000815260040162000584919062000d2d565b60405180910390fd5b505b6040517f08c379a0000000000000000000000000000000000000000000000000000000008152600401620005c39062000dc7565b60405180910390fd5b63f23a6e6160e01b7bffffffffffffffffffffffffffffffffffffffffffffffffffffffff1916817bffffffffffffffffffffffffffffffffffffffffffffffffffffffff19161462000656576040517f08c379a00000000000000000000000000000000000000000000000000000000081526004016200064d9062000e5f565b60405180910390fd5b505b505050505050565b6000808273ffffffffffffffffffffffffffffffffffffffff163b119050919050565b828054620006919062000eb0565b90600052602060002090601f016020900481019282620006b5576000855562000701565b82601f10620006d057805160ff191683800117855562000701565b8280016001018555821562000701579182015b8281111562000700578251825591602001919060010190620006e3565b5b50905062000710919062000714565b5090565b5b808211156200072f57600081600090555060010162000715565b5090565b600082825260208201905092915050565b7f4e46545f4d494e543a2047524541544552205448454e2031204c45535320544860008201527f454e203130000000000000000000000000000000000000000000000000000000602082015250565b6000620007a260258362000733565b9150620007af8262000744565b604082019050919050565b60006020820190508181036000830152620007d58162000793565b9050919050565b7f4e487b7100000000000000000000000000000000000000000000000000000000600052601160045260246000fd5b6000819050919050565b600062000822826200080b565b91507fffffffffffffffffffffffffffffffffffffffffffffffffffffffffffffffff8203620008575762000856620007dc565b5b600182019050919050565b7f455243313135353a206d696e7420746f20746865207a65726f2061646472657360008201527f7300000000000000000000000000000000000000000000000000000000000000602082015250565b6000620008c060218362000733565b9150620008cd8262000862565b604082019050919050565b60006020820190508181036000830152620008f381620008b1565b9050919050565b600062000907826200080b565b915062000914836200080b565b9250827fffffffffffffffffffffffffffffffffffffffffffffffffffffffffffffffff038211156200094c576200094b620007dc565b5b828201905092915050565b62000962816200080b565b82525050565b60006040820190506200097f600083018562000957565b6200098e602083018462000957565b9392505050565b7f4e487b7100000000000000000000000000000000000000000000000000000000600052604160045260246000fd5b7f4e487b7100000000000000000000000000000000000000000000000000000000600052603260045260246000fd5b600073ffffffffffffffffffffffffffffffffffffffff82169050919050565b600062000a2082620009f3565b9050919050565b62000a328162000a13565b82525050565b600081519050919050565b600082825260208201905092915050565b60005b8381101562000a7457808201518184015260208101905062000a57565b8381111562000a84576000848401525b50505050565b6000601f19601f8301169050919050565b600062000aa88262000a38565b62000ab4818562000a43565b935062000ac681856020860162000a54565b62000ad18162000a8a565b840191505092915050565b600060a08201905062000af3600083018862000a27565b62000b02602083018762000a27565b62000b11604083018662000957565b62000b20606083018562000957565b818103608083015262000b34818462000a9b565b90509695505050505050565b6000604051905090565b600080fd5b60007fffffffff0000000000000000000000000000000000000000000000000000000082169050919050565b62000b868162000b4f565b811462000b9257600080fd5b50565b60008151905062000ba68162000b7b565b92915050565b60006020828403121562000bc55762000bc462000b4a565b5b600062000bd58482850162000b95565b91505092915050565b60008160e01c9050919050565b600060033d111562000c0d5760046000803e62000c0a60005162000bde565b90505b90565b62000c1b8262000a8a565b810181811067ffffffffffffffff8211171562000c3d5762000c3c62000995565b5b80604052505050565b600060443d1062000cde5762000c5b62000b40565b60043d036004823e80513d602482011167ffffffffffffffff8211171562000c8557505062000cde565b808201805167ffffffffffffffff81111562000ca5575050505062000cde565b80602083010160043d03850181111562000cc457505050505062000cde565b62000cd58260200185018662000c10565b82955050505050505b90565b600081519050919050565b600062000cf98262000ce1565b62000d05818562000733565b935062000d1781856020860162000a54565b62000d228162000a8a565b840191505092915050565b6000602082019050818103600083015262000d49818462000cec565b905092915050565b7f455243313135353a207472616e7366657220746f206e6f6e204552433131353560008201527f526563656976657220696d706c656d656e746572000000000000000000000000602082015250565b600062000daf60348362000733565b915062000dbc8262000d51565b604082019050919050565b6000602082019050818103600083015262000de28162000da0565b9050919050565b7f455243313135353a204552433131353552656365697665722072656a6563746560008201527f6420746f6b656e73000000000000000000000000000000000000000000000000602082015250565b600062000e4760288362000733565b915062000e548262000de9565b604082019050919050565b6000602082019050818103600083015262000e7a8162000e38565b9050919050565b7f4e487b7100000000000000000000000000000000000000000000000000000000600052602260045260246000fd5b6000600282049050600182168062000ec957607f821691505b60208210810362000edf5762000ede62000e81565b5b50919050565b6132598062000ef56000396000f3fe608060405234801561001057600080fd5b50600436106100f45760003560e01c80638278cb6611610097578063e8a3d48511610066578063e8a3d485146102cf578063e985e9c5146102ed578063f242432a1461031d578063f2fde38b14610339576100f4565b80638278cb6614610223578063938e3d7b14610253578063a0712d6814610283578063a22cb465146102b3576100f4565b806306fdde03116100d357806306fdde03146101895780630e89341c146101a75780632eb2c2d6146101d75780634e1273f4146101f3576100f4565b8062fdd58e146100f957806301ffc9a71461012957806302fe530514610159575b600080fd5b610113600480360381019061010e9190611d2a565b610355565b6040516101209190611d79565b60405180910390f35b610143600480360381019061013e9190611dec565b61041d565b6040516101509190611e34565b60405180910390f35b610173600480360381019061016e9190611f95565b6104ff565b6040516101809190611e34565b60405180910390f35b6101916105a3565b60405161019e9190612066565b60405180910390f35b6101c160048036038101906101bc9190612088565b610631565b6040516101ce9190612066565b60405180910390f35b6101f160048036038101906101ec919061221e565b6106c5565b005b61020d600480360381019061020891906123b0565b610766565b60405161021a91906124e6565b60405180910390f35b61023d60048036038101906102389190611f95565b61087f565b60405161024a9190611e34565b60405180910390f35b61026d60048036038101906102689190611f95565b610931565b60405161027a9190611e34565b60405180910390f35b61029d60048036038101906102989190612088565b6109e3565b6040516102aa9190611e34565b60405180910390f35b6102cd60048036038101906102c89190612534565b610a70565b005b6102d7610a86565b6040516102e49190612066565b60405180910390f35b61030760048036038101906103029190612574565b610b18565b6040516103149190611e34565b60405180910390f35b610337600480360381019061033291906125b4565b610bac565b005b610353600480360381019061034e9190612689565b610c4d565b005b60008073ffffffffffffffffffffffffffffffffffffffff168373ffffffffffffffffffffffffffffffffffffffff16036103c5576040517f08c379a00000000000000000000000000000000000000000000000000000000081526004016103bc90612728565b60405180910390fd5b60008083815260200190815260200160002060008473ffffffffffffffffffffffffffffffffffffffff1673ffffffffffffffffffffffffffffffffffffffff16815260200190815260200160002054905092915050565b60007fd9b67a26000000000000000000000000000000000000000000000000000000007bffffffffffffffffffffffffffffffffffffffffffffffffffffffff1916827bffffffffffffffffffffffffffffffffffffffffffffffffffffffff191614806104e857507f0e89341c000000000000000000000000000000000000000000000000000000007bffffffffffffffffffffffffffffffffffffffffffffffffffffffff1916827bffffffffffffffffffffffffffffffffffffffffffffffffffffffff1916145b806104f857506104f782610e43565b5b9050919050565b6000600360009054906101000a900473ffffffffffffffffffffffffffffffffffffffff1673ffffffffffffffffffffffffffffffffffffffff163373ffffffffffffffffffffffffffffffffffffffff1614610591576040517f08c379a000000000000000000000000000000000000000000000000000000000815260040161058890612794565b60405180910390fd5b61059a82610ead565b60019050919050565b600580546105b0906127e3565b80601f01602080910402602001604051908101604052809291908181526020018280546105dc906127e3565b80156106295780601f106105fe57610100808354040283529160200191610629565b820191906000526020600020905b81548152906001019060200180831161060c57829003601f168201915b505050505081565b606060028054610640906127e3565b80601f016020809104026020016040519081016040528092919081815260200182805461066c906127e3565b80156106b95780601f1061068e576101008083540402835291602001916106b9565b820191906000526020600020905b81548152906001019060200180831161069c57829003601f168201915b50505050509050919050565b6106cd610ec7565b73ffffffffffffffffffffffffffffffffffffffff168573ffffffffffffffffffffffffffffffffffffffff16148061071357506107128561070d610ec7565b610b18565b5b610752576040517f08c379a000000000000000000000000000000000000000000000000000000000815260040161074990612886565b60405180910390fd5b61075f8585858585610ecf565b5050505050565b606081518351146107ac576040517f08c379a00000000000000000000000000000000000000000000000000000000081526004016107a390612918565b60405180910390fd5b6000835167ffffffffffffffff8111156107c9576107c8611e6a565b5b6040519080825280602002602001820160405280156107f75781602001602082028036833780820191505090505b50905060005b84518110156108745761084485828151811061081c5761081b612938565b5b602002602001015185838151811061083757610836612938565b5b6020026020010151610355565b82828151811061085757610856612938565b5b6020026020010181815250508061086d90612996565b90506107fd565b508091505092915050565b6000600360009054906101000a900473ffffffffffffffffffffffffffffffffffffffff1673ffffffffffffffffffffffffffffffffffffffff163373ffffffffffffffffffffffffffffffffffffffff1614610911576040517f08c379a000000000000000000000000000000000000000000000000000000000815260040161090890612794565b60405180910390fd5b8160059080519060200190610927929190611bdf565b5060019050919050565b6000600360009054906101000a900473ffffffffffffffffffffffffffffffffffffffff1673ffffffffffffffffffffffffffffffffffffffff163373ffffffffffffffffffffffffffffffffffffffff16146109c3576040517f08c379a00000000000000000000000000000000000000000000000000000000081526004016109ba90612794565b60405180910390fd5b81600690805190602001906109d9929190611bdf565b5060019050919050565b6000600182101580156109f75750600a8211155b610a36576040517f08c379a0000000000000000000000000000000000000000000000000000000008152600401610a2d90612a50565b60405180910390fd5b610a673360046000815480929190610a4d90612996565b9190505584604051806020016040528060008152506111f0565b60019050919050565b610a82610a7b610ec7565b83836113a0565b5050565b606060068054610a95906127e3565b80601f0160208091040260200160405190810160405280929190818152602001828054610ac1906127e3565b8015610b0e5780601f10610ae357610100808354040283529160200191610b0e565b820191906000526020600020905b815481529060010190602001808311610af157829003601f168201915b5050505050905090565b6000600160008473ffffffffffffffffffffffffffffffffffffffff1673ffffffffffffffffffffffffffffffffffffffff16815260200190815260200160002060008373ffffffffffffffffffffffffffffffffffffffff1673ffffffffffffffffffffffffffffffffffffffff16815260200190815260200160002060009054906101000a900460ff16905092915050565b610bb4610ec7565b73ffffffffffffffffffffffffffffffffffffffff168573ffffffffffffffffffffffffffffffffffffffff161480610bfa5750610bf985610bf4610ec7565b610b18565b5b610c39576040517f08c379a0000000000000000000000000000000000000000000000000000000008152600401610c3090612886565b60405180910390fd5b610c46858585858561150c565b5050505050565b600360009054906101000a900473ffffffffffffffffffffffffffffffffffffffff1673ffffffffffffffffffffffffffffffffffffffff163373ffffffffffffffffffffffffffffffffffffffff1614610cdd576040517f08c379a0000000000000000000000000000000000000000000000000000000008152600401610cd490612794565b60405180910390fd5b600073ffffffffffffffffffffffffffffffffffffffff168173ffffffffffffffffffffffffffffffffffffffff1603610d4c576040517f08c379a0000000000000000000000000000000000000000000000000000000008152600401610d4390612abc565b60405180910390fd5b600360009054906101000a900473ffffffffffffffffffffffffffffffffffffffff1673ffffffffffffffffffffffffffffffffffffffff168173ffffffffffffffffffffffffffffffffffffffff1603610ddc576040517f08c379a0000000000000000000000000000000000000000000000000000000008152600401610dd390612b28565b60405180910390fd5b80600360006101000a81548173ffffffffffffffffffffffffffffffffffffffff021916908373ffffffffffffffffffffffffffffffffffffffff16021790555050565b6000808273ffffffffffffffffffffffffffffffffffffffff163b119050919050565b60007f01ffc9a7000000000000000000000000000000000000000000000000000000007bffffffffffffffffffffffffffffffffffffffffffffffffffffffff1916827bffffffffffffffffffffffffffffffffffffffffffffffffffffffff1916149050919050565b8060029080519060200190610ec3929190611bdf565b5050565b600033905090565b8151835114610f13576040517f08c379a0000000000000000000000000000000000000000000000000000000008152600401610f0a90612bba565b60405180910390fd5b600073ffffffffffffffffffffffffffffffffffffffff168473ffffffffffffffffffffffffffffffffffffffff1603610f82576040517f08c379a0000000000000000000000000000000000000000000000000000000008152600401610f7990612c4c565b60405180910390fd5b6000610f8c610ec7565b9050610f9c8187878787876117a7565b60005b845181101561114d576000858281518110610fbd57610fbc612938565b5b602002602001015190506000858381518110610fdc57610fdb612938565b5b60200260200101519050600080600084815260200190815260200160002060008b73ffffffffffffffffffffffffffffffffffffffff1673ffffffffffffffffffffffffffffffffffffffff1681526020019081526020016000205490508181101561107d576040517f08c379a000000000000000000000000000000000000000000000000000000000815260040161107490612cde565b60405180910390fd5b81810360008085815260200190815260200160002060008c73ffffffffffffffffffffffffffffffffffffffff1673ffffffffffffffffffffffffffffffffffffffff168152602001908152602001600020819055508160008085815260200190815260200160002060008b73ffffffffffffffffffffffffffffffffffffffff1673ffffffffffffffffffffffffffffffffffffffff16815260200190815260200160002060008282546111329190612cfe565b925050819055505050508061114690612996565b9050610f9f565b508473ffffffffffffffffffffffffffffffffffffffff168673ffffffffffffffffffffffffffffffffffffffff168273ffffffffffffffffffffffffffffffffffffffff167f4a39dc06d4c0dbc64b70af90fd698a233a518aa5d07e595d983b8c0526c8f7fb87876040516111c4929190612d54565b60405180910390a46111da8187878787876117af565b6111e88187878787876117b7565b505050505050565b600073ffffffffffffffffffffffffffffffffffffffff168473ffffffffffffffffffffffffffffffffffffffff160361125f576040517f08c379a000000000000000000000000000000000000000000000000000000000815260040161125690612dfd565b60405180910390fd5b6000611269610ec7565b905060006112768561198e565b905060006112838561198e565b9050611294836000898585896117a7565b8460008088815260200190815260200160002060008973ffffffffffffffffffffffffffffffffffffffff1673ffffffffffffffffffffffffffffffffffffffff16815260200190815260200160002060008282546112f39190612cfe565b925050819055508673ffffffffffffffffffffffffffffffffffffffff16600073ffffffffffffffffffffffffffffffffffffffff168473ffffffffffffffffffffffffffffffffffffffff167fc3d58168c5ae7397731d063d5bbf3d657854427343f4c083240f7aacaa2d0f628989604051611371929190612e1d565b60405180910390a4611388836000898585896117af565b61139783600089898989611a08565b50505050505050565b8173ffffffffffffffffffffffffffffffffffffffff168373ffffffffffffffffffffffffffffffffffffffff160361140e576040517f08c379a000000000000000000000000000000000000000000000000000000000815260040161140590612eb8565b60405180910390fd5b80600160008573ffffffffffffffffffffffffffffffffffffffff1673ffffffffffffffffffffffffffffffffffffffff16815260200190815260200160002060008473ffffffffffffffffffffffffffffffffffffffff1673ffffffffffffffffffffffffffffffffffffffff16815260200190815260200160002060006101000a81548160ff0219169083151502179055508173ffffffffffffffffffffffffffffffffffffffff168373ffffffffffffffffffffffffffffffffffffffff167f17307eab39ab6107e8899845ad3d59bd9653f200f220920489ca2b5937696c31836040516114ff9190611e34565b60405180910390a3505050565b600073ffffffffffffffffffffffffffffffffffffffff168473ffffffffffffffffffffffffffffffffffffffff160361157b576040517f08c379a000000000000000000000000000000000000000000000000000000000815260040161157290612c4c565b60405180910390fd5b6000611585610ec7565b905060006115928561198e565b9050600061159f8561198e565b90506115af8389898585896117a7565b600080600088815260200190815260200160002060008a73ffffffffffffffffffffffffffffffffffffffff1673ffffffffffffffffffffffffffffffffffffffff16815260200190815260200160002054905085811015611646576040517f08c379a000000000000000000000000000000000000000000000000000000000815260040161163d90612cde565b60405180910390fd5b85810360008089815260200190815260200160002060008b73ffffffffffffffffffffffffffffffffffffffff1673ffffffffffffffffffffffffffffffffffffffff168152602001908152602001600020819055508560008089815260200190815260200160002060008a73ffffffffffffffffffffffffffffffffffffffff1673ffffffffffffffffffffffffffffffffffffffff16815260200190815260200160002060008282546116fb9190612cfe565b925050819055508773ffffffffffffffffffffffffffffffffffffffff168973ffffffffffffffffffffffffffffffffffffffff168573ffffffffffffffffffffffffffffffffffffffff167fc3d58168c5ae7397731d063d5bbf3d657854427343f4c083240f7aacaa2d0f628a8a604051611778929190612e1d565b60405180910390a461178e848a8a86868a6117af565b61179c848a8a8a8a8a611a08565b505050505050505050565b505050505050565b505050505050565b6117d68473ffffffffffffffffffffffffffffffffffffffff16610e20565b15611986578373ffffffffffffffffffffffffffffffffffffffff1663bc197c8187878686866040518663ffffffff1660e01b815260040161181c959493929190612f3c565b6020604051808303816000875af192505050801561185857506040513d601f19601f820116820180604052508101906118559190612fb9565b60015b6118fd57611864612ff3565b806308c379a0036118c05750611878613015565b8061188357506118c2565b806040517f08c379a00000000000000000000000000000000000000000000000000000000081526004016118b79190612066565b60405180910390fd5b505b6040517f08c379a00000000000000000000000000000000000000000000000000000000081526004016118f490613117565b60405180910390fd5b63bc197c8160e01b7bffffffffffffffffffffffffffffffffffffffffffffffffffffffff1916817bffffffffffffffffffffffffffffffffffffffffffffffffffffffff191614611984576040517f08c379a000000000000000000000000000000000000000000000000000000000815260040161197b906131a9565b60405180910390fd5b505b505050505050565b60606000600167ffffffffffffffff8111156119ad576119ac611e6a565b5b6040519080825280602002602001820160405280156119db5781602001602082028036833780820191505090505b50905082816000815181106119f3576119f2612938565b5b60200260200101818152505080915050919050565b611a278473ffffffffffffffffffffffffffffffffffffffff16610e20565b15611bd7578373ffffffffffffffffffffffffffffffffffffffff1663f23a6e6187878686866040518663ffffffff1660e01b8152600401611a6d9594939291906131c9565b6020604051808303816000875af1925050508015611aa957506040513d601f19601f82011682018060405250810190611aa69190612fb9565b60015b611b4e57611ab5612ff3565b806308c379a003611b115750611ac9613015565b80611ad45750611b13565b806040517f08c379a0000000000000000000000000000000000000000000000000000000008152600401611b089190612066565b60405180910390fd5b505b6040517f08c379a0000000000000000000000000000000000000000000000000000000008152600401611b4590613117565b60405180910390fd5b63f23a6e6160e01b7bffffffffffffffffffffffffffffffffffffffffffffffffffffffff1916817bffffffffffffffffffffffffffffffffffffffffffffffffffffffff191614611bd5576040517f08c379a0000000000000000000000000000000000000000000000000000000008152600401611bcc906131a9565b60405180910390fd5b505b505050505050565b828054611beb906127e3565b90600052602060002090601f016020900481019282611c0d5760008555611c54565b82601f10611c2657805160ff1916838001178555611c54565b82800160010185558215611c54579182015b82811115611c53578251825591602001919060010190611c38565b5b509050611c619190611c65565b5090565b5b80821115611c7e576000816000905550600101611c66565b5090565b6000604051905090565b600080fd5b600080fd5b600073ffffffffffffffffffffffffffffffffffffffff82169050919050565b6000611cc182611c96565b9050919050565b611cd181611cb6565b8114611cdc57600080fd5b50565b600081359050611cee81611cc8565b92915050565b6000819050919050565b611d0781611cf4565b8114611d1257600080fd5b50565b600081359050611d2481611cfe565b92915050565b60008060408385031215611d4157611d40611c8c565b5b6000611d4f85828601611cdf565b9250506020611d6085828601611d15565b9150509250929050565b611d7381611cf4565b82525050565b6000602082019050611d8e6000830184611d6a565b92915050565b60007fffffffff0000000000000000000000000000000000000000000000000000000082169050919050565b611dc981611d94565b8114611dd457600080fd5b50565b600081359050611de681611dc0565b92915050565b600060208284031215611e0257611e01611c8c565b5b6000611e1084828501611dd7565b91505092915050565b60008115159050919050565b611e2e81611e19565b82525050565b6000602082019050611e496000830184611e25565b92915050565b600080fd5b600080fd5b6000601f19601f8301169050919050565b7f4e487b7100000000000000000000000000000000000000000000000000000000600052604160045260246000fd5b611ea282611e59565b810181811067ffffffffffffffff82111715611ec157611ec0611e6a565b5b80604052505050565b6000611ed4611c82565b9050611ee08282611e99565b919050565b600067ffffffffffffffff821115611f0057611eff611e6a565b5b611f0982611e59565b9050602081019050919050565b82818337600083830152505050565b6000611f38611f3384611ee5565b611eca565b905082815260208101848484011115611f5457611f53611e54565b5b611f5f848285611f16565b509392505050565b600082601f830112611f7c57611f7b611e4f565b5b8135611f8c848260208601611f25565b91505092915050565b600060208284031215611fab57611faa611c8c565b5b600082013567ffffffffffffffff811115611fc957611fc8611c91565b5b611fd584828501611f67565b91505092915050565b600081519050919050565b600082825260208201905092915050565b60005b83811015612018578082015181840152602081019050611ffd565b83811115612027576000848401525b50505050565b600061203882611fde565b6120428185611fe9565b9350612052818560208601611ffa565b61205b81611e59565b840191505092915050565b60006020820190508181036000830152612080818461202d565b905092915050565b60006020828403121561209e5761209d611c8c565b5b60006120ac84828501611d15565b91505092915050565b600067ffffffffffffffff8211156120d0576120cf611e6a565b5b602082029050602081019050919050565b600080fd5b60006120f96120f4846120b5565b611eca565b9050808382526020820190506020840283018581111561211c5761211b6120e1565b5b835b8181101561214557806121318882611d15565b84526020840193505060208101905061211e565b5050509392505050565b600082601f83011261216457612163611e4f565b5b81356121748482602086016120e6565b91505092915050565b600067ffffffffffffffff82111561219857612197611e6a565b5b6121a182611e59565b9050602081019050919050565b60006121c16121bc8461217d565b611eca565b9050828152602081018484840111156121dd576121dc611e54565b5b6121e8848285611f16565b509392505050565b600082601f83011261220557612204611e4f565b5b81356122158482602086016121ae565b91505092915050565b600080600080600060a0868803121561223a57612239611c8c565b5b600061224888828901611cdf565b955050602061225988828901611cdf565b945050604086013567ffffffffffffffff81111561227a57612279611c91565b5b6122868882890161214f565b935050606086013567ffffffffffffffff8111156122a7576122a6611c91565b5b6122b38882890161214f565b925050608086013567ffffffffffffffff8111156122d4576122d3611c91565b5b6122e0888289016121f0565b9150509295509295909350565b600067ffffffffffffffff82111561230857612307611e6a565b5b602082029050602081019050919050565b600061232c612327846122ed565b611eca565b9050808382526020820190506020840283018581111561234f5761234e6120e1565b5b835b8181101561237857806123648882611cdf565b845260208401935050602081019050612351565b5050509392505050565b600082601f83011261239757612396611e4f565b5b81356123a7848260208601612319565b91505092915050565b600080604083850312156123c7576123c6611c8c565b5b600083013567ffffffffffffffff8111156123e5576123e4611c91565b5b6123f185828601612382565b925050602083013567ffffffffffffffff81111561241257612411611c91565b5b61241e8582860161214f565b9150509250929050565b600081519050919050565b600082825260208201905092915050565b6000819050602082019050919050565b61245d81611cf4565b82525050565b600061246f8383612454565b60208301905092915050565b6000602082019050919050565b600061249382612428565b61249d8185612433565b93506124a883612444565b8060005b838110156124d95781516124c08882612463565b97506124cb8361247b565b9250506001810190506124ac565b5085935050505092915050565b600060208201905081810360008301526125008184612488565b905092915050565b61251181611e19565b811461251c57600080fd5b50565b60008135905061252e81612508565b92915050565b6000806040838503121561254b5761254a611c8c565b5b600061255985828601611cdf565b925050602061256a8582860161251f565b9150509250929050565b6000806040838503121561258b5761258a611c8c565b5b600061259985828601611cdf565b92505060206125aa85828601611cdf565b9150509250929050565b600080600080600060a086880312156125d0576125cf611c8c565b5b60006125de88828901611cdf565b95505060206125ef88828901611cdf565b945050604061260088828901611d15565b935050606061261188828901611d15565b925050608086013567ffffffffffffffff81111561263257612631611c91565b5b61263e888289016121f0565b9150509295509295909350565b600061265682611c96565b9050919050565b6126668161264b565b811461267157600080fd5b50565b6000813590506126838161265d565b92915050565b60006020828403121561269f5761269e611c8c565b5b60006126ad84828501612674565b91505092915050565b7f455243313135353a2061646472657373207a65726f206973206e6f742061207660008201527f616c6964206f776e657200000000000000000000000000000000000000000000602082015250565b6000612712602a83611fe9565b915061271d826126b6565b604082019050919050565b6000602082019050818103600083015261274181612705565b9050919050565b7f4552525f4e4f545f4f574e455200000000000000000000000000000000000000600082015250565b600061277e600d83611fe9565b915061278982612748565b602082019050919050565b600060208201905081810360008301526127ad81612771565b9050919050565b7f4e487b7100000000000000000000000000000000000000000000000000000000600052602260045260246000fd5b600060028204905060018216806127fb57607f821691505b60208210810361280e5761280d6127b4565b5b50919050565b7f455243313135353a2063616c6c6572206973206e6f7420746f6b656e206f776e60008201527f6572206e6f7220617070726f7665640000000000000000000000000000000000602082015250565b6000612870602f83611fe9565b915061287b82612814565b604082019050919050565b6000602082019050818103600083015261289f81612863565b9050919050565b7f455243313135353a206163636f756e747320616e6420696473206c656e67746860008201527f206d69736d617463680000000000000000000000000000000000000000000000602082015250565b6000612902602983611fe9565b915061290d826128a6565b604082019050919050565b60006020820190508181036000830152612931816128f5565b9050919050565b7f4e487b7100000000000000000000000000000000000000000000000000000000600052603260045260246000fd5b7f4e487b7100000000000000000000000000000000000000000000000000000000600052601160045260246000fd5b60006129a182611cf4565b91507fffffffffffffffffffffffffffffffffffffffffffffffffffffffffffffffff82036129d3576129d2612967565b5b600182019050919050565b7f4e46545f4d494e543a2047524541544552205448454e2031204c45535320544860008201527f454e203130000000000000000000000000000000000000000000000000000000602082015250565b6000612a3a602583611fe9565b9150612a45826129de565b604082019050919050565b60006020820190508181036000830152612a6981612a2d565b9050919050565b7f4552525f5a45524f5f4144445200000000000000000000000000000000000000600082015250565b6000612aa6600d83611fe9565b9150612ab182612a70565b602082019050919050565b60006020820190508181036000830152612ad581612a99565b9050919050565b7f4552525f49535f4f574e45520000000000000000000000000000000000000000600082015250565b6000612b12600c83611fe9565b9150612b1d82612adc565b602082019050919050565b60006020820190508181036000830152612b4181612b05565b9050919050565b7f455243313135353a2069647320616e6420616d6f756e7473206c656e6774682060008201527f6d69736d61746368000000000000000000000000000000000000000000000000602082015250565b6000612ba4602883611fe9565b9150612baf82612b48565b604082019050919050565b60006020820190508181036000830152612bd381612b97565b9050919050565b7f455243313135353a207472616e7366657220746f20746865207a65726f20616460008201527f6472657373000000000000000000000000000000000000000000000000000000602082015250565b6000612c36602583611fe9565b9150612c4182612bda565b604082019050919050565b60006020820190508181036000830152612c6581612c29565b9050919050565b7f455243313135353a20696e73756666696369656e742062616c616e636520666f60008201527f72207472616e7366657200000000000000000000000000000000000000000000602082015250565b6000612cc8602a83611fe9565b9150612cd382612c6c565b604082019050919050565b60006020820190508181036000830152612cf781612cbb565b9050919050565b6000612d0982611cf4565b9150612d1483611cf4565b9250827fffffffffffffffffffffffffffffffffffffffffffffffffffffffffffffffff03821115612d4957612d48612967565b5b828201905092915050565b60006040820190508181036000830152612d6e8185612488565b90508181036020830152612d828184612488565b90509392505050565b7f455243313135353a206d696e7420746f20746865207a65726f2061646472657360008201527f7300000000000000000000000000000000000000000000000000000000000000602082015250565b6000612de7602183611fe9565b9150612df282612d8b565b604082019050919050565b60006020820190508181036000830152612e1681612dda565b9050919050565b6000604082019050612e326000830185611d6a565b612e3f6020830184611d6a565b9392505050565b7f455243313135353a2073657474696e6720617070726f76616c2073746174757360008201527f20666f722073656c660000000000000000000000000000000000000000000000602082015250565b6000612ea2602983611fe9565b9150612ead82612e46565b604082019050919050565b60006020820190508181036000830152612ed181612e95565b9050919050565b612ee181611cb6565b82525050565b600081519050919050565b600082825260208201905092915050565b6000612f0e82612ee7565b612f188185612ef2565b9350612f28818560208601611ffa565b612f3181611e59565b840191505092915050565b600060a082019050612f516000830188612ed8565b612f5e6020830187612ed8565b8181036040830152612f708186612488565b90508181036060830152612f848185612488565b90508181036080830152612f988184612f03565b90509695505050505050565b600081519050612fb381611dc0565b92915050565b600060208284031215612fcf57612fce611c8c565b5b6000612fdd84828501612fa4565b91505092915050565b60008160e01c9050919050565b600060033d11156130125760046000803e61300f600051612fe6565b90505b90565b600060443d106130a257613027611c82565b60043d036004823e80513d602482011167ffffffffffffffff8211171561304f5750506130a2565b808201805167ffffffffffffffff81111561306d57505050506130a2565b80602083010160043d03850181111561308a5750505050506130a2565b61309982602001850186611e99565b82955050505050505b90565b7f455243313135353a207472616e7366657220746f206e6f6e204552433131353560008201527f526563656976657220696d706c656d656e746572000000000000000000000000602082015250565b6000613101603483611fe9565b915061310c826130a5565b604082019050919050565b60006020820190508181036000830152613130816130f4565b9050919050565b7f455243313135353a204552433131353552656365697665722072656a6563746560008201527f6420746f6b656e73000000000000000000000000000000000000000000000000602082015250565b6000613193602883611fe9565b915061319e82613137565b604082019050919050565b600060208201905081810360008301526131c281613186565b9050919050565b600060a0820190506131de6000830188612ed8565b6131eb6020830187612ed8565b6131f86040830186611d6a565b6132056060830185611d6a565b81810360808301526132178184612f03565b9050969550505050505056fea2646970667358221220b1e1af9a0891df42a863348a14d4f3be7bbaf6855557e658272094082928d86864736f6c634300080e003368747470733a2f2f776562617a6161722d6d6574612d6170692e6865726f6b756170702e636f6d2f313135352f64657461696c2f7b69647d68747470733a2f2f776562617a6161722d6d6574612d6170692e6865726f6b756170702e636f6d2f313135352f64657461696c2f",
  "immutableReferences": {},
  "source": "// contracts/GameItems.sol\n// SPDX-License-Identifier: MIT\npragma solidity ^0.8.14;\n\nimport \"@openzeppelin/contracts/token/ERC1155/ERC1155.sol\";\n\ncontract SimpleAccessControl {\n    address internal _owner;\n\n    modifier isOwner() {\n        require(msg.sender == _owner, \"ERR_NOT_OWNER\");\n        _;\n    }\n\n    /*\n    constructor(address payable ownerAdress) {\n        _owner = ownerAdress; \n    }\n    */\n    constructor() {\n        _owner = msg.sender;\n    }\n\n    function transferOwnership(address payable newOwner) public isOwner {\n        require(newOwner != address(0), \"ERR_ZERO_ADDR\");\n        require(newOwner != _owner, \"ERR_IS_OWNER\");\n        _owner = newOwner;\n    }\n}\n\ncontract BazaarERC1155Collection is ERC1155, SimpleAccessControl {\n    uint256 private _id = 1;\n    string public name;\n    string private _contractURI;\n\n    constructor()\n        public\n        ERC1155(\"https://webazaar-meta-api.herokuapp.com/1155/detail/{id}\")\n    {\n        _contractURI = \"https://webazaar-meta-api.herokuapp.com/1155/detail/\";\n        name = \"Bazaar ERC1155 v3\";\n        mint(5);\n        mint(10);\n    }\n\n    function mint(uint256 total) public returns (bool) {\n        require(\n            (total >= 1 && total <= 10),\n            \"NFT_MINT: GREATER THEN 1 LESS THEN 10\"\n        );\n        // _mint(msg.sender, _id++, (total) * (1 ether), \"\");\n        _mint(msg.sender, _id++, (total), \"\");\n        return true;\n    }\n\n    function setURI(string memory newuri) public isOwner returns (bool) {\n        _setURI(newuri);\n        return true;\n    }\n\n    function setContractURI(string memory newuri)\n        public\n        isOwner\n        returns (bool)\n    {\n        _contractURI = newuri;\n        return true;\n    }\n\n    function setCollectionName(string memory _name)\n        public\n        isOwner\n        returns (bool)\n    {\n        name = _name;\n        return true;\n    }\n\n    function contractURI() public view returns (string memory) {\n        return _contractURI;\n    }\n}\n",
  "sourcePath": "/Users/vitorpedroviana/project/wallid/dev/web3/web3bazaar/mainnet-contracts/contracts/BazaarERC1155Collection.sol",
  "compiler": {
    "name": "solc",
    "version": "0.8.14+commit.80d49f37.Emscripten.clang"
  },
  "schemaVersion": "3.4.8",
  "updatedAt": "2022-07-22T17:18:54.888Z",
  "devdoc": {
    "kind": "dev",
    "methods": {
      "balanceOf(address,uint256)": {
        "details": "See {IERC1155-balanceOf}. Requirements: - `account` cannot be the zero address."
      },
      "balanceOfBatch(address[],uint256[])": {
        "details": "See {IERC1155-balanceOfBatch}. Requirements: - `accounts` and `ids` must have the same length."
      },
      "isApprovedForAll(address,address)": {
        "details": "See {IERC1155-isApprovedForAll}."
      },
      "safeBatchTransferFrom(address,address,uint256[],uint256[],bytes)": {
        "details": "See {IERC1155-safeBatchTransferFrom}."
      },
      "safeTransferFrom(address,address,uint256,uint256,bytes)": {
        "details": "See {IERC1155-safeTransferFrom}."
      },
      "setApprovalForAll(address,bool)": {
        "details": "See {IERC1155-setApprovalForAll}."
      },
      "supportsInterface(bytes4)": {
        "details": "See {IERC165-supportsInterface}."
      },
      "uri(uint256)": {
        "details": "See {IERC1155MetadataURI-uri}. This implementation returns the same URI for *all* token types. It relies on the token type ID substitution mechanism https://eips.ethereum.org/EIPS/eip-1155#metadata[defined in the EIP]. Clients calling this function must replace the `\\{id\\}` substring with the actual token type ID."
      }
    },
    "version": 1
  },
  "userdoc": {
    "kind": "user",
    "methods": {},
    "version": 1
  }
}