{
  "contractName": "BazaarERC1155Collection",
  "abi": [
    {
      "inputs": [],
      "stateMutability": "nonpayable",
      "type": "constructor"
    },
    {
      "anonymous": false,
      "inputs": [
        {
          "indexed": true,
          "internalType": "address",
          "name": "account",
          "type": "address"
        },
        {
          "indexed": true,
          "internalType": "address",
          "name": "operator",
          "type": "address"
        },
        {
          "indexed": false,
          "internalType": "bool",
          "name": "approved",
          "type": "bool"
        }
      ],
      "name": "ApprovalForAll",
      "type": "event"
    },
    {
      "anonymous": false,
      "inputs": [
        {
          "indexed": true,
          "internalType": "address",
          "name": "operator",
          "type": "address"
        },
        {
          "indexed": true,
          "internalType": "address",
          "name": "from",
          "type": "address"
        },
        {
          "indexed": true,
          "internalType": "address",
          "name": "to",
          "type": "address"
        },
        {
          "indexed": false,
          "internalType": "uint256[]",
          "name": "ids",
          "type": "uint256[]"
        },
        {
          "indexed": false,
          "internalType": "uint256[]",
          "name": "values",
          "type": "uint256[]"
        }
      ],
      "name": "TransferBatch",
      "type": "event"
    },
    {
      "anonymous": false,
      "inputs": [
        {
          "indexed": true,
          "internalType": "address",
          "name": "operator",
          "type": "address"
        },
        {
          "indexed": true,
          "internalType": "address",
          "name": "from",
          "type": "address"
        },
        {
          "indexed": true,
          "internalType": "address",
          "name": "to",
          "type": "address"
        },
        {
          "indexed": false,
          "internalType": "uint256",
          "name": "id",
          "type": "uint256"
        },
        {
          "indexed": false,
          "internalType": "uint256",
          "name": "value",
          "type": "uint256"
        }
      ],
      "name": "TransferSingle",
      "type": "event"
    },
    {
      "anonymous": false,
      "inputs": [
        {
          "indexed": false,
          "internalType": "string",
          "name": "value",
          "type": "string"
        },
        {
          "indexed": true,
          "internalType": "uint256",
          "name": "id",
          "type": "uint256"
        }
      ],
      "name": "URI",
      "type": "event"
    },
    {
      "inputs": [
        {
          "internalType": "address",
          "name": "account",
          "type": "address"
        },
        {
          "internalType": "uint256",
          "name": "id",
          "type": "uint256"
        }
      ],
      "name": "balanceOf",
      "outputs": [
        {
          "internalType": "uint256",
          "name": "",
          "type": "uint256"
        }
      ],
      "stateMutability": "view",
      "type": "function"
    },
    {
      "inputs": [
        {
          "internalType": "address[]",
          "name": "accounts",
          "type": "address[]"
        },
        {
          "internalType": "uint256[]",
          "name": "ids",
          "type": "uint256[]"
        }
      ],
      "name": "balanceOfBatch",
      "outputs": [
        {
          "internalType": "uint256[]",
          "name": "",
          "type": "uint256[]"
        }
      ],
      "stateMutability": "view",
      "type": "function"
    },
    {
      "inputs": [
        {
          "internalType": "address",
          "name": "account",
          "type": "address"
        },
        {
          "internalType": "address",
          "name": "operator",
          "type": "address"
        }
      ],
      "name": "isApprovedForAll",
      "outputs": [
        {
          "internalType": "bool",
          "name": "",
          "type": "bool"
        }
      ],
      "stateMutability": "view",
      "type": "function"
    },
    {
      "inputs": [],
      "name": "name",
      "outputs": [
        {
          "internalType": "string",
          "name": "",
          "type": "string"
        }
      ],
      "stateMutability": "view",
      "type": "function"
    },
    {
      "inputs": [
        {
          "internalType": "address",
          "name": "from",
          "type": "address"
        },
        {
          "internalType": "address",
          "name": "to",
          "type": "address"
        },
        {
          "internalType": "uint256[]",
          "name": "ids",
          "type": "uint256[]"
        },
        {
          "internalType": "uint256[]",
          "name": "amounts",
          "type": "uint256[]"
        },
        {
          "internalType": "bytes",
          "name": "data",
          "type": "bytes"
        }
      ],
      "name": "safeBatchTransferFrom",
      "outputs": [],
      "stateMutability": "nonpayable",
      "type": "function"
    },
    {
      "inputs": [
        {
          "internalType": "address",
          "name": "from",
          "type": "address"
        },
        {
          "internalType": "address",
          "name": "to",
          "type": "address"
        },
        {
          "internalType": "uint256",
          "name": "id",
          "type": "uint256"
        },
        {
          "internalType": "uint256",
          "name": "amount",
          "type": "uint256"
        },
        {
          "internalType": "bytes",
          "name": "data",
          "type": "bytes"
        }
      ],
      "name": "safeTransferFrom",
      "outputs": [],
      "stateMutability": "nonpayable",
      "type": "function"
    },
    {
      "inputs": [
        {
          "internalType": "address",
          "name": "operator",
          "type": "address"
        },
        {
          "internalType": "bool",
          "name": "approved",
          "type": "bool"
        }
      ],
      "name": "setApprovalForAll",
      "outputs": [],
      "stateMutability": "nonpayable",
      "type": "function"
    },
    {
      "inputs": [
        {
          "internalType": "bytes4",
          "name": "interfaceId",
          "type": "bytes4"
        }
      ],
      "name": "supportsInterface",
      "outputs": [
        {
          "internalType": "bool",
          "name": "",
          "type": "bool"
        }
      ],
      "stateMutability": "view",
      "type": "function"
    },
    {
      "inputs": [
        {
          "internalType": "uint256",
          "name": "",
          "type": "uint256"
        }
      ],
      "name": "uri",
      "outputs": [
        {
          "internalType": "string",
          "name": "",
          "type": "string"
        }
      ],
      "stateMutability": "view",
      "type": "function"
    },
    {
      "inputs": [
        {
          "internalType": "uint256",
          "name": "total",
          "type": "uint256"
        }
      ],
      "name": "mint",
      "outputs": [
        {
          "internalType": "bool",
          "name": "",
          "type": "bool"
        }
      ],
      "stateMutability": "nonpayable",
      "type": "function"
    }
  ],
  "bytecode": "0x608060405260016003553480156200001657600080fd5b506040518060600160405280603881526020016200245f603891396200004581640100000000620000f0810204565b5060405180606001604052806034815260200162002497603491398051620000769160059160209091019062000699565b506040805180820190915260118082527f42617a61617220455243313135352076330000000000000000000000000000006020909201918252620000bd9160049162000699565b50620000d3600564010000000062000109810204565b50620000e9600a64010000000062000109810204565b5062000a3d565b80516200010590600290602084019062000699565b5050565b6000600182101580156200011e5750600a8211155b620001b0576040517f08c379a000000000000000000000000000000000000000000000000000000000815260206004820152602560248201527f4e46545f4d494e543a2047524541544552205448454e2031204c45535320544860448201527f454e20313000000000000000000000000000000000000000000000000000000060648201526084015b60405180910390fd5b60038054620001f3913391906000620001c9836200076e565b919050558460405180602001604052806000815250620001fb640100000000026401000000009004565b506001919050565b600160a060020a03841662000293576040517f08c379a000000000000000000000000000000000000000000000000000000000815260206004820152602160248201527f455243313135353a206d696e7420746f20746865207a65726f2061646472657360448201527f73000000000000000000000000000000000000000000000000000000000000006064820152608401620001a7565b6000620002a8640100000000620003b4810204565b90506000620002c085640100000000620003b8810204565b90506000620002d885640100000000620003b8810204565b9050620002f48360008985858964010000000062000406810204565b600086815260208181526040808320600160a060020a038b16845290915281208054879290620003269084906200078a565b90915550506040805187815260208101879052600160a060020a03808a1692600092918716917fc3d58168c5ae7397731d063d5bbf3d657854427343f4c083240f7aacaa2d0f62910160405180910390a4620003918360008985858964010000000062000406810204565b620003ab836000898989896401000000006200040e810204565b50505050505050565b3390565b60408051600180825281830190925260609160009190602080830190803683370190505090508281600081518110620003f557620003f5620007a5565b602090810291909101015292915050565b505050505050565b62000430600160a060020a038516640100000000620007d86200068a82021704565b1562000406576040517ff23a6e61000000000000000000000000000000000000000000000000000000008152600160a060020a0385169063f23a6e619062000485908990899088908890889060040162000824565b6020604051808303816000875af1925050508015620004c3575060408051601f3d908101601f19168201909252620004c0918101906200086b565b60015b620005b757620004d2620008b6565b806308c379a0036200052c5750620004e962000944565b80620004f657506200052e565b806040517f08c379a0000000000000000000000000000000000000000000000000000000008152600401620001a79190620009d3565b505b6040517f08c379a000000000000000000000000000000000000000000000000000000000815260206004820152603460248201527f455243313135353a207472616e7366657220746f206e6f6e204552433131353560448201527f526563656976657220696d706c656d656e7465720000000000000000000000006064820152608401620001a7565b7fffffffff0000000000000000000000000000000000000000000000000000000081167ff23a6e610000000000000000000000000000000000000000000000000000000014620003ab576040517f08c379a000000000000000000000000000000000000000000000000000000000815260206004820152602860248201527f455243313135353a204552433131353552656365697665722072656a6563746560448201527f6420746f6b656e730000000000000000000000000000000000000000000000006064820152608401620001a7565b600160a060020a03163b151590565b828054620006a790620009e8565b90600052602060002090601f016020900481019282620006cb576000855562000716565b82601f10620006e657805160ff191683800117855562000716565b8280016001018555821562000716579182015b8281111562000716578251825591602001919060010190620006f9565b506200072492915062000728565b5090565b5b8082111562000724576000815560010162000729565b7f4e487b7100000000000000000000000000000000000000000000000000000000600052601160045260246000fd5b6000600182016200078357620007836200073f565b5060010190565b60008219821115620007a057620007a06200073f565b500190565b7f4e487b7100000000000000000000000000000000000000000000000000000000600052603260045260246000fd5b6000815180845260005b81811015620007fc57602081850181015186830182015201620007de565b818111156200080f576000602083870101525b50601f01601f19169290920160200192915050565b600160a060020a03868116825285166020820152604081018490526060810183905260a0608082018190526000906200086090830184620007d4565b979650505050505050565b6000602082840312156200087e57600080fd5b81517fffffffff0000000000000000000000000000000000000000000000000000000081168114620008af57600080fd5b9392505050565b600060033d1115620008ed5760046000803e7c01000000000000000000000000000000000000000000000000000000006000510490505b90565b601f8201601f191681016001604060020a03811182821017156200093d577f4e487b7100000000000000000000000000000000000000000000000000000000600052604160045260246000fd5b6040525050565b600060443d1015620009535790565b6040516003193d81016004833e81513d6001604060020a0381602484011181841117156200098357505050505090565b82850191508151818111156200099c5750505050505090565b843d8701016020828501011115620009b75750505050505090565b620009c860208286010187620008f0565b509095945050505050565b602081526000620008af6020830184620007d4565b600281046001821680620009fd57607f821691505b60208210810362000a37577f4e487b7100000000000000000000000000000000000000000000000000000000600052602260045260246000fd5b50919050565b611a128062000a4d6000396000f3fe608060405234801561001057600080fd5b50600436106100ba576000357c0100000000000000000000000000000000000000000000000000000000900480634e1273f4116100835780634e1273f414610145578063a0712d6814610165578063a22cb46514610178578063e985e9c51461018b578063f242432a146101c757600080fd5b8062fdd58e146100bf57806301ffc9a7146100e557806306fdde03146101085780630e89341c1461011d5780632eb2c2d614610130575b600080fd5b6100d26100cd366004611260565b6101da565b6040519081526020015b60405180910390f35b6100f86100f33660046112b8565b610286565b60405190151581526020016100dc565b610110610362565b6040516100dc9190611329565b61011061012b36600461133c565b6103f0565b61014361013e3660046114b7565b610484565b005b610158610153366004611561565b610529565b6040516100dc9190611664565b6100f861017336600461133c565b61066a565b610143610186366004611677565b61072b565b6100f86101993660046116b3565b600160a060020a03918216600090815260016020908152604080832093909416825291909152205460ff1690565b6101436101d53660046116e6565b61073a565b6000600160a060020a0383166102605760405160e560020a62461bcd02815260206004820152602a60248201527f455243313135353a2061646472657373207a65726f206973206e6f742061207660448201527f616c6964206f776e65720000000000000000000000000000000000000000000060648201526084015b60405180910390fd5b50600090815260208181526040808320600160a060020a03949094168352929052205490565b60007bffffffffffffffffffffffffffffffffffffffffffffffffffffffff1982167fd9b67a2600000000000000000000000000000000000000000000000000000000148061031357507bffffffffffffffffffffffffffffffffffffffffffffffffffffffff1982167f0e89341c00000000000000000000000000000000000000000000000000000000145b8061035c57507f01ffc9a7000000000000000000000000000000000000000000000000000000007bffffffffffffffffffffffffffffffffffffffffffffffffffffffff198316145b92915050565b6004805461036f9061174b565b80601f016020809104026020016040519081016040528092919081815260200182805461039b9061174b565b80156103e85780601f106103bd576101008083540402835291602001916103e8565b820191906000526020600020905b8154815290600101906020018083116103cb57829003601f168201915b505050505081565b6060600280546103ff9061174b565b80601f016020809104026020016040519081016040528092919081815260200182805461042b9061174b565b80156104785780601f1061044d57610100808354040283529160200191610478565b820191906000526020600020905b81548152906001019060200180831161045b57829003601f168201915b50505050509050919050565b600160a060020a0385163314806104a057506104a08533610199565b6105155760405160e560020a62461bcd02815260206004820152602f60248201527f455243313135353a2063616c6c6572206973206e6f7420746f6b656e206f776e60448201527f6572206e6f7220617070726f76656400000000000000000000000000000000006064820152608401610257565b61052285858585856107e7565b5050505050565b606081518351146105a55760405160e560020a62461bcd02815260206004820152602960248201527f455243313135353a206163636f756e747320616e6420696473206c656e67746860448201527f206d69736d6174636800000000000000000000000000000000000000000000006064820152608401610257565b6000835167ffffffffffffffff8111156105c1576105c1611355565b6040519080825280602002602001820160405280156105ea578160200160208202803683370190505b50905060005b84518110156106625761063585828151811061060e5761060e61179e565b60200260200101518583815181106106285761062861179e565b60200260200101516101da565b8282815181106106475761064761179e565b602090810291909101015261065b816117fc565b90506105f0565b509392505050565b60006001821015801561067e5750600a8211155b6106f35760405160e560020a62461bcd02815260206004820152602560248201527f4e46545f4d494e543a2047524541544552205448454e2031204c45535320544860448201527f454e2031300000000000000000000000000000000000000000000000000000006064820152608401610257565b60038054610723913391906000610709836117fc565b919050558460405180602001604052806000815250610a8e565b506001919050565b610736338383610bc1565b5050565b600160a060020a03851633148061075657506107568533610199565b6107cb5760405160e560020a62461bcd02815260206004820152602f60248201527f455243313135353a2063616c6c6572206973206e6f7420746f6b656e206f776e60448201527f6572206e6f7220617070726f76656400000000000000000000000000000000006064820152608401610257565b6105228585858585610cb8565b600160a060020a03163b151590565b81518351146108615760405160e560020a62461bcd02815260206004820152602860248201527f455243313135353a2069647320616e6420616d6f756e7473206c656e6774682060448201527f6d69736d617463680000000000000000000000000000000000000000000000006064820152608401610257565b600160a060020a0384166108e05760405160e560020a62461bcd02815260206004820152602560248201527f455243313135353a207472616e7366657220746f20746865207a65726f20616460448201527f64726573730000000000000000000000000000000000000000000000000000006064820152608401610257565b3360005b8451811015610a205760008582815181106109015761090161179e565b60200260200101519050600085838151811061091f5761091f61179e565b60209081029190910181015160008481528083526040808220600160a060020a038e1683529093529190912054909150818110156109c85760405160e560020a62461bcd02815260206004820152602a60248201527f455243313135353a20696e73756666696369656e742062616c616e636520666f60448201527f72207472616e73666572000000000000000000000000000000000000000000006064820152608401610257565b600083815260208181526040808320600160a060020a038e8116855292528083208585039055908b16825281208054849290610a05908490611815565b9250508190555050505080610a19906117fc565b90506108e4565b5084600160a060020a031686600160a060020a031682600160a060020a03167f4a39dc06d4c0dbc64b70af90fd698a233a518aa5d07e595d983b8c0526c8f7fb8787604051610a7092919061182d565b60405180910390a4610a86818787878787610e94565b505050505050565b600160a060020a038416610b0d5760405160e560020a62461bcd02815260206004820152602160248201527f455243313135353a206d696e7420746f20746865207a65726f2061646472657360448201527f73000000000000000000000000000000000000000000000000000000000000006064820152608401610257565b336000610b198561109e565b90506000610b268561109e565b9050600086815260208181526040808320600160a060020a038b16845290915281208054879290610b58908490611815565b90915550506040805187815260208101879052600160a060020a03808a1692600092918716917fc3d58168c5ae7397731d063d5bbf3d657854427343f4c083240f7aacaa2d0f62910160405180910390a4610bb8836000898989896110e9565b50505050505050565b81600160a060020a031683600160a060020a031603610c4b5760405160e560020a62461bcd02815260206004820152602960248201527f455243313135353a2073657474696e6720617070726f76616c2073746174757360448201527f20666f722073656c6600000000000000000000000000000000000000000000006064820152608401610257565b600160a060020a03838116600081815260016020908152604080832094871680845294825291829020805460ff191686151590811790915591519182527f17307eab39ab6107e8899845ad3d59bd9653f200f220920489ca2b5937696c31910160405180910390a3505050565b600160a060020a038416610d375760405160e560020a62461bcd02815260206004820152602560248201527f455243313135353a207472616e7366657220746f20746865207a65726f20616460448201527f64726573730000000000000000000000000000000000000000000000000000006064820152608401610257565b336000610d438561109e565b90506000610d508561109e565b9050600086815260208181526040808320600160a060020a038c16845290915290205485811015610dec5760405160e560020a62461bcd02815260206004820152602a60248201527f455243313135353a20696e73756666696369656e742062616c616e636520666f60448201527f72207472616e73666572000000000000000000000000000000000000000000006064820152608401610257565b600087815260208181526040808320600160a060020a038d8116855292528083208985039055908a16825281208054889290610e29908490611815565b90915550506040805188815260208101889052600160a060020a03808b16928c821692918816917fc3d58168c5ae7397731d063d5bbf3d657854427343f4c083240f7aacaa2d0f62910160405180910390a4610e89848a8a8a8a8a6110e9565b505050505050505050565b600160a060020a0384163b15610a86576040517fbc197c81000000000000000000000000000000000000000000000000000000008152600160a060020a0385169063bc197c8190610ef1908990899088908890889060040161185b565b6020604051808303816000875af1925050508015610f2c575060408051601f3d908101601f19168201909252610f29918101906118b9565b60015b610fe757610f386118d6565b806308c379a003610f745750610f4c61190f565b80610f575750610f76565b8060405160e560020a62461bcd0281526004016102579190611329565b505b60405160e560020a62461bcd02815260206004820152603460248201527f455243313135353a207472616e7366657220746f206e6f6e204552433131353560448201527f526563656976657220696d706c656d656e7465720000000000000000000000006064820152608401610257565b7bffffffffffffffffffffffffffffffffffffffffffffffffffffffff1981167fbc197c810000000000000000000000000000000000000000000000000000000014610bb85760405160e560020a62461bcd02815260206004820152602860248201527f455243313135353a204552433131353552656365697665722072656a6563746560448201527f6420746f6b656e730000000000000000000000000000000000000000000000006064820152608401610257565b604080516001808252818301909252606091600091906020808301908036833701905050905082816000815181106110d8576110d861179e565b602090810291909101015292915050565b600160a060020a0384163b15610a86576040517ff23a6e61000000000000000000000000000000000000000000000000000000008152600160a060020a0385169063f23a6e61906111469089908990889088908890600401611999565b6020604051808303816000875af1925050508015611181575060408051601f3d908101601f1916820190925261117e918101906118b9565b60015b61118d57610f386118d6565b7bffffffffffffffffffffffffffffffffffffffffffffffffffffffff1981167ff23a6e610000000000000000000000000000000000000000000000000000000014610bb85760405160e560020a62461bcd02815260206004820152602860248201527f455243313135353a204552433131353552656365697665722072656a6563746560448201527f6420746f6b656e730000000000000000000000000000000000000000000000006064820152608401610257565b8035600160a060020a038116811461125b57600080fd5b919050565b6000806040838503121561127357600080fd5b61127c83611244565b946020939093013593505050565b7bffffffffffffffffffffffffffffffffffffffffffffffffffffffff19811681146112b557600080fd5b50565b6000602082840312156112ca57600080fd5b81356112d58161128a565b9392505050565b6000815180845260005b81811015611302576020818501810151868301820152016112e6565b81811115611314576000602083870101525b50601f01601f19169290920160200192915050565b6020815260006112d560208301846112dc565b60006020828403121561134e57600080fd5b5035919050565b7f4e487b7100000000000000000000000000000000000000000000000000000000600052604160045260246000fd5b601f8201601f1916810167ffffffffffffffff811182821017156113aa576113aa611355565b6040525050565b600067ffffffffffffffff8211156113cb576113cb611355565b5060209081020190565b600082601f8301126113e657600080fd5b813560206113f3826113b1565b6040516114008282611384565b838152928202850182019282810191508684111561141d57600080fd5b8286015b848110156114385780358352918301918301611421565b509695505050505050565b600082601f83011261145457600080fd5b813567ffffffffffffffff81111561146e5761146e611355565b604051611485601f8301601f191660200182611384565b81815284602083860101111561149a57600080fd5b816020850160208301376000918101602001919091529392505050565b600080600080600060a086880312156114cf57600080fd5b6114d886611244565b94506114e660208701611244565b9350604086013567ffffffffffffffff8082111561150357600080fd5b61150f89838a016113d5565b9450606088013591508082111561152557600080fd5b61153189838a016113d5565b9350608088013591508082111561154757600080fd5b5061155488828901611443565b9150509295509295909350565b6000806040838503121561157457600080fd5b823567ffffffffffffffff8082111561158c57600080fd5b818501915085601f8301126115a057600080fd5b813560206115ad826113b1565b6040516115ba8282611384565b83815292820285018201928281019150898411156115d757600080fd5b948201945b838610156115fc576115ed86611244565b825294820194908201906115dc565b9650508601359250508082111561161257600080fd5b5061161f858286016113d5565b9150509250929050565b600081518084526020808501945080840160005b838110156116595781518752958201959082019060010161163d565b509495945050505050565b6020815260006112d56020830184611629565b6000806040838503121561168a57600080fd5b61169383611244565b9150602083013580151581146116a857600080fd5b809150509250929050565b600080604083850312156116c657600080fd5b6116cf83611244565b91506116dd60208401611244565b90509250929050565b600080600080600060a086880312156116fe57600080fd5b61170786611244565b945061171560208701611244565b93506040860135925060608601359150608086013567ffffffffffffffff81111561173f57600080fd5b61155488828901611443565b60028104600182168061175f57607f821691505b602082108103611798577f4e487b7100000000000000000000000000000000000000000000000000000000600052602260045260246000fd5b50919050565b7f4e487b7100000000000000000000000000000000000000000000000000000000600052603260045260246000fd5b7f4e487b7100000000000000000000000000000000000000000000000000000000600052601160045260246000fd5b60006001820161180e5761180e6117cd565b5060010190565b60008219821115611828576118286117cd565b500190565b6040815260006118406040830185611629565b82810360208401526118528185611629565b95945050505050565b6000600160a060020a03808816835280871660208401525060a0604083015261188760a0830186611629565b82810360608401526118998186611629565b905082810360808401526118ad81856112dc565b98975050505050505050565b6000602082840312156118cb57600080fd5b81516112d58161128a565b600060033d111561190c5760046000803e7c01000000000000000000000000000000000000000000000000000000006000510490505b90565b600060443d101561191d5790565b6040516003193d81016004833e81513d67ffffffffffffffff816024840111818411171561194d57505050505090565b82850191508151818111156119655750505050505090565b843d870101602082850101111561197f5750505050505090565b61198e60208286010187611384565b509095945050505050565b6000600160a060020a03808816835280871660208401525084604083015283606083015260a060808301526119d160a08301846112dc565b97965050505050505056fea264697066735822122040d33b765b4808394f25f65891f778447b583963c6c3ca9fd2fce7c797286dd864736f6c634300080e003368747470733a2f2f776562617a6161722d6d6574612d6170692e6865726f6b756170702e636f6d2f313135352f64657461696c2f7b69647d68747470733a2f2f776562617a6161722d6d6574612d6170692e6865726f6b756170702e636f6d2f313135352f64657461696c2f",
  "immutableReferences": {},
  "source": "// contracts/GameItems.sol\n// SPDX-License-Identifier: MIT\npragma solidity ^0.8.14;\n\nimport \"@openzeppelin/contracts/token/ERC1155/ERC1155.sol\";\n\ncontract BazaarERC1155Collection is ERC1155 {\n    uint256 private _id = 1;\n    string public name;\n    string private _contractURI;\n\n    constructor()\n        public\n        ERC1155(\"https://webazaar-meta-api.herokuapp.com/1155/detail/{id}\")\n    {\n        _contractURI = \"https://webazaar-meta-api.herokuapp.com/1155/detail/\";\n        name = \"Bazaar ERC1155 v3\";\n        mint(5);\n        mint(10);\n    }\n\n    function mint(uint256 total) public returns (bool) {\n        require(\n            (total >= 1 && total <= 10),\n            \"NFT_MINT: GREATER THEN 1 LESS THEN 10\"\n        );\n        // _mint(msg.sender, _id++, (total) * (1 ether), \"\");\n        _mint(msg.sender, _id++, (total), \"\");\n        return true;\n    }\n\n    // function setURI(string memory newuri) public isOwner returns (bool) {\n    //     _setURI(newuri);\n    //     return true;\n    // }\n\n    // function setContractURI(string memory newuri)\n    //     public\n    //     isOwner\n    //     returns (bool)\n    // {\n    //     _contractURI = newuri;\n    //     return true;\n    // }\n\n    // function setCollectionName(string memory _name)\n    //     public\n    //     isOwner\n    //     returns (bool)\n    // {\n    //     name = _name;\n    //     return true;\n    // }\n\n    // function contractURI() public view returns (string memory) {\n    //     return _contractURI;\n    // }\n}\n",
  "sourcePath": "/Users/vitorpedroviana/project/wallid/dev/web3/web3bazaar/mainnet-contracts/contracts/BazaarERC1155Collection.sol",
  "compiler": {
    "name": "solc",
    "version": "0.8.14+commit.80d49f37.Emscripten.clang"
  },
  "schemaVersion": "3.4.8",
  "updatedAt": "2022-08-02T14:23:54.622Z",
  "devdoc": {
    "kind": "dev",
    "methods": {
      "balanceOf(address,uint256)": {
        "details": "See {IERC1155-balanceOf}. Requirements: - `account` cannot be the zero address."
      },
      "balanceOfBatch(address[],uint256[])": {
        "details": "See {IERC1155-balanceOfBatch}. Requirements: - `accounts` and `ids` must have the same length."
      },
      "isApprovedForAll(address,address)": {
        "details": "See {IERC1155-isApprovedForAll}."
      },
      "safeBatchTransferFrom(address,address,uint256[],uint256[],bytes)": {
        "details": "See {IERC1155-safeBatchTransferFrom}."
      },
      "safeTransferFrom(address,address,uint256,uint256,bytes)": {
        "details": "See {IERC1155-safeTransferFrom}."
      },
      "setApprovalForAll(address,bool)": {
        "details": "See {IERC1155-setApprovalForAll}."
      },
      "supportsInterface(bytes4)": {
        "details": "See {IERC165-supportsInterface}."
      },
      "uri(uint256)": {
        "details": "See {IERC1155MetadataURI-uri}. This implementation returns the same URI for *all* token types. It relies on the token type ID substitution mechanism https://eips.ethereum.org/EIPS/eip-1155#metadata[defined in the EIP]. Clients calling this function must replace the `\\{id\\}` substring with the actual token type ID."
      }
    },
    "version": 1
  },
  "userdoc": {
    "kind": "user",
    "methods": {},
    "version": 1
  }
}