{
  "contractName": "BazaarERC1155Collection",
  "abi": [
    {
      "inputs": [],
      "stateMutability": "nonpayable",
      "type": "constructor"
    },
    {
      "anonymous": false,
      "inputs": [
        {
          "indexed": true,
          "internalType": "address",
          "name": "account",
          "type": "address"
        },
        {
          "indexed": true,
          "internalType": "address",
          "name": "operator",
          "type": "address"
        },
        {
          "indexed": false,
          "internalType": "bool",
          "name": "approved",
          "type": "bool"
        }
      ],
      "name": "ApprovalForAll",
      "type": "event"
    },
    {
      "anonymous": false,
      "inputs": [
        {
          "indexed": true,
          "internalType": "address",
          "name": "operator",
          "type": "address"
        },
        {
          "indexed": true,
          "internalType": "address",
          "name": "from",
          "type": "address"
        },
        {
          "indexed": true,
          "internalType": "address",
          "name": "to",
          "type": "address"
        },
        {
          "indexed": false,
          "internalType": "uint256[]",
          "name": "ids",
          "type": "uint256[]"
        },
        {
          "indexed": false,
          "internalType": "uint256[]",
          "name": "values",
          "type": "uint256[]"
        }
      ],
      "name": "TransferBatch",
      "type": "event"
    },
    {
      "anonymous": false,
      "inputs": [
        {
          "indexed": true,
          "internalType": "address",
          "name": "operator",
          "type": "address"
        },
        {
          "indexed": true,
          "internalType": "address",
          "name": "from",
          "type": "address"
        },
        {
          "indexed": true,
          "internalType": "address",
          "name": "to",
          "type": "address"
        },
        {
          "indexed": false,
          "internalType": "uint256",
          "name": "id",
          "type": "uint256"
        },
        {
          "indexed": false,
          "internalType": "uint256",
          "name": "value",
          "type": "uint256"
        }
      ],
      "name": "TransferSingle",
      "type": "event"
    },
    {
      "anonymous": false,
      "inputs": [
        {
          "indexed": false,
          "internalType": "string",
          "name": "value",
          "type": "string"
        },
        {
          "indexed": true,
          "internalType": "uint256",
          "name": "id",
          "type": "uint256"
        }
      ],
      "name": "URI",
      "type": "event"
    },
    {
      "inputs": [
        {
          "internalType": "address",
          "name": "account",
          "type": "address"
        },
        {
          "internalType": "uint256",
          "name": "id",
          "type": "uint256"
        }
      ],
      "name": "balanceOf",
      "outputs": [
        {
          "internalType": "uint256",
          "name": "",
          "type": "uint256"
        }
      ],
      "stateMutability": "view",
      "type": "function"
    },
    {
      "inputs": [
        {
          "internalType": "address[]",
          "name": "accounts",
          "type": "address[]"
        },
        {
          "internalType": "uint256[]",
          "name": "ids",
          "type": "uint256[]"
        }
      ],
      "name": "balanceOfBatch",
      "outputs": [
        {
          "internalType": "uint256[]",
          "name": "",
          "type": "uint256[]"
        }
      ],
      "stateMutability": "view",
      "type": "function"
    },
    {
      "inputs": [
        {
          "internalType": "address",
          "name": "account",
          "type": "address"
        },
        {
          "internalType": "address",
          "name": "operator",
          "type": "address"
        }
      ],
      "name": "isApprovedForAll",
      "outputs": [
        {
          "internalType": "bool",
          "name": "",
          "type": "bool"
        }
      ],
      "stateMutability": "view",
      "type": "function"
    },
    {
      "inputs": [],
      "name": "name",
      "outputs": [
        {
          "internalType": "string",
          "name": "",
          "type": "string"
        }
      ],
      "stateMutability": "view",
      "type": "function"
    },
    {
      "inputs": [
        {
          "internalType": "address",
          "name": "from",
          "type": "address"
        },
        {
          "internalType": "address",
          "name": "to",
          "type": "address"
        },
        {
          "internalType": "uint256[]",
          "name": "ids",
          "type": "uint256[]"
        },
        {
          "internalType": "uint256[]",
          "name": "amounts",
          "type": "uint256[]"
        },
        {
          "internalType": "bytes",
          "name": "data",
          "type": "bytes"
        }
      ],
      "name": "safeBatchTransferFrom",
      "outputs": [],
      "stateMutability": "nonpayable",
      "type": "function"
    },
    {
      "inputs": [
        {
          "internalType": "address",
          "name": "from",
          "type": "address"
        },
        {
          "internalType": "address",
          "name": "to",
          "type": "address"
        },
        {
          "internalType": "uint256",
          "name": "id",
          "type": "uint256"
        },
        {
          "internalType": "uint256",
          "name": "amount",
          "type": "uint256"
        },
        {
          "internalType": "bytes",
          "name": "data",
          "type": "bytes"
        }
      ],
      "name": "safeTransferFrom",
      "outputs": [],
      "stateMutability": "nonpayable",
      "type": "function"
    },
    {
      "inputs": [
        {
          "internalType": "address",
          "name": "operator",
          "type": "address"
        },
        {
          "internalType": "bool",
          "name": "approved",
          "type": "bool"
        }
      ],
      "name": "setApprovalForAll",
      "outputs": [],
      "stateMutability": "nonpayable",
      "type": "function"
    },
    {
      "inputs": [
        {
          "internalType": "bytes4",
          "name": "interfaceId",
          "type": "bytes4"
        }
      ],
      "name": "supportsInterface",
      "outputs": [
        {
          "internalType": "bool",
          "name": "",
          "type": "bool"
        }
      ],
      "stateMutability": "view",
      "type": "function"
    },
    {
      "inputs": [
        {
          "internalType": "uint256",
          "name": "",
          "type": "uint256"
        }
      ],
      "name": "uri",
      "outputs": [
        {
          "internalType": "string",
          "name": "",
          "type": "string"
        }
      ],
      "stateMutability": "view",
      "type": "function"
    },
    {
      "inputs": [
        {
          "internalType": "uint256",
          "name": "total",
          "type": "uint256"
        }
      ],
      "name": "mint",
      "outputs": [
        {
          "internalType": "bool",
          "name": "",
          "type": "bool"
        }
      ],
      "stateMutability": "nonpayable",
      "type": "function"
    }
  ],
  "bytecode": "0x608060405260016003553480156200001657600080fd5b5060405180606001604052806038815260200162003829603891396200004281620000ef60201b60201c565b506040518060600160405280603481526020016200386160349139600590805190602001906200007492919062000642565b506040518060400160405280601181526020017f42617a616172204552433131353520763300000000000000000000000000000081525060049080519060200190620000c292919062000642565b50620000d560056200010b60201b60201c565b50620000e8600a6200010b60201b60201c565b5062000ea4565b80600290805190602001906200010792919062000642565b5050565b600060018210158015620001205750600a8211155b62000162576040517f08c379a0000000000000000000000000000000000000000000000000000000008152600401620001599062000779565b60405180910390fd5b6200019d33600360008154809291906200017c90620007d4565b919050558460405180602001604052806000815250620001a660201b60201c565b60019050919050565b600073ffffffffffffffffffffffffffffffffffffffff168473ffffffffffffffffffffffffffffffffffffffff160362000218576040517f08c379a00000000000000000000000000000000000000000000000000000000081526004016200020f9062000897565b60405180910390fd5b60006200022a6200038d60201b60201c565b905060006200023f856200039560201b60201c565b9050600062000254856200039560201b60201c565b90506200026d836000898585896200041660201b60201c565b8460008088815260200190815260200160002060008973ffffffffffffffffffffffffffffffffffffffff1673ffffffffffffffffffffffffffffffffffffffff1681526020019081526020016000206000828254620002ce9190620008b9565b925050819055508673ffffffffffffffffffffffffffffffffffffffff16600073ffffffffffffffffffffffffffffffffffffffff168473ffffffffffffffffffffffffffffffffffffffff167fc3d58168c5ae7397731d063d5bbf3d657854427343f4c083240f7aacaa2d0f6289896040516200034e92919062000927565b60405180910390a46200036d836000898585896200041e60201b60201c565b62000384836000898989896200042660201b60201c565b50505050505050565b600033905090565b60606000600167ffffffffffffffff811115620003b757620003b662000954565b5b604051908082528060200260200182016040528015620003e65781602001602082028036833780820191505090505b509050828160008151811062000401576200040062000983565b5b60200260200101818152505080915050919050565b505050505050565b505050505050565b620004528473ffffffffffffffffffffffffffffffffffffffff166200061f60201b620008921760201c565b1562000617578373ffffffffffffffffffffffffffffffffffffffff1663f23a6e6187878686866040518663ffffffff1660e01b81526004016200049b95949392919062000a9b565b6020604051808303816000875af1925050508015620004da57506040513d601f19601f82011682018060405250810190620004d7919062000b6b565b60015b6200058b57620004e962000baa565b806308c379a0036200054c57506200050062000c05565b806200050d57506200054e565b806040517f08c379a000000000000000000000000000000000000000000000000000000000815260040162000543919062000cec565b60405180910390fd5b505b6040517f08c379a0000000000000000000000000000000000000000000000000000000008152600401620005829062000d86565b60405180910390fd5b63f23a6e6160e01b7bffffffffffffffffffffffffffffffffffffffffffffffffffffffff1916817bffffffffffffffffffffffffffffffffffffffffffffffffffffffff19161462000615576040517f08c379a00000000000000000000000000000000000000000000000000000000081526004016200060c9062000e1e565b60405180910390fd5b505b505050505050565b6000808273ffffffffffffffffffffffffffffffffffffffff163b119050919050565b828054620006509062000e6f565b90600052602060002090601f016020900481019282620006745760008555620006c0565b82601f106200068f57805160ff1916838001178555620006c0565b82800160010185558215620006c0579182015b82811115620006bf578251825591602001919060010190620006a2565b5b509050620006cf9190620006d3565b5090565b5b80821115620006ee576000816000905550600101620006d4565b5090565b600082825260208201905092915050565b7f4e46545f4d494e543a2047524541544552205448454e2031204c45535320544860008201527f454e203130000000000000000000000000000000000000000000000000000000602082015250565b600062000761602583620006f2565b91506200076e8262000703565b604082019050919050565b60006020820190508181036000830152620007948162000752565b9050919050565b7f4e487b7100000000000000000000000000000000000000000000000000000000600052601160045260246000fd5b6000819050919050565b6000620007e182620007ca565b91507fffffffffffffffffffffffffffffffffffffffffffffffffffffffffffffffff82036200081657620008156200079b565b5b600182019050919050565b7f455243313135353a206d696e7420746f20746865207a65726f2061646472657360008201527f7300000000000000000000000000000000000000000000000000000000000000602082015250565b60006200087f602183620006f2565b91506200088c8262000821565b604082019050919050565b60006020820190508181036000830152620008b28162000870565b9050919050565b6000620008c682620007ca565b9150620008d383620007ca565b9250827fffffffffffffffffffffffffffffffffffffffffffffffffffffffffffffffff038211156200090b576200090a6200079b565b5b828201905092915050565b6200092181620007ca565b82525050565b60006040820190506200093e600083018562000916565b6200094d602083018462000916565b9392505050565b7f4e487b7100000000000000000000000000000000000000000000000000000000600052604160045260246000fd5b7f4e487b7100000000000000000000000000000000000000000000000000000000600052603260045260246000fd5b600073ffffffffffffffffffffffffffffffffffffffff82169050919050565b6000620009df82620009b2565b9050919050565b620009f181620009d2565b82525050565b600081519050919050565b600082825260208201905092915050565b60005b8381101562000a3357808201518184015260208101905062000a16565b8381111562000a43576000848401525b50505050565b6000601f19601f8301169050919050565b600062000a6782620009f7565b62000a73818562000a02565b935062000a8581856020860162000a13565b62000a908162000a49565b840191505092915050565b600060a08201905062000ab26000830188620009e6565b62000ac16020830187620009e6565b62000ad0604083018662000916565b62000adf606083018562000916565b818103608083015262000af3818462000a5a565b90509695505050505050565b6000604051905090565b600080fd5b60007fffffffff0000000000000000000000000000000000000000000000000000000082169050919050565b62000b458162000b0e565b811462000b5157600080fd5b50565b60008151905062000b658162000b3a565b92915050565b60006020828403121562000b845762000b8362000b09565b5b600062000b948482850162000b54565b91505092915050565b60008160e01c9050919050565b600060033d111562000bcc5760046000803e62000bc960005162000b9d565b90505b90565b62000bda8262000a49565b810181811067ffffffffffffffff8211171562000bfc5762000bfb62000954565b5b80604052505050565b600060443d1062000c9d5762000c1a62000aff565b60043d036004823e80513d602482011167ffffffffffffffff8211171562000c4457505062000c9d565b808201805167ffffffffffffffff81111562000c64575050505062000c9d565b80602083010160043d03850181111562000c8357505050505062000c9d565b62000c948260200185018662000bcf565b82955050505050505b90565b600081519050919050565b600062000cb88262000ca0565b62000cc48185620006f2565b935062000cd681856020860162000a13565b62000ce18162000a49565b840191505092915050565b6000602082019050818103600083015262000d08818462000cab565b905092915050565b7f455243313135353a207472616e7366657220746f206e6f6e204552433131353560008201527f526563656976657220696d706c656d656e746572000000000000000000000000602082015250565b600062000d6e603483620006f2565b915062000d7b8262000d10565b604082019050919050565b6000602082019050818103600083015262000da18162000d5f565b9050919050565b7f455243313135353a204552433131353552656365697665722072656a6563746560008201527f6420746f6b656e73000000000000000000000000000000000000000000000000602082015250565b600062000e06602883620006f2565b915062000e138262000da8565b604082019050919050565b6000602082019050818103600083015262000e398162000df7565b9050919050565b7f4e487b7100000000000000000000000000000000000000000000000000000000600052602260045260246000fd5b6000600282049050600182168062000e8857607f821691505b60208210810362000e9e5762000e9d62000e40565b5b50919050565b6129758062000eb46000396000f3fe608060405234801561001057600080fd5b506004361061009d5760003560e01c80634e1273f4116100665780634e1273f41461016c578063a0712d681461019c578063a22cb465146101cc578063e985e9c5146101e8578063f242432a146102185761009d565b8062fdd58e146100a257806301ffc9a7146100d257806306fdde03146101025780630e89341c146101205780632eb2c2d614610150575b600080fd5b6100bc60048036038101906100b791906116df565b610234565b6040516100c9919061172e565b60405180910390f35b6100ec60048036038101906100e791906117a1565b6102fc565b6040516100f991906117e9565b60405180910390f35b61010a6103de565b604051610117919061189d565b60405180910390f35b61013a600480360381019061013591906118bf565b61046c565b604051610147919061189d565b60405180910390f35b61016a60048036038101906101659190611ae9565b610500565b005b61018660048036038101906101819190611c7b565b6105a1565b6040516101939190611db1565b60405180910390f35b6101b660048036038101906101b191906118bf565b6106ba565b6040516101c391906117e9565b60405180910390f35b6101e660048036038101906101e19190611dff565b610747565b005b61020260048036038101906101fd9190611e3f565b61075d565b60405161020f91906117e9565b60405180910390f35b610232600480360381019061022d9190611e7f565b6107f1565b005b60008073ffffffffffffffffffffffffffffffffffffffff168373ffffffffffffffffffffffffffffffffffffffff16036102a4576040517f08c379a000000000000000000000000000000000000000000000000000000000815260040161029b90611f88565b60405180910390fd5b60008083815260200190815260200160002060008473ffffffffffffffffffffffffffffffffffffffff1673ffffffffffffffffffffffffffffffffffffffff16815260200190815260200160002054905092915050565b60007fd9b67a26000000000000000000000000000000000000000000000000000000007bffffffffffffffffffffffffffffffffffffffffffffffffffffffff1916827bffffffffffffffffffffffffffffffffffffffffffffffffffffffff191614806103c757507f0e89341c000000000000000000000000000000000000000000000000000000007bffffffffffffffffffffffffffffffffffffffffffffffffffffffff1916827bffffffffffffffffffffffffffffffffffffffffffffffffffffffff1916145b806103d757506103d6826108b5565b5b9050919050565b600480546103eb90611fd7565b80601f016020809104026020016040519081016040528092919081815260200182805461041790611fd7565b80156104645780601f1061043957610100808354040283529160200191610464565b820191906000526020600020905b81548152906001019060200180831161044757829003601f168201915b505050505081565b60606002805461047b90611fd7565b80601f01602080910402602001604051908101604052809291908181526020018280546104a790611fd7565b80156104f45780601f106104c9576101008083540402835291602001916104f4565b820191906000526020600020905b8154815290600101906020018083116104d757829003601f168201915b50505050509050919050565b61050861091f565b73ffffffffffffffffffffffffffffffffffffffff168573ffffffffffffffffffffffffffffffffffffffff16148061054e575061054d8561054861091f565b61075d565b5b61058d576040517f08c379a00000000000000000000000000000000000000000000000000000000081526004016105849061207a565b60405180910390fd5b61059a8585858585610927565b5050505050565b606081518351146105e7576040517f08c379a00000000000000000000000000000000000000000000000000000000081526004016105de9061210c565b60405180910390fd5b6000835167ffffffffffffffff811115610604576106036118f1565b5b6040519080825280602002602001820160405280156106325781602001602082028036833780820191505090505b50905060005b84518110156106af5761067f8582815181106106575761065661212c565b5b60200260200101518583815181106106725761067161212c565b5b6020026020010151610234565b8282815181106106925761069161212c565b5b602002602001018181525050806106a89061218a565b9050610638565b508091505092915050565b6000600182101580156106ce5750600a8211155b61070d576040517f08c379a000000000000000000000000000000000000000000000000000000000815260040161070490612244565b60405180910390fd5b61073e33600360008154809291906107249061218a565b919050558460405180602001604052806000815250610c48565b60019050919050565b61075961075261091f565b8383610df8565b5050565b6000600160008473ffffffffffffffffffffffffffffffffffffffff1673ffffffffffffffffffffffffffffffffffffffff16815260200190815260200160002060008373ffffffffffffffffffffffffffffffffffffffff1673ffffffffffffffffffffffffffffffffffffffff16815260200190815260200160002060009054906101000a900460ff16905092915050565b6107f961091f565b73ffffffffffffffffffffffffffffffffffffffff168573ffffffffffffffffffffffffffffffffffffffff16148061083f575061083e8561083961091f565b61075d565b5b61087e576040517f08c379a00000000000000000000000000000000000000000000000000000000081526004016108759061207a565b60405180910390fd5b61088b8585858585610f64565b5050505050565b6000808273ffffffffffffffffffffffffffffffffffffffff163b119050919050565b60007f01ffc9a7000000000000000000000000000000000000000000000000000000007bffffffffffffffffffffffffffffffffffffffffffffffffffffffff1916827bffffffffffffffffffffffffffffffffffffffffffffffffffffffff1916149050919050565b600033905090565b815183511461096b576040517f08c379a0000000000000000000000000000000000000000000000000000000008152600401610962906122d6565b60405180910390fd5b600073ffffffffffffffffffffffffffffffffffffffff168473ffffffffffffffffffffffffffffffffffffffff16036109da576040517f08c379a00000000000000000000000000000000000000000000000000000000081526004016109d190612368565b60405180910390fd5b60006109e461091f565b90506109f48187878787876111ff565b60005b8451811015610ba5576000858281518110610a1557610a1461212c565b5b602002602001015190506000858381518110610a3457610a3361212c565b5b60200260200101519050600080600084815260200190815260200160002060008b73ffffffffffffffffffffffffffffffffffffffff1673ffffffffffffffffffffffffffffffffffffffff16815260200190815260200160002054905081811015610ad5576040517f08c379a0000000000000000000000000000000000000000000000000000000008152600401610acc906123fa565b60405180910390fd5b81810360008085815260200190815260200160002060008c73ffffffffffffffffffffffffffffffffffffffff1673ffffffffffffffffffffffffffffffffffffffff168152602001908152602001600020819055508160008085815260200190815260200160002060008b73ffffffffffffffffffffffffffffffffffffffff1673ffffffffffffffffffffffffffffffffffffffff1681526020019081526020016000206000828254610b8a919061241a565b9250508190555050505080610b9e9061218a565b90506109f7565b508473ffffffffffffffffffffffffffffffffffffffff168673ffffffffffffffffffffffffffffffffffffffff168273ffffffffffffffffffffffffffffffffffffffff167f4a39dc06d4c0dbc64b70af90fd698a233a518aa5d07e595d983b8c0526c8f7fb8787604051610c1c929190612470565b60405180910390a4610c32818787878787611207565b610c4081878787878761120f565b505050505050565b600073ffffffffffffffffffffffffffffffffffffffff168473ffffffffffffffffffffffffffffffffffffffff1603610cb7576040517f08c379a0000000000000000000000000000000000000000000000000000000008152600401610cae90612519565b60405180910390fd5b6000610cc161091f565b90506000610cce856113e6565b90506000610cdb856113e6565b9050610cec836000898585896111ff565b8460008088815260200190815260200160002060008973ffffffffffffffffffffffffffffffffffffffff1673ffffffffffffffffffffffffffffffffffffffff1681526020019081526020016000206000828254610d4b919061241a565b925050819055508673ffffffffffffffffffffffffffffffffffffffff16600073ffffffffffffffffffffffffffffffffffffffff168473ffffffffffffffffffffffffffffffffffffffff167fc3d58168c5ae7397731d063d5bbf3d657854427343f4c083240f7aacaa2d0f628989604051610dc9929190612539565b60405180910390a4610de083600089858589611207565b610def83600089898989611460565b50505050505050565b8173ffffffffffffffffffffffffffffffffffffffff168373ffffffffffffffffffffffffffffffffffffffff1603610e66576040517f08c379a0000000000000000000000000000000000000000000000000000000008152600401610e5d906125d4565b60405180910390fd5b80600160008573ffffffffffffffffffffffffffffffffffffffff1673ffffffffffffffffffffffffffffffffffffffff16815260200190815260200160002060008473ffffffffffffffffffffffffffffffffffffffff1673ffffffffffffffffffffffffffffffffffffffff16815260200190815260200160002060006101000a81548160ff0219169083151502179055508173ffffffffffffffffffffffffffffffffffffffff168373ffffffffffffffffffffffffffffffffffffffff167f17307eab39ab6107e8899845ad3d59bd9653f200f220920489ca2b5937696c3183604051610f5791906117e9565b60405180910390a3505050565b600073ffffffffffffffffffffffffffffffffffffffff168473ffffffffffffffffffffffffffffffffffffffff1603610fd3576040517f08c379a0000000000000000000000000000000000000000000000000000000008152600401610fca90612368565b60405180910390fd5b6000610fdd61091f565b90506000610fea856113e6565b90506000610ff7856113e6565b90506110078389898585896111ff565b600080600088815260200190815260200160002060008a73ffffffffffffffffffffffffffffffffffffffff1673ffffffffffffffffffffffffffffffffffffffff1681526020019081526020016000205490508581101561109e576040517f08c379a0000000000000000000000000000000000000000000000000000000008152600401611095906123fa565b60405180910390fd5b85810360008089815260200190815260200160002060008b73ffffffffffffffffffffffffffffffffffffffff1673ffffffffffffffffffffffffffffffffffffffff168152602001908152602001600020819055508560008089815260200190815260200160002060008a73ffffffffffffffffffffffffffffffffffffffff1673ffffffffffffffffffffffffffffffffffffffff1681526020019081526020016000206000828254611153919061241a565b925050819055508773ffffffffffffffffffffffffffffffffffffffff168973ffffffffffffffffffffffffffffffffffffffff168573ffffffffffffffffffffffffffffffffffffffff167fc3d58168c5ae7397731d063d5bbf3d657854427343f4c083240f7aacaa2d0f628a8a6040516111d0929190612539565b60405180910390a46111e6848a8a86868a611207565b6111f4848a8a8a8a8a611460565b505050505050505050565b505050505050565b505050505050565b61122e8473ffffffffffffffffffffffffffffffffffffffff16610892565b156113de578373ffffffffffffffffffffffffffffffffffffffff1663bc197c8187878686866040518663ffffffff1660e01b8152600401611274959493929190612658565b6020604051808303816000875af19250505080156112b057506040513d601f19601f820116820180604052508101906112ad91906126d5565b60015b611355576112bc61270f565b806308c379a00361131857506112d0612731565b806112db575061131a565b806040517f08c379a000000000000000000000000000000000000000000000000000000000815260040161130f919061189d565b60405180910390fd5b505b6040517f08c379a000000000000000000000000000000000000000000000000000000000815260040161134c90612833565b60405180910390fd5b63bc197c8160e01b7bffffffffffffffffffffffffffffffffffffffffffffffffffffffff1916817bffffffffffffffffffffffffffffffffffffffffffffffffffffffff1916146113dc576040517f08c379a00000000000000000000000000000000000000000000000000000000081526004016113d3906128c5565b60405180910390fd5b505b505050505050565b60606000600167ffffffffffffffff811115611405576114046118f1565b5b6040519080825280602002602001820160405280156114335781602001602082028036833780820191505090505b509050828160008151811061144b5761144a61212c565b5b60200260200101818152505080915050919050565b61147f8473ffffffffffffffffffffffffffffffffffffffff16610892565b1561162f578373ffffffffffffffffffffffffffffffffffffffff1663f23a6e6187878686866040518663ffffffff1660e01b81526004016114c59594939291906128e5565b6020604051808303816000875af192505050801561150157506040513d601f19601f820116820180604052508101906114fe91906126d5565b60015b6115a65761150d61270f565b806308c379a0036115695750611521612731565b8061152c575061156b565b806040517f08c379a0000000000000000000000000000000000000000000000000000000008152600401611560919061189d565b60405180910390fd5b505b6040517f08c379a000000000000000000000000000000000000000000000000000000000815260040161159d90612833565b60405180910390fd5b63f23a6e6160e01b7bffffffffffffffffffffffffffffffffffffffffffffffffffffffff1916817bffffffffffffffffffffffffffffffffffffffffffffffffffffffff19161461162d576040517f08c379a0000000000000000000000000000000000000000000000000000000008152600401611624906128c5565b60405180910390fd5b505b505050505050565b6000604051905090565b600080fd5b600080fd5b600073ffffffffffffffffffffffffffffffffffffffff82169050919050565b60006116768261164b565b9050919050565b6116868161166b565b811461169157600080fd5b50565b6000813590506116a38161167d565b92915050565b6000819050919050565b6116bc816116a9565b81146116c757600080fd5b50565b6000813590506116d9816116b3565b92915050565b600080604083850312156116f6576116f5611641565b5b600061170485828601611694565b9250506020611715858286016116ca565b9150509250929050565b611728816116a9565b82525050565b6000602082019050611743600083018461171f565b92915050565b60007fffffffff0000000000000000000000000000000000000000000000000000000082169050919050565b61177e81611749565b811461178957600080fd5b50565b60008135905061179b81611775565b92915050565b6000602082840312156117b7576117b6611641565b5b60006117c58482850161178c565b91505092915050565b60008115159050919050565b6117e3816117ce565b82525050565b60006020820190506117fe60008301846117da565b92915050565b600081519050919050565b600082825260208201905092915050565b60005b8381101561183e578082015181840152602081019050611823565b8381111561184d576000848401525b50505050565b6000601f19601f8301169050919050565b600061186f82611804565b611879818561180f565b9350611889818560208601611820565b61189281611853565b840191505092915050565b600060208201905081810360008301526118b78184611864565b905092915050565b6000602082840312156118d5576118d4611641565b5b60006118e3848285016116ca565b91505092915050565b600080fd5b7f4e487b7100000000000000000000000000000000000000000000000000000000600052604160045260246000fd5b61192982611853565b810181811067ffffffffffffffff82111715611948576119476118f1565b5b80604052505050565b600061195b611637565b90506119678282611920565b919050565b600067ffffffffffffffff821115611987576119866118f1565b5b602082029050602081019050919050565b600080fd5b60006119b06119ab8461196c565b611951565b905080838252602082019050602084028301858111156119d3576119d2611998565b5b835b818110156119fc57806119e888826116ca565b8452602084019350506020810190506119d5565b5050509392505050565b600082601f830112611a1b57611a1a6118ec565b5b8135611a2b84826020860161199d565b91505092915050565b600080fd5b600067ffffffffffffffff821115611a5457611a536118f1565b5b611a5d82611853565b9050602081019050919050565b82818337600083830152505050565b6000611a8c611a8784611a39565b611951565b905082815260208101848484011115611aa857611aa7611a34565b5b611ab3848285611a6a565b509392505050565b600082601f830112611ad057611acf6118ec565b5b8135611ae0848260208601611a79565b91505092915050565b600080600080600060a08688031215611b0557611b04611641565b5b6000611b1388828901611694565b9550506020611b2488828901611694565b945050604086013567ffffffffffffffff811115611b4557611b44611646565b5b611b5188828901611a06565b935050606086013567ffffffffffffffff811115611b7257611b71611646565b5b611b7e88828901611a06565b925050608086013567ffffffffffffffff811115611b9f57611b9e611646565b5b611bab88828901611abb565b9150509295509295909350565b600067ffffffffffffffff821115611bd357611bd26118f1565b5b602082029050602081019050919050565b6000611bf7611bf284611bb8565b611951565b90508083825260208201905060208402830185811115611c1a57611c19611998565b5b835b81811015611c435780611c2f8882611694565b845260208401935050602081019050611c1c565b5050509392505050565b600082601f830112611c6257611c616118ec565b5b8135611c72848260208601611be4565b91505092915050565b60008060408385031215611c9257611c91611641565b5b600083013567ffffffffffffffff811115611cb057611caf611646565b5b611cbc85828601611c4d565b925050602083013567ffffffffffffffff811115611cdd57611cdc611646565b5b611ce985828601611a06565b9150509250929050565b600081519050919050565b600082825260208201905092915050565b6000819050602082019050919050565b611d28816116a9565b82525050565b6000611d3a8383611d1f565b60208301905092915050565b6000602082019050919050565b6000611d5e82611cf3565b611d688185611cfe565b9350611d7383611d0f565b8060005b83811015611da4578151611d8b8882611d2e565b9750611d9683611d46565b925050600181019050611d77565b5085935050505092915050565b60006020820190508181036000830152611dcb8184611d53565b905092915050565b611ddc816117ce565b8114611de757600080fd5b50565b600081359050611df981611dd3565b92915050565b60008060408385031215611e1657611e15611641565b5b6000611e2485828601611694565b9250506020611e3585828601611dea565b9150509250929050565b60008060408385031215611e5657611e55611641565b5b6000611e6485828601611694565b9250506020611e7585828601611694565b9150509250929050565b600080600080600060a08688031215611e9b57611e9a611641565b5b6000611ea988828901611694565b9550506020611eba88828901611694565b9450506040611ecb888289016116ca565b9350506060611edc888289016116ca565b925050608086013567ffffffffffffffff811115611efd57611efc611646565b5b611f0988828901611abb565b9150509295509295909350565b7f455243313135353a2061646472657373207a65726f206973206e6f742061207660008201527f616c6964206f776e657200000000000000000000000000000000000000000000602082015250565b6000611f72602a8361180f565b9150611f7d82611f16565b604082019050919050565b60006020820190508181036000830152611fa181611f65565b9050919050565b7f4e487b7100000000000000000000000000000000000000000000000000000000600052602260045260246000fd5b60006002820490506001821680611fef57607f821691505b60208210810361200257612001611fa8565b5b50919050565b7f455243313135353a2063616c6c6572206973206e6f7420746f6b656e206f776e60008201527f6572206e6f7220617070726f7665640000000000000000000000000000000000602082015250565b6000612064602f8361180f565b915061206f82612008565b604082019050919050565b6000602082019050818103600083015261209381612057565b9050919050565b7f455243313135353a206163636f756e747320616e6420696473206c656e67746860008201527f206d69736d617463680000000000000000000000000000000000000000000000602082015250565b60006120f660298361180f565b91506121018261209a565b604082019050919050565b60006020820190508181036000830152612125816120e9565b9050919050565b7f4e487b7100000000000000000000000000000000000000000000000000000000600052603260045260246000fd5b7f4e487b7100000000000000000000000000000000000000000000000000000000600052601160045260246000fd5b6000612195826116a9565b91507fffffffffffffffffffffffffffffffffffffffffffffffffffffffffffffffff82036121c7576121c661215b565b5b600182019050919050565b7f4e46545f4d494e543a2047524541544552205448454e2031204c45535320544860008201527f454e203130000000000000000000000000000000000000000000000000000000602082015250565b600061222e60258361180f565b9150612239826121d2565b604082019050919050565b6000602082019050818103600083015261225d81612221565b9050919050565b7f455243313135353a2069647320616e6420616d6f756e7473206c656e6774682060008201527f6d69736d61746368000000000000000000000000000000000000000000000000602082015250565b60006122c060288361180f565b91506122cb82612264565b604082019050919050565b600060208201905081810360008301526122ef816122b3565b9050919050565b7f455243313135353a207472616e7366657220746f20746865207a65726f20616460008201527f6472657373000000000000000000000000000000000000000000000000000000602082015250565b600061235260258361180f565b915061235d826122f6565b604082019050919050565b6000602082019050818103600083015261238181612345565b9050919050565b7f455243313135353a20696e73756666696369656e742062616c616e636520666f60008201527f72207472616e7366657200000000000000000000000000000000000000000000602082015250565b60006123e4602a8361180f565b91506123ef82612388565b604082019050919050565b60006020820190508181036000830152612413816123d7565b9050919050565b6000612425826116a9565b9150612430836116a9565b9250827fffffffffffffffffffffffffffffffffffffffffffffffffffffffffffffffff038211156124655761246461215b565b5b828201905092915050565b6000604082019050818103600083015261248a8185611d53565b9050818103602083015261249e8184611d53565b90509392505050565b7f455243313135353a206d696e7420746f20746865207a65726f2061646472657360008201527f7300000000000000000000000000000000000000000000000000000000000000602082015250565b600061250360218361180f565b915061250e826124a7565b604082019050919050565b60006020820190508181036000830152612532816124f6565b9050919050565b600060408201905061254e600083018561171f565b61255b602083018461171f565b9392505050565b7f455243313135353a2073657474696e6720617070726f76616c2073746174757360008201527f20666f722073656c660000000000000000000000000000000000000000000000602082015250565b60006125be60298361180f565b91506125c982612562565b604082019050919050565b600060208201905081810360008301526125ed816125b1565b9050919050565b6125fd8161166b565b82525050565b600081519050919050565b600082825260208201905092915050565b600061262a82612603565b612634818561260e565b9350612644818560208601611820565b61264d81611853565b840191505092915050565b600060a08201905061266d60008301886125f4565b61267a60208301876125f4565b818103604083015261268c8186611d53565b905081810360608301526126a08185611d53565b905081810360808301526126b4818461261f565b90509695505050505050565b6000815190506126cf81611775565b92915050565b6000602082840312156126eb576126ea611641565b5b60006126f9848285016126c0565b91505092915050565b60008160e01c9050919050565b600060033d111561272e5760046000803e61272b600051612702565b90505b90565b600060443d106127be57612743611637565b60043d036004823e80513d602482011167ffffffffffffffff8211171561276b5750506127be565b808201805167ffffffffffffffff81111561278957505050506127be565b80602083010160043d0385018111156127a65750505050506127be565b6127b582602001850186611920565b82955050505050505b90565b7f455243313135353a207472616e7366657220746f206e6f6e204552433131353560008201527f526563656976657220696d706c656d656e746572000000000000000000000000602082015250565b600061281d60348361180f565b9150612828826127c1565b604082019050919050565b6000602082019050818103600083015261284c81612810565b9050919050565b7f455243313135353a204552433131353552656365697665722072656a6563746560008201527f6420746f6b656e73000000000000000000000000000000000000000000000000602082015250565b60006128af60288361180f565b91506128ba82612853565b604082019050919050565b600060208201905081810360008301526128de816128a2565b9050919050565b600060a0820190506128fa60008301886125f4565b61290760208301876125f4565b612914604083018661171f565b612921606083018561171f565b8181036080830152612933818461261f565b9050969550505050505056fea26469706673582212204e6d5e6922e97936ff3c57054c834b3912524c237ee04321a5745f8ab79c948364736f6c634300080e003368747470733a2f2f776562617a6161722d6d6574612d6170692e6865726f6b756170702e636f6d2f313135352f64657461696c2f7b69647d68747470733a2f2f776562617a6161722d6d6574612d6170692e6865726f6b756170702e636f6d2f313135352f64657461696c2f",
  "immutableReferences": {},
  "source": "// contracts/GameItems.sol\n// SPDX-License-Identifier: MIT\npragma solidity ^0.8.14;\n\nimport \"@openzeppelin/contracts/token/ERC1155/ERC1155.sol\";\n\ncontract BazaarERC1155Collection is ERC1155 {\n    uint256 private _id = 1;\n    string public name;\n    string private _contractURI;\n\n    constructor()\n        public\n        ERC1155(\"https://webazaar-meta-api.herokuapp.com/1155/detail/{id}\")\n    {\n        _contractURI = \"https://webazaar-meta-api.herokuapp.com/1155/detail/\";\n        name = \"Bazaar ERC1155 v3\";\n        mint(5);\n        mint(10);\n    }\n\n    function mint(uint256 total) public returns (bool) {\n        require(\n            (total >= 1 && total <= 10),\n            \"NFT_MINT: GREATER THEN 1 LESS THEN 10\"\n        );\n        // _mint(msg.sender, _id++, (total) * (1 ether), \"\");\n        _mint(msg.sender, _id++, (total), \"\");\n        return true;\n    }\n\n    // function setURI(string memory newuri) public isOwner returns (bool) {\n    //     _setURI(newuri);\n    //     return true;\n    // }\n\n    // function setContractURI(string memory newuri)\n    //     public\n    //     isOwner\n    //     returns (bool)\n    // {\n    //     _contractURI = newuri;\n    //     return true;\n    // }\n\n    // function setCollectionName(string memory _name)\n    //     public\n    //     isOwner\n    //     returns (bool)\n    // {\n    //     name = _name;\n    //     return true;\n    // }\n\n    // function contractURI() public view returns (string memory) {\n    //     return _contractURI;\n    // }\n}\n",
  "sourcePath": "/Users/vitorpedroviana/project/wallid/dev/web3/web3bazaar/mainnet-contracts/contracts/BazaarERC1155Collection.sol",
  "compiler": {
    "name": "solc",
    "version": "0.8.14+commit.80d49f37.Emscripten.clang"
  },
  "schemaVersion": "3.4.8",
  "updatedAt": "2022-07-25T01:10:49.255Z",
  "devdoc": {
    "kind": "dev",
    "methods": {
      "balanceOf(address,uint256)": {
        "details": "See {IERC1155-balanceOf}. Requirements: - `account` cannot be the zero address."
      },
      "balanceOfBatch(address[],uint256[])": {
        "details": "See {IERC1155-balanceOfBatch}. Requirements: - `accounts` and `ids` must have the same length."
      },
      "isApprovedForAll(address,address)": {
        "details": "See {IERC1155-isApprovedForAll}."
      },
      "safeBatchTransferFrom(address,address,uint256[],uint256[],bytes)": {
        "details": "See {IERC1155-safeBatchTransferFrom}."
      },
      "safeTransferFrom(address,address,uint256,uint256,bytes)": {
        "details": "See {IERC1155-safeTransferFrom}."
      },
      "setApprovalForAll(address,bool)": {
        "details": "See {IERC1155-setApprovalForAll}."
      },
      "supportsInterface(bytes4)": {
        "details": "See {IERC165-supportsInterface}."
      },
      "uri(uint256)": {
        "details": "See {IERC1155MetadataURI-uri}. This implementation returns the same URI for *all* token types. It relies on the token type ID substitution mechanism https://eips.ethereum.org/EIPS/eip-1155#metadata[defined in the EIP]. Clients calling this function must replace the `\\{id\\}` substring with the actual token type ID."
      }
    },
    "version": 1
  },
  "userdoc": {
    "kind": "user",
    "methods": {},
    "version": 1
  }
}