{
  "contractName": "BazaarRaffleTicket",
  "abi": [
    {
      "inputs": [],
      "stateMutability": "nonpayable",
      "type": "constructor"
    },
    {
      "anonymous": false,
      "inputs": [
        {
          "indexed": true,
          "internalType": "address",
          "name": "owner",
          "type": "address"
        },
        {
          "indexed": true,
          "internalType": "address",
          "name": "approved",
          "type": "address"
        },
        {
          "indexed": true,
          "internalType": "uint256",
          "name": "tokenId",
          "type": "uint256"
        }
      ],
      "name": "Approval",
      "type": "event"
    },
    {
      "anonymous": false,
      "inputs": [
        {
          "indexed": true,
          "internalType": "address",
          "name": "owner",
          "type": "address"
        },
        {
          "indexed": true,
          "internalType": "address",
          "name": "operator",
          "type": "address"
        },
        {
          "indexed": false,
          "internalType": "bool",
          "name": "approved",
          "type": "bool"
        }
      ],
      "name": "ApprovalForAll",
      "type": "event"
    },
    {
      "anonymous": false,
      "inputs": [
        {
          "indexed": true,
          "internalType": "address",
          "name": "from",
          "type": "address"
        },
        {
          "indexed": true,
          "internalType": "address",
          "name": "to",
          "type": "address"
        },
        {
          "indexed": true,
          "internalType": "uint256",
          "name": "tokenId",
          "type": "uint256"
        }
      ],
      "name": "Transfer",
      "type": "event"
    },
    {
      "inputs": [],
      "name": "BRONZE_PRICE",
      "outputs": [
        {
          "internalType": "uint256",
          "name": "",
          "type": "uint256"
        }
      ],
      "stateMutability": "view",
      "type": "function"
    },
    {
      "inputs": [],
      "name": "GOLD_PRICE",
      "outputs": [
        {
          "internalType": "uint256",
          "name": "",
          "type": "uint256"
        }
      ],
      "stateMutability": "view",
      "type": "function"
    },
    {
      "inputs": [],
      "name": "MAX_SUPPLY",
      "outputs": [
        {
          "internalType": "uint256",
          "name": "",
          "type": "uint256"
        }
      ],
      "stateMutability": "view",
      "type": "function"
    },
    {
      "inputs": [],
      "name": "SILVER_PRICE",
      "outputs": [
        {
          "internalType": "uint256",
          "name": "",
          "type": "uint256"
        }
      ],
      "stateMutability": "view",
      "type": "function"
    },
    {
      "inputs": [],
      "name": "_bazaarContract",
      "outputs": [
        {
          "internalType": "address",
          "name": "",
          "type": "address"
        }
      ],
      "stateMutability": "view",
      "type": "function"
    },
    {
      "inputs": [],
      "name": "_projectTokenAddress",
      "outputs": [
        {
          "internalType": "address",
          "name": "",
          "type": "address"
        }
      ],
      "stateMutability": "view",
      "type": "function"
    },
    {
      "inputs": [
        {
          "internalType": "address payable",
          "name": "newOwner",
          "type": "address"
        }
      ],
      "name": "addOwnership",
      "outputs": [],
      "stateMutability": "nonpayable",
      "type": "function"
    },
    {
      "inputs": [
        {
          "internalType": "address",
          "name": "to",
          "type": "address"
        },
        {
          "internalType": "uint256",
          "name": "tokenId",
          "type": "uint256"
        }
      ],
      "name": "approve",
      "outputs": [],
      "stateMutability": "nonpayable",
      "type": "function"
    },
    {
      "inputs": [
        {
          "internalType": "address",
          "name": "owner",
          "type": "address"
        }
      ],
      "name": "balanceOf",
      "outputs": [
        {
          "internalType": "uint256",
          "name": "",
          "type": "uint256"
        }
      ],
      "stateMutability": "view",
      "type": "function"
    },
    {
      "inputs": [
        {
          "internalType": "uint256",
          "name": "tokenId",
          "type": "uint256"
        }
      ],
      "name": "getApproved",
      "outputs": [
        {
          "internalType": "address",
          "name": "",
          "type": "address"
        }
      ],
      "stateMutability": "view",
      "type": "function"
    },
    {
      "inputs": [
        {
          "internalType": "address",
          "name": "owner",
          "type": "address"
        },
        {
          "internalType": "address",
          "name": "operator",
          "type": "address"
        }
      ],
      "name": "isApprovedForAll",
      "outputs": [
        {
          "internalType": "bool",
          "name": "",
          "type": "bool"
        }
      ],
      "stateMutability": "view",
      "type": "function"
    },
    {
      "inputs": [],
      "name": "name",
      "outputs": [
        {
          "internalType": "string",
          "name": "",
          "type": "string"
        }
      ],
      "stateMutability": "view",
      "type": "function"
    },
    {
      "inputs": [
        {
          "internalType": "address",
          "name": "",
          "type": "address"
        },
        {
          "internalType": "address",
          "name": "",
          "type": "address"
        },
        {
          "internalType": "uint256",
          "name": "",
          "type": "uint256"
        },
        {
          "internalType": "bytes",
          "name": "",
          "type": "bytes"
        }
      ],
      "name": "onERC721Received",
      "outputs": [
        {
          "internalType": "bytes4",
          "name": "",
          "type": "bytes4"
        }
      ],
      "stateMutability": "nonpayable",
      "type": "function"
    },
    {
      "inputs": [
        {
          "internalType": "uint256",
          "name": "tokenId",
          "type": "uint256"
        }
      ],
      "name": "ownerOf",
      "outputs": [
        {
          "internalType": "address",
          "name": "",
          "type": "address"
        }
      ],
      "stateMutability": "view",
      "type": "function"
    },
    {
      "inputs": [
        {
          "internalType": "address payable",
          "name": "existingOwner",
          "type": "address"
        }
      ],
      "name": "removeOwnership",
      "outputs": [],
      "stateMutability": "nonpayable",
      "type": "function"
    },
    {
      "inputs": [
        {
          "internalType": "address",
          "name": "from",
          "type": "address"
        },
        {
          "internalType": "address",
          "name": "to",
          "type": "address"
        },
        {
          "internalType": "uint256",
          "name": "tokenId",
          "type": "uint256"
        }
      ],
      "name": "safeTransferFrom",
      "outputs": [],
      "stateMutability": "nonpayable",
      "type": "function"
    },
    {
      "inputs": [
        {
          "internalType": "address",
          "name": "from",
          "type": "address"
        },
        {
          "internalType": "address",
          "name": "to",
          "type": "address"
        },
        {
          "internalType": "uint256",
          "name": "tokenId",
          "type": "uint256"
        },
        {
          "internalType": "bytes",
          "name": "data",
          "type": "bytes"
        }
      ],
      "name": "safeTransferFrom",
      "outputs": [],
      "stateMutability": "nonpayable",
      "type": "function"
    },
    {
      "inputs": [
        {
          "internalType": "address",
          "name": "operator",
          "type": "address"
        },
        {
          "internalType": "bool",
          "name": "approved",
          "type": "bool"
        }
      ],
      "name": "setApprovalForAll",
      "outputs": [],
      "stateMutability": "nonpayable",
      "type": "function"
    },
    {
      "inputs": [
        {
          "internalType": "bytes4",
          "name": "interfaceId",
          "type": "bytes4"
        }
      ],
      "name": "supportsInterface",
      "outputs": [
        {
          "internalType": "bool",
          "name": "",
          "type": "bool"
        }
      ],
      "stateMutability": "view",
      "type": "function"
    },
    {
      "inputs": [],
      "name": "symbol",
      "outputs": [
        {
          "internalType": "string",
          "name": "",
          "type": "string"
        }
      ],
      "stateMutability": "view",
      "type": "function"
    },
    {
      "inputs": [
        {
          "internalType": "uint256",
          "name": "tokenId",
          "type": "uint256"
        }
      ],
      "name": "tokenURI",
      "outputs": [
        {
          "internalType": "string",
          "name": "",
          "type": "string"
        }
      ],
      "stateMutability": "view",
      "type": "function"
    },
    {
      "inputs": [
        {
          "internalType": "address",
          "name": "from",
          "type": "address"
        },
        {
          "internalType": "address",
          "name": "to",
          "type": "address"
        },
        {
          "internalType": "uint256",
          "name": "tokenId",
          "type": "uint256"
        }
      ],
      "name": "transferFrom",
      "outputs": [],
      "stateMutability": "nonpayable",
      "type": "function"
    },
    {
      "inputs": [
        {
          "internalType": "uint8",
          "name": "raffleType",
          "type": "uint8"
        },
        {
          "internalType": "uint8",
          "name": "quantity",
          "type": "uint8"
        }
      ],
      "name": "mint",
      "outputs": [
        {
          "internalType": "uint256",
          "name": "",
          "type": "uint256"
        }
      ],
      "stateMutability": "nonpayable",
      "type": "function"
    },
    {
      "inputs": [
        {
          "internalType": "address",
          "name": "erc721Address",
          "type": "address"
        },
        {
          "internalType": "address",
          "name": "to",
          "type": "address"
        },
        {
          "internalType": "bool",
          "name": "approved",
          "type": "bool"
        }
      ],
      "name": "approveERC721",
      "outputs": [],
      "stateMutability": "nonpayable",
      "type": "function"
    },
    {
      "inputs": [
        {
          "internalType": "uint8",
          "name": "raffleType",
          "type": "uint8"
        },
        {
          "internalType": "uint256",
          "name": "newPrice",
          "type": "uint256"
        }
      ],
      "name": "setPriceByType",
      "outputs": [
        {
          "internalType": "bool",
          "name": "",
          "type": "bool"
        }
      ],
      "stateMutability": "nonpayable",
      "type": "function"
    },
    {
      "inputs": [
        {
          "internalType": "address",
          "name": "erc721Address",
          "type": "address"
        },
        {
          "internalType": "address",
          "name": "from",
          "type": "address"
        },
        {
          "internalType": "address",
          "name": "to",
          "type": "address"
        },
        {
          "internalType": "uint256",
          "name": "tokenId",
          "type": "uint256"
        }
      ],
      "name": "transferERC721",
      "outputs": [],
      "stateMutability": "nonpayable",
      "type": "function"
    },
    {
      "inputs": [
        {
          "internalType": "address",
          "name": "projectToken",
          "type": "address"
        }
      ],
      "name": "setTokenAddress",
      "outputs": [],
      "stateMutability": "nonpayable",
      "type": "function"
    },
    {
      "inputs": [
        {
          "internalType": "address",
          "name": "newAddress",
          "type": "address"
        }
      ],
      "name": "setWeb3BazaarContract",
      "outputs": [],
      "stateMutability": "nonpayable",
      "type": "function"
    },
    {
      "inputs": [
        {
          "internalType": "string",
          "name": "baseURI_",
          "type": "string"
        }
      ],
      "name": "setBaseURI",
      "outputs": [],
      "stateMutability": "nonpayable",
      "type": "function"
    },
    {
      "inputs": [
        {
          "internalType": "string",
          "name": "newuri",
          "type": "string"
        }
      ],
      "name": "setContractURI",
      "outputs": [
        {
          "internalType": "bool",
          "name": "",
          "type": "bool"
        }
      ],
      "stateMutability": "nonpayable",
      "type": "function"
    },
    {
      "inputs": [],
      "name": "baseURI",
      "outputs": [
        {
          "internalType": "string",
          "name": "",
          "type": "string"
        }
      ],
      "stateMutability": "view",
      "type": "function"
    },
    {
      "inputs": [],
      "name": "contractURI",
      "outputs": [
        {
          "internalType": "string",
          "name": "",
          "type": "string"
        }
      ],
      "stateMutability": "view",
      "type": "function"
    },
    {
      "inputs": [],
      "name": "getId",
      "outputs": [
        {
          "internalType": "uint256",
          "name": "",
          "type": "uint256"
        }
      ],
      "stateMutability": "view",
      "type": "function"
    },
    {
      "inputs": [
        {
          "internalType": "address",
          "name": "tokenAddress",
          "type": "address"
        },
        {
          "internalType": "address",
          "name": "spender",
          "type": "address"
        },
        {
          "internalType": "uint256",
          "name": "amount",
          "type": "uint256"
        }
      ],
      "name": "approveERC20",
      "outputs": [],
      "stateMutability": "nonpayable",
      "type": "function"
    },
    {
      "inputs": [
        {
          "internalType": "uint256",
          "name": "tokenId",
          "type": "uint256"
        }
      ],
      "name": "burnOwn",
      "outputs": [],
      "stateMutability": "nonpayable",
      "type": "function"
    },
    {
      "inputs": [
        {
          "internalType": "address",
          "name": "tokenAddress",
          "type": "address"
        },
        {
          "internalType": "uint256",
          "name": "amount",
          "type": "uint256"
        }
      ],
      "name": "transferERC20",
      "outputs": [],
      "stateMutability": "nonpayable",
      "type": "function"
    }
  ],
  "bytecode": "0x6080604052600b805460a060020a62ffffff0219167614080100000000000000000000000000000000000000001790556714d1120d7b160000600c55674563918244f40000600d55678ac7230489e80000600e553480156200006057600080fd5b50604051806060016040528060278152602001620032e860279139604051806060016040528060278152602001620032e8602791398151620000aa90600090602085019062000195565b508051620000c090600190602084019062000195565b505033600090815260066020908152604091829020805460ff1916600190811790915560075581516080810190925260578083529192506200323d908301398051620001159160099160209091019062000195565b5060405180608001604052806054815260200162003294605491398051620001469160089160209091019062000195565b50600a8054600160a060020a03199081167389a84dc58aba7909818c471b2ebfbc94e6c96c4117909155600b8054909116730a50b369f107aef88e83b79f8e437eb623ac4a0a17905562000290565b828054620001a3906200023b565b90600052602060002090601f016020900481019282620001c7576000855562000212565b82601f10620001e257805160ff191683800117855562000212565b8280016001018555821562000212579182015b8281111562000212578251825591602001919060010190620001f5565b506200022092915062000224565b5090565b5b8082111562000220576000815560010162000225565b6002810460018216806200025057607f821691505b6020821081036200028a577f4e487b7100000000000000000000000000000000000000000000000000000000600052602260045260246000fd5b50919050565b612f9d80620002a06000396000f3fe608060405234801561001057600080fd5b5060043610610239576000357c010000000000000000000000000000000000000000000000000000000090048063789f93f611610142578063c3906f34116100ca578063e8a3d48511610099578063e8a3d485146104b0578063e985e9c5146104b8578063f04ddd7a146104f4578063f5a55ff614610507578063f7448a311461051a57600080fd5b8063c3906f3414610464578063c87b56dd14610477578063d88c869b1461048a578063de34bac21461049d57600080fd5b8063a22cb46511610111578063a22cb4651461040f578063a8e5e4aa14610422578063b6331be514610435578063b88d4fde14610448578063c0fbed021461045b57600080fd5b8063789f93f6146103d85780638281b3ac146103eb578063938e3d7b146103f457806395d89b411461040757600080fd5b806332cb6b0c116101c55780635dbc6d6c116101945780635dbc6d6c1461038e5780636352211e14610397578063666a3427146103aa5780636c0360eb146103bd57806370a08231146103c557600080fd5b806332cb6b0c1461035657806342842e0e1461036057806355f804b3146103735780635d1ca6311461038657600080fd5b806313e6c38a1161020c57806313e6c38a146102bb578063150b7a02146102ce57806323b872dd1461030f57806326a4e8d21461032257806329a0eee81461033557600080fd5b806301ffc9a71461023e57806306fdde0314610266578063081812fc1461027b578063095ea7b3146102a6575b600080fd5b61025161024c36600461274f565b61052d565b60405190151581526020015b60405180910390f35b61026e610609565b60405161025d91906127c4565b61028e6102893660046127d7565b61069b565b604051600160a060020a03909116815260200161025d565b6102b96102b4366004612805565b6106c2565b005b6102b96102c9366004612831565b6107fe565b6102e16102dc3660046128f3565b610882565b6040517bffffffffffffffffffffffffffffffffffffffffffffffffffffffff19909116815260200161025d565b6102b961031d366004612973565b6108ac565b6102b9610330366004612831565b610936565b6103486103433660046129c5565b6109ba565b60405190815260200161025d565b610348620186a081565b6102b961036e366004612973565b611136565b6102b96103813660046129f8565b611151565b600754610348565b610348600d5481565b61028e6103a53660046127d7565b6111bd565b6102b96103b8366004612831565b611225565b61026e61130b565b6103486103d3366004612831565b61131a565b6102b96103e6366004612a41565b6113b7565b610348600e5481565b6102516104023660046129f8565b6114a3565b61026e611516565b6102b961041d366004612aa0565b611525565b6102b9610430366004612973565b611530565b6102b96104433660046127d7565b611617565b6102b96104563660046128f3565b611678565b610348600c5481565b610251610472366004612ad9565b611703565b61026e6104853660046127d7565b6117f6565b6102b9610498366004612af5565b61185d565b600b5461028e90600160a060020a031681565b61026e611933565b6102516104c6366004612b40565b600160a060020a03918216600090815260056020908152604080832093909416825291909152205460ff1690565b600a5461028e90600160a060020a031681565b6102b9610515366004612831565b611942565b6102b9610528366004612805565b611a14565b60007bffffffffffffffffffffffffffffffffffffffffffffffffffffffff1982167f80ac58cd0000000000000000000000000000000000000000000000000000000014806105ba57507bffffffffffffffffffffffffffffffffffffffffffffffffffffffff1982167f5b5e139f00000000000000000000000000000000000000000000000000000000145b8061060357507f01ffc9a7000000000000000000000000000000000000000000000000000000007bffffffffffffffffffffffffffffffffffffffffffffffffffffffff198316145b92915050565b60606000805461061890612b6e565b80601f016020809104026020016040519081016040528092919081815260200182805461064490612b6e565b80156106915780601f1061066657610100808354040283529160200191610691565b820191906000526020600020905b81548152906001019060200180831161067457829003601f168201915b5050505050905090565b60006106a682611a75565b50600090815260046020526040902054600160a060020a031690565b60006106cd826111bd565b905080600160a060020a031683600160a060020a03160361075e5760405160e560020a62461bcd02815260206004820152602160248201527f4552433732313a20617070726f76616c20746f2063757272656e74206f776e6560448201527f720000000000000000000000000000000000000000000000000000000000000060648201526084015b60405180910390fd5b33600160a060020a038216148061077a575061077a81336104c6565b6107ef5760405160e560020a62461bcd02815260206004820152603e60248201527f4552433732313a20617070726f76652063616c6c6572206973206e6f7420746f60448201527f6b656e206f776e6572206e6f7220617070726f76656420666f7220616c6c00006064820152608401610755565b6107f98383611adc565b505050565b3360009081526006602052604090205460ff1615156001146108535760405160e560020a62461bcd02815260206004820152600d6024820152600080516020612f488339815191526044820152606401610755565b600b805473ffffffffffffffffffffffffffffffffffffffff1916600160a060020a0392909216919091179055565b7f150b7a02000000000000000000000000000000000000000000000000000000005b949350505050565b6108b63382611b57565b61092b5760405160e560020a62461bcd02815260206004820152602e60248201527f4552433732313a2063616c6c6572206973206e6f7420746f6b656e206f776e6560448201527f72206e6f7220617070726f7665640000000000000000000000000000000000006064820152608401610755565b6107f9838383611bd5565b3360009081526006602052604090205460ff16151560011461098b5760405160e560020a62461bcd02815260206004820152600d6024820152600080516020612f488339815191526044820152606401610755565b600a805473ffffffffffffffffffffffffffffffffffffffff1916600160a060020a0392909216919091179055565b600b5460009060ff84811674010000000000000000000000000000000000000000909204161480610a0b5750600b5460ff848116750100000000000000000000000000000000000000000090920416145b80610a375750600b5460ff84811676010000000000000000000000000000000000000000000090920416145b610aac5760405160e560020a62461bcd02815260206004820152602d60248201527f5745423342415a4141525f524146464c455f4552523a20524146464c4520545960448201527f50452049534e542056414c4944000000000000000000000000000000000000006064820152608401610755565b60008260ff16118015610ac357506103e88260ff16105b610b385760405160e560020a62461bcd02815260206004820152602f60248201527f5745423342415a4141525f524146464c455f4552523a205155414e544954595f60448201527f52414e47455f305f544f5f3130303000000000000000000000000000000000006064820152608401610755565b600080610b458486612bf0565b600b5460ff9182169250740100000000000000000000000000000000000000009004811690861603610b7b57600c549150610bde565b600b5460ff7501000000000000000000000000000000000000000000909104811690861603610bae57600d549150610bde565b600b5460ff760100000000000000000000000000000000000000000000909104811690861603610bde57600e5491505b60008211610c575760405160e560020a62461bcd02815260206004820152603960248201527f5745423342415a4141525f524146464c455f4552523a20554e4954595f50524960448201527f43455f49534e545f475245415445525f5448454e5f5a45524f000000000000006064820152608401610755565b6000610c6660ff861684612c19565b905060008267ffffffffffffffff811115610c8357610c8361284e565b604051908082528060200260200182016040528015610cac578160200160208202803683370190505b50905060008367ffffffffffffffff811115610cca57610cca61284e565b604051908082528060200260200182016040528015610cf3578160200160208202803683370190505b50905060008467ffffffffffffffff811115610d1157610d1161284e565b604051908082528060200260200182016040528015610d3a578160200160208202803683370190505b50905060008567ffffffffffffffff811115610d5857610d5861284e565b604051908082528060200260200182016040528015610d81578160200160208202803683370190505b50600a546040517f70a08231000000000000000000000000000000000000000000000000000000008152336004820152919250600160a060020a0316906370a0823190602401602060405180830381865afa158015610de4573d6000803e3d6000fd5b505050506040513d601f19601f82011682018060405250810190610e089190612c38565b851115610e805760405160e560020a62461bcd02815260206004820152603160248201527f5745423342415a4141525f524146464c455f4552523a204552525f4e4f545f4560448201527f4e4f5547485f46554e44535f45524332300000000000000000000000000000006064820152608401610755565b60005b86811015610f585760078054906000610e9b83612c51565b9190505550610eac30600754611db5565b30858281518110610ebf57610ebf612c6a565b6020026020010190600160a060020a03169081600160a060020a031681525050600754848281518110610ef457610ef4612c6a565b6020026020010181815250506001838281518110610f1457610f14612c6a565b6020026020010181815250506003828281518110610f3457610f34612c6a565b60ff9092166020928302919091019091015280610f5081612c51565b915050610e83565b50604080516001808252818301909252600091602080830190803683375050600a548251929350600160a060020a031691839150600090610f9b57610f9b612c6a565b600160a060020a039290921660209283029190910190910152604080516001808252818301909252600091816020016020820280368337019050509050600181600081518110610fed57610fed612c6a565b6020908102919091010152604080516001808252818301909252600091816020016020820280368337019050509050878160008151811061103057611030612c6a565b602090810291909101015260408051600180825281830190925260009181602001602082028036833701905050905060018160008151811061107457611074612c6a565b60ff90921660209283029190910190910152600b546040517f3d3a3ee4000000000000000000000000000000000000000000000000000000008152600091600160a060020a031690633d3a3ee4906110e0908c908c908c908c9033908d908d908d908d90600401612d40565b6020604051808303816000875af11580156110ff573d6000803e3d6000fd5b505050506040513d601f19601f820116820180604052508101906111239190612c38565b9f9e505050505050505050505050505050565b6107f983838360405180602001604052806000815250611678565b3360009081526006602052604090205460ff1615156001146111a65760405160e560020a62461bcd02815260206004820152600d6024820152600080516020612f488339815191526044820152606401610755565b80516111b990600890602084019061268b565b5050565b600081815260026020526040812054600160a060020a0316806106035760405160e560020a62461bcd02815260206004820152601860248201527f4552433732313a20696e76616c696420746f6b656e20494400000000000000006044820152606401610755565b3360009081526006602052604090205460ff16151560011461127a5760405160e560020a62461bcd02815260206004820152600d6024820152600080516020612f488339815191526044820152606401610755565b600160a060020a03811660009081526006602052604090205460ff1615156001146112ea5760405160e560020a62461bcd02815260206004820152601260248201527f4552525f414444525f4e4f545f4f574e455200000000000000000000000000006044820152606401610755565b600160a060020a03166000908152600660205260409020805460ff19169055565b60606008805461061890612b6e565b6000600160a060020a03821661139b5760405160e560020a62461bcd02815260206004820152602960248201527f4552433732313a2061646472657373207a65726f206973206e6f74206120766160448201527f6c6964206f776e657200000000000000000000000000000000000000000000006064820152608401610755565b50600160a060020a031660009081526003602052604090205490565b3360009081526006602052604090205460ff16151560011461140c5760405160e560020a62461bcd02815260206004820152600d6024820152600080516020612f488339815191526044820152606401610755565b6040517fb88d4fde000000000000000000000000000000000000000000000000000000008152600160a060020a038481166004830152838116602483015260448201839052608060648301526000608483015285169063b88d4fde9060a401600060405180830381600087803b15801561148557600080fd5b505af1158015611499573d6000803e3d6000fd5b5050505050505050565b3360009081526006602052604081205460ff1615156001146114f85760405160e560020a62461bcd02815260206004820152600d6024820152600080516020612f488339815191526044820152606401610755565b815161150b90600990602085019061268b565b50600190505b919050565b60606001805461061890612b6e565b6111b9338383611f0a565b3360009081526006602052604090205460ff1615156001146115855760405160e560020a62461bcd02815260206004820152600d6024820152600080516020612f488339815191526044820152606401610755565b6040517f095ea7b3000000000000000000000000000000000000000000000000000000008152600160a060020a0383811660048301526024820183905284169063095ea7b3906044016020604051808303816000875af11580156115ed573d6000803e3d6000fd5b505050506040513d601f19601f820116820180604052508101906116119190612e00565b50505050565b3360009081526006602052604090205460ff16151560011461166c5760405160e560020a62461bcd02815260206004820152600d6024820152600080516020612f488339815191526044820152606401610755565b61167581611fdb565b50565b6116823383611b57565b6116f75760405160e560020a62461bcd02815260206004820152602e60248201527f4552433732313a2063616c6c6572206973206e6f7420746f6b656e206f776e6560448201527f72206e6f7220617070726f7665640000000000000000000000000000000000006064820152608401610755565b61161184848484612083565b3360009081526006602052604081205460ff1615156001146117585760405160e560020a62461bcd02815260206004820152600d6024820152600080516020612f488339815191526044820152606401610755565b600b5460ff7401000000000000000000000000000000000000000090910481169084160361178a57600c8290556117ed565b600b5460ff75010000000000000000000000000000000000000000009091048116908416036117bd57600d8290556117ed565b600b5460ff7601000000000000000000000000000000000000000000009091048116908416036117ed57600e8290555b50600192915050565b606061180182611a75565b600061180b61130b565b9050600081511161182b5760405180602001604052806000815250611856565b806118358461210f565b604051602001611846929190612e1d565b6040516020818303038152906040525b9392505050565b3360009081526006602052604090205460ff1615156001146118b25760405160e560020a62461bcd02815260206004820152600d6024820152600080516020612f488339815191526044820152606401610755565b6040517fa22cb465000000000000000000000000000000000000000000000000000000008152600160a060020a038381166004830152821515602483015284169063a22cb46590604401600060405180830381600087803b15801561191657600080fd5b505af115801561192a573d6000803e3d6000fd5b50505050505050565b60606009805461061890612b6e565b3360009081526006602052604090205460ff1615156001146119975760405160e560020a62461bcd02815260206004820152600d6024820152600080516020612f488339815191526044820152606401610755565b600160a060020a0381166119f05760405160e560020a62461bcd02815260206004820152600d60248201527f4552525f5a45524f5f41444452000000000000000000000000000000000000006044820152606401610755565b600160a060020a03166000908152600660205260409020805460ff19166001179055565b3360009081526006602052604090205460ff161515600114611a695760405160e560020a62461bcd02815260206004820152600d6024820152600080516020612f488339815191526044820152606401610755565b6111b982303384612263565b600081815260026020526040902054600160a060020a03166116755760405160e560020a62461bcd02815260206004820152601860248201527f4552433732313a20696e76616c696420746f6b656e20494400000000000000006044820152606401610755565b6000818152600460205260409020805473ffffffffffffffffffffffffffffffffffffffff1916600160a060020a0384169081179091558190611b1e826111bd565b600160a060020a03167f8c5be1e5ebec7d5bd14f71427d1e84f3dd0314c0f7b2291e5b200ac8c7c3b92560405160405180910390a45050565b600080611b63836111bd565b905080600160a060020a031684600160a060020a03161480611baa5750600160a060020a0380821660009081526005602090815260408083209388168352929052205460ff165b806108a4575083600160a060020a0316611bc38461069b565b600160a060020a031614949350505050565b82600160a060020a0316611be8826111bd565b600160a060020a031614611c675760405160e560020a62461bcd02815260206004820152602560248201527f4552433732313a207472616e736665722066726f6d20696e636f72726563742060448201527f6f776e65720000000000000000000000000000000000000000000000000000006064820152608401610755565b600160a060020a038216611ce55760405160e560020a62461bcd028152602060048201526024808201527f4552433732313a207472616e7366657220746f20746865207a65726f2061646460448201527f72657373000000000000000000000000000000000000000000000000000000006064820152608401610755565b611cf0600082611adc565b600160a060020a0383166000908152600360205260408120805460019290611d19908490612e4c565b9091555050600160a060020a0382166000908152600360205260408120805460019290611d47908490612e63565b9091555050600081815260026020526040808220805473ffffffffffffffffffffffffffffffffffffffff1916600160a060020a0386811691821790925591518493918716917fddf252ad1be2c89b69c2b068fc378daa952ba7f163c4a11628f55a4df523b3ef91a4505050565b600160a060020a038216611e0e5760405160e560020a62461bcd02815260206004820181905260248201527f4552433732313a206d696e7420746f20746865207a65726f20616464726573736044820152606401610755565b600081815260026020526040902054600160a060020a031615611e765760405160e560020a62461bcd02815260206004820152601c60248201527f4552433732313a20746f6b656e20616c7265616479206d696e746564000000006044820152606401610755565b600160a060020a0382166000908152600360205260408120805460019290611e9f908490612e63565b9091555050600081815260026020526040808220805473ffffffffffffffffffffffffffffffffffffffff1916600160a060020a03861690811790915590518392907fddf252ad1be2c89b69c2b068fc378daa952ba7f163c4a11628f55a4df523b3ef908290a45050565b81600160a060020a031683600160a060020a031603611f6e5760405160e560020a62461bcd02815260206004820152601960248201527f4552433732313a20617070726f766520746f2063616c6c6572000000000000006044820152606401610755565b600160a060020a03838116600081815260056020908152604080832094871680845294825291829020805460ff191686151590811790915591519182527f17307eab39ab6107e8899845ad3d59bd9653f200f220920489ca2b5937696c31910160405180910390a3505050565b6000611fe6826111bd565b9050611ff3600083611adc565b600160a060020a038116600090815260036020526040812080546001929061201c908490612e4c565b9091555050600082815260026020526040808220805473ffffffffffffffffffffffffffffffffffffffff1916905551839190600160a060020a038416907fddf252ad1be2c89b69c2b068fc378daa952ba7f163c4a11628f55a4df523b3ef908390a45050565b61208e848484611bd5565b61209a848484846122eb565b6116115760405160e560020a62461bcd02815260206004820152603260248201527f4552433732313a207472616e7366657220746f206e6f6e20455243373231526560448201527f63656976657220696d706c656d656e74657200000000000000000000000000006064820152608401610755565b60608160000361215257505060408051808201909152600181527f3000000000000000000000000000000000000000000000000000000000000000602082015290565b8160005b811561217c578061216681612c51565b91506121759050600a83612eaa565b9150612156565b60008167ffffffffffffffff8111156121975761219761284e565b6040519080825280601f01601f1916602001820160405280156121c1576020820181803683370190505b5090505b84156108a4576121d6600183612e4c565b91506121e3600a86612ebe565b6121ee906030612e63565b7f01000000000000000000000000000000000000000000000000000000000000000281838151811061222257612222612c6a565b60200101907effffffffffffffffffffffffffffffffffffffffffffffffffffffffffffff1916908160001a90535061225c600a86612eaa565b94506121c5565b60408051600160a060020a0385811660248301528416604482015260648082018490528251808303909101815260849091019091526020810180517bffffffffffffffffffffffffffffffffffffffffffffffffffffffff167f23b872dd00000000000000000000000000000000000000000000000000000000179052611611908590612489565b6000600160a060020a0384163b15612481576040517f150b7a02000000000000000000000000000000000000000000000000000000008152600160a060020a0385169063150b7a0290612348903390899088908890600401612ed2565b6020604051808303816000875af1925050508015612383575060408051601f3d908101601f1916820190925261238091810190612f0e565b60015b612439573d8080156123b1576040519150601f19603f3d011682016040523d82523d6000602084013e6123b6565b606091505b5080516000036124315760405160e560020a62461bcd02815260206004820152603260248201527f4552433732313a207472616e7366657220746f206e6f6e20455243373231526560448201527f63656976657220696d706c656d656e74657200000000000000000000000000006064820152608401610755565b805181602001fd5b7bffffffffffffffffffffffffffffffffffffffffffffffffffffffff19167f150b7a02000000000000000000000000000000000000000000000000000000001490506108a4565b5060016108a4565b60006124de826040518060400160405280602081526020017f5361666545524332303a206c6f772d6c6576656c2063616c6c206661696c656481525085600160a060020a03166125719092919063ffffffff16565b8051909150156107f957808060200190518101906124fc9190612e00565b6107f95760405160e560020a62461bcd02815260206004820152602a60248201527f5361666545524332303a204552433230206f7065726174696f6e20646964206e60448201527f6f742073756363656564000000000000000000000000000000000000000000006064820152608401610755565b60606108a4848460008585600160a060020a0385163b6125d65760405160e560020a62461bcd02815260206004820152601d60248201527f416464726573733a2063616c6c20746f206e6f6e2d636f6e74726163740000006044820152606401610755565b60008086600160a060020a031685876040516125f29190612f2b565b60006040518083038185875af1925050503d806000811461262f576040519150601f19603f3d011682016040523d82523d6000602084013e612634565b606091505b509150915061264482828661264f565b979650505050505050565b6060831561265e575081611856565b82511561266e5782518084602001fd5b8160405160e560020a62461bcd02815260040161075591906127c4565b82805461269790612b6e565b90600052602060002090601f0160209004810192826126b957600085556126ff565b82601f106126d257805160ff19168380011785556126ff565b828001600101855582156126ff579182015b828111156126ff5782518255916020019190600101906126e4565b5061270b92915061270f565b5090565b5b8082111561270b5760008155600101612710565b7bffffffffffffffffffffffffffffffffffffffffffffffffffffffff198116811461167557600080fd5b60006020828403121561276157600080fd5b813561185681612724565b60005b8381101561278757818101518382015260200161276f565b838111156116115750506000910152565b600081518084526127b081602086016020860161276c565b601f01601f19169290920160200192915050565b6020815260006118566020830184612798565b6000602082840312156127e957600080fd5b5035919050565b600160a060020a038116811461167557600080fd5b6000806040838503121561281857600080fd5b8235612823816127f0565b946020939093013593505050565b60006020828403121561284357600080fd5b8135611856816127f0565b7f4e487b7100000000000000000000000000000000000000000000000000000000600052604160045260246000fd5b600067ffffffffffffffff808411156128985761289861284e565b604051601f8501601f19908116603f011681019082821181831017156128c0576128c061284e565b816040528093508581528686860111156128d957600080fd5b858560208301376000602087830101525050509392505050565b6000806000806080858703121561290957600080fd5b8435612914816127f0565b93506020850135612924816127f0565b925060408501359150606085013567ffffffffffffffff81111561294757600080fd5b8501601f8101871361295857600080fd5b6129678782356020840161287d565b91505092959194509250565b60008060006060848603121561298857600080fd5b8335612993816127f0565b925060208401356129a3816127f0565b929592945050506040919091013590565b803560ff8116811461151157600080fd5b600080604083850312156129d857600080fd5b6129e1836129b4565b91506129ef602084016129b4565b90509250929050565b600060208284031215612a0a57600080fd5b813567ffffffffffffffff811115612a2157600080fd5b8201601f81018413612a3257600080fd5b6108a48482356020840161287d565b60008060008060808587031215612a5757600080fd5b8435612a62816127f0565b93506020850135612a72816127f0565b92506040850135612a82816127f0565b9396929550929360600135925050565b801515811461167557600080fd5b60008060408385031215612ab357600080fd5b8235612abe816127f0565b91506020830135612ace81612a92565b809150509250929050565b60008060408385031215612aec57600080fd5b612823836129b4565b600080600060608486031215612b0a57600080fd5b8335612b15816127f0565b92506020840135612b25816127f0565b91506040840135612b3581612a92565b809150509250925092565b60008060408385031215612b5357600080fd5b8235612b5e816127f0565b91506020830135612ace816127f0565b600281046001821680612b8257607f821691505b602082108103612bbb577f4e487b7100000000000000000000000000000000000000000000000000000000600052602260045260246000fd5b50919050565b7f4e487b7100000000000000000000000000000000000000000000000000000000600052601160045260246000fd5b600060ff821660ff84168160ff0481118215151615612c1157612c11612bc1565b029392505050565b6000816000190483118215151615612c3357612c33612bc1565b500290565b600060208284031215612c4a57600080fd5b5051919050565b600060018201612c6357612c63612bc1565b5060010190565b7f4e487b7100000000000000000000000000000000000000000000000000000000600052603260045260246000fd5b600081518084526020808501945080840160005b83811015612cd2578151600160a060020a031687529582019590820190600101612cad565b509495945050505050565b600081518084526020808501945080840160005b83811015612cd257815187529582019590820190600101612cf1565b600081518084526020808501945080840160005b83811015612cd257815160ff1687529582019590820190600101612d21565b6000610120808352612d548184018d612c99565b90508281036020840152612d68818c612cdd565b90508281036040840152612d7c818b612cdd565b90508281036060840152612d90818a612d0d565b9050600160a060020a038816608084015282810360a0840152612db38188612c99565b905082810360c0840152612dc78187612cdd565b905082810360e0840152612ddb8186612cdd565b9050828103610100840152612df08185612d0d565b9c9b505050505050505050505050565b600060208284031215612e1257600080fd5b815161185681612a92565b60008351612e2f81846020880161276c565b835190830190612e4381836020880161276c565b01949350505050565b600082821015612e5e57612e5e612bc1565b500390565b60008219821115612e7657612e76612bc1565b500190565b7f4e487b7100000000000000000000000000000000000000000000000000000000600052601260045260246000fd5b600082612eb957612eb9612e7b565b500490565b600082612ecd57612ecd612e7b565b500690565b6000600160a060020a03808716835280861660208401525083604083015260806060830152612f046080830184612798565b9695505050505050565b600060208284031215612f2057600080fd5b815161185681612724565b60008251612f3d81846020870161276c565b919091019291505056fe4552525f4e4f545f4f574e455200000000000000000000000000000000000000a2646970667358221220abc1dfcf0252e9de517385eae5725961921f2e70d7ae2e565a82209f638df2e564736f6c634300080e003368747470733a2f2f7261772e67697468756275736572636f6e74656e742e636f6d2f5765623362617a6161722f67697665776179732f6d61696e2f70726f6a656374732f61617665676f746368692f636f6e747261637468747470733a2f2f7261772e67697468756275736572636f6e74656e742e636f6d2f5765623362617a6161722f67697665776179732f6d61696e2f70726f6a656374732f61617665676f746368692f646174612f5765623342617a61617220526166666c65205469636b657420666f722041617665676f74636869",
  "immutableReferences": {},
  "source": "// SPDX-License-Identifier: MIT\npragma solidity 0.8.14;\n\nimport \"@openzeppelin/contracts/token/ERC721/ERC721.sol\";\nimport \"@openzeppelin/contracts/token/ERC20/utils/SafeERC20.sol\";\nimport \"@openzeppelin/contracts/token/ERC721/utils/ERC721Holder.sol\";\nimport \"./Web3BazaarEscrow.sol\";\nimport \"@openzeppelin/contracts/utils/Context.sol\";\n\ncontract BazaarRaffleTicket is\n    Context,\n    ERC721,\n    MultiAccessControl,\n    ERC721Holder\n{\n    uint256 private id;\n    // Base URI\n    string private _baseURIextended;\n    string private _contractURI;\n    uint256 public constant MAX_SUPPLY = 100000;\n    // address\n    address public _projectTokenAddress;\n    address public _bazaarContract;\n\n    // raffles types\n    uint8 private BRONZE = 1;\n    uint8 private SILVER = 8;\n    uint8 private GOLD = 20;\n\n    // rafles prices\n    uint256 public BRONZE_PRICE = 1500000000000000000;\n    uint256 public SILVER_PRICE = 5000000000000000000;\n    uint256 public GOLD_PRICE = 10000000000000000000;\n\n    constructor()\n        ERC721(\n            \"Web3Bazaar Raffle Ticket for Aavegotchi\",\n            \"Web3Bazaar Raffle Ticket for Aavegotchi\"\n        )\n    {\n        id = 1;\n        _contractURI = \"https://raw.githubusercontent.com/Web3bazaar/giveways/main/projects/aavegotchi/contract\";\n        _baseURIextended = \"https://raw.githubusercontent.com/Web3bazaar/giveways/main/projects/aavegotchi/data/\";\n\n        //mumbai network\n        _projectTokenAddress = 0x89A84dc58ABA7909818C471B2EbFBc94e6C96c41;\n        _bazaarContract = 0x0A50B369f107aeF88E83B79F8E437EB623ac4a0a;\n\n        //matic network\n        //_projectTokenAddress = 0x385eeac5cb85a38a9a07a70c73e0a3271cfb54a7;\n        // _bazaarContract = ;\n    }\n\n    /// Mint raffles ticket for callter based on type choosen and quantity specifiyed\n    /// @param raffleType type of raffle ticket to mint\n    /// @param quantity the amount of raffle ticket user want to mint\n    /// @dev sets mmax amount of assets allowed per trade. Needs to be  <=1,000\n    /// @return return tradeId created for this contract\n    function mint(uint8 raffleType, uint8 quantity) external returns (uint256) {\n        require(\n            raffleType == BRONZE || raffleType == SILVER || raffleType == GOLD,\n            \"WEB3BAZAAR_RAFFLE_ERR: RAFFLE TYPE ISNT VALID\"\n        );\n        require(\n            quantity > 0 && quantity < 1000,\n            \"WEB3BAZAAR_RAFFLE_ERR: QUANTITY_RANGE_0_TO_1000\"\n        );\n\n        uint256 unityPrice = 0;\n        uint256 totalTickets = raffleType * quantity;\n\n        if (raffleType == BRONZE) {\n            unityPrice = BRONZE_PRICE;\n        } else if (raffleType == SILVER) {\n            unityPrice = SILVER_PRICE;\n        } else if (raffleType == GOLD) {\n            unityPrice = GOLD_PRICE;\n        }\n        require(\n            unityPrice > 0,\n            \"WEB3BAZAAR_RAFFLE_ERR: UNITY_PRICE_ISNT_GREATER_THEN_ZERO\"\n        );\n\n        uint256 totalAmount = unityPrice * quantity;\n\n        address[] memory creatorTokenAddress = new address[](totalTickets);\n        uint256[] memory creatorTokenId = new uint256[](totalTickets);\n        uint256[] memory creatorTokenAmount = new uint256[](totalTickets);\n        uint8[] memory creatorTokenType = new uint8[](totalTickets);\n\n        //check the allownces for project token\n        // require(totalAmount <= IERC20(_projectTokenAddress).allowance(msg.sender, address(this) ), 'WEB3BAZAAR_RAFLLES_ERR: ALLOWANCE_ISNT_ENOUGH');\n        require(\n            totalAmount <= IERC20(_projectTokenAddress).balanceOf(msg.sender),\n            \"WEB3BAZAAR_RAFFLE_ERR: ERR_NOT_ENOUGH_FUNDS_ERC20\"\n        );\n\n        // mint ticket store on array to create trade after\n        for (uint256 i = 0; i < totalTickets; i++) {\n            id++;\n            _mint(address(this), id);\n            //fill array for trade\n            creatorTokenAddress[i] = address(this);\n            creatorTokenId[i] = id;\n            creatorTokenAmount[i] = 1;\n            creatorTokenType[i] = 3;\n        }\n\n        //  creator token addr\n        address[] memory executerTokenAddress = new address[](1);\n        executerTokenAddress[0] = _projectTokenAddress;\n        // creatorTokenId\n        uint256[] memory executerTokenId = new uint256[](1);\n        executerTokenId[0] = 1;\n        // creatorTokenAmount\n        uint256[] memory executerTokenAmount = new uint256[](1);\n        executerTokenAmount[0] = totalAmount;\n        //creatorTokenType\n        uint8[] memory executerTokenType = new uint8[](1);\n        executerTokenType[0] = 1;\n\n        uint256 tradeID = Web3BazaarEscrow(_bazaarContract).startTrade(\n            creatorTokenAddress,\n            creatorTokenId,\n            creatorTokenAmount,\n            creatorTokenType,\n            msg.sender,\n            executerTokenAddress,\n            executerTokenId,\n            executerTokenAmount,\n            executerTokenType\n        );\n\n        return tradeID;\n    }\n\n    /// Approve ERC721 used to approve bazaar contract address\n    /// @param erc721Address erc721 contract address\n    /// @param to address to be approved\n    /// @param approved flag to true/false to allow/disallow approvance\n    /// @dev approve erc721 to spend tokens\n    function approveERC721(\n        address erc721Address,\n        address to,\n        bool approved\n    ) external isOwner {\n        ERC721(erc721Address).setApprovalForAll(to, approved);\n    }\n\n    /// Set prices for prices based on the type of ticket\n    /// @param raffleType type of ticket\n    /// @param newPrice new price for the ticket\n    /// @dev set the type of tikcet with the new price\n    /// @return bool if the new price was changed\n    function setPriceByType(uint8 raffleType, uint256 newPrice)\n        external\n        isOwner\n        returns (bool)\n    {\n        if (raffleType == BRONZE) {\n            BRONZE_PRICE = newPrice;\n        } else if (raffleType == SILVER) {\n            SILVER_PRICE = newPrice;\n        } else if (raffleType == GOLD) {\n            GOLD_PRICE = newPrice;\n        }\n        return true;\n    }\n\n    //transfer nft tokens\n    function transferERC721(\n        address erc721Address,\n        address from,\n        address to,\n        uint256 tokenId\n    ) external isOwner {\n        ERC721(erc721Address).safeTransferFrom(from, to, tokenId, \"\");\n    }\n\n    // set projectToken address\n    function setTokenAddress(address projectToken) external isOwner {\n        _projectTokenAddress = projectToken;\n    }\n\n    /// change the Web3Bazaar contract address\n    /// @param newAddress new address for contract\n    /// @dev set the type of tikcet with the new price\n    function setWeb3BazaarContract(address newAddress) external isOwner {\n        _bazaarContract = newAddress;\n    }\n\n    // set new base uri\n    function setBaseURI(string memory baseURI_) external isOwner {\n        _baseURIextended = baseURI_;\n    }\n\n    function setContractURI(string memory newuri)\n        external\n        isOwner\n        returns (bool)\n    {\n        _contractURI = newuri;\n        return true;\n    }\n\n    function baseURI() external view returns (string memory) {\n        return _baseURIextended;\n    }\n\n    function contractURI() external view returns (string memory) {\n        return _contractURI;\n    }\n\n    /// return the current id for the NFT\n    /// @dev set the type of tikcet with the new price\n    /// @return id current of for contract\n    function getId() external view returns (uint256) {\n        return id;\n    }\n\n    // approve erc20\n    function approveERC20(\n        address tokenAddress,\n        address spender,\n        uint256 amount\n    ) public isOwner {\n        IERC20(tokenAddress).approve(spender, amount);\n    }\n\n    // burn own tokens\n    function burnOwn(uint256 tokenId) public isOwner {\n        _burn(tokenId);\n    }\n\n    // transfer erc20\n    function transferERC20(address tokenAddress, uint256 amount)\n        public\n        isOwner\n    {\n        SafeERC20.safeTransferFrom(\n            IERC20(tokenAddress),\n            address(this),\n            msg.sender,\n            amount\n        );\n    }\n\n    // override original method\n    function _baseURI() internal view virtual override returns (string memory) {\n        return _baseURIextended;\n    }\n}\n",
  "sourcePath": "/Users/vitorpedroviana/project/wallid/dev/web3/web3bazaar/mainnet-contracts/contracts/BazaarRaffleTicket.sol",
  "compiler": {
    "name": "solc",
    "version": "0.8.14+commit.80d49f37.Emscripten.clang"
  },
  "schemaVersion": "3.4.8",
  "updatedAt": "2022-08-02T14:23:54.658Z",
  "devdoc": {
    "kind": "dev",
    "methods": {
      "approve(address,uint256)": {
        "details": "See {IERC721-approve}."
      },
      "approveERC721(address,address,bool)": {
        "details": "approve erc721 to spend tokens",
        "params": {
          "approved": "flag to true/false to allow/disallow approvance",
          "erc721Address": "erc721 contract address",
          "to": "address to be approved"
        }
      },
      "balanceOf(address)": {
        "details": "See {IERC721-balanceOf}."
      },
      "getApproved(uint256)": {
        "details": "See {IERC721-getApproved}."
      },
      "getId()": {
        "details": "set the type of tikcet with the new price",
        "returns": {
          "_0": "id current of for contract"
        }
      },
      "isApprovedForAll(address,address)": {
        "details": "See {IERC721-isApprovedForAll}."
      },
      "mint(uint8,uint8)": {
        "details": "sets mmax amount of assets allowed per trade. Needs to be  <=1,000",
        "params": {
          "quantity": "the amount of raffle ticket user want to mint",
          "raffleType": "type of raffle ticket to mint"
        },
        "returns": {
          "_0": "return tradeId created for this contract"
        }
      },
      "name()": {
        "details": "See {IERC721Metadata-name}."
      },
      "onERC721Received(address,address,uint256,bytes)": {
        "details": "See {IERC721Receiver-onERC721Received}. Always returns `IERC721Receiver.onERC721Received.selector`."
      },
      "ownerOf(uint256)": {
        "details": "See {IERC721-ownerOf}."
      },
      "safeTransferFrom(address,address,uint256)": {
        "details": "See {IERC721-safeTransferFrom}."
      },
      "safeTransferFrom(address,address,uint256,bytes)": {
        "details": "See {IERC721-safeTransferFrom}."
      },
      "setApprovalForAll(address,bool)": {
        "details": "See {IERC721-setApprovalForAll}."
      },
      "setPriceByType(uint8,uint256)": {
        "details": "set the type of tikcet with the new price",
        "params": {
          "newPrice": "new price for the ticket",
          "raffleType": "type of ticket"
        },
        "returns": {
          "_0": "bool if the new price was changed"
        }
      },
      "setWeb3BazaarContract(address)": {
        "details": "set the type of tikcet with the new price",
        "params": {
          "newAddress": "new address for contract"
        }
      },
      "supportsInterface(bytes4)": {
        "details": "See {IERC165-supportsInterface}."
      },
      "symbol()": {
        "details": "See {IERC721Metadata-symbol}."
      },
      "tokenURI(uint256)": {
        "details": "See {IERC721Metadata-tokenURI}."
      },
      "transferFrom(address,address,uint256)": {
        "details": "See {IERC721-transferFrom}."
      }
    },
    "version": 1
  },
  "userdoc": {
    "kind": "user",
    "methods": {
      "approveERC721(address,address,bool)": {
        "notice": "Approve ERC721 used to approve bazaar contract address"
      },
      "getId()": {
        "notice": "return the current id for the NFT"
      },
      "mint(uint8,uint8)": {
        "notice": "Mint raffles ticket for callter based on type choosen and quantity specifiyed"
      },
      "setPriceByType(uint8,uint256)": {
        "notice": "Set prices for prices based on the type of ticket"
      },
      "setWeb3BazaarContract(address)": {
        "notice": "change the Web3Bazaar contract address"
      }
    },
    "version": 1
  }
}