{
  "contractName": "Bazcoin",
  "abi": [
    {
      "inputs": [],
      "stateMutability": "nonpayable",
      "type": "constructor"
    },
    {
      "anonymous": false,
      "inputs": [
        {
          "indexed": true,
          "internalType": "address",
          "name": "owner",
          "type": "address"
        },
        {
          "indexed": true,
          "internalType": "address",
          "name": "spender",
          "type": "address"
        },
        {
          "indexed": false,
          "internalType": "uint256",
          "name": "value",
          "type": "uint256"
        }
      ],
      "name": "Approval",
      "type": "event"
    },
    {
      "anonymous": false,
      "inputs": [
        {
          "indexed": true,
          "internalType": "address",
          "name": "from",
          "type": "address"
        },
        {
          "indexed": true,
          "internalType": "address",
          "name": "to",
          "type": "address"
        },
        {
          "indexed": false,
          "internalType": "uint256",
          "name": "value",
          "type": "uint256"
        }
      ],
      "name": "Transfer",
      "type": "event"
    },
    {
      "inputs": [
        {
          "internalType": "address",
          "name": "owner",
          "type": "address"
        },
        {
          "internalType": "address",
          "name": "spender",
          "type": "address"
        }
      ],
      "name": "allowance",
      "outputs": [
        {
          "internalType": "uint256",
          "name": "",
          "type": "uint256"
        }
      ],
      "stateMutability": "view",
      "type": "function"
    },
    {
      "inputs": [
        {
          "internalType": "address",
          "name": "spender",
          "type": "address"
        },
        {
          "internalType": "uint256",
          "name": "amount",
          "type": "uint256"
        }
      ],
      "name": "approve",
      "outputs": [
        {
          "internalType": "bool",
          "name": "",
          "type": "bool"
        }
      ],
      "stateMutability": "nonpayable",
      "type": "function"
    },
    {
      "inputs": [
        {
          "internalType": "address",
          "name": "account",
          "type": "address"
        }
      ],
      "name": "balanceOf",
      "outputs": [
        {
          "internalType": "uint256",
          "name": "",
          "type": "uint256"
        }
      ],
      "stateMutability": "view",
      "type": "function"
    },
    {
      "inputs": [],
      "name": "decimals",
      "outputs": [
        {
          "internalType": "uint8",
          "name": "",
          "type": "uint8"
        }
      ],
      "stateMutability": "view",
      "type": "function"
    },
    {
      "inputs": [
        {
          "internalType": "address",
          "name": "spender",
          "type": "address"
        },
        {
          "internalType": "uint256",
          "name": "subtractedValue",
          "type": "uint256"
        }
      ],
      "name": "decreaseAllowance",
      "outputs": [
        {
          "internalType": "bool",
          "name": "",
          "type": "bool"
        }
      ],
      "stateMutability": "nonpayable",
      "type": "function"
    },
    {
      "inputs": [
        {
          "internalType": "address",
          "name": "spender",
          "type": "address"
        },
        {
          "internalType": "uint256",
          "name": "addedValue",
          "type": "uint256"
        }
      ],
      "name": "increaseAllowance",
      "outputs": [
        {
          "internalType": "bool",
          "name": "",
          "type": "bool"
        }
      ],
      "stateMutability": "nonpayable",
      "type": "function"
    },
    {
      "inputs": [],
      "name": "maxSupply",
      "outputs": [
        {
          "internalType": "uint256",
          "name": "",
          "type": "uint256"
        }
      ],
      "stateMutability": "view",
      "type": "function"
    },
    {
      "inputs": [],
      "name": "name",
      "outputs": [
        {
          "internalType": "string",
          "name": "",
          "type": "string"
        }
      ],
      "stateMutability": "view",
      "type": "function"
    },
    {
      "inputs": [],
      "name": "symbol",
      "outputs": [
        {
          "internalType": "string",
          "name": "",
          "type": "string"
        }
      ],
      "stateMutability": "view",
      "type": "function"
    },
    {
      "inputs": [],
      "name": "totalSupply",
      "outputs": [
        {
          "internalType": "uint256",
          "name": "",
          "type": "uint256"
        }
      ],
      "stateMutability": "view",
      "type": "function"
    },
    {
      "inputs": [
        {
          "internalType": "address",
          "name": "to",
          "type": "address"
        },
        {
          "internalType": "uint256",
          "name": "amount",
          "type": "uint256"
        }
      ],
      "name": "transfer",
      "outputs": [
        {
          "internalType": "bool",
          "name": "",
          "type": "bool"
        }
      ],
      "stateMutability": "nonpayable",
      "type": "function"
    },
    {
      "inputs": [
        {
          "internalType": "address",
          "name": "from",
          "type": "address"
        },
        {
          "internalType": "address",
          "name": "to",
          "type": "address"
        },
        {
          "internalType": "uint256",
          "name": "amount",
          "type": "uint256"
        }
      ],
      "name": "transferFrom",
      "outputs": [
        {
          "internalType": "bool",
          "name": "",
          "type": "bool"
        }
      ],
      "stateMutability": "nonpayable",
      "type": "function"
    },
    {
      "inputs": [],
      "name": "mint",
      "outputs": [
        {
          "internalType": "uint256",
          "name": "",
          "type": "uint256"
        }
      ],
      "stateMutability": "payable",
      "type": "function"
    }
  ],
  "bytecode": "0x6080604052620000146200015b60201b60201c565b600a620000229190620005b4565b6301406f4062000033919062000605565b600555620000466200015b60201b60201c565b600a620000549190620005b4565b603262000062919062000605565b6006553480156200007257600080fd5b506040518060400160405280600781526020017f42617a636f696e000000000000000000000000000000000000000000000000008152506040518060400160405280600781526020017f42617a636f696e0000000000000000000000000000000000000000000000000081525081818160039080519060200190620000f99291906200036a565b508060049080519060200190620001129291906200036a565b505050505062000155336200012c6200015b60201b60201c565b600a6200013a9190620005b4565b61138862000149919062000605565b6200016460201b60201c565b6200084a565b60006012905090565b6005548162000178620001de60201b60201c565b62000184919062000666565b1115620001c8576040517f08c379a0000000000000000000000000000000000000000000000000000000008152600401620001bf9062000724565b60405180910390fd5b620001da8282620001e860201b60201c565b5050565b6000600254905090565b600073ffffffffffffffffffffffffffffffffffffffff168273ffffffffffffffffffffffffffffffffffffffff16036200025a576040517f08c379a0000000000000000000000000000000000000000000000000000000008152600401620002519062000796565b60405180910390fd5b6200026e600083836200036060201b60201c565b806002600082825462000282919062000666565b92505081905550806000808473ffffffffffffffffffffffffffffffffffffffff1673ffffffffffffffffffffffffffffffffffffffff1681526020019081526020016000206000828254620002d9919062000666565b925050819055508173ffffffffffffffffffffffffffffffffffffffff16600073ffffffffffffffffffffffffffffffffffffffff167fddf252ad1be2c89b69c2b068fc378daa952ba7f163c4a11628f55a4df523b3ef83604051620003409190620007c9565b60405180910390a36200035c600083836200036560201b60201c565b5050565b505050565b505050565b828054620003789062000815565b90600052602060002090601f0160209004810192826200039c5760008555620003e8565b82601f10620003b757805160ff1916838001178555620003e8565b82800160010185558215620003e8579182015b82811115620003e7578251825591602001919060010190620003ca565b5b509050620003f79190620003fb565b5090565b5b8082111562000416576000816000905550600101620003fc565b5090565b7f4e487b7100000000000000000000000000000000000000000000000000000000600052601160045260246000fd5b60008160011c9050919050565b6000808291508390505b6001851115620004a85780860481111562000480576200047f6200041a565b5b6001851615620004905780820291505b8081029050620004a08562000449565b945062000460565b94509492505050565b600082620004c3576001905062000596565b81620004d3576000905062000596565b8160018114620004ec5760028114620004f7576200052d565b600191505062000596565b60ff8411156200050c576200050b6200041a565b5b8360020a9150848211156200052657620005256200041a565b5b5062000596565b5060208310610133831016604e8410600b8410161715620005675782820a9050838111156200056157620005606200041a565b5b62000596565b62000576848484600162000456565b9250905081840481111562000590576200058f6200041a565b5b81810290505b9392505050565b6000819050919050565b600060ff82169050919050565b6000620005c1826200059d565b9150620005ce83620005a7565b9250620005fd7fffffffffffffffffffffffffffffffffffffffffffffffffffffffffffffffff8484620004b1565b905092915050565b600062000612826200059d565b91506200061f836200059d565b9250817fffffffffffffffffffffffffffffffffffffffffffffffffffffffffffffffff04831182151516156200065b576200065a6200041a565b5b828202905092915050565b600062000673826200059d565b915062000680836200059d565b9250827fffffffffffffffffffffffffffffffffffffffffffffffffffffffffffffffff03821115620006b857620006b76200041a565b5b828201905092915050565b600082825260208201905092915050565b7f4552525f45584345454445445f4d41585f535550504c59000000000000000000600082015250565b60006200070c601783620006c3565b91506200071982620006d4565b602082019050919050565b600060208201905081810360008301526200073f81620006fd565b9050919050565b7f45524332303a206d696e7420746f20746865207a65726f206164647265737300600082015250565b60006200077e601f83620006c3565b91506200078b8262000746565b602082019050919050565b60006020820190508181036000830152620007b1816200076f565b9050919050565b620007c3816200059d565b82525050565b6000602082019050620007e06000830184620007b8565b92915050565b7f4e487b7100000000000000000000000000000000000000000000000000000000600052602260045260246000fd5b600060028204905060018216806200082e57607f821691505b602082108103620008445762000843620007e6565b5b50919050565b61160c806200085a6000396000f3fe6080604052600436106100c25760003560e01c8063395093511161007f578063a457c2d711610059578063a457c2d714610285578063a9059cbb146102c2578063d5abeb01146102ff578063dd62ed3e1461032a576100c2565b806339509351146101e057806370a082311461021d57806395d89b411461025a576100c2565b806306fdde03146100c7578063095ea7b3146100f25780631249c58b1461012f57806318160ddd1461014d57806323b872dd14610178578063313ce567146101b5575b600080fd5b3480156100d357600080fd5b506100dc610367565b6040516100e99190610def565b60405180910390f35b3480156100fe57600080fd5b5061011960048036038101906101149190610eaa565b6103f9565b6040516101269190610f05565b60405180910390f35b61013761041c565b6040516101449190610f2f565b60405180910390f35b34801561015957600080fd5b50610162610432565b60405161016f9190610f2f565b60405180910390f35b34801561018457600080fd5b5061019f600480360381019061019a9190610f4a565b61043c565b6040516101ac9190610f05565b60405180910390f35b3480156101c157600080fd5b506101ca61046b565b6040516101d79190610fb9565b60405180910390f35b3480156101ec57600080fd5b5061020760048036038101906102029190610eaa565b610474565b6040516102149190610f05565b60405180910390f35b34801561022957600080fd5b50610244600480360381019061023f9190610fd4565b6104ab565b6040516102519190610f2f565b60405180910390f35b34801561026657600080fd5b5061026f6104f3565b60405161027c9190610def565b60405180910390f35b34801561029157600080fd5b506102ac60048036038101906102a79190610eaa565b610585565b6040516102b99190610f05565b60405180910390f35b3480156102ce57600080fd5b506102e960048036038101906102e49190610eaa565b6105fc565b6040516102f69190610f05565b60405180910390f35b34801561030b57600080fd5b5061031461061f565b6040516103219190610f2f565b60405180910390f35b34801561033657600080fd5b50610351600480360381019061034c9190611001565b610625565b60405161035e9190610f2f565b60405180910390f35b60606003805461037690611070565b80601f01602080910402602001604051908101604052809291908181526020018280546103a290611070565b80156103ef5780601f106103c4576101008083540402835291602001916103ef565b820191906000526020600020905b8154815290600101906020018083116103d257829003601f168201915b5050505050905090565b6000806104046106ac565b90506104118185856106b4565b600191505092915050565b600061042a3360065461087d565b600654905090565b6000600254905090565b6000806104476106ac565b90506104548582856108e2565b61045f85858561096e565b60019150509392505050565b60006012905090565b60008061047f6106ac565b90506104a08185856104918589610625565b61049b91906110d0565b6106b4565b600191505092915050565b60008060008373ffffffffffffffffffffffffffffffffffffffff1673ffffffffffffffffffffffffffffffffffffffff168152602001908152602001600020549050919050565b60606004805461050290611070565b80601f016020809104026020016040519081016040528092919081815260200182805461052e90611070565b801561057b5780601f106105505761010080835404028352916020019161057b565b820191906000526020600020905b81548152906001019060200180831161055e57829003601f168201915b5050505050905090565b6000806105906106ac565b9050600061059e8286610625565b9050838110156105e3576040517f08c379a00000000000000000000000000000000000000000000000000000000081526004016105da90611198565b60405180910390fd5b6105f082868684036106b4565b60019250505092915050565b6000806106076106ac565b905061061481858561096e565b600191505092915050565b60055481565b6000600160008473ffffffffffffffffffffffffffffffffffffffff1673ffffffffffffffffffffffffffffffffffffffff16815260200190815260200160002060008373ffffffffffffffffffffffffffffffffffffffff1673ffffffffffffffffffffffffffffffffffffffff16815260200190815260200160002054905092915050565b600033905090565b600073ffffffffffffffffffffffffffffffffffffffff168373ffffffffffffffffffffffffffffffffffffffff1603610723576040517f08c379a000000000000000000000000000000000000000000000000000000000815260040161071a9061122a565b60405180910390fd5b600073ffffffffffffffffffffffffffffffffffffffff168273ffffffffffffffffffffffffffffffffffffffff1603610792576040517f08c379a0000000000000000000000000000000000000000000000000000000008152600401610789906112bc565b60405180910390fd5b80600160008573ffffffffffffffffffffffffffffffffffffffff1673ffffffffffffffffffffffffffffffffffffffff16815260200190815260200160002060008473ffffffffffffffffffffffffffffffffffffffff1673ffffffffffffffffffffffffffffffffffffffff168152602001908152602001600020819055508173ffffffffffffffffffffffffffffffffffffffff168373ffffffffffffffffffffffffffffffffffffffff167f8c5be1e5ebec7d5bd14f71427d1e84f3dd0314c0f7b2291e5b200ac8c7c3b925836040516108709190610f2f565b60405180910390a3505050565b60055481610889610432565b61089391906110d0565b11156108d4576040517f08c379a00000000000000000000000000000000000000000000000000000000081526004016108cb90611328565b60405180910390fd5b6108de8282610bed565b5050565b60006108ee8484610625565b90507fffffffffffffffffffffffffffffffffffffffffffffffffffffffffffffffff8114610968578181101561095a576040517f08c379a000000000000000000000000000000000000000000000000000000000815260040161095190611394565b60405180910390fd5b61096784848484036106b4565b5b50505050565b600073ffffffffffffffffffffffffffffffffffffffff168373ffffffffffffffffffffffffffffffffffffffff16036109dd576040517f08c379a00000000000000000000000000000000000000000000000000000000081526004016109d490611426565b60405180910390fd5b600073ffffffffffffffffffffffffffffffffffffffff168273ffffffffffffffffffffffffffffffffffffffff1603610a4c576040517f08c379a0000000000000000000000000000000000000000000000000000000008152600401610a43906114b8565b60405180910390fd5b610a57838383610d4c565b60008060008573ffffffffffffffffffffffffffffffffffffffff1673ffffffffffffffffffffffffffffffffffffffff16815260200190815260200160002054905081811015610add576040517f08c379a0000000000000000000000000000000000000000000000000000000008152600401610ad49061154a565b60405180910390fd5b8181036000808673ffffffffffffffffffffffffffffffffffffffff1673ffffffffffffffffffffffffffffffffffffffff16815260200190815260200160002081905550816000808573ffffffffffffffffffffffffffffffffffffffff1673ffffffffffffffffffffffffffffffffffffffff1681526020019081526020016000206000828254610b7091906110d0565b925050819055508273ffffffffffffffffffffffffffffffffffffffff168473ffffffffffffffffffffffffffffffffffffffff167fddf252ad1be2c89b69c2b068fc378daa952ba7f163c4a11628f55a4df523b3ef84604051610bd49190610f2f565b60405180910390a3610be7848484610d51565b50505050565b600073ffffffffffffffffffffffffffffffffffffffff168273ffffffffffffffffffffffffffffffffffffffff1603610c5c576040517f08c379a0000000000000000000000000000000000000000000000000000000008152600401610c53906115b6565b60405180910390fd5b610c6860008383610d4c565b8060026000828254610c7a91906110d0565b92505081905550806000808473ffffffffffffffffffffffffffffffffffffffff1673ffffffffffffffffffffffffffffffffffffffff1681526020019081526020016000206000828254610ccf91906110d0565b925050819055508173ffffffffffffffffffffffffffffffffffffffff16600073ffffffffffffffffffffffffffffffffffffffff167fddf252ad1be2c89b69c2b068fc378daa952ba7f163c4a11628f55a4df523b3ef83604051610d349190610f2f565b60405180910390a3610d4860008383610d51565b5050565b505050565b505050565b600081519050919050565b600082825260208201905092915050565b60005b83811015610d90578082015181840152602081019050610d75565b83811115610d9f576000848401525b50505050565b6000601f19601f8301169050919050565b6000610dc182610d56565b610dcb8185610d61565b9350610ddb818560208601610d72565b610de481610da5565b840191505092915050565b60006020820190508181036000830152610e098184610db6565b905092915050565b600080fd5b600073ffffffffffffffffffffffffffffffffffffffff82169050919050565b6000610e4182610e16565b9050919050565b610e5181610e36565b8114610e5c57600080fd5b50565b600081359050610e6e81610e48565b92915050565b6000819050919050565b610e8781610e74565b8114610e9257600080fd5b50565b600081359050610ea481610e7e565b92915050565b60008060408385031215610ec157610ec0610e11565b5b6000610ecf85828601610e5f565b9250506020610ee085828601610e95565b9150509250929050565b60008115159050919050565b610eff81610eea565b82525050565b6000602082019050610f1a6000830184610ef6565b92915050565b610f2981610e74565b82525050565b6000602082019050610f446000830184610f20565b92915050565b600080600060608486031215610f6357610f62610e11565b5b6000610f7186828701610e5f565b9350506020610f8286828701610e5f565b9250506040610f9386828701610e95565b9150509250925092565b600060ff82169050919050565b610fb381610f9d565b82525050565b6000602082019050610fce6000830184610faa565b92915050565b600060208284031215610fea57610fe9610e11565b5b6000610ff884828501610e5f565b91505092915050565b6000806040838503121561101857611017610e11565b5b600061102685828601610e5f565b925050602061103785828601610e5f565b9150509250929050565b7f4e487b7100000000000000000000000000000000000000000000000000000000600052602260045260246000fd5b6000600282049050600182168061108857607f821691505b60208210810361109b5761109a611041565b5b50919050565b7f4e487b7100000000000000000000000000000000000000000000000000000000600052601160045260246000fd5b60006110db82610e74565b91506110e683610e74565b9250827fffffffffffffffffffffffffffffffffffffffffffffffffffffffffffffffff0382111561111b5761111a6110a1565b5b828201905092915050565b7f45524332303a2064656372656173656420616c6c6f77616e63652062656c6f7760008201527f207a65726f000000000000000000000000000000000000000000000000000000602082015250565b6000611182602583610d61565b915061118d82611126565b604082019050919050565b600060208201905081810360008301526111b181611175565b9050919050565b7f45524332303a20617070726f76652066726f6d20746865207a65726f2061646460008201527f7265737300000000000000000000000000000000000000000000000000000000602082015250565b6000611214602483610d61565b915061121f826111b8565b604082019050919050565b6000602082019050818103600083015261124381611207565b9050919050565b7f45524332303a20617070726f766520746f20746865207a65726f20616464726560008201527f7373000000000000000000000000000000000000000000000000000000000000602082015250565b60006112a6602283610d61565b91506112b18261124a565b604082019050919050565b600060208201905081810360008301526112d581611299565b9050919050565b7f4552525f45584345454445445f4d41585f535550504c59000000000000000000600082015250565b6000611312601783610d61565b915061131d826112dc565b602082019050919050565b6000602082019050818103600083015261134181611305565b9050919050565b7f45524332303a20696e73756666696369656e7420616c6c6f77616e6365000000600082015250565b600061137e601d83610d61565b915061138982611348565b602082019050919050565b600060208201905081810360008301526113ad81611371565b9050919050565b7f45524332303a207472616e736665722066726f6d20746865207a65726f20616460008201527f6472657373000000000000000000000000000000000000000000000000000000602082015250565b6000611410602583610d61565b915061141b826113b4565b604082019050919050565b6000602082019050818103600083015261143f81611403565b9050919050565b7f45524332303a207472616e7366657220746f20746865207a65726f206164647260008201527f6573730000000000000000000000000000000000000000000000000000000000602082015250565b60006114a2602383610d61565b91506114ad82611446565b604082019050919050565b600060208201905081810360008301526114d181611495565b9050919050565b7f45524332303a207472616e7366657220616d6f756e742065786365656473206260008201527f616c616e63650000000000000000000000000000000000000000000000000000602082015250565b6000611534602683610d61565b915061153f826114d8565b604082019050919050565b6000602082019050818103600083015261156381611527565b9050919050565b7f45524332303a206d696e7420746f20746865207a65726f206164647265737300600082015250565b60006115a0601f83610d61565b91506115ab8261156a565b602082019050919050565b600060208201905081810360008301526115cf81611593565b905091905056fea26469706673582212203f6fa619f4f0ef3b85f7a70d4845bfd93ee428016186b3ebb2d6a547f664937a64736f6c634300080e0033",
  "immutableReferences": {},
  "source": "// SPDX-License-Identifier: MIT\npragma solidity 0.8.14;\n\nimport \"@openzeppelin/contracts/token/ERC20/IERC20.sol\";\nimport \"@openzeppelin/contracts/token/ERC20/ERC20.sol\";\nimport \"@openzeppelin/contracts/token/ERC20/extensions/IERC20Metadata.sol\";\nimport \"@openzeppelin/contracts/utils/Context.sol\";\n\ncontract ERC20Capped is ERC20 {\n\n    // define 21 milions as mark cap \n    uint256 public maxSupply = 21000000 * 10**decimals();\n    \n\n    constructor(string memory _name, \n                string memory _symbol) ERC20(_name, _symbol) \n    {}\n   \n\n    function _mintCapped(address _account, uint256 _value) internal {\n        require(totalSupply() + _value <= maxSupply, 'ERR_EXCEEDED_MAX_SUPPLY');\n        _mint(_account, _value);\n    }    \n}\n\ncontract Bazcoin is ERC20Capped {\n    \n    uint256 private _mintAmount = 50 *  10**decimals();\n\n    constructor() \n        ERC20Capped(\"Bazcoin\", \"Bazcoin\") \n    {\n        _mintCapped( msg.sender , 5000 * 10**decimals() ); \n    }\n\n    function mint() public payable returns(uint256)\n    {\n        _mintCapped(msg.sender,  _mintAmount);\n        return _mintAmount;\n    }\n\n}",
  "sourcePath": "/Users/vitorpedroviana/project/wallid/dev/web3/web3bazaar/mainnet-contracts/contracts/Bazcoin.sol",
  "compiler": {
    "name": "solc",
    "version": "0.8.14+commit.80d49f37.Emscripten.clang"
  },
  "schemaVersion": "3.4.8",
  "updatedAt": "2022-07-22T11:48:28.018Z",
  "devdoc": {
    "kind": "dev",
    "methods": {
      "allowance(address,address)": {
        "details": "See {IERC20-allowance}."
      },
      "approve(address,uint256)": {
        "details": "See {IERC20-approve}. NOTE: If `amount` is the maximum `uint256`, the allowance is not updated on `transferFrom`. This is semantically equivalent to an infinite approval. Requirements: - `spender` cannot be the zero address."
      },
      "balanceOf(address)": {
        "details": "See {IERC20-balanceOf}."
      },
      "decimals()": {
        "details": "Returns the number of decimals used to get its user representation. For example, if `decimals` equals `2`, a balance of `505` tokens should be displayed to a user as `5.05` (`505 / 10 ** 2`). Tokens usually opt for a value of 18, imitating the relationship between Ether and Wei. This is the value {ERC20} uses, unless this function is overridden; NOTE: This information is only used for _display_ purposes: it in no way affects any of the arithmetic of the contract, including {IERC20-balanceOf} and {IERC20-transfer}."
      },
      "decreaseAllowance(address,uint256)": {
        "details": "Atomically decreases the allowance granted to `spender` by the caller. This is an alternative to {approve} that can be used as a mitigation for problems described in {IERC20-approve}. Emits an {Approval} event indicating the updated allowance. Requirements: - `spender` cannot be the zero address. - `spender` must have allowance for the caller of at least `subtractedValue`."
      },
      "increaseAllowance(address,uint256)": {
        "details": "Atomically increases the allowance granted to `spender` by the caller. This is an alternative to {approve} that can be used as a mitigation for problems described in {IERC20-approve}. Emits an {Approval} event indicating the updated allowance. Requirements: - `spender` cannot be the zero address."
      },
      "name()": {
        "details": "Returns the name of the token."
      },
      "symbol()": {
        "details": "Returns the symbol of the token, usually a shorter version of the name."
      },
      "totalSupply()": {
        "details": "See {IERC20-totalSupply}."
      },
      "transfer(address,uint256)": {
        "details": "See {IERC20-transfer}. Requirements: - `to` cannot be the zero address. - the caller must have a balance of at least `amount`."
      },
      "transferFrom(address,address,uint256)": {
        "details": "See {IERC20-transferFrom}. Emits an {Approval} event indicating the updated allowance. This is not required by the EIP. See the note at the beginning of {ERC20}. NOTE: Does not update the allowance if the current allowance is the maximum `uint256`. Requirements: - `from` and `to` cannot be the zero address. - `from` must have a balance of at least `amount`. - the caller must have allowance for ``from``'s tokens of at least `amount`."
      }
    },
    "version": 1
  },
  "userdoc": {
    "kind": "user",
    "methods": {},
    "version": 1
  }
}