{
  "contractName": "ERC20Capped",
  "abi": [
    {
      "inputs": [
        {
          "internalType": "string",
          "name": "_name",
          "type": "string"
        },
        {
          "internalType": "string",
          "name": "_symbol",
          "type": "string"
        }
      ],
      "stateMutability": "nonpayable",
      "type": "constructor"
    },
    {
      "anonymous": false,
      "inputs": [
        {
          "indexed": true,
          "internalType": "address",
          "name": "owner",
          "type": "address"
        },
        {
          "indexed": true,
          "internalType": "address",
          "name": "spender",
          "type": "address"
        },
        {
          "indexed": false,
          "internalType": "uint256",
          "name": "value",
          "type": "uint256"
        }
      ],
      "name": "Approval",
      "type": "event"
    },
    {
      "anonymous": false,
      "inputs": [
        {
          "indexed": true,
          "internalType": "address",
          "name": "from",
          "type": "address"
        },
        {
          "indexed": true,
          "internalType": "address",
          "name": "to",
          "type": "address"
        },
        {
          "indexed": false,
          "internalType": "uint256",
          "name": "value",
          "type": "uint256"
        }
      ],
      "name": "Transfer",
      "type": "event"
    },
    {
      "inputs": [
        {
          "internalType": "address",
          "name": "owner",
          "type": "address"
        },
        {
          "internalType": "address",
          "name": "spender",
          "type": "address"
        }
      ],
      "name": "allowance",
      "outputs": [
        {
          "internalType": "uint256",
          "name": "",
          "type": "uint256"
        }
      ],
      "stateMutability": "view",
      "type": "function"
    },
    {
      "inputs": [
        {
          "internalType": "address",
          "name": "spender",
          "type": "address"
        },
        {
          "internalType": "uint256",
          "name": "amount",
          "type": "uint256"
        }
      ],
      "name": "approve",
      "outputs": [
        {
          "internalType": "bool",
          "name": "",
          "type": "bool"
        }
      ],
      "stateMutability": "nonpayable",
      "type": "function"
    },
    {
      "inputs": [
        {
          "internalType": "address",
          "name": "account",
          "type": "address"
        }
      ],
      "name": "balanceOf",
      "outputs": [
        {
          "internalType": "uint256",
          "name": "",
          "type": "uint256"
        }
      ],
      "stateMutability": "view",
      "type": "function"
    },
    {
      "inputs": [],
      "name": "decimals",
      "outputs": [
        {
          "internalType": "uint8",
          "name": "",
          "type": "uint8"
        }
      ],
      "stateMutability": "view",
      "type": "function"
    },
    {
      "inputs": [
        {
          "internalType": "address",
          "name": "spender",
          "type": "address"
        },
        {
          "internalType": "uint256",
          "name": "subtractedValue",
          "type": "uint256"
        }
      ],
      "name": "decreaseAllowance",
      "outputs": [
        {
          "internalType": "bool",
          "name": "",
          "type": "bool"
        }
      ],
      "stateMutability": "nonpayable",
      "type": "function"
    },
    {
      "inputs": [
        {
          "internalType": "address",
          "name": "spender",
          "type": "address"
        },
        {
          "internalType": "uint256",
          "name": "addedValue",
          "type": "uint256"
        }
      ],
      "name": "increaseAllowance",
      "outputs": [
        {
          "internalType": "bool",
          "name": "",
          "type": "bool"
        }
      ],
      "stateMutability": "nonpayable",
      "type": "function"
    },
    {
      "inputs": [],
      "name": "maxSupply",
      "outputs": [
        {
          "internalType": "uint256",
          "name": "",
          "type": "uint256"
        }
      ],
      "stateMutability": "view",
      "type": "function"
    },
    {
      "inputs": [],
      "name": "name",
      "outputs": [
        {
          "internalType": "string",
          "name": "",
          "type": "string"
        }
      ],
      "stateMutability": "view",
      "type": "function"
    },
    {
      "inputs": [],
      "name": "symbol",
      "outputs": [
        {
          "internalType": "string",
          "name": "",
          "type": "string"
        }
      ],
      "stateMutability": "view",
      "type": "function"
    },
    {
      "inputs": [],
      "name": "totalSupply",
      "outputs": [
        {
          "internalType": "uint256",
          "name": "",
          "type": "uint256"
        }
      ],
      "stateMutability": "view",
      "type": "function"
    },
    {
      "inputs": [
        {
          "internalType": "address",
          "name": "to",
          "type": "address"
        },
        {
          "internalType": "uint256",
          "name": "amount",
          "type": "uint256"
        }
      ],
      "name": "transfer",
      "outputs": [
        {
          "internalType": "bool",
          "name": "",
          "type": "bool"
        }
      ],
      "stateMutability": "nonpayable",
      "type": "function"
    },
    {
      "inputs": [
        {
          "internalType": "address",
          "name": "from",
          "type": "address"
        },
        {
          "internalType": "address",
          "name": "to",
          "type": "address"
        },
        {
          "internalType": "uint256",
          "name": "amount",
          "type": "uint256"
        }
      ],
      "name": "transferFrom",
      "outputs": [
        {
          "internalType": "bool",
          "name": "",
          "type": "bool"
        }
      ],
      "stateMutability": "nonpayable",
      "type": "function"
    }
  ],
  "bytecode": "0x608060405262000017640100000000620000a1810204565b6200002490600a6200027d565b62000034906301406f4062000295565b6005553480156200004457600080fd5b5060405162000ea938038062000ea983398101604081905262000067916200039d565b81518290829062000080906003906020850190620000a6565b50805162000096906004906020840190620000a6565b50505050506200045c565b601290565b828054620000b49062000407565b90600052602060002090601f016020900481019282620000d8576000855562000123565b82601f10620000f357805160ff191683800117855562000123565b8280016001018555821562000123579182015b828111156200012357825182559160200191906001019062000106565b506200013192915062000135565b5090565b5b8082111562000131576000815560010162000136565b7f4e487b7100000000000000000000000000000000000000000000000000000000600052601160045260246000fd5b600181815b80851115620001be578160001904821115620001a057620001a06200014c565b80851615620001ae57918102915b6002909404939080029062000180565b509250929050565b600082620001d75750600162000277565b81620001e65750600062000277565b8160018114620001ff57600281146200020a576200022b565b600191505062000277565b60ff8411156200021e576200021e6200014c565b8360020a91505062000277565b5060208310610133831016604e8410600b841016171562000250575081810a62000277565b6200025c83836200017b565b80600019048211156200027357620002736200014c565b0290505b92915050565b60006200028e60ff841683620001c6565b9392505050565b6000816000190483118215151615620002b257620002b26200014c565b500290565b7f4e487b7100000000000000000000000000000000000000000000000000000000600052604160045260246000fd5b600082601f830112620002f857600080fd5b81516001604060020a0380821115620003155762000315620002b7565b604051601f8301601f19908116603f01168101908282118183101715620003405762000340620002b7565b816040528381526020925086838588010111156200035d57600080fd5b600091505b8382101562000381578582018301518183018401529082019062000362565b83821115620003935760008385830101525b9695505050505050565b60008060408385031215620003b157600080fd5b82516001604060020a0380821115620003c957600080fd5b620003d786838701620002e6565b93506020850151915080821115620003ee57600080fd5b50620003fd85828601620002e6565b9150509250929050565b6002810460018216806200041c57607f821691505b60208210810362000456577f4e487b7100000000000000000000000000000000000000000000000000000000600052602260045260246000fd5b50919050565b610a3d806200046c6000396000f3fe608060405234801561001057600080fd5b50600436106100f1576000357c01000000000000000000000000000000000000000000000000000000009004806370a082311161009e578063a9059cbb11610078578063a9059cbb146101c2578063d5abeb01146101d5578063dd62ed3e146101de57600080fd5b806370a082311461017e57806395d89b41146101a7578063a457c2d7146101af57600080fd5b806323b872dd116100cf57806323b872dd14610149578063313ce5671461015c578063395093511461016b57600080fd5b806306fdde03146100f6578063095ea7b31461011457806318160ddd14610137575b600080fd5b6100fe610217565b60405161010b9190610829565b60405180910390f35b61012761012236600461089a565b6102a9565b604051901515815260200161010b565b6002545b60405190815260200161010b565b6101276101573660046108c4565b6102c1565b6040516012815260200161010b565b61012761017936600461089a565b6102e5565b61013b61018c366004610900565b600160a060020a031660009081526020819052604090205490565b6100fe610324565b6101276101bd36600461089a565b610333565b6101276101d036600461089a565b6103ea565b61013b60055481565b61013b6101ec366004610922565b600160a060020a03918216600090815260016020908152604080832093909416825291909152205490565b60606003805461022690610955565b80601f016020809104026020016040519081016040528092919081815260200182805461025290610955565b801561029f5780601f106102745761010080835404028352916020019161029f565b820191906000526020600020905b81548152906001019060200180831161028257829003601f168201915b5050505050905090565b6000336102b78185856103f8565b5060019392505050565b6000336102cf858285610560565b6102da8585856105fa565b506001949350505050565b336000818152600160209081526040808320600160a060020a03871684529091528120549091906102b7908290869061031f9087906109a8565b6103f8565b60606004805461022690610955565b336000818152600160209081526040808320600160a060020a0387168452909152812054909190838110156103dd576040516000805160206109e8833981519152815260206004820152602560248201527f45524332303a2064656372656173656420616c6c6f77616e63652062656c6f7760448201527f207a65726f00000000000000000000000000000000000000000000000000000060648201526084015b60405180910390fd5b6102da82868684036103f8565b6000336102b78185856105fa565b600160a060020a03831661047b576040516000805160206109e88339815191528152602060048201526024808201527f45524332303a20617070726f76652066726f6d20746865207a65726f2061646460448201527f726573730000000000000000000000000000000000000000000000000000000060648201526084016103d4565b600160a060020a0382166104ff576040516000805160206109e8833981519152815260206004820152602260248201527f45524332303a20617070726f766520746f20746865207a65726f20616464726560448201527f737300000000000000000000000000000000000000000000000000000000000060648201526084016103d4565b600160a060020a0383811660008181526001602090815260408083209487168084529482529182902085905590518481527f8c5be1e5ebec7d5bd14f71427d1e84f3dd0314c0f7b2291e5b200ac8c7c3b925910160405180910390a3505050565b600160a060020a0383811660009081526001602090815260408083209386168352929052205460001981146105f457818110156105e7576040516000805160206109e8833981519152815260206004820152601d60248201527f45524332303a20696e73756666696369656e7420616c6c6f77616e636500000060448201526064016103d4565b6105f484848484036103f8565b50505050565b600160a060020a03831661067e576040516000805160206109e8833981519152815260206004820152602560248201527f45524332303a207472616e736665722066726f6d20746865207a65726f20616460448201527f647265737300000000000000000000000000000000000000000000000000000060648201526084016103d4565b600160a060020a038216610702576040516000805160206109e8833981519152815260206004820152602360248201527f45524332303a207472616e7366657220746f20746865207a65726f206164647260448201527f657373000000000000000000000000000000000000000000000000000000000060648201526084016103d4565b600160a060020a03831660009081526020819052604090205481811015610799576040516000805160206109e8833981519152815260206004820152602660248201527f45524332303a207472616e7366657220616d6f756e742065786365656473206260448201527f616c616e6365000000000000000000000000000000000000000000000000000060648201526084016103d4565b600160a060020a038085166000908152602081905260408082208585039055918516815290812080548492906107d09084906109a8565b9250508190555082600160a060020a031684600160a060020a03167fddf252ad1be2c89b69c2b068fc378daa952ba7f163c4a11628f55a4df523b3ef8460405161081c91815260200190565b60405180910390a36105f4565b600060208083528351808285015260005b818110156108565785810183015185820160400152820161083a565b81811115610868576000604083870101525b50601f01601f1916929092016040019392505050565b8035600160a060020a038116811461089557600080fd5b919050565b600080604083850312156108ad57600080fd5b6108b68361087e565b946020939093013593505050565b6000806000606084860312156108d957600080fd5b6108e28461087e565b92506108f06020850161087e565b9150604084013590509250925092565b60006020828403121561091257600080fd5b61091b8261087e565b9392505050565b6000806040838503121561093557600080fd5b61093e8361087e565b915061094c6020840161087e565b90509250929050565b60028104600182168061096957607f821691505b6020821081036109a2577f4e487b7100000000000000000000000000000000000000000000000000000000600052602260045260246000fd5b50919050565b600082198211156109e2577f4e487b7100000000000000000000000000000000000000000000000000000000600052601160045260246000fd5b50019056fe08c379a000000000000000000000000000000000000000000000000000000000a26469706673582212207a2b6e8e567fc4fa4e84fb69ec805e9756242a245338566b284d948d8fac7a0764736f6c634300080e0033",
  "immutableReferences": {},
  "source": "// SPDX-License-Identifier: MIT\npragma solidity 0.8.14;\n\nimport \"@openzeppelin/contracts/token/ERC20/IERC20.sol\";\nimport \"@openzeppelin/contracts/token/ERC20/ERC20.sol\";\nimport \"@openzeppelin/contracts/token/ERC20/extensions/IERC20Metadata.sol\";\nimport \"@openzeppelin/contracts/utils/Context.sol\";\n\ncontract ERC20Capped is ERC20 {\n\n    // define 21 milions as mark cap \n    uint256 public maxSupply = 21000000 * 10**decimals();\n    \n\n    constructor(string memory _name, \n                string memory _symbol) ERC20(_name, _symbol) \n    {}\n   \n\n    function _mintCapped(address _account, uint256 _value) internal {\n        require(totalSupply() + _value <= maxSupply, 'ERR_EXCEEDED_MAX_SUPPLY');\n        _mint(_account, _value);\n    }    \n}\n\ncontract Bazcoin is ERC20Capped {\n    \n    uint256 private _mintAmount = 50 *  10**decimals();\n\n    constructor() \n        ERC20Capped(\"Bazcoin\", \"Bazcoin\") \n    {\n        _mintCapped( msg.sender , 5000 * 10**decimals() ); \n    }\n\n    function mint() public payable returns(uint256)\n    {\n        _mintCapped(msg.sender,  _mintAmount);\n        return _mintAmount;\n    }\n\n}",
  "sourcePath": "/Users/vitorpedroviana/project/wallid/dev/web3/web3bazaar/mainnet-contracts/contracts/Bazcoin.sol",
  "compiler": {
    "name": "solc",
    "version": "0.8.14+commit.80d49f37.Emscripten.clang"
  },
  "schemaVersion": "3.4.8",
  "updatedAt": "2022-08-02T14:23:54.676Z",
  "devdoc": {
    "kind": "dev",
    "methods": {
      "allowance(address,address)": {
        "details": "See {IERC20-allowance}."
      },
      "approve(address,uint256)": {
        "details": "See {IERC20-approve}. NOTE: If `amount` is the maximum `uint256`, the allowance is not updated on `transferFrom`. This is semantically equivalent to an infinite approval. Requirements: - `spender` cannot be the zero address."
      },
      "balanceOf(address)": {
        "details": "See {IERC20-balanceOf}."
      },
      "decimals()": {
        "details": "Returns the number of decimals used to get its user representation. For example, if `decimals` equals `2`, a balance of `505` tokens should be displayed to a user as `5.05` (`505 / 10 ** 2`). Tokens usually opt for a value of 18, imitating the relationship between Ether and Wei. This is the value {ERC20} uses, unless this function is overridden; NOTE: This information is only used for _display_ purposes: it in no way affects any of the arithmetic of the contract, including {IERC20-balanceOf} and {IERC20-transfer}."
      },
      "decreaseAllowance(address,uint256)": {
        "details": "Atomically decreases the allowance granted to `spender` by the caller. This is an alternative to {approve} that can be used as a mitigation for problems described in {IERC20-approve}. Emits an {Approval} event indicating the updated allowance. Requirements: - `spender` cannot be the zero address. - `spender` must have allowance for the caller of at least `subtractedValue`."
      },
      "increaseAllowance(address,uint256)": {
        "details": "Atomically increases the allowance granted to `spender` by the caller. This is an alternative to {approve} that can be used as a mitigation for problems described in {IERC20-approve}. Emits an {Approval} event indicating the updated allowance. Requirements: - `spender` cannot be the zero address."
      },
      "name()": {
        "details": "Returns the name of the token."
      },
      "symbol()": {
        "details": "Returns the symbol of the token, usually a shorter version of the name."
      },
      "totalSupply()": {
        "details": "See {IERC20-totalSupply}."
      },
      "transfer(address,uint256)": {
        "details": "See {IERC20-transfer}. Requirements: - `to` cannot be the zero address. - the caller must have a balance of at least `amount`."
      },
      "transferFrom(address,address,uint256)": {
        "details": "See {IERC20-transferFrom}. Emits an {Approval} event indicating the updated allowance. This is not required by the EIP. See the note at the beginning of {ERC20}. NOTE: Does not update the allowance if the current allowance is the maximum `uint256`. Requirements: - `from` and `to` cannot be the zero address. - `from` must have a balance of at least `amount`. - the caller must have allowance for ``from``'s tokens of at least `amount`."
      }
    },
    "version": 1
  },
  "userdoc": {
    "kind": "user",
    "methods": {},
    "version": 1
  }
}