{
  "contractName": "SimpleAccessControl",
  "abi": [
    {
      "inputs": [],
      "stateMutability": "nonpayable",
      "type": "constructor"
    },
    {
      "inputs": [
        {
          "internalType": "address payable",
          "name": "newOwner",
          "type": "address"
        }
      ],
      "name": "transferOwnership",
      "outputs": [],
      "stateMutability": "nonpayable",
      "type": "function"
    }
  ],
  "bytecode": "0x608060405234801561001057600080fd5b50336000806101000a81548173ffffffffffffffffffffffffffffffffffffffff021916908373ffffffffffffffffffffffffffffffffffffffff160217905550610435806100606000396000f3fe608060405234801561001057600080fd5b506004361061002b5760003560e01c8063f2fde38b14610030575b600080fd5b61004a6004803603810190610045919061027d565b61004c565b005b60008054906101000a900473ffffffffffffffffffffffffffffffffffffffff1673ffffffffffffffffffffffffffffffffffffffff163373ffffffffffffffffffffffffffffffffffffffff16146100da576040517f08c379a00000000000000000000000000000000000000000000000000000000081526004016100d190610307565b60405180910390fd5b600073ffffffffffffffffffffffffffffffffffffffff168173ffffffffffffffffffffffffffffffffffffffff1603610149576040517f08c379a000000000000000000000000000000000000000000000000000000000815260040161014090610373565b60405180910390fd5b60008054906101000a900473ffffffffffffffffffffffffffffffffffffffff1673ffffffffffffffffffffffffffffffffffffffff168173ffffffffffffffffffffffffffffffffffffffff16036101d7576040517f08c379a00000000000000000000000000000000000000000000000000000000081526004016101ce906103df565b60405180910390fd5b806000806101000a81548173ffffffffffffffffffffffffffffffffffffffff021916908373ffffffffffffffffffffffffffffffffffffffff16021790555050565b600080fd5b600073ffffffffffffffffffffffffffffffffffffffff82169050919050565b600061024a8261021f565b9050919050565b61025a8161023f565b811461026557600080fd5b50565b60008135905061027781610251565b92915050565b6000602082840312156102935761029261021a565b5b60006102a184828501610268565b91505092915050565b600082825260208201905092915050565b7f4552525f4e4f545f4f574e455200000000000000000000000000000000000000600082015250565b60006102f1600d836102aa565b91506102fc826102bb565b602082019050919050565b60006020820190508181036000830152610320816102e4565b9050919050565b7f4552525f5a45524f5f4144445200000000000000000000000000000000000000600082015250565b600061035d600d836102aa565b915061036882610327565b602082019050919050565b6000602082019050818103600083015261038c81610350565b9050919050565b7f4552525f49535f4f574e45520000000000000000000000000000000000000000600082015250565b60006103c9600c836102aa565b91506103d482610393565b602082019050919050565b600060208201905081810360008301526103f8816103bc565b905091905056fea26469706673582212201e62cd1b252542a1d61438fefeac4d45c645543dc4005f0a2543d5f6eafb4cf664736f6c634300080e0033",
  "immutableReferences": {},
  "source": "// contracts/GameItems.sol\n// SPDX-License-Identifier: MIT\npragma solidity ^0.8.14;\n\nimport \"@openzeppelin/contracts/token/ERC1155/ERC1155.sol\";\n\ncontract SimpleAccessControl {\n    address internal _owner;\n\n    modifier isOwner() {\n        require(msg.sender == _owner, \"ERR_NOT_OWNER\");\n        _;\n    }\n\n    /*\n    constructor(address payable ownerAdress) {\n        _owner = ownerAdress; \n    }\n    */\n    constructor() {\n        _owner = msg.sender;\n    }\n\n    function transferOwnership(address payable newOwner) public isOwner {\n        require(newOwner != address(0), \"ERR_ZERO_ADDR\");\n        require(newOwner != _owner, \"ERR_IS_OWNER\");\n        _owner = newOwner;\n    }\n}\n\ncontract BazaarERC1155Collection is ERC1155, SimpleAccessControl {\n    uint256 private _id = 1;\n    string public name;\n    string private _contractURI;\n\n    constructor()\n        public\n        ERC1155(\"https://webazaar-meta-api.herokuapp.com/1155/detail/{id}\")\n    {\n        _contractURI = \"https://webazaar-meta-api.herokuapp.com/1155/detail/\";\n        name = \"Bazaar ERC1155 v3\";\n        mint(5);\n        mint(10);\n    }\n\n    function mint(uint256 total) public returns (bool) {\n        require(\n            (total >= 1 && total <= 10),\n            \"NFT_MINT: GREATER THEN 1 LESS THEN 10\"\n        );\n        // _mint(msg.sender, _id++, (total) * (1 ether), \"\");\n        _mint(msg.sender, _id++, (total), \"\");\n        return true;\n    }\n\n    function setURI(string memory newuri) public isOwner returns (bool) {\n        _setURI(newuri);\n        return true;\n    }\n\n    function setContractURI(string memory newuri)\n        public\n        isOwner\n        returns (bool)\n    {\n        _contractURI = newuri;\n        return true;\n    }\n\n    function setCollectionName(string memory _name)\n        public\n        isOwner\n        returns (bool)\n    {\n        name = _name;\n        return true;\n    }\n\n    function contractURI() public view returns (string memory) {\n        return _contractURI;\n    }\n}\n",
  "sourcePath": "/Users/vitorpedroviana/project/wallid/dev/web3/web3bazaar/mainnet-contracts/contracts/BazaarERC1155Collection.sol",
  "compiler": {
    "name": "solc",
    "version": "0.8.14+commit.80d49f37.Emscripten.clang"
  },
  "schemaVersion": "3.4.8",
  "updatedAt": "2022-07-22T17:18:54.966Z",
  "devdoc": {
    "kind": "dev",
    "methods": {},
    "version": 1
  },
  "userdoc": {
    "kind": "user",
    "methods": {},
    "version": 1
  }
}