{
  "contractName": "SimpleAccessControl",
  "abi": [
    {
      "inputs": [],
      "stateMutability": "nonpayable",
      "type": "constructor"
    },
    {
      "inputs": [
        {
          "internalType": "address payable",
          "name": "newOwner",
          "type": "address"
        }
      ],
      "name": "transferOwnership",
      "outputs": [],
      "stateMutability": "nonpayable",
      "type": "function"
    }
  ],
  "bytecode": "0x608060405234801561001057600080fd5b50336000806101000a81548173ffffffffffffffffffffffffffffffffffffffff021916908373ffffffffffffffffffffffffffffffffffffffff160217905550610435806100606000396000f3fe608060405234801561001057600080fd5b506004361061002b5760003560e01c8063f2fde38b14610030575b600080fd5b61004a6004803603810190610045919061027d565b61004c565b005b60008054906101000a900473ffffffffffffffffffffffffffffffffffffffff1673ffffffffffffffffffffffffffffffffffffffff163373ffffffffffffffffffffffffffffffffffffffff16146100da576040517f08c379a00000000000000000000000000000000000000000000000000000000081526004016100d190610307565b60405180910390fd5b600073ffffffffffffffffffffffffffffffffffffffff168173ffffffffffffffffffffffffffffffffffffffff1603610149576040517f08c379a000000000000000000000000000000000000000000000000000000000815260040161014090610373565b60405180910390fd5b60008054906101000a900473ffffffffffffffffffffffffffffffffffffffff1673ffffffffffffffffffffffffffffffffffffffff168173ffffffffffffffffffffffffffffffffffffffff16036101d7576040517f08c379a00000000000000000000000000000000000000000000000000000000081526004016101ce906103df565b60405180910390fd5b806000806101000a81548173ffffffffffffffffffffffffffffffffffffffff021916908373ffffffffffffffffffffffffffffffffffffffff16021790555050565b600080fd5b600073ffffffffffffffffffffffffffffffffffffffff82169050919050565b600061024a8261021f565b9050919050565b61025a8161023f565b811461026557600080fd5b50565b60008135905061027781610251565b92915050565b6000602082840312156102935761029261021a565b5b60006102a184828501610268565b91505092915050565b600082825260208201905092915050565b7f4552525f4e4f545f4f574e455200000000000000000000000000000000000000600082015250565b60006102f1600d836102aa565b91506102fc826102bb565b602082019050919050565b60006020820190508181036000830152610320816102e4565b9050919050565b7f4552525f5a45524f5f4144445200000000000000000000000000000000000000600082015250565b600061035d600d836102aa565b915061036882610327565b602082019050919050565b6000602082019050818103600083015261038c81610350565b9050919050565b7f4552525f49535f4f574e45520000000000000000000000000000000000000000600082015250565b60006103c9600c836102aa565b91506103d482610393565b602082019050919050565b600060208201905081810360008301526103f8816103bc565b905091905056fea2646970667358221220949f9e9d71a8c490feb72e72203b91bb7fa83b79ce6f9409ddd34ab5e538689d64736f6c634300080e0033",
  "immutableReferences": {},
  "source": "// SPDX-License-Identifier: MIT\npragma solidity 0.8.14;\n\nimport \"@openzeppelin/contracts/token/ERC721/ERC721.sol\";\n\ncontract SimpleAccessControl {\n    address internal _owner;\n\n    modifier isOwner() {\n        require(msg.sender == _owner, \"ERR_NOT_OWNER\");\n        _;\n    }\n\n    /*\n    constructor(address payable ownerAdress) {\n        _owner = ownerAdress; \n    }\n    */\n    constructor() {\n        _owner = msg.sender;\n    }\n\n    function transferOwnership(address payable newOwner) public isOwner {\n        require(newOwner != address(0), \"ERR_ZERO_ADDR\");\n        require(newOwner != _owner, \"ERR_IS_OWNER\");\n        _owner = newOwner;\n    }\n}\n\ncontract TestCollection is ERC721 {\n    uint256 private _id;\n    // Base URI\n    string private _baseURIextended;\n    string private _contractURI;\n\n    constructor() ERC721(\"Test Collection\", \"Test Collection\") {\n        _id = 1;\n        //_contractURI = \"https://webazaar-meta-api.herokuapp.com/721/detail/\";\n        //_baseURIextended = \"https://webazaar-meta-api.herokuapp.com/721/detail/{id}\";\n        _contractURI = \"https://raw.githubusercontent.com/Web3bazaar/giveways/main/projects/sunflowersland/contract\";\n        _baseURIextended = \"https://raw.githubusercontent.com/Web3bazaar/giveways/main/projects/sunflowersland/data/\";\n        //mint();\n        //mint();\n        //mint();\n    }\n\n    function mint() public returns (bool) {\n        _mint(msg.sender, _id++);\n        return true;\n    }\n\n    // set new base uri\n    // function setBaseURI(string memory baseURI_) external isOwner() {\n    //     _baseURIextended = baseURI_;\n    // }\n\n    // // override original method\n    // function _baseURI() internal view virtual override returns (string memory) {\n    //     return _baseURIextended;\n    // }\n\n    // function setContractURI(string memory newuri)  public  isOwner() returns (bool)\n    // {\n    //     _contractURI = newuri;\n    //     return true;\n    // }\n\n    // function contractURI() public view returns (string memory) {\n    //     return _contractURI;\n    // }\n}\n",
  "sourcePath": "/Users/vitorpedroviana/project/wallid/dev/web3/web3bazaar/mainnet-contracts/contracts/TestCollection.sol",
  "compiler": {
    "name": "solc",
    "version": "0.8.14+commit.80d49f37.Emscripten.clang"
  },
  "schemaVersion": "3.4.8",
  "updatedAt": "2022-07-22T23:40:43.412Z",
  "devdoc": {
    "kind": "dev",
    "methods": {},
    "version": 1
  },
  "userdoc": {
    "kind": "user",
    "methods": {},
    "version": 1
  }
}