{
  "contractName": "TestCollection",
  "abi": [
    {
      "inputs": [],
      "stateMutability": "nonpayable",
      "type": "constructor"
    },
    {
      "anonymous": false,
      "inputs": [
        {
          "indexed": true,
          "internalType": "address",
          "name": "owner",
          "type": "address"
        },
        {
          "indexed": true,
          "internalType": "address",
          "name": "approved",
          "type": "address"
        },
        {
          "indexed": true,
          "internalType": "uint256",
          "name": "tokenId",
          "type": "uint256"
        }
      ],
      "name": "Approval",
      "type": "event"
    },
    {
      "anonymous": false,
      "inputs": [
        {
          "indexed": true,
          "internalType": "address",
          "name": "owner",
          "type": "address"
        },
        {
          "indexed": true,
          "internalType": "address",
          "name": "operator",
          "type": "address"
        },
        {
          "indexed": false,
          "internalType": "bool",
          "name": "approved",
          "type": "bool"
        }
      ],
      "name": "ApprovalForAll",
      "type": "event"
    },
    {
      "anonymous": false,
      "inputs": [
        {
          "indexed": true,
          "internalType": "address",
          "name": "from",
          "type": "address"
        },
        {
          "indexed": true,
          "internalType": "address",
          "name": "to",
          "type": "address"
        },
        {
          "indexed": true,
          "internalType": "uint256",
          "name": "tokenId",
          "type": "uint256"
        }
      ],
      "name": "Transfer",
      "type": "event"
    },
    {
      "inputs": [
        {
          "internalType": "address",
          "name": "to",
          "type": "address"
        },
        {
          "internalType": "uint256",
          "name": "tokenId",
          "type": "uint256"
        }
      ],
      "name": "approve",
      "outputs": [],
      "stateMutability": "nonpayable",
      "type": "function"
    },
    {
      "inputs": [
        {
          "internalType": "address",
          "name": "owner",
          "type": "address"
        }
      ],
      "name": "balanceOf",
      "outputs": [
        {
          "internalType": "uint256",
          "name": "",
          "type": "uint256"
        }
      ],
      "stateMutability": "view",
      "type": "function"
    },
    {
      "inputs": [
        {
          "internalType": "uint256",
          "name": "tokenId",
          "type": "uint256"
        }
      ],
      "name": "getApproved",
      "outputs": [
        {
          "internalType": "address",
          "name": "",
          "type": "address"
        }
      ],
      "stateMutability": "view",
      "type": "function"
    },
    {
      "inputs": [
        {
          "internalType": "address",
          "name": "owner",
          "type": "address"
        },
        {
          "internalType": "address",
          "name": "operator",
          "type": "address"
        }
      ],
      "name": "isApprovedForAll",
      "outputs": [
        {
          "internalType": "bool",
          "name": "",
          "type": "bool"
        }
      ],
      "stateMutability": "view",
      "type": "function"
    },
    {
      "inputs": [],
      "name": "name",
      "outputs": [
        {
          "internalType": "string",
          "name": "",
          "type": "string"
        }
      ],
      "stateMutability": "view",
      "type": "function"
    },
    {
      "inputs": [
        {
          "internalType": "uint256",
          "name": "tokenId",
          "type": "uint256"
        }
      ],
      "name": "ownerOf",
      "outputs": [
        {
          "internalType": "address",
          "name": "",
          "type": "address"
        }
      ],
      "stateMutability": "view",
      "type": "function"
    },
    {
      "inputs": [
        {
          "internalType": "address",
          "name": "from",
          "type": "address"
        },
        {
          "internalType": "address",
          "name": "to",
          "type": "address"
        },
        {
          "internalType": "uint256",
          "name": "tokenId",
          "type": "uint256"
        }
      ],
      "name": "safeTransferFrom",
      "outputs": [],
      "stateMutability": "nonpayable",
      "type": "function"
    },
    {
      "inputs": [
        {
          "internalType": "address",
          "name": "from",
          "type": "address"
        },
        {
          "internalType": "address",
          "name": "to",
          "type": "address"
        },
        {
          "internalType": "uint256",
          "name": "tokenId",
          "type": "uint256"
        },
        {
          "internalType": "bytes",
          "name": "data",
          "type": "bytes"
        }
      ],
      "name": "safeTransferFrom",
      "outputs": [],
      "stateMutability": "nonpayable",
      "type": "function"
    },
    {
      "inputs": [
        {
          "internalType": "address",
          "name": "operator",
          "type": "address"
        },
        {
          "internalType": "bool",
          "name": "approved",
          "type": "bool"
        }
      ],
      "name": "setApprovalForAll",
      "outputs": [],
      "stateMutability": "nonpayable",
      "type": "function"
    },
    {
      "inputs": [
        {
          "internalType": "bytes4",
          "name": "interfaceId",
          "type": "bytes4"
        }
      ],
      "name": "supportsInterface",
      "outputs": [
        {
          "internalType": "bool",
          "name": "",
          "type": "bool"
        }
      ],
      "stateMutability": "view",
      "type": "function"
    },
    {
      "inputs": [],
      "name": "symbol",
      "outputs": [
        {
          "internalType": "string",
          "name": "",
          "type": "string"
        }
      ],
      "stateMutability": "view",
      "type": "function"
    },
    {
      "inputs": [
        {
          "internalType": "uint256",
          "name": "tokenId",
          "type": "uint256"
        }
      ],
      "name": "tokenURI",
      "outputs": [
        {
          "internalType": "string",
          "name": "",
          "type": "string"
        }
      ],
      "stateMutability": "view",
      "type": "function"
    },
    {
      "inputs": [
        {
          "internalType": "address",
          "name": "from",
          "type": "address"
        },
        {
          "internalType": "address",
          "name": "to",
          "type": "address"
        },
        {
          "internalType": "uint256",
          "name": "tokenId",
          "type": "uint256"
        }
      ],
      "name": "transferFrom",
      "outputs": [],
      "stateMutability": "nonpayable",
      "type": "function"
    },
    {
      "inputs": [
        {
          "internalType": "address payable",
          "name": "newOwner",
          "type": "address"
        }
      ],
      "name": "transferOwnership",
      "outputs": [],
      "stateMutability": "nonpayable",
      "type": "function"
    },
    {
      "inputs": [],
      "name": "mint",
      "outputs": [
        {
          "internalType": "bool",
          "name": "",
          "type": "bool"
        }
      ],
      "stateMutability": "nonpayable",
      "type": "function"
    },
    {
      "inputs": [
        {
          "internalType": "string",
          "name": "baseURI_",
          "type": "string"
        }
      ],
      "name": "setBaseURI",
      "outputs": [],
      "stateMutability": "nonpayable",
      "type": "function"
    },
    {
      "inputs": [
        {
          "internalType": "string",
          "name": "newuri",
          "type": "string"
        }
      ],
      "name": "setContractURI",
      "outputs": [
        {
          "internalType": "bool",
          "name": "",
          "type": "bool"
        }
      ],
      "stateMutability": "nonpayable",
      "type": "function"
    },
    {
      "inputs": [],
      "name": "contractURI",
      "outputs": [
        {
          "internalType": "string",
          "name": "",
          "type": "string"
        }
      ],
      "stateMutability": "view",
      "type": "function"
    }
  ],
  "bytecode": "0x60806040523480156200001157600080fd5b506040518060400160405280600f81526020017f5465737420436f6c6c656374696f6e00000000000000000000000000000000008152506040518060400160405280600f81526020017f5465737420436f6c6c656374696f6e000000000000000000000000000000000081525081600090805190602001906200009692919062000165565b508060019080519060200190620000af92919062000165565b50505033600660006101000a81548173ffffffffffffffffffffffffffffffffffffffff021916908373ffffffffffffffffffffffffffffffffffffffff16021790555060016007819055506040518060800160405280605b815260200162002f9c605b9139600990805190602001906200012c92919062000165565b5060405180608001604052806058815260200162002f4460589139600890805190602001906200015e92919062000165565b5062000279565b828054620001739062000244565b90600052602060002090601f016020900481019282620001975760008555620001e3565b82601f10620001b257805160ff1916838001178555620001e3565b82800160010185558215620001e3579182015b82811115620001e2578251825591602001919060010190620001c5565b5b509050620001f29190620001f6565b5090565b5b8082111562000211576000816000905550600101620001f7565b5090565b7f4e487b7100000000000000000000000000000000000000000000000000000000600052602260045260246000fd5b600060028204905060018216806200025d57607f821691505b60208210810362000273576200027262000215565b5b50919050565b612cbb80620002896000396000f3fe608060405234801561001057600080fd5b50600436106101165760003560e01c806370a08231116100a2578063b88d4fde11610071578063b88d4fde146102f1578063c87b56dd1461030d578063e8a3d4851461033d578063e985e9c51461035b578063f2fde38b1461038b57610116565b806370a0823114610257578063938e3d7b1461028757806395d89b41146102b7578063a22cb465146102d557610116565b80631249c58b116100e95780631249c58b146101b557806323b872dd146101d357806342842e0e146101ef57806355f804b31461020b5780636352211e1461022757610116565b806301ffc9a71461011b57806306fdde031461014b578063081812fc14610169578063095ea7b314610199575b600080fd5b61013560048036038101906101309190611b83565b6103a7565b6040516101429190611bcb565b60405180910390f35b610153610489565b6040516101609190611c7f565b60405180910390f35b610183600480360381019061017e9190611cd7565b61051b565b6040516101909190611d45565b60405180910390f35b6101b360048036038101906101ae9190611d8c565b610561565b005b6101bd610678565b6040516101ca9190611bcb565b60405180910390f35b6101ed60048036038101906101e89190611dcc565b6106a1565b005b61020960048036038101906102049190611dcc565b610701565b005b61022560048036038101906102209190611f54565b610721565b005b610241600480360381019061023c9190611cd7565b6107cb565b60405161024e9190611d45565b60405180910390f35b610271600480360381019061026c9190611f9d565b61087c565b60405161027e9190611fd9565b60405180910390f35b6102a1600480360381019061029c9190611f54565b610933565b6040516102ae9190611bcb565b60405180910390f35b6102bf6109e5565b6040516102cc9190611c7f565b60405180910390f35b6102ef60048036038101906102ea9190612020565b610a77565b005b61030b60048036038101906103069190612101565b610a8d565b005b61032760048036038101906103229190611cd7565b610aef565b6040516103349190611c7f565b60405180910390f35b610345610b57565b6040516103529190611c7f565b60405180910390f35b61037560048036038101906103709190612184565b610be9565b6040516103829190611bcb565b60405180910390f35b6103a560048036038101906103a09190612202565b610c7d565b005b60007f80ac58cd000000000000000000000000000000000000000000000000000000007bffffffffffffffffffffffffffffffffffffffffffffffffffffffff1916827bffffffffffffffffffffffffffffffffffffffffffffffffffffffff1916148061047257507f5b5e139f000000000000000000000000000000000000000000000000000000007bffffffffffffffffffffffffffffffffffffffffffffffffffffffff1916827bffffffffffffffffffffffffffffffffffffffffffffffffffffffff1916145b80610482575061048182610e50565b5b9050919050565b6060600080546104989061225e565b80601f01602080910402602001604051908101604052809291908181526020018280546104c49061225e565b80156105115780601f106104e657610100808354040283529160200191610511565b820191906000526020600020905b8154815290600101906020018083116104f457829003601f168201915b5050505050905090565b600061052682610eba565b6004600083815260200190815260200160002060009054906101000a900473ffffffffffffffffffffffffffffffffffffffff169050919050565b600061056c826107cb565b90508073ffffffffffffffffffffffffffffffffffffffff168373ffffffffffffffffffffffffffffffffffffffff16036105dc576040517f08c379a00000000000000000000000000000000000000000000000000000000081526004016105d390612301565b60405180910390fd5b8073ffffffffffffffffffffffffffffffffffffffff166105fb610f05565b73ffffffffffffffffffffffffffffffffffffffff16148061062a575061062981610624610f05565b610be9565b5b610669576040517f08c379a000000000000000000000000000000000000000000000000000000000815260040161066090612393565b60405180910390fd5b6106738383610f0d565b505050565b600061069a3360076000815480929190610691906123e2565b91905055610fc6565b6001905090565b6106b26106ac610f05565b8261119f565b6106f1576040517f08c379a00000000000000000000000000000000000000000000000000000000081526004016106e89061249c565b60405180910390fd5b6106fc838383611234565b505050565b61071c83838360405180602001604052806000815250610a8d565b505050565b600660009054906101000a900473ffffffffffffffffffffffffffffffffffffffff1673ffffffffffffffffffffffffffffffffffffffff163373ffffffffffffffffffffffffffffffffffffffff16146107b1576040517f08c379a00000000000000000000000000000000000000000000000000000000081526004016107a890612508565b60405180910390fd5b80600890805190602001906107c7929190611a74565b5050565b6000806002600084815260200190815260200160002060009054906101000a900473ffffffffffffffffffffffffffffffffffffffff169050600073ffffffffffffffffffffffffffffffffffffffff168173ffffffffffffffffffffffffffffffffffffffff1603610873576040517f08c379a000000000000000000000000000000000000000000000000000000000815260040161086a90612574565b60405180910390fd5b80915050919050565b60008073ffffffffffffffffffffffffffffffffffffffff168273ffffffffffffffffffffffffffffffffffffffff16036108ec576040517f08c379a00000000000000000000000000000000000000000000000000000000081526004016108e390612606565b60405180910390fd5b600360008373ffffffffffffffffffffffffffffffffffffffff1673ffffffffffffffffffffffffffffffffffffffff168152602001908152602001600020549050919050565b6000600660009054906101000a900473ffffffffffffffffffffffffffffffffffffffff1673ffffffffffffffffffffffffffffffffffffffff163373ffffffffffffffffffffffffffffffffffffffff16146109c5576040517f08c379a00000000000000000000000000000000000000000000000000000000081526004016109bc90612508565b60405180910390fd5b81600990805190602001906109db929190611a74565b5060019050919050565b6060600180546109f49061225e565b80601f0160208091040260200160405190810160405280929190818152602001828054610a209061225e565b8015610a6d5780601f10610a4257610100808354040283529160200191610a6d565b820191906000526020600020905b815481529060010190602001808311610a5057829003601f168201915b5050505050905090565b610a89610a82610f05565b838361149a565b5050565b610a9e610a98610f05565b8361119f565b610add576040517f08c379a0000000000000000000000000000000000000000000000000000000008152600401610ad49061249c565b60405180910390fd5b610ae984848484611606565b50505050565b6060610afa82610eba565b6000610b04611662565b90506000815111610b245760405180602001604052806000815250610b4f565b80610b2e846116f4565b604051602001610b3f929190612662565b6040516020818303038152906040525b915050919050565b606060098054610b669061225e565b80601f0160208091040260200160405190810160405280929190818152602001828054610b929061225e565b8015610bdf5780601f10610bb457610100808354040283529160200191610bdf565b820191906000526020600020905b815481529060010190602001808311610bc257829003601f168201915b5050505050905090565b6000600560008473ffffffffffffffffffffffffffffffffffffffff1673ffffffffffffffffffffffffffffffffffffffff16815260200190815260200160002060008373ffffffffffffffffffffffffffffffffffffffff1673ffffffffffffffffffffffffffffffffffffffff16815260200190815260200160002060009054906101000a900460ff16905092915050565b600660009054906101000a900473ffffffffffffffffffffffffffffffffffffffff1673ffffffffffffffffffffffffffffffffffffffff163373ffffffffffffffffffffffffffffffffffffffff1614610d0d576040517f08c379a0000000000000000000000000000000000000000000000000000000008152600401610d0490612508565b60405180910390fd5b600073ffffffffffffffffffffffffffffffffffffffff168173ffffffffffffffffffffffffffffffffffffffff1603610d7c576040517f08c379a0000000000000000000000000000000000000000000000000000000008152600401610d73906126d2565b60405180910390fd5b600660009054906101000a900473ffffffffffffffffffffffffffffffffffffffff1673ffffffffffffffffffffffffffffffffffffffff168173ffffffffffffffffffffffffffffffffffffffff1603610e0c576040517f08c379a0000000000000000000000000000000000000000000000000000000008152600401610e039061273e565b60405180910390fd5b80600660006101000a81548173ffffffffffffffffffffffffffffffffffffffff021916908373ffffffffffffffffffffffffffffffffffffffff16021790555050565b60007f01ffc9a7000000000000000000000000000000000000000000000000000000007bffffffffffffffffffffffffffffffffffffffffffffffffffffffff1916827bffffffffffffffffffffffffffffffffffffffffffffffffffffffff1916149050919050565b610ec381611854565b610f02576040517f08c379a0000000000000000000000000000000000000000000000000000000008152600401610ef990612574565b60405180910390fd5b50565b600033905090565b816004600083815260200190815260200160002060006101000a81548173ffffffffffffffffffffffffffffffffffffffff021916908373ffffffffffffffffffffffffffffffffffffffff160217905550808273ffffffffffffffffffffffffffffffffffffffff16610f80836107cb565b73ffffffffffffffffffffffffffffffffffffffff167f8c5be1e5ebec7d5bd14f71427d1e84f3dd0314c0f7b2291e5b200ac8c7c3b92560405160405180910390a45050565b600073ffffffffffffffffffffffffffffffffffffffff168273ffffffffffffffffffffffffffffffffffffffff1603611035576040517f08c379a000000000000000000000000000000000000000000000000000000000815260040161102c906127aa565b60405180910390fd5b61103e81611854565b1561107e576040517f08c379a000000000000000000000000000000000000000000000000000000000815260040161107590612816565b60405180910390fd5b61108a600083836118c0565b6001600360008473ffffffffffffffffffffffffffffffffffffffff1673ffffffffffffffffffffffffffffffffffffffff16815260200190815260200160002060008282546110da9190612836565b92505081905550816002600083815260200190815260200160002060006101000a81548173ffffffffffffffffffffffffffffffffffffffff021916908373ffffffffffffffffffffffffffffffffffffffff160217905550808273ffffffffffffffffffffffffffffffffffffffff16600073ffffffffffffffffffffffffffffffffffffffff167fddf252ad1be2c89b69c2b068fc378daa952ba7f163c4a11628f55a4df523b3ef60405160405180910390a461119b600083836118c5565b5050565b6000806111ab836107cb565b90508073ffffffffffffffffffffffffffffffffffffffff168473ffffffffffffffffffffffffffffffffffffffff1614806111ed57506111ec8185610be9565b5b8061122b57508373ffffffffffffffffffffffffffffffffffffffff166112138461051b565b73ffffffffffffffffffffffffffffffffffffffff16145b91505092915050565b8273ffffffffffffffffffffffffffffffffffffffff16611254826107cb565b73ffffffffffffffffffffffffffffffffffffffff16146112aa576040517f08c379a00000000000000000000000000000000000000000000000000000000081526004016112a1906128fe565b60405180910390fd5b600073ffffffffffffffffffffffffffffffffffffffff168273ffffffffffffffffffffffffffffffffffffffff1603611319576040517f08c379a000000000000000000000000000000000000000000000000000000000815260040161131090612990565b60405180910390fd5b6113248383836118c0565b61132f600082610f0d565b6001600360008573ffffffffffffffffffffffffffffffffffffffff1673ffffffffffffffffffffffffffffffffffffffff168152602001908152602001600020600082825461137f91906129b0565b925050819055506001600360008473ffffffffffffffffffffffffffffffffffffffff1673ffffffffffffffffffffffffffffffffffffffff16815260200190815260200160002060008282546113d69190612836565b92505081905550816002600083815260200190815260200160002060006101000a81548173ffffffffffffffffffffffffffffffffffffffff021916908373ffffffffffffffffffffffffffffffffffffffff160217905550808273ffffffffffffffffffffffffffffffffffffffff168473ffffffffffffffffffffffffffffffffffffffff167fddf252ad1be2c89b69c2b068fc378daa952ba7f163c4a11628f55a4df523b3ef60405160405180910390a46114958383836118c5565b505050565b8173ffffffffffffffffffffffffffffffffffffffff168373ffffffffffffffffffffffffffffffffffffffff1603611508576040517f08c379a00000000000000000000000000000000000000000000000000000000081526004016114ff90612a30565b60405180910390fd5b80600560008573ffffffffffffffffffffffffffffffffffffffff1673ffffffffffffffffffffffffffffffffffffffff16815260200190815260200160002060008473ffffffffffffffffffffffffffffffffffffffff1673ffffffffffffffffffffffffffffffffffffffff16815260200190815260200160002060006101000a81548160ff0219169083151502179055508173ffffffffffffffffffffffffffffffffffffffff168373ffffffffffffffffffffffffffffffffffffffff167f17307eab39ab6107e8899845ad3d59bd9653f200f220920489ca2b5937696c31836040516115f99190611bcb565b60405180910390a3505050565b611611848484611234565b61161d848484846118ca565b61165c576040517f08c379a000000000000000000000000000000000000000000000000000000000815260040161165390612ac2565b60405180910390fd5b50505050565b6060600880546116719061225e565b80601f016020809104026020016040519081016040528092919081815260200182805461169d9061225e565b80156116ea5780601f106116bf576101008083540402835291602001916116ea565b820191906000526020600020905b8154815290600101906020018083116116cd57829003601f168201915b5050505050905090565b60606000820361173b576040518060400160405280600181526020017f3000000000000000000000000000000000000000000000000000000000000000815250905061184f565b600082905060005b6000821461176d578080611756906123e2565b915050600a826117669190612b11565b9150611743565b60008167ffffffffffffffff81111561178957611788611e29565b5b6040519080825280601f01601f1916602001820160405280156117bb5781602001600182028036833780820191505090505b5090505b60008514611848576001826117d491906129b0565b9150600a856117e39190612b42565b60306117ef9190612836565b60f81b81838151811061180557611804612b73565b5b60200101907effffffffffffffffffffffffffffffffffffffffffffffffffffffffffffff1916908160001a905350600a856118419190612b11565b94506117bf565b8093505050505b919050565b60008073ffffffffffffffffffffffffffffffffffffffff166002600084815260200190815260200160002060009054906101000a900473ffffffffffffffffffffffffffffffffffffffff1673ffffffffffffffffffffffffffffffffffffffff1614159050919050565b505050565b505050565b60006118eb8473ffffffffffffffffffffffffffffffffffffffff16611a51565b15611a44578373ffffffffffffffffffffffffffffffffffffffff1663150b7a02611914610f05565b8786866040518563ffffffff1660e01b81526004016119369493929190612bf7565b6020604051808303816000875af192505050801561197257506040513d601f19601f8201168201806040525081019061196f9190612c58565b60015b6119f4573d80600081146119a2576040519150601f19603f3d011682016040523d82523d6000602084013e6119a7565b606091505b5060008151036119ec576040517f08c379a00000000000000000000000000000000000000000000000000000000081526004016119e390612ac2565b60405180910390fd5b805181602001fd5b63150b7a0260e01b7bffffffffffffffffffffffffffffffffffffffffffffffffffffffff1916817bffffffffffffffffffffffffffffffffffffffffffffffffffffffff191614915050611a49565b600190505b949350505050565b6000808273ffffffffffffffffffffffffffffffffffffffff163b119050919050565b828054611a809061225e565b90600052602060002090601f016020900481019282611aa25760008555611ae9565b82601f10611abb57805160ff1916838001178555611ae9565b82800160010185558215611ae9579182015b82811115611ae8578251825591602001919060010190611acd565b5b509050611af69190611afa565b5090565b5b80821115611b13576000816000905550600101611afb565b5090565b6000604051905090565b600080fd5b600080fd5b60007fffffffff0000000000000000000000000000000000000000000000000000000082169050919050565b611b6081611b2b565b8114611b6b57600080fd5b50565b600081359050611b7d81611b57565b92915050565b600060208284031215611b9957611b98611b21565b5b6000611ba784828501611b6e565b91505092915050565b60008115159050919050565b611bc581611bb0565b82525050565b6000602082019050611be06000830184611bbc565b92915050565b600081519050919050565b600082825260208201905092915050565b60005b83811015611c20578082015181840152602081019050611c05565b83811115611c2f576000848401525b50505050565b6000601f19601f8301169050919050565b6000611c5182611be6565b611c5b8185611bf1565b9350611c6b818560208601611c02565b611c7481611c35565b840191505092915050565b60006020820190508181036000830152611c998184611c46565b905092915050565b6000819050919050565b611cb481611ca1565b8114611cbf57600080fd5b50565b600081359050611cd181611cab565b92915050565b600060208284031215611ced57611cec611b21565b5b6000611cfb84828501611cc2565b91505092915050565b600073ffffffffffffffffffffffffffffffffffffffff82169050919050565b6000611d2f82611d04565b9050919050565b611d3f81611d24565b82525050565b6000602082019050611d5a6000830184611d36565b92915050565b611d6981611d24565b8114611d7457600080fd5b50565b600081359050611d8681611d60565b92915050565b60008060408385031215611da357611da2611b21565b5b6000611db185828601611d77565b9250506020611dc285828601611cc2565b9150509250929050565b600080600060608486031215611de557611de4611b21565b5b6000611df386828701611d77565b9350506020611e0486828701611d77565b9250506040611e1586828701611cc2565b9150509250925092565b600080fd5b600080fd5b7f4e487b7100000000000000000000000000000000000000000000000000000000600052604160045260246000fd5b611e6182611c35565b810181811067ffffffffffffffff82111715611e8057611e7f611e29565b5b80604052505050565b6000611e93611b17565b9050611e9f8282611e58565b919050565b600067ffffffffffffffff821115611ebf57611ebe611e29565b5b611ec882611c35565b9050602081019050919050565b82818337600083830152505050565b6000611ef7611ef284611ea4565b611e89565b905082815260208101848484011115611f1357611f12611e24565b5b611f1e848285611ed5565b509392505050565b600082601f830112611f3b57611f3a611e1f565b5b8135611f4b848260208601611ee4565b91505092915050565b600060208284031215611f6a57611f69611b21565b5b600082013567ffffffffffffffff811115611f8857611f87611b26565b5b611f9484828501611f26565b91505092915050565b600060208284031215611fb357611fb2611b21565b5b6000611fc184828501611d77565b91505092915050565b611fd381611ca1565b82525050565b6000602082019050611fee6000830184611fca565b92915050565b611ffd81611bb0565b811461200857600080fd5b50565b60008135905061201a81611ff4565b92915050565b6000806040838503121561203757612036611b21565b5b600061204585828601611d77565b92505060206120568582860161200b565b9150509250929050565b600067ffffffffffffffff82111561207b5761207a611e29565b5b61208482611c35565b9050602081019050919050565b60006120a461209f84612060565b611e89565b9050828152602081018484840111156120c0576120bf611e24565b5b6120cb848285611ed5565b509392505050565b600082601f8301126120e8576120e7611e1f565b5b81356120f8848260208601612091565b91505092915050565b6000806000806080858703121561211b5761211a611b21565b5b600061212987828801611d77565b945050602061213a87828801611d77565b935050604061214b87828801611cc2565b925050606085013567ffffffffffffffff81111561216c5761216b611b26565b5b612178878288016120d3565b91505092959194509250565b6000806040838503121561219b5761219a611b21565b5b60006121a985828601611d77565b92505060206121ba85828601611d77565b9150509250929050565b60006121cf82611d04565b9050919050565b6121df816121c4565b81146121ea57600080fd5b50565b6000813590506121fc816121d6565b92915050565b60006020828403121561221857612217611b21565b5b6000612226848285016121ed565b91505092915050565b7f4e487b7100000000000000000000000000000000000000000000000000000000600052602260045260246000fd5b6000600282049050600182168061227657607f821691505b6020821081036122895761228861222f565b5b50919050565b7f4552433732313a20617070726f76616c20746f2063757272656e74206f776e6560008201527f7200000000000000000000000000000000000000000000000000000000000000602082015250565b60006122eb602183611bf1565b91506122f68261228f565b604082019050919050565b6000602082019050818103600083015261231a816122de565b9050919050565b7f4552433732313a20617070726f76652063616c6c6572206973206e6f7420746f60008201527f6b656e206f776e6572206e6f7220617070726f76656420666f7220616c6c0000602082015250565b600061237d603e83611bf1565b915061238882612321565b604082019050919050565b600060208201905081810360008301526123ac81612370565b9050919050565b7f4e487b7100000000000000000000000000000000000000000000000000000000600052601160045260246000fd5b60006123ed82611ca1565b91507fffffffffffffffffffffffffffffffffffffffffffffffffffffffffffffffff820361241f5761241e6123b3565b5b600182019050919050565b7f4552433732313a2063616c6c6572206973206e6f7420746f6b656e206f776e6560008201527f72206e6f7220617070726f766564000000000000000000000000000000000000602082015250565b6000612486602e83611bf1565b91506124918261242a565b604082019050919050565b600060208201905081810360008301526124b581612479565b9050919050565b7f4552525f4e4f545f4f574e455200000000000000000000000000000000000000600082015250565b60006124f2600d83611bf1565b91506124fd826124bc565b602082019050919050565b60006020820190508181036000830152612521816124e5565b9050919050565b7f4552433732313a20696e76616c696420746f6b656e2049440000000000000000600082015250565b600061255e601883611bf1565b915061256982612528565b602082019050919050565b6000602082019050818103600083015261258d81612551565b9050919050565b7f4552433732313a2061646472657373207a65726f206973206e6f74206120766160008201527f6c6964206f776e65720000000000000000000000000000000000000000000000602082015250565b60006125f0602983611bf1565b91506125fb82612594565b604082019050919050565b6000602082019050818103600083015261261f816125e3565b9050919050565b600081905092915050565b600061263c82611be6565b6126468185612626565b9350612656818560208601611c02565b80840191505092915050565b600061266e8285612631565b915061267a8284612631565b91508190509392505050565b7f4552525f5a45524f5f4144445200000000000000000000000000000000000000600082015250565b60006126bc600d83611bf1565b91506126c782612686565b602082019050919050565b600060208201905081810360008301526126eb816126af565b9050919050565b7f4552525f49535f4f574e45520000000000000000000000000000000000000000600082015250565b6000612728600c83611bf1565b9150612733826126f2565b602082019050919050565b600060208201905081810360008301526127578161271b565b9050919050565b7f4552433732313a206d696e7420746f20746865207a65726f2061646472657373600082015250565b6000612794602083611bf1565b915061279f8261275e565b602082019050919050565b600060208201905081810360008301526127c381612787565b9050919050565b7f4552433732313a20746f6b656e20616c7265616479206d696e74656400000000600082015250565b6000612800601c83611bf1565b915061280b826127ca565b602082019050919050565b6000602082019050818103600083015261282f816127f3565b9050919050565b600061284182611ca1565b915061284c83611ca1565b9250827fffffffffffffffffffffffffffffffffffffffffffffffffffffffffffffffff03821115612881576128806123b3565b5b828201905092915050565b7f4552433732313a207472616e736665722066726f6d20696e636f72726563742060008201527f6f776e6572000000000000000000000000000000000000000000000000000000602082015250565b60006128e8602583611bf1565b91506128f38261288c565b604082019050919050565b60006020820190508181036000830152612917816128db565b9050919050565b7f4552433732313a207472616e7366657220746f20746865207a65726f2061646460008201527f7265737300000000000000000000000000000000000000000000000000000000602082015250565b600061297a602483611bf1565b91506129858261291e565b604082019050919050565b600060208201905081810360008301526129a98161296d565b9050919050565b60006129bb82611ca1565b91506129c683611ca1565b9250828210156129d9576129d86123b3565b5b828203905092915050565b7f4552433732313a20617070726f766520746f2063616c6c657200000000000000600082015250565b6000612a1a601983611bf1565b9150612a25826129e4565b602082019050919050565b60006020820190508181036000830152612a4981612a0d565b9050919050565b7f4552433732313a207472616e7366657220746f206e6f6e20455243373231526560008201527f63656976657220696d706c656d656e7465720000000000000000000000000000602082015250565b6000612aac603283611bf1565b9150612ab782612a50565b604082019050919050565b60006020820190508181036000830152612adb81612a9f565b9050919050565b7f4e487b7100000000000000000000000000000000000000000000000000000000600052601260045260246000fd5b6000612b1c82611ca1565b9150612b2783611ca1565b925082612b3757612b36612ae2565b5b828204905092915050565b6000612b4d82611ca1565b9150612b5883611ca1565b925082612b6857612b67612ae2565b5b828206905092915050565b7f4e487b7100000000000000000000000000000000000000000000000000000000600052603260045260246000fd5b600081519050919050565b600082825260208201905092915050565b6000612bc982612ba2565b612bd38185612bad565b9350612be3818560208601611c02565b612bec81611c35565b840191505092915050565b6000608082019050612c0c6000830187611d36565b612c196020830186611d36565b612c266040830185611fca565b8181036060830152612c388184612bbe565b905095945050505050565b600081519050612c5281611b57565b92915050565b600060208284031215612c6e57612c6d611b21565b5b6000612c7c84828501612c43565b9150509291505056fea26469706673582212207499d76d8df33b69c0f3145164ebecefe6d0522d9aab51c76dbf4993e8bf4f4364736f6c634300080e003368747470733a2f2f7261772e67697468756275736572636f6e74656e742e636f6d2f5765623362617a6161722f67697665776179732f6d61696e2f70726f6a656374732f73756e666c6f776572736c616e642f646174612f68747470733a2f2f7261772e67697468756275736572636f6e74656e742e636f6d2f5765623362617a6161722f67697665776179732f6d61696e2f70726f6a656374732f73756e666c6f776572736c616e642f636f6e7472616374",
  "immutableReferences": {},
  "source": "// SPDX-License-Identifier: MIT\npragma solidity 0.8.14;\n\nimport \"@openzeppelin/contracts/token/ERC721/ERC721.sol\";\n\ncontract SimpleAccessControl {\n\n    address internal _owner;\n\n    modifier isOwner() {\n        require(msg.sender == _owner, \"ERR_NOT_OWNER\");\n        _;\n    }\n    /*\n    constructor(address payable ownerAdress) {\n        _owner = ownerAdress; \n    }\n    */\n    constructor() {\n        _owner = msg.sender; \n    }\n\n    function transferOwnership(address payable newOwner) public isOwner {\n        require(newOwner != address(0), \"ERR_ZERO_ADDR\");\n        require(newOwner != _owner, \"ERR_IS_OWNER\");\n        _owner =   newOwner;\n    }\n}\n\ncontract TestCollection is ERC721, SimpleAccessControl {\n\n    \n    uint256 private _id;\n    // Base URI\n    string private _baseURIextended;\n    string private _contractURI;\n   \n    constructor() ERC721(\"Test Collection\", \"Test Collection\") \n    {  \n        _id = 1 ;\n        //_contractURI = \"https://webazaar-meta-api.herokuapp.com/721/detail/\";\n        //_baseURIextended = \"https://webazaar-meta-api.herokuapp.com/721/detail/{id}\";\n        _contractURI = \"https://raw.githubusercontent.com/Web3bazaar/giveways/main/projects/sunflowersland/contract\";\n        _baseURIextended = \"https://raw.githubusercontent.com/Web3bazaar/giveways/main/projects/sunflowersland/data/\";\n        //mint();\n        //mint();\n        //mint();\n    }\n\n    function mint() public returns (bool)\n    {\n        _mint(msg.sender, _id++);\n        return true;\n    }\n\n    // set new base uri\n    function setBaseURI(string memory baseURI_) external isOwner() {\n        _baseURIextended = baseURI_;\n    }\n    \n    // override original method \n    function _baseURI() internal view virtual override returns (string memory) {\n        return _baseURIextended;\n    }\n\n    function setContractURI(string memory newuri)  public  isOwner() returns (bool)\n    {\n        _contractURI = newuri;\n        return true;\n    }\n\n    function contractURI() public view returns (string memory) {\n        return _contractURI;\n    }\n\n}",
  "sourcePath": "/Users/vitorpedroviana/project/wallid/dev/web3/web3bazaar/mainnet-contracts/contracts/TestCollection.sol",
  "compiler": {
    "name": "solc",
    "version": "0.8.14+commit.80d49f37.Emscripten.clang"
  },
  "schemaVersion": "3.4.8",
  "updatedAt": "2022-07-22T11:24:30.374Z",
  "devdoc": {
    "kind": "dev",
    "methods": {
      "approve(address,uint256)": {
        "details": "See {IERC721-approve}."
      },
      "balanceOf(address)": {
        "details": "See {IERC721-balanceOf}."
      },
      "getApproved(uint256)": {
        "details": "See {IERC721-getApproved}."
      },
      "isApprovedForAll(address,address)": {
        "details": "See {IERC721-isApprovedForAll}."
      },
      "name()": {
        "details": "See {IERC721Metadata-name}."
      },
      "ownerOf(uint256)": {
        "details": "See {IERC721-ownerOf}."
      },
      "safeTransferFrom(address,address,uint256)": {
        "details": "See {IERC721-safeTransferFrom}."
      },
      "safeTransferFrom(address,address,uint256,bytes)": {
        "details": "See {IERC721-safeTransferFrom}."
      },
      "setApprovalForAll(address,bool)": {
        "details": "See {IERC721-setApprovalForAll}."
      },
      "supportsInterface(bytes4)": {
        "details": "See {IERC165-supportsInterface}."
      },
      "symbol()": {
        "details": "See {IERC721Metadata-symbol}."
      },
      "tokenURI(uint256)": {
        "details": "See {IERC721Metadata-tokenURI}."
      },
      "transferFrom(address,address,uint256)": {
        "details": "See {IERC721-transferFrom}."
      }
    },
    "version": 1
  },
  "userdoc": {
    "kind": "user",
    "methods": {},
    "version": 1
  }
}