{
  "contractName": "Web3BazaarEscrow",
  "abi": [
    {
      "inputs": [],
      "stateMutability": "nonpayable",
      "type": "constructor"
    },
    {
      "anonymous": false,
      "inputs": [
        {
          "indexed": true,
          "internalType": "address",
          "name": "executor",
          "type": "address"
        },
        {
          "indexed": false,
          "internalType": "uint256",
          "name": "tradeId",
          "type": "uint256"
        }
      ],
      "name": "FinishTrade",
      "type": "event"
    },
    {
      "anonymous": false,
      "inputs": [
        {
          "indexed": true,
          "internalType": "address",
          "name": "creator",
          "type": "address"
        },
        {
          "indexed": true,
          "internalType": "address",
          "name": "executor",
          "type": "address"
        },
        {
          "indexed": false,
          "internalType": "uint256",
          "name": "tradeId",
          "type": "uint256"
        }
      ],
      "name": "NewTrade",
      "type": "event"
    },
    {
      "inputs": [
        {
          "internalType": "address payable",
          "name": "newOwner",
          "type": "address"
        }
      ],
      "name": "addOwnership",
      "outputs": [],
      "stateMutability": "nonpayable",
      "type": "function"
    },
    {
      "inputs": [
        {
          "internalType": "address",
          "name": "",
          "type": "address"
        },
        {
          "internalType": "address",
          "name": "",
          "type": "address"
        },
        {
          "internalType": "uint256[]",
          "name": "",
          "type": "uint256[]"
        },
        {
          "internalType": "uint256[]",
          "name": "",
          "type": "uint256[]"
        },
        {
          "internalType": "bytes",
          "name": "",
          "type": "bytes"
        }
      ],
      "name": "onERC1155BatchReceived",
      "outputs": [
        {
          "internalType": "bytes4",
          "name": "",
          "type": "bytes4"
        }
      ],
      "stateMutability": "nonpayable",
      "type": "function"
    },
    {
      "inputs": [
        {
          "internalType": "address",
          "name": "",
          "type": "address"
        },
        {
          "internalType": "address",
          "name": "",
          "type": "address"
        },
        {
          "internalType": "uint256",
          "name": "",
          "type": "uint256"
        },
        {
          "internalType": "uint256",
          "name": "",
          "type": "uint256"
        },
        {
          "internalType": "bytes",
          "name": "",
          "type": "bytes"
        }
      ],
      "name": "onERC1155Received",
      "outputs": [
        {
          "internalType": "bytes4",
          "name": "",
          "type": "bytes4"
        }
      ],
      "stateMutability": "nonpayable",
      "type": "function"
    },
    {
      "inputs": [
        {
          "internalType": "address",
          "name": "",
          "type": "address"
        },
        {
          "internalType": "address",
          "name": "",
          "type": "address"
        },
        {
          "internalType": "uint256",
          "name": "",
          "type": "uint256"
        },
        {
          "internalType": "bytes",
          "name": "",
          "type": "bytes"
        }
      ],
      "name": "onERC721Received",
      "outputs": [
        {
          "internalType": "bytes4",
          "name": "",
          "type": "bytes4"
        }
      ],
      "stateMutability": "nonpayable",
      "type": "function"
    },
    {
      "inputs": [],
      "name": "openTradeCount",
      "outputs": [
        {
          "internalType": "uint256",
          "name": "",
          "type": "uint256"
        }
      ],
      "stateMutability": "view",
      "type": "function"
    },
    {
      "inputs": [
        {
          "internalType": "address payable",
          "name": "existingOwner",
          "type": "address"
        }
      ],
      "name": "removeOwnership",
      "outputs": [],
      "stateMutability": "nonpayable",
      "type": "function"
    },
    {
      "inputs": [
        {
          "internalType": "bytes4",
          "name": "interfaceId",
          "type": "bytes4"
        }
      ],
      "name": "supportsInterface",
      "outputs": [
        {
          "internalType": "bool",
          "name": "",
          "type": "bool"
        }
      ],
      "stateMutability": "view",
      "type": "function"
    },
    {
      "inputs": [],
      "name": "totalCompletedTrade",
      "outputs": [
        {
          "internalType": "uint256",
          "name": "",
          "type": "uint256"
        }
      ],
      "stateMutability": "view",
      "type": "function"
    },
    {
      "inputs": [
        {
          "internalType": "uint256",
          "name": "tradeId",
          "type": "uint256"
        }
      ],
      "name": "cancelTrade",
      "outputs": [
        {
          "internalType": "bool",
          "name": "",
          "type": "bool"
        }
      ],
      "stateMutability": "nonpayable",
      "type": "function"
    },
    {
      "inputs": [
        {
          "internalType": "uint256",
          "name": "tradeId",
          "type": "uint256"
        }
      ],
      "name": "executeTrade",
      "outputs": [
        {
          "internalType": "uint256",
          "name": "",
          "type": "uint256"
        }
      ],
      "stateMutability": "nonpayable",
      "type": "function"
    },
    {
      "inputs": [
        {
          "internalType": "address[]",
          "name": "creatorTokenAddress",
          "type": "address[]"
        },
        {
          "internalType": "uint256[]",
          "name": "creatorTokenId",
          "type": "uint256[]"
        },
        {
          "internalType": "uint256[]",
          "name": "creatorAmount",
          "type": "uint256[]"
        },
        {
          "internalType": "uint8[]",
          "name": "creatorTokenType",
          "type": "uint8[]"
        },
        {
          "internalType": "address",
          "name": "executerAddress",
          "type": "address"
        },
        {
          "internalType": "address[]",
          "name": "executorTokenAddress",
          "type": "address[]"
        },
        {
          "internalType": "uint256[]",
          "name": "executorTokenId",
          "type": "uint256[]"
        },
        {
          "internalType": "uint256[]",
          "name": "executorAmount",
          "type": "uint256[]"
        },
        {
          "internalType": "uint8[]",
          "name": "executorTokenType",
          "type": "uint8[]"
        }
      ],
      "name": "startTrade",
      "outputs": [
        {
          "internalType": "uint256",
          "name": "",
          "type": "uint256"
        }
      ],
      "stateMutability": "nonpayable",
      "type": "function"
    },
    {
      "inputs": [
        {
          "internalType": "uint256",
          "name": "tradeId",
          "type": "uint256"
        }
      ],
      "name": "getTrade",
      "outputs": [
        {
          "internalType": "address",
          "name": "",
          "type": "address"
        },
        {
          "internalType": "address",
          "name": "",
          "type": "address"
        },
        {
          "internalType": "uint8",
          "name": "",
          "type": "uint8"
        }
      ],
      "stateMutability": "view",
      "type": "function"
    },
    {
      "inputs": [
        {
          "internalType": "uint256",
          "name": "tradeId",
          "type": "uint256"
        },
        {
          "internalType": "address",
          "name": "userWallet",
          "type": "address"
        }
      ],
      "name": "getTrade",
      "outputs": [
        {
          "internalType": "address[]",
          "name": "",
          "type": "address[]"
        },
        {
          "internalType": "uint256[]",
          "name": "",
          "type": "uint256[]"
        },
        {
          "internalType": "uint256[]",
          "name": "",
          "type": "uint256[]"
        },
        {
          "internalType": "uint8[]",
          "name": "",
          "type": "uint8[]"
        }
      ],
      "stateMutability": "view",
      "type": "function"
    },
    {
      "inputs": [
        {
          "internalType": "address",
          "name": "u",
          "type": "address"
        }
      ],
      "name": "tradePerUser",
      "outputs": [
        {
          "internalType": "uint256[]",
          "name": "",
          "type": "uint256[]"
        }
      ],
      "stateMutability": "view",
      "type": "function"
    }
  ],
  "bytecode": "0x608060405234801561001057600080fd5b5060016000803373ffffffffffffffffffffffffffffffffffffffff1673ffffffffffffffffffffffffffffffffffffffff16815260200190815260200160002060006101000a81548160ff021916908315150217905550600060048190555060006005819055506159cc80620000886000396000f3fe608060405234801561001057600080fd5b50600436106100ea5760003560e01c80633d3a3ee41161008c578063d3322d1b11610066578063d3322d1b146102c0578063e16bf057146102de578063f23a6e61146102fc578063f5a55ff61461032c576100ea565b80633d3a3ee414610244578063666a342714610274578063bc197c8114610290576100ea565b8063150b7a02116100c8578063150b7a021461017f5780632db25e05146101af57806332e7db1d146101e15780633a31df8d14610211576100ea565b806301ffc9a7146100ef57806302d2838b1461011f57806309ec6cc71461014f575b600080fd5b610109600480360381019061010491906137a6565b610348565b60405161011691906137ee565b60405180910390f35b6101396004803603810190610134919061383f565b6103c2565b604051610146919061387b565b60405180910390f35b6101696004803603810190610164919061383f565b610b3b565b60405161017691906137ee565b60405180910390f35b61019960048036038101906101949190613a3a565b610d15565b6040516101a69190613acc565b60405180910390f35b6101c960048036038101906101c4919061383f565b610d29565b6040516101d893929190613b12565b60405180910390f35b6101fb60048036038101906101f69190613b49565b610dc0565b6040516102089190613c34565b60405180910390f35b61022b60048036038101906102269190613c56565b610e57565b60405161023b9493929190613e12565b60405180910390f35b61025e600480360381019061025991906140ed565b6112b5565b60405161026b919061387b565b60405180910390f35b61028e600480360381019061028991906142d5565b6125fc565b005b6102aa60048036038101906102a59190614302565b61277a565b6040516102b79190613acc565b60405180910390f35b6102c861278f565b6040516102d5919061387b565b60405180910390f35b6102e6612795565b6040516102f3919061387b565b60405180910390f35b610316600480360381019061031191906143d1565b61279b565b6040516103239190613acc565b60405180910390f35b610346600480360381019061034191906142d5565b6127b0565b005b60007f4e2312e0000000000000000000000000000000000000000000000000000000007bffffffffffffffffffffffffffffffffffffffffffffffffffffffff1916827bffffffffffffffffffffffffffffffffffffffffffffffffffffffff191614806103bb57506103ba8261290b565b5b9050919050565b600080600260008481526020019081526020016000209050600160038111156103ee576103ed614468565b5b8160040160009054906101000a900460ff16600381111561041257610411614468565b5b14610452576040517f08c379a00000000000000000000000000000000000000000000000000000000081526004016104499061451a565b60405180910390fd5b60008160010160009054906101000a900473ffffffffffffffffffffffffffffffffffffffff16905060008260000160009054906101000a900473ffffffffffffffffffffffffffffffffffffffff1690503373ffffffffffffffffffffffffffffffffffffffff168273ffffffffffffffffffffffffffffffffffffffff1614610512576040517f08c379a0000000000000000000000000000000000000000000000000000000008152600401610509906145ac565b60405180910390fd5b600080600090505b8460030160008473ffffffffffffffffffffffffffffffffffffffff1673ffffffffffffffffffffffffffffffffffffffff168152602001908152602001600020600001805490508110156107a05760008560030160008573ffffffffffffffffffffffffffffffffffffffff1673ffffffffffffffffffffffffffffffffffffffff16815260200190815260200160002060000182815481106105c1576105c06145cc565b5b906000526020600020015490508560030160008573ffffffffffffffffffffffffffffffffffffffff1673ffffffffffffffffffffffffffffffffffffffff168152602001908152602001600020600101600082815260200190815260200160002092506001600381111561063957610638614468565b5b8360030160009054906101000a900460ff16600381111561065d5761065c614468565b5b0361069c5761069684868560000160009054906101000a900473ffffffffffffffffffffffffffffffffffffffff168660020154612975565b5061078c565b6003808111156106af576106ae614468565b5b8360030160009054906101000a900460ff1660038111156106d3576106d2614468565b5b036107125761070c84868560000160009054906101000a900473ffffffffffffffffffffffffffffffffffffffff16866001015461299d565b5061078b565b6002600381111561072657610725614468565b5b8360030160009054906101000a900460ff16600381111561074a57610749614468565b5b0361078a5761078884868560000160009054906101000a900473ffffffffffffffffffffffffffffffffffffffff1686600101548760020154612a28565b505b5b5b5080806107989061462a565b91505061051a565b5060005b8460030160008573ffffffffffffffffffffffffffffffffffffffff1673ffffffffffffffffffffffffffffffffffffffff16815260200190815260200160002060000180549050811015610a2a5760008560030160008673ffffffffffffffffffffffffffffffffffffffff1673ffffffffffffffffffffffffffffffffffffffff168152602001908152602001600020600001828154811061084b5761084a6145cc565b5b906000526020600020015490508560030160008673ffffffffffffffffffffffffffffffffffffffff1673ffffffffffffffffffffffffffffffffffffffff16815260200190815260200160002060010160008281526020019081526020016000209250600160038111156108c3576108c2614468565b5b8360030160009054906101000a900460ff1660038111156108e7576108e6614468565b5b036109265761092085858560000160009054906101000a900473ffffffffffffffffffffffffffffffffffffffff168660020154612975565b50610a16565b60038081111561093957610938614468565b5b8360030160009054906101000a900460ff16600381111561095d5761095c614468565b5b0361099c5761099685858560000160009054906101000a900473ffffffffffffffffffffffffffffffffffffffff16866001015461299d565b50610a15565b600260038111156109b0576109af614468565b5b8360030160009054906101000a900460ff1660038111156109d4576109d3614468565b5b03610a1457610a1285858560000160009054906101000a900473ffffffffffffffffffffffffffffffffffffffff1686600101548760020154612a28565b505b5b5b508080610a229061462a565b9150506107a4565b506002806000600154815260200190815260200160002060040160006101000a81548160ff02191690836003811115610a6657610a65614468565b5b0217905550610a753387612ab7565b50610ab66002600088815260200190815260200160002060000160009054906101000a900473ffffffffffffffffffffffffffffffffffffffff1687612ab7565b506001600554610ac69190614672565b6005819055506001600454610adb91906146c8565b6004819055503373ffffffffffffffffffffffffffffffffffffffff167f53846ec8c50c47d6bdc98e83d93c31f08be4d825f219475cd3c58022b45b075187604051610b27919061387b565b60405180910390a285945050505050919050565b60008060026000848152602001908152602001600020905060016003811115610b6757610b66614468565b5b8160040160009054906101000a900460ff166003811115610b8b57610b8a614468565b5b14610bcb576040517f08c379a0000000000000000000000000000000000000000000000000000000008152600401610bc29061451a565b60405180910390fd5b3373ffffffffffffffffffffffffffffffffffffffff168160010160009054906101000a900473ffffffffffffffffffffffffffffffffffffffff1673ffffffffffffffffffffffffffffffffffffffff161480610c7857503373ffffffffffffffffffffffffffffffffffffffff168160000160009054906101000a900473ffffffffffffffffffffffffffffffffffffffff1673ffffffffffffffffffffffffffffffffffffffff16145b610cb7576040517f08c379a0000000000000000000000000000000000000000000000000000000008152600401610cae9061476e565b60405180910390fd5b60036002600085815260200190815260200160002060040160006101000a81548160ff02191690836003811115610cf157610cf0614468565b5b02179055506001600454610d0591906146c8565b6004819055506001915050919050565b600063150b7a0260e01b9050949350505050565b6000806000806002600086815260200190815260200160002090508060000160009054906101000a900473ffffffffffffffffffffffffffffffffffffffff168160010160009054906101000a900473ffffffffffffffffffffffffffffffffffffffff168260040160009054906101000a900460ff166003811115610db257610db1614468565b5b935093509350509193909250565b6060600360008373ffffffffffffffffffffffffffffffffffffffff1673ffffffffffffffffffffffffffffffffffffffff168152602001908152602001600020805480602002602001604051908101604052809291908181526020018280548015610e4b57602002820191906000526020600020905b815481526020019060010190808311610e37575b50505050509050919050565b606080606080600060026000888152602001908152602001600020905060008160030160008873ffffffffffffffffffffffffffffffffffffffff1673ffffffffffffffffffffffffffffffffffffffff168152602001908152602001600020600001805480602002602001604051908101604052809291908181526020018280548015610f0457602002820191906000526020600020905b815481526020019060010190808311610ef0575b505050505090506000815167ffffffffffffffff811115610f2857610f2761390f565b5b604051908082528060200260200182016040528015610f565781602001602082028036833780820191505090505b5090506000825167ffffffffffffffff811115610f7657610f7561390f565b5b604051908082528060200260200182016040528015610fa45781602001602082028036833780820191505090505b5090506000835167ffffffffffffffff811115610fc457610fc361390f565b5b604051908082528060200260200182016040528015610ff25781602001602082028036833780820191505090505b5090506000845167ffffffffffffffff8111156110125761101161390f565b5b6040519080825280602002602001820160405280156110405781602001602082028036833780820191505090505b50905060005b85518110156112995760008760030160008e73ffffffffffffffffffffffffffffffffffffffff1673ffffffffffffffffffffffffffffffffffffffff16815260200190815260200160002060010160008884815181106110aa576110a96145cc565b5b602002602001015181526020019081526020016000206040518060a00160405290816000820160009054906101000a900473ffffffffffffffffffffffffffffffffffffffff1673ffffffffffffffffffffffffffffffffffffffff1673ffffffffffffffffffffffffffffffffffffffff16815260200160018201548152602001600282015481526020016003820160009054906101000a900460ff16600381111561115a57611159614468565b5b600381111561116c5761116b614468565b5b81526020016003820160019054906101000a900460ff16600381111561119557611194614468565b5b60038111156111a7576111a6614468565b5b81525050905080600001518683815181106111c5576111c46145cc565b5b602002602001019073ffffffffffffffffffffffffffffffffffffffff16908173ffffffffffffffffffffffffffffffffffffffff16815250508060200151858381518110611217576112166145cc565b5b602002602001018181525050806040015184838151811061123b5761123a6145cc565b5b6020026020010181815250508060600151600381111561125e5761125d614468565b5b838381518110611271576112706145cc565b5b602002602001019060ff16908160ff16815250505080806112919061462a565b915050611046565b5083838383995099509950995050505050505092959194509250565b600080339050600073ffffffffffffffffffffffffffffffffffffffff168773ffffffffffffffffffffffffffffffffffffffff160361132a576040517f08c379a000000000000000000000000000000000000000000000000000000000815260040161132190614800565b60405180910390fd5b600073ffffffffffffffffffffffffffffffffffffffff168173ffffffffffffffffffffffffffffffffffffffff1603611399576040517f08c379a000000000000000000000000000000000000000000000000000000000815260040161139090614892565b60405180910390fd5b8073ffffffffffffffffffffffffffffffffffffffff168773ffffffffffffffffffffffffffffffffffffffff1603611407576040517f08c379a00000000000000000000000000000000000000000000000000000000081526004016113fe90614924565b60405180910390fd5b60008b511161144b576040517f08c379a0000000000000000000000000000000000000000000000000000000008152600401611442906149b6565b60405180910390fd5b600086511161148f576040517f08c379a000000000000000000000000000000000000000000000000000000000815260040161148690614a48565b60405180910390fd5b89518b511480156114a1575088518b51145b80156114ae575087518b51145b6114ed576040517f08c379a00000000000000000000000000000000000000000000000000000000081526004016114e490614ada565b60405180910390fd5b845186511480156114ff575083518651145b801561150c575082518651145b61154b576040517f08c379a000000000000000000000000000000000000000000000000000000000815260040161154290614b6c565b60405180910390fd5b6001600081548092919061155e9061462a565b9190505550600154600260006001548152602001908152602001600020600201819055508060026000600154815260200190815260200160002060000160006101000a81548173ffffffffffffffffffffffffffffffffffffffff021916908373ffffffffffffffffffffffffffffffffffffffff1602179055508660026000600154815260200190815260200160002060010160006101000a81548173ffffffffffffffffffffffffffffffffffffffff021916908373ffffffffffffffffffffffffffffffffffffffff16021790555060005b8b51811015611d4557600073ffffffffffffffffffffffffffffffffffffffff168c8281518110611667576116666145cc565b5b602002602001015173ffffffffffffffffffffffffffffffffffffffff16036116c5576040517f08c379a00000000000000000000000000000000000000000000000000000000081526004016116bc90614bfe565b60405180910390fd5b6117398c82815181106116db576116da6145cc565b5b60200260200101518c83815181106116f6576116f56145cc565b5b60200260200101518c8481518110611711576117106145cc565b5b60200260200101518c858151811061172c5761172b6145cc565b5b6020026020010151612d91565b506001600381111561174e5761174d614468565b5b898281518110611761576117606145cc565b5b602002602001015160ff16600381111561177e5761177d614468565b5b60038111156117905761178f614468565b5b036117dc576117d6828d83815181106117ac576117ab6145cc565b5b60200260200101518c84815181106117c7576117c66145cc565b5b60200260200101516001612f12565b50611938565b6003808111156117ef576117ee614468565b5b898281518110611802576118016145cc565b5b602002602001015160ff16600381111561181f5761181e614468565b5b600381111561183157611830614468565b5b0361187d57611877828d838151811061184d5761184c6145cc565b5b60200260200101518d8481518110611868576118676145cc565b5b602002602001015160016130a1565b50611937565b6002600381111561189157611890614468565b5b8982815181106118a4576118a36145cc565b5b602002602001015160ff1660038111156118c1576118c0614468565b5b60038111156118d3576118d2614468565b5b0361193657611934828d83815181106118ef576118ee6145cc565b5b60200260200101518c848151811061190a576119096145cc565b5b60200260200101518e8581518110611925576119246145cc565b5b60200260200101516001613258565b505b5b5b60026000600154815260200190815260200160002060030160008373ffffffffffffffffffffffffffffffffffffffff1673ffffffffffffffffffffffffffffffffffffffff16815260200190815260200160002060000160018261199d9190614672565b90806001815401808255809150506001900390600052602060002001600090919091909150558b81815181106119d6576119d56145cc565b5b602002602001015160026000600154815260200190815260200160002060030160008473ffffffffffffffffffffffffffffffffffffffff1673ffffffffffffffffffffffffffffffffffffffff1681526020019081526020016000206001016000600184611a459190614672565b815260200190815260200160002060000160006101000a81548173ffffffffffffffffffffffffffffffffffffffff021916908373ffffffffffffffffffffffffffffffffffffffff1602179055508a8181518110611aa757611aa66145cc565b5b602002602001015160026000600154815260200190815260200160002060030160008473ffffffffffffffffffffffffffffffffffffffff1673ffffffffffffffffffffffffffffffffffffffff1681526020019081526020016000206001016000600184611b169190614672565b815260200190815260200160002060010181905550898181518110611b3e57611b3d6145cc565b5b602002602001015160026000600154815260200190815260200160002060030160008473ffffffffffffffffffffffffffffffffffffffff1673ffffffffffffffffffffffffffffffffffffffff1681526020019081526020016000206001016000600184611bad9190614672565b815260200190815260200160002060020181905550888181518110611bd557611bd46145cc565b5b602002602001015160ff166003811115611bf257611bf1614468565b5b60026000600154815260200190815260200160002060030160008473ffffffffffffffffffffffffffffffffffffffff1673ffffffffffffffffffffffffffffffffffffffff1681526020019081526020016000206001016000600184611c599190614672565b815260200190815260200160002060030160006101000a81548160ff02191690836003811115611c8c57611c8b614468565b5b0217905550600160026000600154815260200190815260200160002060030160008473ffffffffffffffffffffffffffffffffffffffff1673ffffffffffffffffffffffffffffffffffffffff1681526020019081526020016000206001016000600184611cfa9190614672565b815260200190815260200160002060030160016101000a81548160ff02191690836003811115611d2d57611d2c614468565b5b02179055508080611d3d9061462a565b915050611633565b5060005b865181101561245b57600073ffffffffffffffffffffffffffffffffffffffff16878281518110611d7d57611d7c6145cc565b5b602002602001015173ffffffffffffffffffffffffffffffffffffffff1603611ddb576040517f08c379a0000000000000000000000000000000000000000000000000000000008152600401611dd290614c90565b60405180910390fd5b611e4f878281518110611df157611df06145cc565b5b6020026020010151878381518110611e0c57611e0b6145cc565b5b6020026020010151878481518110611e2757611e266145cc565b5b6020026020010151878581518110611e4257611e416145cc565b5b6020026020010151612d91565b5060016003811115611e6457611e63614468565b5b848281518110611e7757611e766145cc565b5b602002602001015160ff166003811115611e9457611e93614468565b5b6003811115611ea657611ea5614468565b5b03611ef257611eec88888381518110611ec257611ec16145cc565b5b6020026020010151878481518110611edd57611edc6145cc565b5b60200260200101516000612f12565b5061204e565b600380811115611f0557611f04614468565b5b848281518110611f1857611f176145cc565b5b602002602001015160ff166003811115611f3557611f34614468565b5b6003811115611f4757611f46614468565b5b03611f9357611f8d88888381518110611f6357611f626145cc565b5b6020026020010151888481518110611f7e57611f7d6145cc565b5b602002602001015160006130a1565b5061204d565b60026003811115611fa757611fa6614468565b5b848281518110611fba57611fb96145cc565b5b602002602001015160ff166003811115611fd757611fd6614468565b5b6003811115611fe957611fe8614468565b5b0361204c5761204a88888381518110612005576120046145cc565b5b60200260200101518784815181106120205761201f6145cc565b5b602002602001015189858151811061203b5761203a6145cc565b5b60200260200101516000613258565b505b5b5b60026000600154815260200190815260200160002060030160008973ffffffffffffffffffffffffffffffffffffffff1673ffffffffffffffffffffffffffffffffffffffff1681526020019081526020016000206000016001826120b39190614672565b90806001815401808255809150506001900390600052602060002001600090919091909150558681815181106120ec576120eb6145cc565b5b602002602001015160026000600154815260200190815260200160002060030160008a73ffffffffffffffffffffffffffffffffffffffff1673ffffffffffffffffffffffffffffffffffffffff168152602001908152602001600020600101600060018461215b9190614672565b815260200190815260200160002060000160006101000a81548173ffffffffffffffffffffffffffffffffffffffff021916908373ffffffffffffffffffffffffffffffffffffffff1602179055508581815181106121bd576121bc6145cc565b5b602002602001015160026000600154815260200190815260200160002060030160008a73ffffffffffffffffffffffffffffffffffffffff1673ffffffffffffffffffffffffffffffffffffffff168152602001908152602001600020600101600060018461222c9190614672565b815260200190815260200160002060010181905550848181518110612254576122536145cc565b5b602002602001015160026000600154815260200190815260200160002060030160008a73ffffffffffffffffffffffffffffffffffffffff1673ffffffffffffffffffffffffffffffffffffffff16815260200190815260200160002060010160006001846122c39190614672565b8152602001908152602001600020600201819055508381815181106122eb576122ea6145cc565b5b602002602001015160ff16600381111561230857612307614468565b5b60026000600154815260200190815260200160002060030160008a73ffffffffffffffffffffffffffffffffffffffff1673ffffffffffffffffffffffffffffffffffffffff168152602001908152602001600020600101600060018461236f9190614672565b815260200190815260200160002060030160006101000a81548160ff021916908360038111156123a2576123a1614468565b5b0217905550600160026000600154815260200190815260200160002060030160008a73ffffffffffffffffffffffffffffffffffffffff1673ffffffffffffffffffffffffffffffffffffffff16815260200190815260200160002060010160006001846124109190614672565b815260200190815260200160002060030160016101000a81548160ff0219169083600381111561244357612442614468565b5b021790555080806124539061462a565b915050611d49565b50600160026000600154815260200190815260200160002060040160006101000a81548160ff0219169083600381111561249857612497614468565b5b0217905550600360008273ffffffffffffffffffffffffffffffffffffffff1673ffffffffffffffffffffffffffffffffffffffff1681526020019081526020016000206001549080600181540180825580915050600190039060005260206000200160009091909190915055600360008873ffffffffffffffffffffffffffffffffffffffff1673ffffffffffffffffffffffffffffffffffffffff16815260200190815260200160002060015490806001815401808255809150506001900390600052602060002001600090919091909150558673ffffffffffffffffffffffffffffffffffffffff168173ffffffffffffffffffffffffffffffffffffffff167f5593c8d475af51603aa57c734339c52df3afca57726170f19fdf61f2999c4ea66001546040516125cc919061387b565b60405180910390a360016004546125e39190614672565b6004819055506001549150509998505050505050505050565b600115156000803373ffffffffffffffffffffffffffffffffffffffff1673ffffffffffffffffffffffffffffffffffffffff16815260200190815260200160002060009054906101000a900460ff1615151461268e576040517f08c379a000000000000000000000000000000000000000000000000000000000815260040161268590614cfc565b60405180910390fd5b600115156000808373ffffffffffffffffffffffffffffffffffffffff1673ffffffffffffffffffffffffffffffffffffffff16815260200190815260200160002060009054906101000a900460ff16151514612720576040517f08c379a000000000000000000000000000000000000000000000000000000000815260040161271790614d68565b60405180910390fd5b60008060008373ffffffffffffffffffffffffffffffffffffffff1673ffffffffffffffffffffffffffffffffffffffff16815260200190815260200160002060006101000a81548160ff02191690831515021790555050565b600063bc197c8160e01b905095945050505050565b60055481565b60045481565b600063f23a6e6160e01b905095945050505050565b600115156000803373ffffffffffffffffffffffffffffffffffffffff1673ffffffffffffffffffffffffffffffffffffffff16815260200190815260200160002060009054906101000a900460ff16151514612842576040517f08c379a000000000000000000000000000000000000000000000000000000000815260040161283990614cfc565b60405180910390fd5b600073ffffffffffffffffffffffffffffffffffffffff168173ffffffffffffffffffffffffffffffffffffffff16036128b1576040517f08c379a00000000000000000000000000000000000000000000000000000000081526004016128a890614dd4565b60405180910390fd5b60016000808373ffffffffffffffffffffffffffffffffffffffff1673ffffffffffffffffffffffffffffffffffffffff16815260200190815260200160002060006101000a81548160ff02191690831515021790555050565b60007f01ffc9a7000000000000000000000000000000000000000000000000000000007bffffffffffffffffffffffffffffffffffffffffffffffffffffffff1916827bffffffffffffffffffffffffffffffffffffffffffffffffffffffff1916149050919050565b60006129848584846001612f12565b5061299183868685613434565b60019050949350505050565b60006129ac85848460016130a1565b508273ffffffffffffffffffffffffffffffffffffffff1663b88d4fde8686856040518463ffffffff1660e01b81526004016129ea93929190614e2b565b600060405180830381600087803b158015612a0457600080fd5b505af1158015612a18573d6000803e3d6000fd5b5050505060019050949350505050565b6000612a38868584866001613258565b508373ffffffffffffffffffffffffffffffffffffffff1663f242432a878786866040518563ffffffff1660e01b8152600401612a789493929190614ec1565b600060405180830381600087803b158015612a9257600080fd5b505af1158015612aa6573d6000803e3d6000fd5b505050506001905095945050505050565b600080600360008573ffffffffffffffffffffffffffffffffffffffff1673ffffffffffffffffffffffffffffffffffffffff168152602001908152602001600020805480602002602001604051908101604052809291908181526020018280548015612b4357602002820191906000526020600020905b815481526020019060010190808311612b2f575b505050505090506001600360008673ffffffffffffffffffffffffffffffffffffffff1673ffffffffffffffffffffffffffffffffffffffff1681526020019081526020016000208054905003612c00576000600360008673ffffffffffffffffffffffffffffffffffffffff1673ffffffffffffffffffffffffffffffffffffffff168152602001908152602001600020600081548110612be857612be76145cc565b5b90600052602060002001819055506001915050612d8b565b60005b60018251612c1191906146c8565b811015612d845783828281518110612c2c57612c2b6145cc565b5b602002602001015103612d7157600360008673ffffffffffffffffffffffffffffffffffffffff1673ffffffffffffffffffffffffffffffffffffffff16815260200190815260200160002060018351612c8691906146c8565b81548110612c9757612c966145cc565b5b9060005260206000200154600360008773ffffffffffffffffffffffffffffffffffffffff1673ffffffffffffffffffffffffffffffffffffffff1681526020019081526020016000208281548110612cf357612cf26145cc565b5b9060005260206000200181905550600360008673ffffffffffffffffffffffffffffffffffffffff1673ffffffffffffffffffffffffffffffffffffffff168152602001908152602001600020805480612d5057612d4f614f19565b5b60019003818190600052602060002001600090559055600192505050612d8b565b8080612d7c9061462a565b915050612c03565b5060009150505b92915050565b60008073ffffffffffffffffffffffffffffffffffffffff168573ffffffffffffffffffffffffffffffffffffffff1603612e01576040517f08c379a0000000000000000000000000000000000000000000000000000000008152600401612df890614fba565b60405180910390fd5b60006003811115612e1557612e14614468565b5b60ff168260ff16118015612e415750600380811115612e3757612e36614468565b5b60ff168260ff1611155b612e80576040517f08c379a0000000000000000000000000000000000000000000000000000000008152600401612e779061504c565b60405180910390fd5b60008411612ec3576040517f08c379a0000000000000000000000000000000000000000000000000000000008152600401612eba906150de565b60405180910390fd5b60008311612f06576040517f08c379a0000000000000000000000000000000000000000000000000000000008152600401612efd90615170565b60405180910390fd5b60019050949350505050565b60008373ffffffffffffffffffffffffffffffffffffffff166370a08231866040518263ffffffff1660e01b8152600401612f4d9190615190565b602060405180830381865afa158015612f6a573d6000803e3d6000fd5b505050506040513d601f19601f82011682018060405250810190612f8e91906151c0565b831115612fd0576040517f08c379a0000000000000000000000000000000000000000000000000000000008152600401612fc79061525f565b60405180910390fd5b8115613095578373ffffffffffffffffffffffffffffffffffffffff1663dd62ed3e86306040518363ffffffff1660e01b815260040161301192919061527f565b602060405180830381865afa15801561302e573d6000803e3d6000fd5b505050506040513d601f19601f8201168201806040525081019061305291906151c0565b831115613094576040517f08c379a000000000000000000000000000000000000000000000000000000000815260040161308b9061531a565b60405180910390fd5b5b60019050949350505050565b60008373ffffffffffffffffffffffffffffffffffffffff16636352211e846040518263ffffffff1660e01b81526004016130dc919061387b565b602060405180830381865afa1580156130f9573d6000803e3d6000fd5b505050506040513d601f19601f8201168201806040525081019061311d919061534f565b73ffffffffffffffffffffffffffffffffffffffff168573ffffffffffffffffffffffffffffffffffffffff161461318a576040517f08c379a0000000000000000000000000000000000000000000000000000000008152600401613181906153ee565b60405180910390fd5b811561324c578373ffffffffffffffffffffffffffffffffffffffff1663e985e9c586306040518363ffffffff1660e01b81526004016131cb92919061527f565b602060405180830381865afa1580156131e8573d6000803e3d6000fd5b505050506040513d601f19601f8201168201806040525081019061320c919061543a565b61324b576040517f08c379a0000000000000000000000000000000000000000000000000000000008152600401613242906154d9565b60405180910390fd5b5b60019050949350505050565b600080831161329c576040517f08c379a00000000000000000000000000000000000000000000000000000000081526004016132939061556b565b60405180910390fd5b60008411801561332657508473ffffffffffffffffffffffffffffffffffffffff1662fdd58e87856040518363ffffffff1660e01b81526004016132e192919061558b565b602060405180830381865afa1580156132fe573d6000803e3d6000fd5b505050506040513d601f19601f8201168201806040525081019061332291906151c0565b8411155b613365576040517f08c379a000000000000000000000000000000000000000000000000000000000815260040161335c90615626565b60405180910390fd5b8115613427578473ffffffffffffffffffffffffffffffffffffffff1663e985e9c587306040518363ffffffff1660e01b81526004016133a692919061527f565b602060405180830381865afa1580156133c3573d6000803e3d6000fd5b505050506040513d601f19601f820116820180604052508101906133e7919061543a565b613426576040517f08c379a000000000000000000000000000000000000000000000000000000000815260040161341d906156b8565b60405180910390fd5b5b6001905095945050505050565b6134b7846323b872dd60e01b858585604051602401613455939291906156d8565b604051602081830303815290604052907bffffffffffffffffffffffffffffffffffffffffffffffffffffffff19166020820180517bffffffffffffffffffffffffffffffffffffffffffffffffffffffff83818316178352505050506134bd565b50505050565b600061351f826040518060400160405280602081526020017f5361666545524332303a206c6f772d6c6576656c2063616c6c206661696c65648152508573ffffffffffffffffffffffffffffffffffffffff166135849092919063ffffffff16565b905060008151111561357f578080602001905181019061353f919061543a565b61357e576040517f08c379a000000000000000000000000000000000000000000000000000000000815260040161357590615781565b60405180910390fd5b5b505050565b6060613593848460008561359c565b90509392505050565b6060824710156135e1576040517f08c379a00000000000000000000000000000000000000000000000000000000081526004016135d890615813565b60405180910390fd5b6135ea856136b0565b613629576040517f08c379a00000000000000000000000000000000000000000000000000000000081526004016136209061587f565b60405180910390fd5b6000808673ffffffffffffffffffffffffffffffffffffffff1685876040516136529190615919565b60006040518083038185875af1925050503d806000811461368f576040519150601f19603f3d011682016040523d82523d6000602084013e613694565b606091505b50915091506136a48282866136d3565b92505050949350505050565b6000808273ffffffffffffffffffffffffffffffffffffffff163b119050919050565b606083156136e357829050613733565b6000835111156136f65782518084602001fd5b816040517f08c379a000000000000000000000000000000000000000000000000000000000815260040161372a9190615974565b60405180910390fd5b9392505050565b6000604051905090565b600080fd5b600080fd5b60007fffffffff0000000000000000000000000000000000000000000000000000000082169050919050565b6137838161374e565b811461378e57600080fd5b50565b6000813590506137a08161377a565b92915050565b6000602082840312156137bc576137bb613744565b5b60006137ca84828501613791565b91505092915050565b60008115159050919050565b6137e8816137d3565b82525050565b600060208201905061380360008301846137df565b92915050565b6000819050919050565b61381c81613809565b811461382757600080fd5b50565b60008135905061383981613813565b92915050565b60006020828403121561385557613854613744565b5b60006138638482850161382a565b91505092915050565b61387581613809565b82525050565b6000602082019050613890600083018461386c565b92915050565b600073ffffffffffffffffffffffffffffffffffffffff82169050919050565b60006138c182613896565b9050919050565b6138d1816138b6565b81146138dc57600080fd5b50565b6000813590506138ee816138c8565b92915050565b600080fd5b600080fd5b6000601f19601f8301169050919050565b7f4e487b7100000000000000000000000000000000000000000000000000000000600052604160045260246000fd5b613947826138fe565b810181811067ffffffffffffffff821117156139665761396561390f565b5b80604052505050565b600061397961373a565b9050613985828261393e565b919050565b600067ffffffffffffffff8211156139a5576139a461390f565b5b6139ae826138fe565b9050602081019050919050565b82818337600083830152505050565b60006139dd6139d88461398a565b61396f565b9050828152602081018484840111156139f9576139f86138f9565b5b613a048482856139bb565b509392505050565b600082601f830112613a2157613a206138f4565b5b8135613a318482602086016139ca565b91505092915050565b60008060008060808587031215613a5457613a53613744565b5b6000613a62878288016138df565b9450506020613a73878288016138df565b9350506040613a848782880161382a565b925050606085013567ffffffffffffffff811115613aa557613aa4613749565b5b613ab187828801613a0c565b91505092959194509250565b613ac68161374e565b82525050565b6000602082019050613ae16000830184613abd565b92915050565b613af0816138b6565b82525050565b600060ff82169050919050565b613b0c81613af6565b82525050565b6000606082019050613b276000830186613ae7565b613b346020830185613ae7565b613b416040830184613b03565b949350505050565b600060208284031215613b5f57613b5e613744565b5b6000613b6d848285016138df565b91505092915050565b600081519050919050565b600082825260208201905092915050565b6000819050602082019050919050565b613bab81613809565b82525050565b6000613bbd8383613ba2565b60208301905092915050565b6000602082019050919050565b6000613be182613b76565b613beb8185613b81565b9350613bf683613b92565b8060005b83811015613c27578151613c0e8882613bb1565b9750613c1983613bc9565b925050600181019050613bfa565b5085935050505092915050565b60006020820190508181036000830152613c4e8184613bd6565b905092915050565b60008060408385031215613c6d57613c6c613744565b5b6000613c7b8582860161382a565b9250506020613c8c858286016138df565b9150509250929050565b600081519050919050565b600082825260208201905092915050565b6000819050602082019050919050565b613ccb816138b6565b82525050565b6000613cdd8383613cc2565b60208301905092915050565b6000602082019050919050565b6000613d0182613c96565b613d0b8185613ca1565b9350613d1683613cb2565b8060005b83811015613d47578151613d2e8882613cd1565b9750613d3983613ce9565b925050600181019050613d1a565b5085935050505092915050565b600081519050919050565b600082825260208201905092915050565b6000819050602082019050919050565b613d8981613af6565b82525050565b6000613d9b8383613d80565b60208301905092915050565b6000602082019050919050565b6000613dbf82613d54565b613dc98185613d5f565b9350613dd483613d70565b8060005b83811015613e05578151613dec8882613d8f565b9750613df783613da7565b925050600181019050613dd8565b5085935050505092915050565b60006080820190508181036000830152613e2c8187613cf6565b90508181036020830152613e408186613bd6565b90508181036040830152613e548185613bd6565b90508181036060830152613e688184613db4565b905095945050505050565b600067ffffffffffffffff821115613e8e57613e8d61390f565b5b602082029050602081019050919050565b600080fd5b6000613eb7613eb284613e73565b61396f565b90508083825260208201905060208402830185811115613eda57613ed9613e9f565b5b835b81811015613f035780613eef88826138df565b845260208401935050602081019050613edc565b5050509392505050565b600082601f830112613f2257613f216138f4565b5b8135613f32848260208601613ea4565b91505092915050565b600067ffffffffffffffff821115613f5657613f5561390f565b5b602082029050602081019050919050565b6000613f7a613f7584613f3b565b61396f565b90508083825260208201905060208402830185811115613f9d57613f9c613e9f565b5b835b81811015613fc65780613fb2888261382a565b845260208401935050602081019050613f9f565b5050509392505050565b600082601f830112613fe557613fe46138f4565b5b8135613ff5848260208601613f67565b91505092915050565b600067ffffffffffffffff8211156140195761401861390f565b5b602082029050602081019050919050565b61403381613af6565b811461403e57600080fd5b50565b6000813590506140508161402a565b92915050565b600061406961406484613ffe565b61396f565b9050808382526020820190506020840283018581111561408c5761408b613e9f565b5b835b818110156140b557806140a18882614041565b84526020840193505060208101905061408e565b5050509392505050565b600082601f8301126140d4576140d36138f4565b5b81356140e4848260208601614056565b91505092915050565b60008060008060008060008060006101208a8c0312156141105761410f613744565b5b60008a013567ffffffffffffffff81111561412e5761412d613749565b5b61413a8c828d01613f0d565b99505060208a013567ffffffffffffffff81111561415b5761415a613749565b5b6141678c828d01613fd0565b98505060408a013567ffffffffffffffff81111561418857614187613749565b5b6141948c828d01613fd0565b97505060608a013567ffffffffffffffff8111156141b5576141b4613749565b5b6141c18c828d016140bf565b96505060806141d28c828d016138df565b95505060a08a013567ffffffffffffffff8111156141f3576141f2613749565b5b6141ff8c828d01613f0d565b94505060c08a013567ffffffffffffffff8111156142205761421f613749565b5b61422c8c828d01613fd0565b93505060e08a013567ffffffffffffffff81111561424d5761424c613749565b5b6142598c828d01613fd0565b9250506101008a013567ffffffffffffffff81111561427b5761427a613749565b5b6142878c828d016140bf565b9150509295985092959850929598565b60006142a282613896565b9050919050565b6142b281614297565b81146142bd57600080fd5b50565b6000813590506142cf816142a9565b92915050565b6000602082840312156142eb576142ea613744565b5b60006142f9848285016142c0565b91505092915050565b600080600080600060a0868803121561431e5761431d613744565b5b600061432c888289016138df565b955050602061433d888289016138df565b945050604086013567ffffffffffffffff81111561435e5761435d613749565b5b61436a88828901613fd0565b935050606086013567ffffffffffffffff81111561438b5761438a613749565b5b61439788828901613fd0565b925050608086013567ffffffffffffffff8111156143b8576143b7613749565b5b6143c488828901613a0c565b9150509295509295909350565b600080600080600060a086880312156143ed576143ec613744565b5b60006143fb888289016138df565b955050602061440c888289016138df565b945050604061441d8882890161382a565b935050606061442e8882890161382a565b925050608086013567ffffffffffffffff81111561444f5761444e613749565b5b61445b88828901613a0c565b9150509295509295909350565b7f4e487b7100000000000000000000000000000000000000000000000000000000600052602160045260246000fd5b600082825260208201905092915050565b7f5745423342415a4141525f4552524f523a2054524144455f535441545553204960008201527f534e542043524541544544000000000000000000000000000000000000000000602082015250565b6000614504602b83614497565b915061450f826144a8565b604082019050919050565b60006020820190508181036000830152614533816144f7565b9050919050565b7f5745423342415a4141525f4552524f523a2043414c4c455220494e535420544860008201527f4520455845435554455200000000000000000000000000000000000000000000602082015250565b6000614596602a83614497565b91506145a18261453a565b604082019050919050565b600060208201905081810360008301526145c581614589565b9050919050565b7f4e487b7100000000000000000000000000000000000000000000000000000000600052603260045260246000fd5b7f4e487b7100000000000000000000000000000000000000000000000000000000600052601160045260246000fd5b600061463582613809565b91507fffffffffffffffffffffffffffffffffffffffffffffffffffffffffffffffff8203614667576146666145fb565b5b600182019050919050565b600061467d82613809565b915061468883613809565b9250827fffffffffffffffffffffffffffffffffffffffffffffffffffffffffffffffff038211156146bd576146bc6145fb565b5b828201905092915050565b60006146d382613809565b91506146de83613809565b9250828210156146f1576146f06145fb565b5b828203905092915050565b7f5745423342415a4141525f4552524f523a2045584543555445522049534e542060008201527f43524541544f52204f5220455845435554455200000000000000000000000000602082015250565b6000614758603383614497565b9150614763826146fc565b604082019050919050565b600060208201905081810360008301526147878161474b565b9050919050565b7f5745423342415a4141525f4552524f523a2045584543555445525f414444524560008201527f53535f4e4f545f56414c49440000000000000000000000000000000000000000602082015250565b60006147ea602c83614497565b91506147f58261478e565b604082019050919050565b60006020820190508181036000830152614819816147dd565b9050919050565b7f5745423342415a4141525f4552524f523a2043524541544f525f41444452455360008201527f535f4e4f545f56414c4944000000000000000000000000000000000000000000602082015250565b600061487c602b83614497565b915061488782614820565b604082019050919050565b600060208201905081810360008301526148ab8161486f565b9050919050565b7f5745423342415a4141525f4552524f523a2043524541544f525f414e445f455860008201527f4543555445525f4152455f455155414c00000000000000000000000000000000602082015250565b600061490e603083614497565b9150614919826148b2565b604082019050919050565b6000602082019050818103600083015261493d81614901565b9050919050565b7f5745423342415a4141525f4552524f523a2043524541544f525f544f4b454e5f60008201527f414444524553535f454d50545900000000000000000000000000000000000000602082015250565b60006149a0602d83614497565b91506149ab82614944565b604082019050919050565b600060208201905081810360008301526149cf81614993565b9050919050565b7f5745423342415a4141525f4552524f523a2045584543555445525f544f4b454e60008201527f5f414444524553535f454d505459000000000000000000000000000000000000602082015250565b6000614a32602e83614497565b9150614a3d826149d6565b604082019050919050565b60006020820190508181036000830152614a6181614a25565b9050919050565b7f5745423342415a41525f5041524d533a43524541544f525f5041524d535f4c4560008201527f4e5f4552524f5200000000000000000000000000000000000000000000000000602082015250565b6000614ac4602783614497565b9150614acf82614a68565b604082019050919050565b60006020820190508181036000830152614af381614ab7565b9050919050565b7f5745423342415a41525f5041524d533a45584543555445525f5041524d535f4c60008201527f454e5f4552524f52000000000000000000000000000000000000000000000000602082015250565b6000614b56602883614497565b9150614b6182614afa565b604082019050919050565b60006020820190508181036000830152614b8581614b49565b9050919050565b7f5745423342415a4141525f4552524f523a2043524541544f525f544f4b454e5f60008201527f414444524553535f49535f5a45524f0000000000000000000000000000000000602082015250565b6000614be8602f83614497565b9150614bf382614b8c565b604082019050919050565b60006020820190508181036000830152614c1781614bdb565b9050919050565b7f5745423342415a4141525f4552524f523a2045584543555445525f544f4b454e60008201527f5f414444524553535f49535f5a45524f00000000000000000000000000000000602082015250565b6000614c7a603083614497565b9150614c8582614c1e565b604082019050919050565b60006020820190508181036000830152614ca981614c6d565b9050919050565b7f4552525f4e4f545f4f574e455200000000000000000000000000000000000000600082015250565b6000614ce6600d83614497565b9150614cf182614cb0565b602082019050919050565b60006020820190508181036000830152614d1581614cd9565b9050919050565b7f4552525f414444525f4e4f545f4f574e45520000000000000000000000000000600082015250565b6000614d52601283614497565b9150614d5d82614d1c565b602082019050919050565b60006020820190508181036000830152614d8181614d45565b9050919050565b7f4552525f5a45524f5f4144445200000000000000000000000000000000000000600082015250565b6000614dbe600d83614497565b9150614dc982614d88565b602082019050919050565b60006020820190508181036000830152614ded81614db1565b9050919050565b600082825260208201905092915050565b50565b6000614e15600083614df4565b9150614e2082614e05565b600082019050919050565b6000608082019050614e406000830186613ae7565b614e4d6020830185613ae7565b614e5a604083018461386c565b8181036060830152614e6b81614e08565b9050949350505050565b7f3078303100000000000000000000000000000000000000000000000000000000600082015250565b6000614eab600483614df4565b9150614eb682614e75565b602082019050919050565b600060a082019050614ed66000830187613ae7565b614ee36020830186613ae7565b614ef0604083018561386c565b614efd606083018461386c565b8181036080830152614f0e81614e9e565b905095945050505050565b7f4e487b7100000000000000000000000000000000000000000000000000000000600052603160045260246000fd5b7f5745423342415a4141525f4552524f523a2043524541544f525f434f4e54524160008201527f43545f4e4f545f56414c49440000000000000000000000000000000000000000602082015250565b6000614fa4602c83614497565b9150614faf82614f48565b604082019050919050565b60006020820190508181036000830152614fd381614f97565b9050919050565b7f5745423342415a41525f4552524f523a204e4f545f56414c49445f545241444560008201527f5f54595045000000000000000000000000000000000000000000000000000000602082015250565b6000615036602583614497565b915061504182614fda565b604082019050919050565b6000602082019050818103600083015261506581615029565b9050919050565b7f5745423342415a41525f4552524f523a20544f4b454e49445f4d5553545f504f60008201527f5349544956450000000000000000000000000000000000000000000000000000602082015250565b60006150c8602683614497565b91506150d38261506c565b604082019050919050565b600060208201905081810360008301526150f7816150bb565b9050919050565b7f5745423342415a41525f4552524f523a20414d4f554e545f4d5553545f504f5360008201527f4954495645000000000000000000000000000000000000000000000000000000602082015250565b600061515a602583614497565b9150615165826150fe565b604082019050919050565b600060208201905081810360008301526151898161514d565b9050919050565b60006020820190506151a56000830184613ae7565b92915050565b6000815190506151ba81613813565b92915050565b6000602082840312156151d6576151d5613744565b5b60006151e4848285016151ab565b91505092915050565b7f5745423342415a4141525f4552524f523a204552525f4e4f545f454e4f55474860008201527f5f46554e44535f45524332300000000000000000000000000000000000000000602082015250565b6000615249602c83614497565b9150615254826151ed565b604082019050919050565b600060208201905081810360008301526152788161523c565b9050919050565b60006040820190506152946000830185613ae7565b6152a16020830184613ae7565b9392505050565b7f5745423342415a41525f4552524f523a204552525f4e4f545f414c4c4f575f5360008201527f50454e445f46554e445300000000000000000000000000000000000000000000602082015250565b6000615304602a83614497565b915061530f826152a8565b604082019050919050565b60006020820190508181036000830152615333816152f7565b9050919050565b600081519050615349816138c8565b92915050565b60006020828403121561536557615364613744565b5b60006153738482850161533a565b91505092915050565b7f5745423342415a4141525f4552524f523a204552525f4e4f545f4f574e5f494460008201527f5f45524337323100000000000000000000000000000000000000000000000000602082015250565b60006153d8602783614497565b91506153e38261537c565b604082019050919050565b60006020820190508181036000830152615407816153cb565b9050919050565b615417816137d3565b811461542257600080fd5b50565b6000815190506154348161540e565b92915050565b6000602082840312156154505761544f613744565b5b600061545e84828501615425565b91505092915050565b7f5745423342415a41525f4552524f523a204552525f4e4f545f414c4c4f575f5460008201527f4f5f5452414e5345525f4954454e535f45524337323100000000000000000000602082015250565b60006154c3603683614497565b91506154ce82615467565b604082019050919050565b600060208201905081810360008301526154f2816154b6565b9050919050565b7f5745423342415a4141525f4552524f523a205354414b455f455243313135355f60008201527f49445f53484f554c445f475245415445525f5448454e5f300000000000000000602082015250565b6000615555603883614497565b9150615560826154f9565b604082019050919050565b6000602082019050818103600083015261558481615548565b9050919050565b60006040820190506155a06000830185613ae7565b6155ad602083018461386c565b9392505050565b7f5745423342415a4141525f4552524f523a204552525f4e4f545f454e4f55474860008201527f5f46554e44535f45524331313535000000000000000000000000000000000000602082015250565b6000615610602e83614497565b915061561b826155b4565b604082019050919050565b6000602082019050818103600083015261563f81615603565b9050919050565b7f5745423342415a41525f4552524f523a204552525f4e4f545f414c4c4f575f5460008201527f4f5f5452414e5345525f4954454e535f45524331313535000000000000000000602082015250565b60006156a2603783614497565b91506156ad82615646565b604082019050919050565b600060208201905081810360008301526156d181615695565b9050919050565b60006060820190506156ed6000830186613ae7565b6156fa6020830185613ae7565b615707604083018461386c565b949350505050565b7f5361666545524332303a204552433230206f7065726174696f6e20646964206e60008201527f6f74207375636365656400000000000000000000000000000000000000000000602082015250565b600061576b602a83614497565b91506157768261570f565b604082019050919050565b6000602082019050818103600083015261579a8161575e565b9050919050565b7f416464726573733a20696e73756666696369656e742062616c616e636520666f60008201527f722063616c6c0000000000000000000000000000000000000000000000000000602082015250565b60006157fd602683614497565b9150615808826157a1565b604082019050919050565b6000602082019050818103600083015261582c816157f0565b9050919050565b7f416464726573733a2063616c6c20746f206e6f6e2d636f6e7472616374000000600082015250565b6000615869601d83614497565b915061587482615833565b602082019050919050565b600060208201905081810360008301526158988161585c565b9050919050565b600081519050919050565b600081905092915050565b60005b838110156158d35780820151818401526020810190506158b8565b838111156158e2576000848401525b50505050565b60006158f38261589f565b6158fd81856158aa565b935061590d8185602086016158b5565b80840191505092915050565b600061592582846158e8565b915081905092915050565b600081519050919050565b600061594682615930565b6159508185614497565b93506159608185602086016158b5565b615969816138fe565b840191505092915050565b6000602082019050818103600083015261598e818461593b565b90509291505056fea2646970667358221220de0ee4a33c94d2860990b9c63372f825906903fe0f5d182d4b0e173da9625dff64736f6c634300080e0033",
  "immutableReferences": {},
  "source": "// SPDX-License-Identifier: MIT\npragma solidity 0.8.14;\n\nimport \"@openzeppelin/contracts/token/ERC20/IERC20.sol\";\nimport \"@openzeppelin/contracts/token/ERC20/utils/SafeERC20.sol\";\nimport \"@openzeppelin/contracts/token/ERC1155/ERC1155.sol\";\nimport \"@openzeppelin/contracts/token/ERC721/ERC721.sol\";\nimport \"@openzeppelin/contracts/token/ERC1155/utils/ERC1155Holder.sol\";\nimport \"@openzeppelin/contracts/token/ERC721/utils/ERC721Holder.sol\";\nimport \"@openzeppelin/contracts/utils/Context.sol\";\n\n/// @author drBrown\n/// @title MultiAccessControl contract\ncontract MultiAccessControl {\n    mapping(address => bool) internal _owners;\n\n    modifier isOwner() {\n        require(_owners[msg.sender] == true, \"ERR_NOT_OWNER\");\n        _;\n    }\n\n    constructor() {\n        _owners[msg.sender] = true;\n    }\n\n    function addOwnership(address payable newOwner) external isOwner {\n        require(newOwner != address(0), \"ERR_ZERO_ADDR\");\n        _owners[newOwner] = true;\n    }\n\n    function removeOwnership(address payable existingOwner) external isOwner {\n        require(_owners[existingOwner] == true, \"ERR_ADDR_NOT_OWNER\");\n        _owners[existingOwner] = false;\n    }\n}\n\n/// @author drBrown\n/// @title Web3BazaarEscrow contract\ncontract Web3BazaarEscrow is\n    Context,\n    ERC1155Holder,\n    ERC721Holder,\n    MultiAccessControl\n{\n    event NewTrade(\n        address indexed creator,\n        address indexed executor,\n        uint256 tradeId\n    );\n    event FinishTrade(address indexed executor, uint256 tradeId);\n\n    uint256 private _tradeId;\n    mapping(uint256 => Trade) internal _transactions;\n    mapping(address => uint256[]) internal _openTrades;\n\n    uint256 public openTradeCount;\n    uint256 public totalCompletedTrade;\n\n    enum TradeStatus {\n        NON,\n        TRADE_CREATED,\n        TRADE_COMPLETED,\n        TRADE_CANCELLED\n    }\n    enum UserStatus {\n        NON,\n        OPEN,\n        DEPOSIT,\n        CLAIM\n    }\n    enum TradeType {\n        NON,\n        ERC20,\n        ERC1155,\n        ERC721\n    }\n\n    struct TradeCounterpart {\n        address contractAddr;\n        uint256 idAsset;\n        uint256 amount;\n        TradeType traderType;\n        UserStatus traderStatus;\n    }\n    struct Trade {\n        address creator;\n        address executor;\n        uint256 id;\n        mapping(address => TradeUser) _traders;\n        TradeStatus tradeStatus;\n    }\n    struct TradeUser {\n        uint256[] tokenAddressIdx;\n        mapping(uint256 => TradeCounterpart) _counterpart;\n    }\n\n    constructor() MultiAccessControl() {\n        openTradeCount = 0;\n        totalCompletedTrade = 0;\n    }\n\n    // External functions\n\n    /// cancelTrade -  To invalidate an already created trade. Can be called by both the trade creator or executor\n    /// @param tradeId to cancel\n    /// @dev changes the status of the trade to cancelled\n    /// @return all true  if trade was cancelled\n    function cancelTrade(uint256 tradeId) external returns (bool) {\n        Trade storage store = _transactions[tradeId];\n        require(\n            store.tradeStatus == TradeStatus.TRADE_CREATED,\n            \"WEB3BAZAAR_ERROR: TRADE_STATUS ISNT CREATED\"\n        );\n        require(\n            store.executor == msg.sender || store.creator == msg.sender,\n            \"WEB3BAZAAR_ERROR: EXECUTER ISNT CREATOR OR EXECUTER\"\n        );\n        _transactions[tradeId].tradeStatus = TradeStatus.TRADE_CANCELLED;\n        openTradeCount = openTradeCount - 1;\n        return true;\n    }\n\n    /// executeTrade - to confirm a swap proposed by a creator counter-party. executor calls it to initiate the trade\n    /// @param tradeId to execute trade\n    /// @dev verifies assets ownership from both parties before swapping them.\n    /// @return id of the trade\n    function executeTrade(uint256 tradeId) external returns (uint256) {\n        Trade storage store = _transactions[tradeId];\n        require(\n            store.tradeStatus == TradeStatus.TRADE_CREATED,\n            \"WEB3BAZAAR_ERROR: TRADE_STATUS ISNT CREATED\"\n        );\n\n        address executer = store.executor;\n        address creator = store.creator;\n        require(\n            executer == msg.sender,\n            \"WEB3BAZAAR_ERROR: CALLER INST THE EXECUTER\"\n        );\n        TradeCounterpart storage tempSwap;\n        for (\n            uint256 i = 0;\n            i < store._traders[creator].tokenAddressIdx.length;\n            i++\n        ) {\n            uint256 tokenAddressIdx = store._traders[creator].tokenAddressIdx[\n                i\n            ];\n            tempSwap = store._traders[creator]._counterpart[tokenAddressIdx];\n            if (tempSwap.traderType == TradeType.ERC20) {\n                swapERC20(\n                    creator,\n                    executer,\n                    tempSwap.contractAddr,\n                    tempSwap.amount\n                );\n            } else if (tempSwap.traderType == TradeType.ERC721) {\n                swapERC721(\n                    creator,\n                    executer,\n                    tempSwap.contractAddr,\n                    tempSwap.idAsset\n                );\n            } else if (tempSwap.traderType == TradeType.ERC1155) {\n                swapERC1155(\n                    creator,\n                    executer,\n                    tempSwap.contractAddr,\n                    tempSwap.idAsset,\n                    tempSwap.amount\n                );\n            }\n        }\n        for (\n            uint256 i = 0;\n            i < store._traders[executer].tokenAddressIdx.length;\n            i++\n        ) {\n            uint256 tokenAddressIdx = store._traders[executer].tokenAddressIdx[\n                i\n            ];\n            tempSwap = store._traders[executer]._counterpart[tokenAddressIdx];\n            if (tempSwap.traderType == TradeType.ERC20) {\n                swapERC20(\n                    executer,\n                    creator,\n                    tempSwap.contractAddr,\n                    tempSwap.amount\n                );\n            } else if (tempSwap.traderType == TradeType.ERC721) {\n                swapERC721(\n                    executer,\n                    creator,\n                    tempSwap.contractAddr,\n                    tempSwap.idAsset\n                );\n            } else if (tempSwap.traderType == TradeType.ERC1155) {\n                swapERC1155(\n                    executer,\n                    creator,\n                    tempSwap.contractAddr,\n                    tempSwap.idAsset,\n                    tempSwap.amount\n                );\n            }\n        }\n        _transactions[_tradeId].tradeStatus = TradeStatus.TRADE_COMPLETED;\n        removeTradeForUser(msg.sender, tradeId);\n        removeTradeForUser(_transactions[tradeId].creator, tradeId);\n        totalCompletedTrade = totalCompletedTrade + 1;\n        openTradeCount = openTradeCount - 1;\n        emit FinishTrade(msg.sender, tradeId);\n        return tradeId;\n    }\n\n    /// starttrade - to verify creator and executor assets ownership and start the trade\n\n    /// @param creatorTokenAddress array containing the address of the contract of each asset to be swapped by the creator\n    /// @param creatorTokenId array containing tokenId of each asset (only applicable for erc721 and erc1155) to be swapped by the creator\n    /// @param creatorAmount array containing the amount of each token (only applicable for erc1155 and erc20) to be swapped by the creator\n    /// @param creatorTokenType array containing the token standard of each asset (erc20, erc721 and erc1155) to be swapped by the creator\n    /// @param executerAddress wallet address of counterparty\n    /// @param executorTokenAddress array containing the address of the contract of each asset to be swapped by the executor\n    /// @param executorTokenId array containing tokenId of each asset (only applicable for erc721 and erc1155) to be swapped by the executor\n    /// @param executorAmount array containing the amount of each token (only applicable for erc1155 and erc20) to be swapped by the executor\n    /// @param executorTokenType array containing the token standard of each asset (erc20, erc721 and erc1155) to be swapped by the executor\n    /// @dev checks if both users own all assets requested by the trade creator and initiates the trade if verification returns true\n    /// @return all trades created by a user\n    function startTrade(\n        address[] memory creatorTokenAddress,\n        uint256[] memory creatorTokenId,\n        uint256[] memory creatorAmount,\n        uint8[] memory creatorTokenType,\n        address executerAddress,\n        address[] memory executorTokenAddress,\n        uint256[] memory executorTokenId,\n        uint256[] memory executorAmount,\n        uint8[] memory executorTokenType\n    ) external returns (uint256) {\n        address creatorAddress = msg.sender;\n        require(\n            executerAddress != address(0),\n            \"WEB3BAZAAR_ERROR: EXECUTER_ADDRESS_NOT_VALID\"\n        );\n        require(\n            creatorAddress != address(0),\n            \"WEB3BAZAAR_ERROR: CREATOR_ADDRESS_NOT_VALID\"\n        );\n        require(\n            executerAddress != creatorAddress,\n            \"WEB3BAZAAR_ERROR: CREATOR_AND_EXECUTER_ARE_EQUAL\"\n        );\n        require(\n            creatorTokenAddress.length > 0,\n            \"WEB3BAZAAR_ERROR: CREATOR_TOKEN_ADDRESS_EMPTY\"\n        );\n        require(\n            executorTokenAddress.length > 0,\n            \"WEB3BAZAAR_ERROR: EXECUTER_TOKEN_ADDRESS_EMPTY\"\n        );\n\n        require(\n            creatorTokenAddress.length == creatorTokenId.length &&\n                creatorTokenAddress.length == creatorAmount.length &&\n                creatorTokenAddress.length == creatorTokenType.length,\n            \"WEB3BAZAR_PARMS:CREATOR_PARMS_LEN_ERROR\"\n        );\n        require(\n            executorTokenAddress.length == executorTokenId.length &&\n                executorTokenAddress.length == executorAmount.length &&\n                executorTokenAddress.length == executorTokenType.length,\n            \"WEB3BAZAR_PARMS:EXECUTER_PARMS_LEN_ERROR\"\n        );\n\n        _tradeId++;\n        _transactions[_tradeId].id = _tradeId;\n        _transactions[_tradeId].creator = creatorAddress;\n        _transactions[_tradeId].executor = executerAddress;\n        for (uint256 i = 0; i < creatorTokenAddress.length; i++) {\n            require(\n                creatorTokenAddress[i] != address(0),\n                \"WEB3BAZAAR_ERROR: CREATOR_TOKEN_ADDRESS_IS_ZERO\"\n            );\n            verifyTradeIntegrity(\n                creatorTokenAddress[i],\n                creatorTokenId[i],\n                creatorAmount[i],\n                creatorTokenType[i]\n            );\n            if (TradeType(creatorTokenType[i]) == TradeType.ERC20) {\n                verifyERC20(\n                    creatorAddress,\n                    creatorTokenAddress[i],\n                    creatorAmount[i],\n                    true\n                );\n            } else if (TradeType(creatorTokenType[i]) == TradeType.ERC721) {\n                verifyERC721(\n                    creatorAddress,\n                    creatorTokenAddress[i],\n                    creatorTokenId[i],\n                    true\n                );\n            } else if (TradeType(creatorTokenType[i]) == TradeType.ERC1155) {\n                verifyERC1155(\n                    creatorAddress,\n                    creatorTokenAddress[i],\n                    creatorAmount[i],\n                    creatorTokenId[i],\n                    true\n                );\n            }\n            _transactions[_tradeId]\n                ._traders[creatorAddress]\n                .tokenAddressIdx\n                .push(i + 1);\n            _transactions[_tradeId]\n                ._traders[creatorAddress]\n                ._counterpart[i + 1]\n                .contractAddr = creatorTokenAddress[i];\n            _transactions[_tradeId]\n                ._traders[creatorAddress]\n                ._counterpart[i + 1]\n                .idAsset = creatorTokenId[i];\n            _transactions[_tradeId]\n                ._traders[creatorAddress]\n                ._counterpart[i + 1]\n                .amount = creatorAmount[i];\n            _transactions[_tradeId]\n                ._traders[creatorAddress]\n                ._counterpart[i + 1]\n                .traderType = TradeType(creatorTokenType[i]);\n            _transactions[_tradeId]\n                ._traders[creatorAddress]\n                ._counterpart[i + 1]\n                .traderStatus = UserStatus.OPEN;\n        }\n        for (uint256 i = 0; i < executorTokenAddress.length; i++) {\n            require(\n                executorTokenAddress[i] != address(0),\n                \"WEB3BAZAAR_ERROR: EXECUTER_TOKEN_ADDRESS_IS_ZERO\"\n            );\n            verifyTradeIntegrity(\n                executorTokenAddress[i],\n                executorTokenId[i],\n                executorAmount[i],\n                executorTokenType[i]\n            );\n            if (TradeType(executorTokenType[i]) == TradeType.ERC20) {\n                verifyERC20(\n                    executerAddress,\n                    executorTokenAddress[i],\n                    executorAmount[i],\n                    false\n                );\n            } else if (TradeType(executorTokenType[i]) == TradeType.ERC721) {\n                verifyERC721(\n                    executerAddress,\n                    executorTokenAddress[i],\n                    executorTokenId[i],\n                    false\n                );\n            } else if (TradeType(executorTokenType[i]) == TradeType.ERC1155) {\n                verifyERC1155(\n                    executerAddress,\n                    executorTokenAddress[i],\n                    executorAmount[i],\n                    executorTokenId[i],\n                    false\n                );\n            }\n            _transactions[_tradeId]\n                ._traders[executerAddress]\n                .tokenAddressIdx\n                .push(i + 1);\n            _transactions[_tradeId]\n                ._traders[executerAddress]\n                ._counterpart[i + 1]\n                .contractAddr = executorTokenAddress[i];\n            _transactions[_tradeId]\n                ._traders[executerAddress]\n                ._counterpart[i + 1]\n                .idAsset = executorTokenId[i];\n            _transactions[_tradeId]\n                ._traders[executerAddress]\n                ._counterpart[i + 1]\n                .amount = executorAmount[i];\n            _transactions[_tradeId]\n                ._traders[executerAddress]\n                ._counterpart[i + 1]\n                .traderType = TradeType(executorTokenType[i]);\n            _transactions[_tradeId]\n                ._traders[executerAddress]\n                ._counterpart[i + 1]\n                .traderStatus = UserStatus.OPEN;\n        }\n        _transactions[_tradeId].tradeStatus = TradeStatus.TRADE_CREATED;\n        _openTrades[creatorAddress].push(_tradeId);\n        _openTrades[executerAddress].push(_tradeId);\n        emit NewTrade(creatorAddress, executerAddress, _tradeId);\n        openTradeCount = openTradeCount + 1;\n        return _tradeId;\n    }\n\n    // External visible functions\n\n    /// getTrade - this method returns data about the trade based on tradeId\n    /// @param tradeId to obtain information\n    /// @dev indexes and returns information about the trade\n    /// @return creator address, executor address and trade status\n    function getTrade(uint256 tradeId)\n        external\n        view\n        returns (\n            address,\n            address,\n            uint8\n        )\n    {\n        Trade storage store = _transactions[tradeId];\n        return (store.creator, store.executor, uint8(store.tradeStatus));\n    }\n\n    /// getTrade - this method returns data about the trade based on tradeId and user wallet\n    /// @param tradeId to obtain information\n    /// @param userWallet to check trades for that wallet address\n    /// @dev indexes internal sctructure and information based on tradeId and wallet address\n    /// @return arrays of tokenAddress, tokenIds, tokenAmount, tokenType\n    function getTrade(uint256 tradeId, address userWallet)\n        external\n        view\n        returns (\n            address[] memory,\n            uint256[] memory,\n            uint256[] memory,\n            uint8[] memory\n        )\n    {\n        Trade storage store = _transactions[tradeId];\n        uint256[] memory tokenAddressIdx = store\n            ._traders[userWallet]\n            .tokenAddressIdx;\n\n        address[] memory _tradeTokenAddress = new address[](\n            tokenAddressIdx.length\n        );\n        uint256[] memory _tradeTokenIds = new uint256[](tokenAddressIdx.length);\n        uint256[] memory _tradeTokenAmount = new uint256[](\n            tokenAddressIdx.length\n        );\n        uint8[] memory _tradeType = new uint8[](tokenAddressIdx.length);\n\n        for (uint256 y = 0; y < tokenAddressIdx.length; y++) {\n            TradeCounterpart memory tInfo = store\n                ._traders[userWallet]\n                ._counterpart[tokenAddressIdx[y]];\n            _tradeTokenAddress[y] = tInfo.contractAddr;\n            _tradeTokenIds[y] = tInfo.idAsset;\n            _tradeTokenAmount[y] = tInfo.amount;\n            _tradeType[y] = uint8(tInfo.traderType);\n        }\n        return (\n            _tradeTokenAddress,\n            _tradeTokenIds,\n            _tradeTokenAmount,\n            _tradeType\n        );\n    }\n\n    /// tradePerUser - Returns all open trades for a given wallet address\n    /// @param u to check open trades based on wallet address\n    /// @dev returns all trades open for an address stored in the _openTrades index\n    /// @return all trades open for a user\n    function tradePerUser(address u) external view returns (uint256[] memory) {\n        return (_openTrades[u]);\n    }\n\n    // External functions that are pure\n    // ...\n\n    /// public function\n    /// ...\n\n    /// internal function\n\n    /// verifyERC721 - verifies ERC721 token ownership from wallet address\n    /// @param from for wallet address\n    /// @param tokenAddress address of the ERC721 contract\n    /// @param tokenAddress tokenId of that token\n    /// @param verifyAproval to verify Bazaar smart contract's approval to move this token\n    /// @dev verifyERC721 to check the ownership of ERC721 tokens specified in a trade created for that wallet address\n    /// @return true if verification is sucessful\n    function verifyERC721(\n        address from,\n        address tokenAddress,\n        uint256 tokenId,\n        bool verifyAproval\n    ) internal view returns (bool) {\n        require(\n            from == ERC721(tokenAddress).ownerOf(tokenId),\n            \"WEB3BAZAAR_ERROR: ERR_NOT_OWN_ID_ERC721\"\n        );\n        if (verifyAproval) {\n            require(\n                ERC721(tokenAddress).isApprovedForAll(from, address(this)),\n                \"WEB3BAZAR_ERROR: ERR_NOT_ALLOW_TO_TRANSER_ITENS_ERC721\"\n            );\n        }\n        return true;\n    }\n\n    /// verifyERC20 - verifies ERC20 token ownership and amount available from wallet address\n    /// @param from for wallet address\n    /// @param tokenAddress address of the ERC20 contract\n    /// @param amount of that token\n    /// @param verifyAproval to verify Bazaar smart contract's approval to move this token\n    /// @dev verifyERC20 to check the ownership of ERC20 tokens and amounts specified in a trade created for that wallet address\n    /// @return true if the amount owned by the user is equal or superior to the value specified in the trade\n    function verifyERC20(\n        address from,\n        address tokenAddress,\n        uint256 amount,\n        bool verifyAproval\n    ) internal view returns (bool) {\n        require(\n            amount <= IERC20(tokenAddress).balanceOf(from),\n            \"WEB3BAZAAR_ERROR: ERR_NOT_ENOUGH_FUNDS_ERC20\"\n        );\n        if (verifyAproval) {\n            require(\n                amount <= IERC20(tokenAddress).allowance(from, address(this)),\n                \"WEB3BAZAR_ERROR: ERR_NOT_ALLOW_SPEND_FUNDS\"\n            );\n        }\n        return true;\n    }\n\n    /// VerifyERC1155 - Verifies ERC1155 token ownership and amount available from wallet address\n    /// @param from for wallet address\n    /// @param tokenAddress address of the ERC1155 contract\n    /// @param amount of that token\n    /// @param tokenId of that token\n    /// @param verifyAproval to check the ownership of ERC1155 tokens and amounts specified in a trade created for that wallet address\n    /// @return true if the amount owned by the user is equal or superior to the value specified in the trade\n    function verifyERC1155(\n        address from,\n        address tokenAddress,\n        uint256 amount,\n        uint256 tokenId,\n        bool verifyAproval\n    ) internal view returns (bool) {\n        require(\n            tokenId > 0,\n            \"WEB3BAZAAR_ERROR: STAKE_ERC1155_ID_SHOULD_GREATER_THEN_0\"\n        );\n        require(\n            amount > 0 &&\n                amount <= ERC1155(tokenAddress).balanceOf(from, tokenId),\n            \"WEB3BAZAAR_ERROR: ERR_NOT_ENOUGH_FUNDS_ERC1155\"\n        );\n        if (verifyAproval) {\n            require(\n                ERC1155(tokenAddress).isApprovedForAll(from, address(this)),\n                \"WEB3BAZAR_ERROR: ERR_NOT_ALLOW_TO_TRANSER_ITENS_ERC1155\"\n            );\n        }\n        return true;\n    }\n\n    /// SwapERC721-  moves token ERC721 from one address to another\n    /// @param from owner address\n    /// @param to destination address\n    /// @param tokenAddress of the ERC20 contract\n    /// @param tokenId of that token\n    /// @dev Swaps token ERC721 from one address to another. First calls method verifyERC721 to check token ownership then swaps it from the owner to the destination address\n    /// @return true if swap is successful\n    function swapERC721(\n        address from,\n        address to,\n        address tokenAddress,\n        uint256 tokenId\n    ) internal returns (bool) {\n        verifyERC721(from, tokenAddress, tokenId, true);\n        ERC721(tokenAddress).safeTransferFrom(from, to, tokenId, \"\");\n        return true;\n    }\n\n    /// SwapERC1155 - moves tokens ERC1155 from one address to another\n    /// @param from owner address\n    /// @param to for destination address\n    /// @param tokenAddress of the ERC1155 contract\n    /// @param tokenId of that token\n    /// @param amount of that token\n    /// @dev Swaps token(s) ERC721 from one address to another. First calls method verifyERC1155 to check token ownership and amount held then swaps them from the owner to the destination address\n    /// @return true if swap is successful\n    function swapERC1155(\n        address from,\n        address to,\n        address tokenAddress,\n        uint256 tokenId,\n        uint256 amount\n    ) internal returns (bool) {\n        verifyERC1155(from, tokenAddress, amount, tokenId, true);\n        ERC1155(tokenAddress).safeTransferFrom(\n            from,\n            to,\n            tokenId,\n            amount,\n            \"0x01\"\n        );\n        return true;\n    }\n\n    /// Swap ERC20 - moves tokens ERC20 from one address to another\n    /// @param from owner ess\n    /// @param to for destination address\n    /// @param tokenAddress address of the ERC20 contract\n    /// @param amount of that token\n    /// @dev Swaps token(s) ERC20 from one address to another. First calls method verifyERC20 to check token ownership and amount held then swaps them from the owner to the destination address\n    /// @return true if swap is successful\n    function swapERC20(\n        address from,\n        address to,\n        address tokenAddress,\n        uint256 amount\n    ) internal returns (bool) {\n        verifyERC20(from, tokenAddress, amount, true);\n        SafeERC20.safeTransferFrom(IERC20(tokenAddress), from, to, amount);\n        return true;\n    }\n\n    /// private functions\n\n    /// removeTradeForUser - remove an open trade from _openTrades array\n    /// @param u user address to check open trades\n    /// @param tradeId  from the trade you want to remove\n    /// @dev retrieves the value of the state of the variable `storedData`\n    /// @return all trades open for a user\n    function removeTradeForUser(address u, uint256 tradeId)\n        private\n        returns (bool)\n    {\n        uint256[] memory userTrades = _openTrades[u];\n\n        if (_openTrades[u].length == 1) {\n            _openTrades[u][0] = 0;\n            return true;\n        }\n        for (uint256 i = 0; i < userTrades.length - 1; i++) {\n            if (userTrades[i] == tradeId) {\n                _openTrades[u][i] = _openTrades[u][userTrades.length - 1];\n                _openTrades[u].pop();\n                return true;\n            }\n        }\n        return false;\n    }\n\n    /// vverifyTradeIntegrity- verifies integrety of data from tokens be swapped\n    /// @param tokenAddress  to check open trades for wallet address\n    /// @param tokenId from the trade you want to remove\n    /// @param amount tradeId from the trade you want to remove\n    /// @param tokenType tradeId from the trade you want to remove\n    /// @dev retrieves the value of the state variable `storedData`\n    /// @return all trades open for a user\n    function verifyTradeIntegrity(\n        address tokenAddress,\n        uint256 tokenId,\n        uint256 amount,\n        uint8 tokenType\n    ) private pure returns (bool) {\n        require(\n            tokenAddress != address(0),\n            \"WEB3BAZAAR_ERROR: CREATOR_CONTRACT_NOT_VALID\"\n        );\n        require(\n            tokenType > uint8(TradeType.NON) &&\n                tokenType <= uint8(TradeType.ERC721),\n            \"WEB3BAZAR_ERROR: NOT_VALID_TRADE_TYPE\"\n        );\n        require(tokenId > 0, \"WEB3BAZAR_ERROR: TOKENID_MUST_POSITIVE\");\n        require(amount > 0, \"WEB3BAZAR_ERROR: AMOUNT_MUST_POSITIVE\");\n        return true;\n    }\n}\n",
  "sourcePath": "/Users/vitorpedroviana/project/wallid/dev/web3/web3bazaar/mainnet-contracts/contracts/Web3BazaarEscrow.sol",
  "compiler": {
    "name": "solc",
    "version": "0.8.14+commit.80d49f37.Emscripten.clang"
  },
  "schemaVersion": "3.4.8",
  "updatedAt": "2022-07-22T17:18:55.022Z",
  "devdoc": {
    "author": "drBrown",
    "kind": "dev",
    "methods": {
      "cancelTrade(uint256)": {
        "details": "changes the status of the trade to cancelled",
        "params": {
          "tradeId": "to cancel"
        },
        "returns": {
          "_0": "all true  if trade was cancelled"
        }
      },
      "executeTrade(uint256)": {
        "details": "verifies assets ownership from both parties before swapping them.",
        "params": {
          "tradeId": "to execute trade"
        },
        "returns": {
          "_0": "id of the trade"
        }
      },
      "getTrade(uint256)": {
        "details": "indexes and returns information about the trade",
        "params": {
          "tradeId": "to obtain information"
        },
        "returns": {
          "_0": "creator address, executor address and trade status"
        }
      },
      "getTrade(uint256,address)": {
        "details": "indexes internal sctructure and information based on tradeId and wallet address",
        "params": {
          "tradeId": "to obtain information",
          "userWallet": "to check trades for that wallet address"
        },
        "returns": {
          "_0": "arrays of tokenAddress, tokenIds, tokenAmount, tokenType"
        }
      },
      "onERC721Received(address,address,uint256,bytes)": {
        "details": "See {IERC721Receiver-onERC721Received}. Always returns `IERC721Receiver.onERC721Received.selector`."
      },
      "startTrade(address[],uint256[],uint256[],uint8[],address,address[],uint256[],uint256[],uint8[])": {
        "details": "checks if both users own all assets requested by the trade creator and initiates the trade if verification returns true",
        "params": {
          "creatorAmount": "array containing the amount of each token (only applicable for erc1155 and erc20) to be swapped by the creator",
          "creatorTokenAddress": "array containing the address of the contract of each asset to be swapped by the creator",
          "creatorTokenId": "array containing tokenId of each asset (only applicable for erc721 and erc1155) to be swapped by the creator",
          "creatorTokenType": "array containing the token standard of each asset (erc20, erc721 and erc1155) to be swapped by the creator",
          "executerAddress": "wallet address of counterparty",
          "executorAmount": "array containing the amount of each token (only applicable for erc1155 and erc20) to be swapped by the executor",
          "executorTokenAddress": "array containing the address of the contract of each asset to be swapped by the executor",
          "executorTokenId": "array containing tokenId of each asset (only applicable for erc721 and erc1155) to be swapped by the executor",
          "executorTokenType": "array containing the token standard of each asset (erc20, erc721 and erc1155) to be swapped by the executor"
        },
        "returns": {
          "_0": "all trades created by a user"
        }
      },
      "supportsInterface(bytes4)": {
        "details": "See {IERC165-supportsInterface}."
      },
      "tradePerUser(address)": {
        "details": "returns all trades open for an address stored in the _openTrades index",
        "params": {
          "u": "to check open trades based on wallet address"
        },
        "returns": {
          "_0": "all trades open for a user"
        }
      }
    },
    "title": "Web3BazaarEscrow contract",
    "version": 1
  },
  "userdoc": {
    "kind": "user",
    "methods": {
      "cancelTrade(uint256)": {
        "notice": "cancelTrade -  To invalidate an already created trade. Can be called by both the trade creator or executor"
      },
      "executeTrade(uint256)": {
        "notice": "executeTrade - to confirm a swap proposed by a creator counter-party. executor calls it to initiate the trade"
      },
      "getTrade(uint256)": {
        "notice": "getTrade - this method returns data about the trade based on tradeId"
      },
      "getTrade(uint256,address)": {
        "notice": "getTrade - this method returns data about the trade based on tradeId and user wallet"
      },
      "tradePerUser(address)": {
        "notice": "tradePerUser - Returns all open trades for a given wallet address"
      }
    },
    "version": 1
  }
}