{
  "contractName": "Bazcoin",
  "abi": [
    {
      "inputs": [],
      "stateMutability": "nonpayable",
      "type": "constructor"
    },
    {
      "anonymous": false,
      "inputs": [
        {
          "indexed": true,
          "internalType": "address",
          "name": "owner",
          "type": "address"
        },
        {
          "indexed": true,
          "internalType": "address",
          "name": "spender",
          "type": "address"
        },
        {
          "indexed": false,
          "internalType": "uint256",
          "name": "value",
          "type": "uint256"
        }
      ],
      "name": "Approval",
      "type": "event"
    },
    {
      "anonymous": false,
      "inputs": [
        {
          "indexed": true,
          "internalType": "address",
          "name": "from",
          "type": "address"
        },
        {
          "indexed": true,
          "internalType": "address",
          "name": "to",
          "type": "address"
        },
        {
          "indexed": false,
          "internalType": "uint256",
          "name": "value",
          "type": "uint256"
        }
      ],
      "name": "Transfer",
      "type": "event"
    },
    {
      "inputs": [
        {
          "internalType": "address",
          "name": "owner",
          "type": "address"
        },
        {
          "internalType": "address",
          "name": "spender",
          "type": "address"
        }
      ],
      "name": "allowance",
      "outputs": [
        {
          "internalType": "uint256",
          "name": "",
          "type": "uint256"
        }
      ],
      "stateMutability": "view",
      "type": "function",
      "constant": true
    },
    {
      "inputs": [
        {
          "internalType": "address",
          "name": "spender",
          "type": "address"
        },
        {
          "internalType": "uint256",
          "name": "amount",
          "type": "uint256"
        }
      ],
      "name": "approve",
      "outputs": [
        {
          "internalType": "bool",
          "name": "",
          "type": "bool"
        }
      ],
      "stateMutability": "nonpayable",
      "type": "function"
    },
    {
      "inputs": [
        {
          "internalType": "address",
          "name": "account",
          "type": "address"
        }
      ],
      "name": "balanceOf",
      "outputs": [
        {
          "internalType": "uint256",
          "name": "",
          "type": "uint256"
        }
      ],
      "stateMutability": "view",
      "type": "function",
      "constant": true
    },
    {
      "inputs": [],
      "name": "decimals",
      "outputs": [
        {
          "internalType": "uint8",
          "name": "",
          "type": "uint8"
        }
      ],
      "stateMutability": "view",
      "type": "function",
      "constant": true
    },
    {
      "inputs": [
        {
          "internalType": "address",
          "name": "spender",
          "type": "address"
        },
        {
          "internalType": "uint256",
          "name": "subtractedValue",
          "type": "uint256"
        }
      ],
      "name": "decreaseAllowance",
      "outputs": [
        {
          "internalType": "bool",
          "name": "",
          "type": "bool"
        }
      ],
      "stateMutability": "nonpayable",
      "type": "function"
    },
    {
      "inputs": [
        {
          "internalType": "address",
          "name": "spender",
          "type": "address"
        },
        {
          "internalType": "uint256",
          "name": "addedValue",
          "type": "uint256"
        }
      ],
      "name": "increaseAllowance",
      "outputs": [
        {
          "internalType": "bool",
          "name": "",
          "type": "bool"
        }
      ],
      "stateMutability": "nonpayable",
      "type": "function"
    },
    {
      "inputs": [],
      "name": "maxSupply",
      "outputs": [
        {
          "internalType": "uint256",
          "name": "",
          "type": "uint256"
        }
      ],
      "stateMutability": "view",
      "type": "function",
      "constant": true
    },
    {
      "inputs": [],
      "name": "name",
      "outputs": [
        {
          "internalType": "string",
          "name": "",
          "type": "string"
        }
      ],
      "stateMutability": "view",
      "type": "function",
      "constant": true
    },
    {
      "inputs": [],
      "name": "symbol",
      "outputs": [
        {
          "internalType": "string",
          "name": "",
          "type": "string"
        }
      ],
      "stateMutability": "view",
      "type": "function",
      "constant": true
    },
    {
      "inputs": [],
      "name": "totalSupply",
      "outputs": [
        {
          "internalType": "uint256",
          "name": "",
          "type": "uint256"
        }
      ],
      "stateMutability": "view",
      "type": "function",
      "constant": true
    },
    {
      "inputs": [
        {
          "internalType": "address",
          "name": "to",
          "type": "address"
        },
        {
          "internalType": "uint256",
          "name": "amount",
          "type": "uint256"
        }
      ],
      "name": "transfer",
      "outputs": [
        {
          "internalType": "bool",
          "name": "",
          "type": "bool"
        }
      ],
      "stateMutability": "nonpayable",
      "type": "function"
    },
    {
      "inputs": [
        {
          "internalType": "address",
          "name": "from",
          "type": "address"
        },
        {
          "internalType": "address",
          "name": "to",
          "type": "address"
        },
        {
          "internalType": "uint256",
          "name": "amount",
          "type": "uint256"
        }
      ],
      "name": "transferFrom",
      "outputs": [
        {
          "internalType": "bool",
          "name": "",
          "type": "bool"
        }
      ],
      "stateMutability": "nonpayable",
      "type": "function"
    },
    {
      "inputs": [],
      "name": "mint",
      "outputs": [
        {
          "internalType": "uint256",
          "name": "",
          "type": "uint256"
        }
      ],
      "stateMutability": "payable",
      "type": "function",
      "payable": true
    }
  ],
  "bytecode": "0x6080604052620000146200022b60201b60201c565b600a620000229190620007f6565b6301406f4062000033919062000847565b600555620000466200022b60201b60201c565b600a620000549190620007f6565b603262000062919062000847565b6006553480156200007257600080fd5b506040518060400160405280600781526020017f42617a636f696e000000000000000000000000000000000000000000000000008152506040518060400160405280600781526020017f42617a636f696e0000000000000000000000000000000000000000000000000081525081818160039080519060200190620000f9929190620005ac565b50806004908051906020019062000112929190620005ac565b505050620001497ff4c5a05cfe0582ddf3e37c4a418e737266ec8be9ec807384c9e8ec8cb134d5c160001b6200023460201b60201c565b50506200017f7f0ca1027e5f56fa15f046fc71e5ad4544fc3a1a04e1b344290cbeceb7d657219f60001b6200023760201b60201c565b620001b37fecac6030fd81fc58fa38f31e36a9bffc9a9a48c1f4c508f4b36ba815db826d6760001b6200023760201b60201c565b620001e77fd25f3a4f06a2c587080dd07725d2474ba52ae7ff5d16a8b272e8e124dc90832a60001b6200023760201b60201c565b6200022533620001fc6200022b60201b60201c565b600a6200020a9190620007f6565b61138862000219919062000847565b6200023a60201b60201c565b62000a8c565b60006012905090565b50565b50565b6200026e7fa67d4ec0fbedadd6835845883bfa68979223ce1784dc97de4b89bb782e8ab30d60001b6200023460201b60201c565b620002a27f481e7bdcff11e63a88c5eef521498ffb81e9df7e0979170524b50f8cd026fded60001b6200023460201b60201c565b620002d67ff9d65272256b9a71fd8f1218eb9e217ddcfaee96cae72c23f5f96642b554713d60001b6200023460201b60201c565b6200030a7fa4afa343719be54ce24f46e2447cdea665be4e4a80439941e0ff5536f71ec85860001b6200023460201b60201c565b600554816200031e6200042060201b60201c565b6200032a9190620008a8565b11156200036e576040517f08c379a0000000000000000000000000000000000000000000000000000000008152600401620003659062000966565b60405180910390fd5b620003a27f16ee8579cf5b88a4eede2202f89c4e13f5252ab05ddc0b7a3eed82ab1dd3fc4f60001b6200023460201b60201c565b620003d67f1bb393853af2d7ef22a4066d547a61b9518281d3537933d7714a2a2477c34bdd60001b6200023460201b60201c565b6200040a7f5abbf0f7ebec56e421a1f2171a0de44e8ffc7a3434c369bdb6fb64374fbdf56560001b6200023460201b60201c565b6200041c82826200042a60201b60201c565b5050565b6000600254905090565b600073ffffffffffffffffffffffffffffffffffffffff168273ffffffffffffffffffffffffffffffffffffffff16036200049c576040517f08c379a00000000000000000000000000000000000000000000000000000000081526004016200049390620009d8565b60405180910390fd5b620004b060008383620005a260201b60201c565b8060026000828254620004c49190620008a8565b92505081905550806000808473ffffffffffffffffffffffffffffffffffffffff1673ffffffffffffffffffffffffffffffffffffffff16815260200190815260200160002060008282546200051b9190620008a8565b925050819055508173ffffffffffffffffffffffffffffffffffffffff16600073ffffffffffffffffffffffffffffffffffffffff167fddf252ad1be2c89b69c2b068fc378daa952ba7f163c4a11628f55a4df523b3ef8360405162000582919062000a0b565b60405180910390a36200059e60008383620005a760201b60201c565b5050565b505050565b505050565b828054620005ba9062000a57565b90600052602060002090601f016020900481019282620005de57600085556200062a565b82601f10620005f957805160ff19168380011785556200062a565b828001600101855582156200062a579182015b82811115620006295782518255916020019190600101906200060c565b5b5090506200063991906200063d565b5090565b5b80821115620006585760008160009055506001016200063e565b5090565b7f4e487b7100000000000000000000000000000000000000000000000000000000600052601160045260246000fd5b60008160011c9050919050565b6000808291508390505b6001851115620006ea57808604811115620006c257620006c16200065c565b5b6001851615620006d25780820291505b8081029050620006e2856200068b565b9450620006a2565b94509492505050565b600082620007055760019050620007d8565b81620007155760009050620007d8565b81600181146200072e576002811462000739576200076f565b6001915050620007d8565b60ff8411156200074e576200074d6200065c565b5b8360020a9150848211156200076857620007676200065c565b5b50620007d8565b5060208310610133831016604e8410600b8410161715620007a95782820a905083811115620007a357620007a26200065c565b5b620007d8565b620007b8848484600162000698565b92509050818404811115620007d257620007d16200065c565b5b81810290505b9392505050565b6000819050919050565b600060ff82169050919050565b60006200080382620007df565b91506200081083620007e9565b92506200083f7fffffffffffffffffffffffffffffffffffffffffffffffffffffffffffffffff8484620006f3565b905092915050565b60006200085482620007df565b91506200086183620007df565b9250817fffffffffffffffffffffffffffffffffffffffffffffffffffffffffffffffff04831182151516156200089d576200089c6200065c565b5b828202905092915050565b6000620008b582620007df565b9150620008c283620007df565b9250827fffffffffffffffffffffffffffffffffffffffffffffffffffffffffffffffff03821115620008fa57620008f96200065c565b5b828201905092915050565b600082825260208201905092915050565b7f4552525f45584345454445445f4d41585f535550504c59000000000000000000600082015250565b60006200094e60178362000905565b91506200095b8262000916565b602082019050919050565b6000602082019050818103600083015262000981816200093f565b9050919050565b7f45524332303a206d696e7420746f20746865207a65726f206164647265737300600082015250565b6000620009c0601f8362000905565b9150620009cd8262000988565b602082019050919050565b60006020820190508181036000830152620009f381620009b1565b9050919050565b62000a0581620007df565b82525050565b600060208201905062000a226000830184620009fa565b92915050565b7f4e487b7100000000000000000000000000000000000000000000000000000000600052602260045260246000fd5b6000600282049050600182168062000a7057607f821691505b60208210810362000a865762000a8562000a28565b5b50919050565b6118228062000a9c6000396000f3fe6080604052600436106100c25760003560e01c8063395093511161007f578063a457c2d711610059578063a457c2d714610285578063a9059cbb146102c2578063d5abeb01146102ff578063dd62ed3e1461032a576100c2565b806339509351146101e057806370a082311461021d57806395d89b411461025a576100c2565b806306fdde03146100c7578063095ea7b3146100f25780631249c58b1461012f57806318160ddd1461014d57806323b872dd14610178578063313ce567146101b5575b600080fd5b3480156100d357600080fd5b506100dc610367565b6040516100e99190611005565b60405180910390f35b3480156100fe57600080fd5b50610119600480360381019061011491906110c0565b6103f9565b604051610126919061111b565b60405180910390f35b61013761041c565b6040516101449190611145565b60405180910390f35b34801561015957600080fd5b5061016261050e565b60405161016f9190611145565b60405180910390f35b34801561018457600080fd5b5061019f600480360381019061019a9190611160565b610518565b6040516101ac919061111b565b60405180910390f35b3480156101c157600080fd5b506101ca610547565b6040516101d791906111cf565b60405180910390f35b3480156101ec57600080fd5b50610207600480360381019061020291906110c0565b610550565b604051610214919061111b565b60405180910390f35b34801561022957600080fd5b50610244600480360381019061023f91906111ea565b610587565b6040516102519190611145565b60405180910390f35b34801561026657600080fd5b5061026f6105cf565b60405161027c9190611005565b60405180910390f35b34801561029157600080fd5b506102ac60048036038101906102a791906110c0565b610661565b6040516102b9919061111b565b60405180910390f35b3480156102ce57600080fd5b506102e960048036038101906102e491906110c0565b6106d8565b6040516102f6919061111b565b60405180910390f35b34801561030b57600080fd5b506103146106fb565b6040516103219190611145565b60405180910390f35b34801561033657600080fd5b50610351600480360381019061034c9190611217565b610701565b60405161035e9190611145565b60405180910390f35b60606003805461037690611286565b80601f01602080910402602001604051908101604052809291908181526020018280546103a290611286565b80156103ef5780601f106103c4576101008083540402835291602001916103ef565b820191906000526020600020905b8154815290600101906020018083116103d257829003601f168201915b5050505050905090565b600080610404610788565b9050610411818585610790565b600191505092915050565b600061044a7fb2958f24952bf6234457b92ba3b6bc57e557ed2cdbbbcfd472b978761dc50f3a60001b610959565b6104767f13a9d034842d6fbf095f3201044b9543f282acf850276f2c810be43cf6ba819860001b610959565b6104a27f0651e5b37309e74c8f73a0aa2db75d414319e34e2159af85fa8583e1c0388f2760001b610959565b6104ae3360065461095c565b6104da7fd3f827f92caea9216ac2601be135868a6a758ddef8a06e4148e79e798e280f4860001b610959565b6105067fc52e010d826fc3e8204117425d263d003794003bc5b0cef028fb0058cf0c3b4460001b610959565b600654905090565b6000600254905090565b600080610523610788565b9050610530858285610af5565b61053b858585610b81565b60019150509392505050565b60006012905090565b60008061055b610788565b905061057c81858561056d8589610701565b61057791906112e6565b610790565b600191505092915050565b60008060008373ffffffffffffffffffffffffffffffffffffffff1673ffffffffffffffffffffffffffffffffffffffff168152602001908152602001600020549050919050565b6060600480546105de90611286565b80601f016020809104026020016040519081016040528092919081815260200182805461060a90611286565b80156106575780601f1061062c57610100808354040283529160200191610657565b820191906000526020600020905b81548152906001019060200180831161063a57829003601f168201915b5050505050905090565b60008061066c610788565b9050600061067a8286610701565b9050838110156106bf576040517f08c379a00000000000000000000000000000000000000000000000000000000081526004016106b6906113ae565b60405180910390fd5b6106cc8286868403610790565b60019250505092915050565b6000806106e3610788565b90506106f0818585610b81565b600191505092915050565b60055481565b6000600160008473ffffffffffffffffffffffffffffffffffffffff1673ffffffffffffffffffffffffffffffffffffffff16815260200190815260200160002060008373ffffffffffffffffffffffffffffffffffffffff1673ffffffffffffffffffffffffffffffffffffffff16815260200190815260200160002054905092915050565b600033905090565b600073ffffffffffffffffffffffffffffffffffffffff168373ffffffffffffffffffffffffffffffffffffffff16036107ff576040517f08c379a00000000000000000000000000000000000000000000000000000000081526004016107f690611440565b60405180910390fd5b600073ffffffffffffffffffffffffffffffffffffffff168273ffffffffffffffffffffffffffffffffffffffff160361086e576040517f08c379a0000000000000000000000000000000000000000000000000000000008152600401610865906114d2565b60405180910390fd5b80600160008573ffffffffffffffffffffffffffffffffffffffff1673ffffffffffffffffffffffffffffffffffffffff16815260200190815260200160002060008473ffffffffffffffffffffffffffffffffffffffff1673ffffffffffffffffffffffffffffffffffffffff168152602001908152602001600020819055508173ffffffffffffffffffffffffffffffffffffffff168373ffffffffffffffffffffffffffffffffffffffff167f8c5be1e5ebec7d5bd14f71427d1e84f3dd0314c0f7b2291e5b200ac8c7c3b9258360405161094c9190611145565b60405180910390a3505050565b50565b6109887fa67d4ec0fbedadd6835845883bfa68979223ce1784dc97de4b89bb782e8ab30d60001b610e00565b6109b47f481e7bdcff11e63a88c5eef521498ffb81e9df7e0979170524b50f8cd026fded60001b610e00565b6109e07ff9d65272256b9a71fd8f1218eb9e217ddcfaee96cae72c23f5f96642b554713d60001b610e00565b610a0c7fa4afa343719be54ce24f46e2447cdea665be4e4a80439941e0ff5536f71ec85860001b610e00565b60055481610a1861050e565b610a2291906112e6565b1115610a63576040517f08c379a0000000000000000000000000000000000000000000000000000000008152600401610a5a9061153e565b60405180910390fd5b610a8f7f16ee8579cf5b88a4eede2202f89c4e13f5252ab05ddc0b7a3eed82ab1dd3fc4f60001b610e00565b610abb7f1bb393853af2d7ef22a4066d547a61b9518281d3537933d7714a2a2477c34bdd60001b610e00565b610ae77f5abbf0f7ebec56e421a1f2171a0de44e8ffc7a3434c369bdb6fb64374fbdf56560001b610e00565b610af18282610e03565b5050565b6000610b018484610701565b90507fffffffffffffffffffffffffffffffffffffffffffffffffffffffffffffffff8114610b7b5781811015610b6d576040517f08c379a0000000000000000000000000000000000000000000000000000000008152600401610b64906115aa565b60405180910390fd5b610b7a8484848403610790565b5b50505050565b600073ffffffffffffffffffffffffffffffffffffffff168373ffffffffffffffffffffffffffffffffffffffff1603610bf0576040517f08c379a0000000000000000000000000000000000000000000000000000000008152600401610be79061163c565b60405180910390fd5b600073ffffffffffffffffffffffffffffffffffffffff168273ffffffffffffffffffffffffffffffffffffffff1603610c5f576040517f08c379a0000000000000000000000000000000000000000000000000000000008152600401610c56906116ce565b60405180910390fd5b610c6a838383610f62565b60008060008573ffffffffffffffffffffffffffffffffffffffff1673ffffffffffffffffffffffffffffffffffffffff16815260200190815260200160002054905081811015610cf0576040517f08c379a0000000000000000000000000000000000000000000000000000000008152600401610ce790611760565b60405180910390fd5b8181036000808673ffffffffffffffffffffffffffffffffffffffff1673ffffffffffffffffffffffffffffffffffffffff16815260200190815260200160002081905550816000808573ffffffffffffffffffffffffffffffffffffffff1673ffffffffffffffffffffffffffffffffffffffff1681526020019081526020016000206000828254610d8391906112e6565b925050819055508273ffffffffffffffffffffffffffffffffffffffff168473ffffffffffffffffffffffffffffffffffffffff167fddf252ad1be2c89b69c2b068fc378daa952ba7f163c4a11628f55a4df523b3ef84604051610de79190611145565b60405180910390a3610dfa848484610f67565b50505050565b50565b600073ffffffffffffffffffffffffffffffffffffffff168273ffffffffffffffffffffffffffffffffffffffff1603610e72576040517f08c379a0000000000000000000000000000000000000000000000000000000008152600401610e69906117cc565b60405180910390fd5b610e7e60008383610f62565b8060026000828254610e9091906112e6565b92505081905550806000808473ffffffffffffffffffffffffffffffffffffffff1673ffffffffffffffffffffffffffffffffffffffff1681526020019081526020016000206000828254610ee591906112e6565b925050819055508173ffffffffffffffffffffffffffffffffffffffff16600073ffffffffffffffffffffffffffffffffffffffff167fddf252ad1be2c89b69c2b068fc378daa952ba7f163c4a11628f55a4df523b3ef83604051610f4a9190611145565b60405180910390a3610f5e60008383610f67565b5050565b505050565b505050565b600081519050919050565b600082825260208201905092915050565b60005b83811015610fa6578082015181840152602081019050610f8b565b83811115610fb5576000848401525b50505050565b6000601f19601f8301169050919050565b6000610fd782610f6c565b610fe18185610f77565b9350610ff1818560208601610f88565b610ffa81610fbb565b840191505092915050565b6000602082019050818103600083015261101f8184610fcc565b905092915050565b600080fd5b600073ffffffffffffffffffffffffffffffffffffffff82169050919050565b60006110578261102c565b9050919050565b6110678161104c565b811461107257600080fd5b50565b6000813590506110848161105e565b92915050565b6000819050919050565b61109d8161108a565b81146110a857600080fd5b50565b6000813590506110ba81611094565b92915050565b600080604083850312156110d7576110d6611027565b5b60006110e585828601611075565b92505060206110f6858286016110ab565b9150509250929050565b60008115159050919050565b61111581611100565b82525050565b6000602082019050611130600083018461110c565b92915050565b61113f8161108a565b82525050565b600060208201905061115a6000830184611136565b92915050565b60008060006060848603121561117957611178611027565b5b600061118786828701611075565b935050602061119886828701611075565b92505060406111a9868287016110ab565b9150509250925092565b600060ff82169050919050565b6111c9816111b3565b82525050565b60006020820190506111e460008301846111c0565b92915050565b600060208284031215611200576111ff611027565b5b600061120e84828501611075565b91505092915050565b6000806040838503121561122e5761122d611027565b5b600061123c85828601611075565b925050602061124d85828601611075565b9150509250929050565b7f4e487b7100000000000000000000000000000000000000000000000000000000600052602260045260246000fd5b6000600282049050600182168061129e57607f821691505b6020821081036112b1576112b0611257565b5b50919050565b7f4e487b7100000000000000000000000000000000000000000000000000000000600052601160045260246000fd5b60006112f18261108a565b91506112fc8361108a565b9250827fffffffffffffffffffffffffffffffffffffffffffffffffffffffffffffffff03821115611331576113306112b7565b5b828201905092915050565b7f45524332303a2064656372656173656420616c6c6f77616e63652062656c6f7760008201527f207a65726f000000000000000000000000000000000000000000000000000000602082015250565b6000611398602583610f77565b91506113a38261133c565b604082019050919050565b600060208201905081810360008301526113c78161138b565b9050919050565b7f45524332303a20617070726f76652066726f6d20746865207a65726f2061646460008201527f7265737300000000000000000000000000000000000000000000000000000000602082015250565b600061142a602483610f77565b9150611435826113ce565b604082019050919050565b600060208201905081810360008301526114598161141d565b9050919050565b7f45524332303a20617070726f766520746f20746865207a65726f20616464726560008201527f7373000000000000000000000000000000000000000000000000000000000000602082015250565b60006114bc602283610f77565b91506114c782611460565b604082019050919050565b600060208201905081810360008301526114eb816114af565b9050919050565b7f4552525f45584345454445445f4d41585f535550504c59000000000000000000600082015250565b6000611528601783610f77565b9150611533826114f2565b602082019050919050565b600060208201905081810360008301526115578161151b565b9050919050565b7f45524332303a20696e73756666696369656e7420616c6c6f77616e6365000000600082015250565b6000611594601d83610f77565b915061159f8261155e565b602082019050919050565b600060208201905081810360008301526115c381611587565b9050919050565b7f45524332303a207472616e736665722066726f6d20746865207a65726f20616460008201527f6472657373000000000000000000000000000000000000000000000000000000602082015250565b6000611626602583610f77565b9150611631826115ca565b604082019050919050565b6000602082019050818103600083015261165581611619565b9050919050565b7f45524332303a207472616e7366657220746f20746865207a65726f206164647260008201527f6573730000000000000000000000000000000000000000000000000000000000602082015250565b60006116b8602383610f77565b91506116c38261165c565b604082019050919050565b600060208201905081810360008301526116e7816116ab565b9050919050565b7f45524332303a207472616e7366657220616d6f756e742065786365656473206260008201527f616c616e63650000000000000000000000000000000000000000000000000000602082015250565b600061174a602683610f77565b9150611755826116ee565b604082019050919050565b600060208201905081810360008301526117798161173d565b9050919050565b7f45524332303a206d696e7420746f20746865207a65726f206164647265737300600082015250565b60006117b6601f83610f77565b91506117c182611780565b602082019050919050565b600060208201905081810360008301526117e5816117a9565b905091905056fea26469706673582212200c11a0aeea24373c122ec1e8ac2abcf152211b661a6bf2141c6c31bde070857464736f6c634300080e0033",
  "immutableReferences": {},
  "source": "// SPDX-License-Identifier: MIT\npragma solidity 0.8.14;\nfunction c_0xaef97207(bytes32 c__0xaef97207) pure {}\n\n\nimport \"@openzeppelin/contracts/token/ERC20/IERC20.sol\";\nimport \"@openzeppelin/contracts/token/ERC20/ERC20.sol\";\nimport \"@openzeppelin/contracts/token/ERC20/extensions/IERC20Metadata.sol\";\nimport \"@openzeppelin/contracts/utils/Context.sol\";\n\ncontract ERC20Capped is ERC20 {\nfunction c_0x6261ff29(bytes32 c__0x6261ff29) internal pure {}\n\n\n    // define 21 milions as mark cap \n    uint256 public maxSupply = 21000000 * 10**decimals();\n    \n\n    constructor(string memory _name, \n                string memory _symbol) ERC20(_name, _symbol) \n    {c_0x6261ff29(0xf4c5a05cfe0582ddf3e37c4a418e737266ec8be9ec807384c9e8ec8cb134d5c1); /* function */ \n}\n   \n\n    function _mintCapped(address _account, uint256 _value) internal {c_0x6261ff29(0xa67d4ec0fbedadd6835845883bfa68979223ce1784dc97de4b89bb782e8ab30d); /* function */ \n\nc_0x6261ff29(0x481e7bdcff11e63a88c5eef521498ffb81e9df7e0979170524b50f8cd026fded); /* line */ \n        c_0x6261ff29(0xf9d65272256b9a71fd8f1218eb9e217ddcfaee96cae72c23f5f96642b554713d); /* requirePre */ \nc_0x6261ff29(0xa4afa343719be54ce24f46e2447cdea665be4e4a80439941e0ff5536f71ec858); /* statement */ \nrequire(totalSupply() + _value <= maxSupply, 'ERR_EXCEEDED_MAX_SUPPLY');c_0x6261ff29(0x16ee8579cf5b88a4eede2202f89c4e13f5252ab05ddc0b7a3eed82ab1dd3fc4f); /* requirePost */ \n\nc_0x6261ff29(0x1bb393853af2d7ef22a4066d547a61b9518281d3537933d7714a2a2477c34bdd); /* line */ \n        c_0x6261ff29(0x5abbf0f7ebec56e421a1f2171a0de44e8ffc7a3434c369bdb6fb64374fbdf565); /* statement */ \n_mint(_account, _value);\n    }    \n}\n\ncontract Bazcoin is ERC20Capped {\nfunction c_0xc1774ad6(bytes32 c__0xc1774ad6) internal pure {}\n\n    \n    uint256 private _mintAmount = 50 *  10**decimals();\n\n    constructor() \n        ERC20Capped(\"Bazcoin\", \"Bazcoin\") \n    {c_0xc1774ad6(0x0ca1027e5f56fa15f046fc71e5ad4544fc3a1a04e1b344290cbeceb7d657219f); /* function */ \n\nc_0xc1774ad6(0xecac6030fd81fc58fa38f31e36a9bffc9a9a48c1f4c508f4b36ba815db826d67); /* line */ \n        c_0xc1774ad6(0xd25f3a4f06a2c587080dd07725d2474ba52ae7ff5d16a8b272e8e124dc90832a); /* statement */ \n_mintCapped( msg.sender , 5000 * 10**decimals() ); \n    }\n\n    function mint() public payable returns(uint256)\n    {c_0xc1774ad6(0xb2958f24952bf6234457b92ba3b6bc57e557ed2cdbbbcfd472b978761dc50f3a); /* function */ \n\nc_0xc1774ad6(0x13a9d034842d6fbf095f3201044b9543f282acf850276f2c810be43cf6ba8198); /* line */ \n        c_0xc1774ad6(0x0651e5b37309e74c8f73a0aa2db75d414319e34e2159af85fa8583e1c0388f27); /* statement */ \n_mintCapped(msg.sender,  _mintAmount);\nc_0xc1774ad6(0xd3f827f92caea9216ac2601be135868a6a758ddef8a06e4148e79e798e280f48); /* line */ \n        c_0xc1774ad6(0xc52e010d826fc3e8204117425d263d003794003bc5b0cef028fb0058cf0c3b44); /* statement */ \nreturn _mintAmount;\n    }\n\n}",
  "sourcePath": "/Users/vitorpedroviana/project/wallid/dev/web3/web3bazaar/mainnet-contracts/.coverage_contracts/Bazcoin.sol",
  "compiler": {
    "name": "solc",
    "version": "0.8.14+commit.80d49f37.Emscripten.clang"
  },
  "schemaVersion": "3.4.8",
  "updatedAt": "2022-07-23T02:16:15.739Z",
  "networkType": "ethereum",
  "devdoc": {
    "kind": "dev",
    "methods": {
      "allowance(address,address)": {
        "details": "See {IERC20-allowance}."
      },
      "approve(address,uint256)": {
        "details": "See {IERC20-approve}. NOTE: If `amount` is the maximum `uint256`, the allowance is not updated on `transferFrom`. This is semantically equivalent to an infinite approval. Requirements: - `spender` cannot be the zero address."
      },
      "balanceOf(address)": {
        "details": "See {IERC20-balanceOf}."
      },
      "decimals()": {
        "details": "Returns the number of decimals used to get its user representation. For example, if `decimals` equals `2`, a balance of `505` tokens should be displayed to a user as `5.05` (`505 / 10 ** 2`). Tokens usually opt for a value of 18, imitating the relationship between Ether and Wei. This is the value {ERC20} uses, unless this function is overridden; NOTE: This information is only used for _display_ purposes: it in no way affects any of the arithmetic of the contract, including {IERC20-balanceOf} and {IERC20-transfer}."
      },
      "decreaseAllowance(address,uint256)": {
        "details": "Atomically decreases the allowance granted to `spender` by the caller. This is an alternative to {approve} that can be used as a mitigation for problems described in {IERC20-approve}. Emits an {Approval} event indicating the updated allowance. Requirements: - `spender` cannot be the zero address. - `spender` must have allowance for the caller of at least `subtractedValue`."
      },
      "increaseAllowance(address,uint256)": {
        "details": "Atomically increases the allowance granted to `spender` by the caller. This is an alternative to {approve} that can be used as a mitigation for problems described in {IERC20-approve}. Emits an {Approval} event indicating the updated allowance. Requirements: - `spender` cannot be the zero address."
      },
      "name()": {
        "details": "Returns the name of the token."
      },
      "symbol()": {
        "details": "Returns the symbol of the token, usually a shorter version of the name."
      },
      "totalSupply()": {
        "details": "See {IERC20-totalSupply}."
      },
      "transfer(address,uint256)": {
        "details": "See {IERC20-transfer}. Requirements: - `to` cannot be the zero address. - the caller must have a balance of at least `amount`."
      },
      "transferFrom(address,address,uint256)": {
        "details": "See {IERC20-transferFrom}. Emits an {Approval} event indicating the updated allowance. This is not required by the EIP. See the note at the beginning of {ERC20}. NOTE: Does not update the allowance if the current allowance is the maximum `uint256`. Requirements: - `from` and `to` cannot be the zero address. - `from` must have a balance of at least `amount`. - the caller must have allowance for ``from``'s tokens of at least `amount`."
      }
    },
    "version": 1
  },
  "userdoc": {
    "kind": "user",
    "methods": {},
    "version": 1
  }
}