{
  "contractName": "ERC20Capped",
  "abi": [
    {
      "inputs": [
        {
          "internalType": "string",
          "name": "_name",
          "type": "string"
        },
        {
          "internalType": "string",
          "name": "_symbol",
          "type": "string"
        }
      ],
      "stateMutability": "nonpayable",
      "type": "constructor"
    },
    {
      "anonymous": false,
      "inputs": [
        {
          "indexed": true,
          "internalType": "address",
          "name": "owner",
          "type": "address"
        },
        {
          "indexed": true,
          "internalType": "address",
          "name": "spender",
          "type": "address"
        },
        {
          "indexed": false,
          "internalType": "uint256",
          "name": "value",
          "type": "uint256"
        }
      ],
      "name": "Approval",
      "type": "event"
    },
    {
      "anonymous": false,
      "inputs": [
        {
          "indexed": true,
          "internalType": "address",
          "name": "from",
          "type": "address"
        },
        {
          "indexed": true,
          "internalType": "address",
          "name": "to",
          "type": "address"
        },
        {
          "indexed": false,
          "internalType": "uint256",
          "name": "value",
          "type": "uint256"
        }
      ],
      "name": "Transfer",
      "type": "event"
    },
    {
      "inputs": [
        {
          "internalType": "address",
          "name": "owner",
          "type": "address"
        },
        {
          "internalType": "address",
          "name": "spender",
          "type": "address"
        }
      ],
      "name": "allowance",
      "outputs": [
        {
          "internalType": "uint256",
          "name": "",
          "type": "uint256"
        }
      ],
      "stateMutability": "view",
      "type": "function"
    },
    {
      "inputs": [
        {
          "internalType": "address",
          "name": "spender",
          "type": "address"
        },
        {
          "internalType": "uint256",
          "name": "amount",
          "type": "uint256"
        }
      ],
      "name": "approve",
      "outputs": [
        {
          "internalType": "bool",
          "name": "",
          "type": "bool"
        }
      ],
      "stateMutability": "nonpayable",
      "type": "function"
    },
    {
      "inputs": [
        {
          "internalType": "address",
          "name": "account",
          "type": "address"
        }
      ],
      "name": "balanceOf",
      "outputs": [
        {
          "internalType": "uint256",
          "name": "",
          "type": "uint256"
        }
      ],
      "stateMutability": "view",
      "type": "function"
    },
    {
      "inputs": [],
      "name": "decimals",
      "outputs": [
        {
          "internalType": "uint8",
          "name": "",
          "type": "uint8"
        }
      ],
      "stateMutability": "view",
      "type": "function"
    },
    {
      "inputs": [
        {
          "internalType": "address",
          "name": "spender",
          "type": "address"
        },
        {
          "internalType": "uint256",
          "name": "subtractedValue",
          "type": "uint256"
        }
      ],
      "name": "decreaseAllowance",
      "outputs": [
        {
          "internalType": "bool",
          "name": "",
          "type": "bool"
        }
      ],
      "stateMutability": "nonpayable",
      "type": "function"
    },
    {
      "inputs": [
        {
          "internalType": "address",
          "name": "spender",
          "type": "address"
        },
        {
          "internalType": "uint256",
          "name": "addedValue",
          "type": "uint256"
        }
      ],
      "name": "increaseAllowance",
      "outputs": [
        {
          "internalType": "bool",
          "name": "",
          "type": "bool"
        }
      ],
      "stateMutability": "nonpayable",
      "type": "function"
    },
    {
      "inputs": [],
      "name": "maxSupply",
      "outputs": [
        {
          "internalType": "uint256",
          "name": "",
          "type": "uint256"
        }
      ],
      "stateMutability": "view",
      "type": "function"
    },
    {
      "inputs": [],
      "name": "name",
      "outputs": [
        {
          "internalType": "string",
          "name": "",
          "type": "string"
        }
      ],
      "stateMutability": "view",
      "type": "function"
    },
    {
      "inputs": [],
      "name": "symbol",
      "outputs": [
        {
          "internalType": "string",
          "name": "",
          "type": "string"
        }
      ],
      "stateMutability": "view",
      "type": "function"
    },
    {
      "inputs": [],
      "name": "totalSupply",
      "outputs": [
        {
          "internalType": "uint256",
          "name": "",
          "type": "uint256"
        }
      ],
      "stateMutability": "view",
      "type": "function"
    },
    {
      "inputs": [
        {
          "internalType": "address",
          "name": "to",
          "type": "address"
        },
        {
          "internalType": "uint256",
          "name": "amount",
          "type": "uint256"
        }
      ],
      "name": "transfer",
      "outputs": [
        {
          "internalType": "bool",
          "name": "",
          "type": "bool"
        }
      ],
      "stateMutability": "nonpayable",
      "type": "function"
    },
    {
      "inputs": [
        {
          "internalType": "address",
          "name": "from",
          "type": "address"
        },
        {
          "internalType": "address",
          "name": "to",
          "type": "address"
        },
        {
          "internalType": "uint256",
          "name": "amount",
          "type": "uint256"
        }
      ],
      "name": "transferFrom",
      "outputs": [
        {
          "internalType": "bool",
          "name": "",
          "type": "bool"
        }
      ],
      "stateMutability": "nonpayable",
      "type": "function"
    }
  ],
  "bytecode": "0x608060405262000014620000db60201b60201c565b600a62000022919062000331565b6301406f4062000033919062000382565b6005553480156200004357600080fd5b506040516200190b3803806200190b833981810160405281019062000069919062000580565b8181816003908051906020019062000083929190620000e7565b5080600490805190602001906200009c929190620000e7565b505050620000d37ff4c5a05cfe0582ddf3e37c4a418e737266ec8be9ec807384c9e8ec8cb134d5c160001b620000e460201b60201c565b505062000669565b60006012905090565b50565b828054620000f59062000634565b90600052602060002090601f01602090048101928262000119576000855562000165565b82601f106200013457805160ff191683800117855562000165565b8280016001018555821562000165579182015b828111156200016457825182559160200191906001019062000147565b5b50905062000174919062000178565b5090565b5b808211156200019357600081600090555060010162000179565b5090565b7f4e487b7100000000000000000000000000000000000000000000000000000000600052601160045260246000fd5b60008160011c9050919050565b6000808291508390505b60018511156200022557808604811115620001fd57620001fc62000197565b5b60018516156200020d5780820291505b80810290506200021d85620001c6565b9450620001dd565b94509492505050565b60008262000240576001905062000313565b8162000250576000905062000313565b81600181146200026957600281146200027457620002aa565b600191505062000313565b60ff84111562000289576200028862000197565b5b8360020a915084821115620002a357620002a262000197565b5b5062000313565b5060208310610133831016604e8410600b8410161715620002e45782820a905083811115620002de57620002dd62000197565b5b62000313565b620002f38484846001620001d3565b925090508184048111156200030d576200030c62000197565b5b81810290505b9392505050565b6000819050919050565b600060ff82169050919050565b60006200033e826200031a565b91506200034b8362000324565b92506200037a7fffffffffffffffffffffffffffffffffffffffffffffffffffffffffffffffff84846200022e565b905092915050565b60006200038f826200031a565b91506200039c836200031a565b9250817fffffffffffffffffffffffffffffffffffffffffffffffffffffffffffffffff0483118215151615620003d857620003d762000197565b5b828202905092915050565b6000604051905090565b600080fd5b600080fd5b600080fd5b600080fd5b6000601f19601f8301169050919050565b7f4e487b7100000000000000000000000000000000000000000000000000000000600052604160045260246000fd5b6200044c8262000401565b810181811067ffffffffffffffff821117156200046e576200046d62000412565b5b80604052505050565b600062000483620003e3565b905062000491828262000441565b919050565b600067ffffffffffffffff821115620004b457620004b362000412565b5b620004bf8262000401565b9050602081019050919050565b60005b83811015620004ec578082015181840152602081019050620004cf565b83811115620004fc576000848401525b50505050565b600062000519620005138462000496565b62000477565b905082815260208101848484011115620005385762000537620003fc565b5b62000545848285620004cc565b509392505050565b600082601f830112620005655762000564620003f7565b5b81516200057784826020860162000502565b91505092915050565b600080604083850312156200059a5762000599620003ed565b5b600083015167ffffffffffffffff811115620005bb57620005ba620003f2565b5b620005c9858286016200054d565b925050602083015167ffffffffffffffff811115620005ed57620005ec620003f2565b5b620005fb858286016200054d565b9150509250929050565b7f4e487b7100000000000000000000000000000000000000000000000000000000600052602260045260246000fd5b600060028204905060018216806200064d57607f821691505b60208210810362000663576200066262000605565b5b50919050565b61129280620006796000396000f3fe608060405234801561001057600080fd5b50600436106100b45760003560e01c806370a082311161007157806370a08231146101a357806395d89b41146101d3578063a457c2d7146101f1578063a9059cbb14610221578063d5abeb0114610251578063dd62ed3e1461026f576100b4565b806306fdde03146100b9578063095ea7b3146100d757806318160ddd1461010757806323b872dd14610125578063313ce567146101555780633950935114610173575b600080fd5b6100c161029f565b6040516100ce9190610b4d565b60405180910390f35b6100f160048036038101906100ec9190610c08565b610331565b6040516100fe9190610c63565b60405180910390f35b61010f610354565b60405161011c9190610c8d565b60405180910390f35b61013f600480360381019061013a9190610ca8565b61035e565b60405161014c9190610c63565b60405180910390f35b61015d61038d565b60405161016a9190610d17565b60405180910390f35b61018d60048036038101906101889190610c08565b610396565b60405161019a9190610c63565b60405180910390f35b6101bd60048036038101906101b89190610d32565b6103cd565b6040516101ca9190610c8d565b60405180910390f35b6101db610415565b6040516101e89190610b4d565b60405180910390f35b61020b60048036038101906102069190610c08565b6104a7565b6040516102189190610c63565b60405180910390f35b61023b60048036038101906102369190610c08565b61051e565b6040516102489190610c63565b60405180910390f35b610259610541565b6040516102669190610c8d565b60405180910390f35b61028960048036038101906102849190610d5f565b610547565b6040516102969190610c8d565b60405180910390f35b6060600380546102ae90610dce565b80601f01602080910402602001604051908101604052809291908181526020018280546102da90610dce565b80156103275780601f106102fc57610100808354040283529160200191610327565b820191906000526020600020905b81548152906001019060200180831161030a57829003601f168201915b5050505050905090565b60008061033c6105ce565b90506103498185856105d6565b600191505092915050565b6000600254905090565b6000806103696105ce565b905061037685828561079f565b61038185858561082b565b60019150509392505050565b60006012905090565b6000806103a16105ce565b90506103c28185856103b38589610547565b6103bd9190610e2e565b6105d6565b600191505092915050565b60008060008373ffffffffffffffffffffffffffffffffffffffff1673ffffffffffffffffffffffffffffffffffffffff168152602001908152602001600020549050919050565b60606004805461042490610dce565b80601f016020809104026020016040519081016040528092919081815260200182805461045090610dce565b801561049d5780601f106104725761010080835404028352916020019161049d565b820191906000526020600020905b81548152906001019060200180831161048057829003601f168201915b5050505050905090565b6000806104b26105ce565b905060006104c08286610547565b905083811015610505576040517f08c379a00000000000000000000000000000000000000000000000000000000081526004016104fc90610ef6565b60405180910390fd5b61051282868684036105d6565b60019250505092915050565b6000806105296105ce565b905061053681858561082b565b600191505092915050565b60055481565b6000600160008473ffffffffffffffffffffffffffffffffffffffff1673ffffffffffffffffffffffffffffffffffffffff16815260200190815260200160002060008373ffffffffffffffffffffffffffffffffffffffff1673ffffffffffffffffffffffffffffffffffffffff16815260200190815260200160002054905092915050565b600033905090565b600073ffffffffffffffffffffffffffffffffffffffff168373ffffffffffffffffffffffffffffffffffffffff1603610645576040517f08c379a000000000000000000000000000000000000000000000000000000000815260040161063c90610f88565b60405180910390fd5b600073ffffffffffffffffffffffffffffffffffffffff168273ffffffffffffffffffffffffffffffffffffffff16036106b4576040517f08c379a00000000000000000000000000000000000000000000000000000000081526004016106ab9061101a565b60405180910390fd5b80600160008573ffffffffffffffffffffffffffffffffffffffff1673ffffffffffffffffffffffffffffffffffffffff16815260200190815260200160002060008473ffffffffffffffffffffffffffffffffffffffff1673ffffffffffffffffffffffffffffffffffffffff168152602001908152602001600020819055508173ffffffffffffffffffffffffffffffffffffffff168373ffffffffffffffffffffffffffffffffffffffff167f8c5be1e5ebec7d5bd14f71427d1e84f3dd0314c0f7b2291e5b200ac8c7c3b925836040516107929190610c8d565b60405180910390a3505050565b60006107ab8484610547565b90507fffffffffffffffffffffffffffffffffffffffffffffffffffffffffffffffff81146108255781811015610817576040517f08c379a000000000000000000000000000000000000000000000000000000000815260040161080e90611086565b60405180910390fd5b61082484848484036105d6565b5b50505050565b600073ffffffffffffffffffffffffffffffffffffffff168373ffffffffffffffffffffffffffffffffffffffff160361089a576040517f08c379a000000000000000000000000000000000000000000000000000000000815260040161089190611118565b60405180910390fd5b600073ffffffffffffffffffffffffffffffffffffffff168273ffffffffffffffffffffffffffffffffffffffff1603610909576040517f08c379a0000000000000000000000000000000000000000000000000000000008152600401610900906111aa565b60405180910390fd5b610914838383610aaa565b60008060008573ffffffffffffffffffffffffffffffffffffffff1673ffffffffffffffffffffffffffffffffffffffff1681526020019081526020016000205490508181101561099a576040517f08c379a00000000000000000000000000000000000000000000000000000000081526004016109919061123c565b60405180910390fd5b8181036000808673ffffffffffffffffffffffffffffffffffffffff1673ffffffffffffffffffffffffffffffffffffffff16815260200190815260200160002081905550816000808573ffffffffffffffffffffffffffffffffffffffff1673ffffffffffffffffffffffffffffffffffffffff1681526020019081526020016000206000828254610a2d9190610e2e565b925050819055508273ffffffffffffffffffffffffffffffffffffffff168473ffffffffffffffffffffffffffffffffffffffff167fddf252ad1be2c89b69c2b068fc378daa952ba7f163c4a11628f55a4df523b3ef84604051610a919190610c8d565b60405180910390a3610aa4848484610aaf565b50505050565b505050565b505050565b600081519050919050565b600082825260208201905092915050565b60005b83811015610aee578082015181840152602081019050610ad3565b83811115610afd576000848401525b50505050565b6000601f19601f8301169050919050565b6000610b1f82610ab4565b610b298185610abf565b9350610b39818560208601610ad0565b610b4281610b03565b840191505092915050565b60006020820190508181036000830152610b678184610b14565b905092915050565b600080fd5b600073ffffffffffffffffffffffffffffffffffffffff82169050919050565b6000610b9f82610b74565b9050919050565b610baf81610b94565b8114610bba57600080fd5b50565b600081359050610bcc81610ba6565b92915050565b6000819050919050565b610be581610bd2565b8114610bf057600080fd5b50565b600081359050610c0281610bdc565b92915050565b60008060408385031215610c1f57610c1e610b6f565b5b6000610c2d85828601610bbd565b9250506020610c3e85828601610bf3565b9150509250929050565b60008115159050919050565b610c5d81610c48565b82525050565b6000602082019050610c786000830184610c54565b92915050565b610c8781610bd2565b82525050565b6000602082019050610ca26000830184610c7e565b92915050565b600080600060608486031215610cc157610cc0610b6f565b5b6000610ccf86828701610bbd565b9350506020610ce086828701610bbd565b9250506040610cf186828701610bf3565b9150509250925092565b600060ff82169050919050565b610d1181610cfb565b82525050565b6000602082019050610d2c6000830184610d08565b92915050565b600060208284031215610d4857610d47610b6f565b5b6000610d5684828501610bbd565b91505092915050565b60008060408385031215610d7657610d75610b6f565b5b6000610d8485828601610bbd565b9250506020610d9585828601610bbd565b9150509250929050565b7f4e487b7100000000000000000000000000000000000000000000000000000000600052602260045260246000fd5b60006002820490506001821680610de657607f821691505b602082108103610df957610df8610d9f565b5b50919050565b7f4e487b7100000000000000000000000000000000000000000000000000000000600052601160045260246000fd5b6000610e3982610bd2565b9150610e4483610bd2565b9250827fffffffffffffffffffffffffffffffffffffffffffffffffffffffffffffffff03821115610e7957610e78610dff565b5b828201905092915050565b7f45524332303a2064656372656173656420616c6c6f77616e63652062656c6f7760008201527f207a65726f000000000000000000000000000000000000000000000000000000602082015250565b6000610ee0602583610abf565b9150610eeb82610e84565b604082019050919050565b60006020820190508181036000830152610f0f81610ed3565b9050919050565b7f45524332303a20617070726f76652066726f6d20746865207a65726f2061646460008201527f7265737300000000000000000000000000000000000000000000000000000000602082015250565b6000610f72602483610abf565b9150610f7d82610f16565b604082019050919050565b60006020820190508181036000830152610fa181610f65565b9050919050565b7f45524332303a20617070726f766520746f20746865207a65726f20616464726560008201527f7373000000000000000000000000000000000000000000000000000000000000602082015250565b6000611004602283610abf565b915061100f82610fa8565b604082019050919050565b6000602082019050818103600083015261103381610ff7565b9050919050565b7f45524332303a20696e73756666696369656e7420616c6c6f77616e6365000000600082015250565b6000611070601d83610abf565b915061107b8261103a565b602082019050919050565b6000602082019050818103600083015261109f81611063565b9050919050565b7f45524332303a207472616e736665722066726f6d20746865207a65726f20616460008201527f6472657373000000000000000000000000000000000000000000000000000000602082015250565b6000611102602583610abf565b915061110d826110a6565b604082019050919050565b60006020820190508181036000830152611131816110f5565b9050919050565b7f45524332303a207472616e7366657220746f20746865207a65726f206164647260008201527f6573730000000000000000000000000000000000000000000000000000000000602082015250565b6000611194602383610abf565b915061119f82611138565b604082019050919050565b600060208201905081810360008301526111c381611187565b9050919050565b7f45524332303a207472616e7366657220616d6f756e742065786365656473206260008201527f616c616e63650000000000000000000000000000000000000000000000000000602082015250565b6000611226602683610abf565b9150611231826111ca565b604082019050919050565b6000602082019050818103600083015261125581611219565b905091905056fea26469706673582212202f311bbacdfce9e7dedb05db3e2e4bebd24370f07676ff3ac7922b571276d8e564736f6c634300080e0033",
  "immutableReferences": {},
  "source": "// SPDX-License-Identifier: MIT\npragma solidity 0.8.14;\nfunction c_0xaef97207(bytes32 c__0xaef97207) pure {}\n\n\nimport \"@openzeppelin/contracts/token/ERC20/IERC20.sol\";\nimport \"@openzeppelin/contracts/token/ERC20/ERC20.sol\";\nimport \"@openzeppelin/contracts/token/ERC20/extensions/IERC20Metadata.sol\";\nimport \"@openzeppelin/contracts/utils/Context.sol\";\n\ncontract ERC20Capped is ERC20 {\nfunction c_0x6261ff29(bytes32 c__0x6261ff29) internal pure {}\n\n\n    // define 21 milions as mark cap \n    uint256 public maxSupply = 21000000 * 10**decimals();\n    \n\n    constructor(string memory _name, \n                string memory _symbol) ERC20(_name, _symbol) \n    {c_0x6261ff29(0xf4c5a05cfe0582ddf3e37c4a418e737266ec8be9ec807384c9e8ec8cb134d5c1); /* function */ \n}\n   \n\n    function _mintCapped(address _account, uint256 _value) internal {c_0x6261ff29(0xa67d4ec0fbedadd6835845883bfa68979223ce1784dc97de4b89bb782e8ab30d); /* function */ \n\nc_0x6261ff29(0x481e7bdcff11e63a88c5eef521498ffb81e9df7e0979170524b50f8cd026fded); /* line */ \n        c_0x6261ff29(0xf9d65272256b9a71fd8f1218eb9e217ddcfaee96cae72c23f5f96642b554713d); /* requirePre */ \nc_0x6261ff29(0xa4afa343719be54ce24f46e2447cdea665be4e4a80439941e0ff5536f71ec858); /* statement */ \nrequire(totalSupply() + _value <= maxSupply, 'ERR_EXCEEDED_MAX_SUPPLY');c_0x6261ff29(0x16ee8579cf5b88a4eede2202f89c4e13f5252ab05ddc0b7a3eed82ab1dd3fc4f); /* requirePost */ \n\nc_0x6261ff29(0x1bb393853af2d7ef22a4066d547a61b9518281d3537933d7714a2a2477c34bdd); /* line */ \n        c_0x6261ff29(0x5abbf0f7ebec56e421a1f2171a0de44e8ffc7a3434c369bdb6fb64374fbdf565); /* statement */ \n_mint(_account, _value);\n    }    \n}\n\ncontract Bazcoin is ERC20Capped {\nfunction c_0xc1774ad6(bytes32 c__0xc1774ad6) internal pure {}\n\n    \n    uint256 private _mintAmount = 50 *  10**decimals();\n\n    constructor() \n        ERC20Capped(\"Bazcoin\", \"Bazcoin\") \n    {c_0xc1774ad6(0x0ca1027e5f56fa15f046fc71e5ad4544fc3a1a04e1b344290cbeceb7d657219f); /* function */ \n\nc_0xc1774ad6(0xecac6030fd81fc58fa38f31e36a9bffc9a9a48c1f4c508f4b36ba815db826d67); /* line */ \n        c_0xc1774ad6(0xd25f3a4f06a2c587080dd07725d2474ba52ae7ff5d16a8b272e8e124dc90832a); /* statement */ \n_mintCapped( msg.sender , 5000 * 10**decimals() ); \n    }\n\n    function mint() public payable returns(uint256)\n    {c_0xc1774ad6(0xb2958f24952bf6234457b92ba3b6bc57e557ed2cdbbbcfd472b978761dc50f3a); /* function */ \n\nc_0xc1774ad6(0x13a9d034842d6fbf095f3201044b9543f282acf850276f2c810be43cf6ba8198); /* line */ \n        c_0xc1774ad6(0x0651e5b37309e74c8f73a0aa2db75d414319e34e2159af85fa8583e1c0388f27); /* statement */ \n_mintCapped(msg.sender,  _mintAmount);\nc_0xc1774ad6(0xd3f827f92caea9216ac2601be135868a6a758ddef8a06e4148e79e798e280f48); /* line */ \n        c_0xc1774ad6(0xc52e010d826fc3e8204117425d263d003794003bc5b0cef028fb0058cf0c3b44); /* statement */ \nreturn _mintAmount;\n    }\n\n}",
  "sourcePath": "/Users/vitorpedroviana/project/wallid/dev/web3/web3bazaar/mainnet-contracts/.coverage_contracts/Bazcoin.sol",
  "compiler": {
    "name": "solc",
    "version": "0.8.14+commit.80d49f37.Emscripten.clang"
  },
  "schemaVersion": "3.4.8",
  "updatedAt": "2022-07-23T02:16:09.773Z",
  "devdoc": {
    "kind": "dev",
    "methods": {
      "allowance(address,address)": {
        "details": "See {IERC20-allowance}."
      },
      "approve(address,uint256)": {
        "details": "See {IERC20-approve}. NOTE: If `amount` is the maximum `uint256`, the allowance is not updated on `transferFrom`. This is semantically equivalent to an infinite approval. Requirements: - `spender` cannot be the zero address."
      },
      "balanceOf(address)": {
        "details": "See {IERC20-balanceOf}."
      },
      "decimals()": {
        "details": "Returns the number of decimals used to get its user representation. For example, if `decimals` equals `2`, a balance of `505` tokens should be displayed to a user as `5.05` (`505 / 10 ** 2`). Tokens usually opt for a value of 18, imitating the relationship between Ether and Wei. This is the value {ERC20} uses, unless this function is overridden; NOTE: This information is only used for _display_ purposes: it in no way affects any of the arithmetic of the contract, including {IERC20-balanceOf} and {IERC20-transfer}."
      },
      "decreaseAllowance(address,uint256)": {
        "details": "Atomically decreases the allowance granted to `spender` by the caller. This is an alternative to {approve} that can be used as a mitigation for problems described in {IERC20-approve}. Emits an {Approval} event indicating the updated allowance. Requirements: - `spender` cannot be the zero address. - `spender` must have allowance for the caller of at least `subtractedValue`."
      },
      "increaseAllowance(address,uint256)": {
        "details": "Atomically increases the allowance granted to `spender` by the caller. This is an alternative to {approve} that can be used as a mitigation for problems described in {IERC20-approve}. Emits an {Approval} event indicating the updated allowance. Requirements: - `spender` cannot be the zero address."
      },
      "name()": {
        "details": "Returns the name of the token."
      },
      "symbol()": {
        "details": "Returns the symbol of the token, usually a shorter version of the name."
      },
      "totalSupply()": {
        "details": "See {IERC20-totalSupply}."
      },
      "transfer(address,uint256)": {
        "details": "See {IERC20-transfer}. Requirements: - `to` cannot be the zero address. - the caller must have a balance of at least `amount`."
      },
      "transferFrom(address,address,uint256)": {
        "details": "See {IERC20-transferFrom}. Emits an {Approval} event indicating the updated allowance. This is not required by the EIP. See the note at the beginning of {ERC20}. NOTE: Does not update the allowance if the current allowance is the maximum `uint256`. Requirements: - `from` and `to` cannot be the zero address. - `from` must have a balance of at least `amount`. - the caller must have allowance for ``from``'s tokens of at least `amount`."
      }
    },
    "version": 1
  },
  "userdoc": {
    "kind": "user",
    "methods": {},
    "version": 1
  }
}