{
  "contractName": "Web3BazaarEscrow",
  "abi": [
    {
      "inputs": [],
      "stateMutability": "nonpayable",
      "type": "constructor"
    },
    {
      "anonymous": false,
      "inputs": [
        {
          "indexed": true,
          "internalType": "address",
          "name": "executor",
          "type": "address"
        },
        {
          "indexed": false,
          "internalType": "uint256",
          "name": "tradeId",
          "type": "uint256"
        }
      ],
      "name": "FinishTrade",
      "type": "event"
    },
    {
      "anonymous": false,
      "inputs": [
        {
          "indexed": true,
          "internalType": "address",
          "name": "creator",
          "type": "address"
        },
        {
          "indexed": true,
          "internalType": "address",
          "name": "executor",
          "type": "address"
        },
        {
          "indexed": false,
          "internalType": "uint256",
          "name": "tradeId",
          "type": "uint256"
        }
      ],
      "name": "NewTrade",
      "type": "event"
    },
    {
      "inputs": [
        {
          "internalType": "address payable",
          "name": "newOwner",
          "type": "address"
        }
      ],
      "name": "addOwnership",
      "outputs": [],
      "stateMutability": "nonpayable",
      "type": "function"
    },
    {
      "inputs": [
        {
          "internalType": "address",
          "name": "",
          "type": "address"
        },
        {
          "internalType": "address",
          "name": "",
          "type": "address"
        },
        {
          "internalType": "uint256[]",
          "name": "",
          "type": "uint256[]"
        },
        {
          "internalType": "uint256[]",
          "name": "",
          "type": "uint256[]"
        },
        {
          "internalType": "bytes",
          "name": "",
          "type": "bytes"
        }
      ],
      "name": "onERC1155BatchReceived",
      "outputs": [
        {
          "internalType": "bytes4",
          "name": "",
          "type": "bytes4"
        }
      ],
      "stateMutability": "nonpayable",
      "type": "function"
    },
    {
      "inputs": [
        {
          "internalType": "address",
          "name": "",
          "type": "address"
        },
        {
          "internalType": "address",
          "name": "",
          "type": "address"
        },
        {
          "internalType": "uint256",
          "name": "",
          "type": "uint256"
        },
        {
          "internalType": "uint256",
          "name": "",
          "type": "uint256"
        },
        {
          "internalType": "bytes",
          "name": "",
          "type": "bytes"
        }
      ],
      "name": "onERC1155Received",
      "outputs": [
        {
          "internalType": "bytes4",
          "name": "",
          "type": "bytes4"
        }
      ],
      "stateMutability": "nonpayable",
      "type": "function"
    },
    {
      "inputs": [
        {
          "internalType": "address",
          "name": "",
          "type": "address"
        },
        {
          "internalType": "address",
          "name": "",
          "type": "address"
        },
        {
          "internalType": "uint256",
          "name": "",
          "type": "uint256"
        },
        {
          "internalType": "bytes",
          "name": "",
          "type": "bytes"
        }
      ],
      "name": "onERC721Received",
      "outputs": [
        {
          "internalType": "bytes4",
          "name": "",
          "type": "bytes4"
        }
      ],
      "stateMutability": "nonpayable",
      "type": "function"
    },
    {
      "inputs": [],
      "name": "openTradeCount",
      "outputs": [
        {
          "internalType": "uint256",
          "name": "",
          "type": "uint256"
        }
      ],
      "stateMutability": "view",
      "type": "function",
      "constant": true
    },
    {
      "inputs": [
        {
          "internalType": "address payable",
          "name": "existingOwner",
          "type": "address"
        }
      ],
      "name": "removeOwnership",
      "outputs": [],
      "stateMutability": "nonpayable",
      "type": "function"
    },
    {
      "inputs": [
        {
          "internalType": "bytes4",
          "name": "interfaceId",
          "type": "bytes4"
        }
      ],
      "name": "supportsInterface",
      "outputs": [
        {
          "internalType": "bool",
          "name": "",
          "type": "bool"
        }
      ],
      "stateMutability": "view",
      "type": "function",
      "constant": true
    },
    {
      "inputs": [],
      "name": "totalCompletedTrade",
      "outputs": [
        {
          "internalType": "uint256",
          "name": "",
          "type": "uint256"
        }
      ],
      "stateMutability": "view",
      "type": "function",
      "constant": true
    },
    {
      "inputs": [
        {
          "internalType": "uint256",
          "name": "tradeId",
          "type": "uint256"
        }
      ],
      "name": "cancelTrade",
      "outputs": [
        {
          "internalType": "bool",
          "name": "",
          "type": "bool"
        }
      ],
      "stateMutability": "nonpayable",
      "type": "function"
    },
    {
      "inputs": [
        {
          "internalType": "uint256",
          "name": "tradeId",
          "type": "uint256"
        }
      ],
      "name": "executeTrade",
      "outputs": [
        {
          "internalType": "uint256",
          "name": "",
          "type": "uint256"
        }
      ],
      "stateMutability": "nonpayable",
      "type": "function"
    },
    {
      "inputs": [
        {
          "internalType": "address[]",
          "name": "creatorTokenAddress",
          "type": "address[]"
        },
        {
          "internalType": "uint256[]",
          "name": "creatorTokenId",
          "type": "uint256[]"
        },
        {
          "internalType": "uint256[]",
          "name": "creatorAmount",
          "type": "uint256[]"
        },
        {
          "internalType": "uint8[]",
          "name": "creatorTokenType",
          "type": "uint8[]"
        },
        {
          "internalType": "address",
          "name": "executerAddress",
          "type": "address"
        },
        {
          "internalType": "address[]",
          "name": "executorTokenAddress",
          "type": "address[]"
        },
        {
          "internalType": "uint256[]",
          "name": "executorTokenId",
          "type": "uint256[]"
        },
        {
          "internalType": "uint256[]",
          "name": "executorAmount",
          "type": "uint256[]"
        },
        {
          "internalType": "uint8[]",
          "name": "executorTokenType",
          "type": "uint8[]"
        }
      ],
      "name": "startTrade",
      "outputs": [
        {
          "internalType": "uint256",
          "name": "",
          "type": "uint256"
        }
      ],
      "stateMutability": "nonpayable",
      "type": "function"
    },
    {
      "inputs": [
        {
          "internalType": "uint256",
          "name": "tradeId",
          "type": "uint256"
        }
      ],
      "name": "getTrade",
      "outputs": [
        {
          "internalType": "address",
          "name": "",
          "type": "address"
        },
        {
          "internalType": "address",
          "name": "",
          "type": "address"
        },
        {
          "internalType": "uint8",
          "name": "",
          "type": "uint8"
        }
      ],
      "stateMutability": "view",
      "type": "function",
      "constant": true
    },
    {
      "inputs": [
        {
          "internalType": "uint256",
          "name": "tradeId",
          "type": "uint256"
        },
        {
          "internalType": "address",
          "name": "userWallet",
          "type": "address"
        }
      ],
      "name": "getTradeWithAddress",
      "outputs": [
        {
          "internalType": "address[]",
          "name": "",
          "type": "address[]"
        },
        {
          "internalType": "uint256[]",
          "name": "",
          "type": "uint256[]"
        },
        {
          "internalType": "uint256[]",
          "name": "",
          "type": "uint256[]"
        },
        {
          "internalType": "uint8[]",
          "name": "",
          "type": "uint8[]"
        }
      ],
      "stateMutability": "view",
      "type": "function",
      "constant": true
    },
    {
      "inputs": [
        {
          "internalType": "address",
          "name": "u",
          "type": "address"
        }
      ],
      "name": "tradePerUser",
      "outputs": [
        {
          "internalType": "uint256[]",
          "name": "",
          "type": "uint256[]"
        }
      ],
      "stateMutability": "view",
      "type": "function",
      "constant": true
    }
  ],
  "bytecode": "0x60806040523480156200001157600080fd5b50620000467f8a4d28d3016c7420790906de72dd384c4de505dc5cc6a363acec50ed37e7336e60001b6200021f60201b60201c565b6200007a7feecc2ff2126c3f056972c2145427c4a62dabd7e3b65cd0b1114fc5d2d4f04f6460001b6200021f60201b60201c565b620000ae7faff8edf95aa3f557276bd89f9b56139ba8f54d960573577ca8e08614b373614d60001b6200021f60201b60201c565b60016000803373ffffffffffffffffffffffffffffffffffffffff1673ffffffffffffffffffffffffffffffffffffffff16815260200190815260200160002060006101000a81548160ff021916908315150217905550620001397f06186cae3d9aec97f03a0d7c6a8d11bb60d89e01cd9042a0b81f8834faf2386b60001b6200022260201b60201c565b6200016d7f3910c50f3b329af42b3ba79e1d1ef24c9dc1cb46840b92af9b01279aa865a09e60001b6200022260201b60201c565b620001a17f594b2e2289fd3f7a2faa29a8e69ca851c37c54ecbc188df3054b59eea2ff9fe260001b6200022260201b60201c565b6000600481905550620001dd7fc81d80ba28a8013069dc950af238b5e0e3c215b66b9020b38eb4004b7181b88560001b6200022260201b60201c565b620002117f3545153257d3ca322df103026634faee269508aa58af19bd475e01a8fce4a6da60001b6200022260201b60201c565b600060058190555062000225565b50565b50565b61986280620002356000396000f3fe608060405234801561001057600080fd5b50600436106100ea5760003560e01c8063666a34271161008c578063d3322d1b11610066578063d3322d1b146102c0578063e16bf057146102de578063f23a6e61146102fc578063f5a55ff61461032c576100ea565b8063666a3427146102415780639e2f284d1461025d578063bc197c8114610290576100ea565b8063150b7a02116100c8578063150b7a021461017f5780632db25e05146101af57806332e7db1d146101e15780633d3a3ee414610211576100ea565b806301ffc9a7146100ef57806302d2838b1461011f57806309ec6cc71461014f575b600080fd5b610109600480360381019061010491906177f2565b610348565b604051610116919061783a565b60405180910390f35b6101396004803603810190610134919061788b565b6103c2565b60405161014691906178c7565b60405180910390f35b6101696004803603810190610164919061788b565b611827565b604051610176919061783a565b60405180910390f35b61019960048036038101906101949190617a86565b611e20565b6040516101a69190617b18565b60405180910390f35b6101c960048036038101906101c4919061788b565b611e34565b6040516101d893929190617b5e565b60405180910390f35b6101fb60048036038101906101f69190617b95565b611fa8565b6040516102089190617c80565b60405180910390f35b61022b60048036038101906102269190617f1c565b6120c3565b60405161023891906178c7565b60405180910390f35b61025b60048036038101906102569190618104565b61457c565b005b61027760048036038101906102729190618131565b614936565b60405161028794939291906182ed565b60405180910390f35b6102aa60048036038101906102a5919061834e565b615236565b6040516102b79190617b18565b60405180910390f35b6102c861524b565b6040516102d591906178c7565b60405180910390f35b6102e6615251565b6040516102f391906178c7565b60405180910390f35b6103166004803603810190610311919061841d565b615257565b6040516103239190617b18565b60405180910390f35b61034660048036038101906103419190618104565b61526c565b005b60007f4e2312e0000000000000000000000000000000000000000000000000000000007bffffffffffffffffffffffffffffffffffffffffffffffffffffffff1916827bffffffffffffffffffffffffffffffffffffffffffffffffffffffff191614806103bb57506103ba82615603565b5b9050919050565b60006103f07f85a4ab16a62707685d3d5146de2399d830586e4bbc347da2848cc1707e07683d60001b61566d565b61041c7f2d799d7c3b2716deb74d78d46dfd3128e7da95489dbcb8ffd1d83df9db54108360001b61566d565b6104487f305e0393645eef35316f89f264c193ccc688efadc28de47df35d119de12eb91460001b61566d565b600060026000848152602001908152602001600020905061048b7f9117edaa54bf7ac425b4729de5826845921a03c08aafaae631464e96c00d4b0760001b61566d565b6104b77f016be87c0ebf5504ceb5c6249e61369cd3d996eae6816ca002ce78968e44b3b560001b61566d565b6104e37ff338da8f8bd7c25577554e736f91a6791ead1e49690eea1cd459a07188732bdc60001b61566d565b600160038111156104f7576104f66184b4565b5b8160040160009054906101000a900460ff16600381111561051b5761051a6184b4565b5b1461055b576040517f08c379a000000000000000000000000000000000000000000000000000000000815260040161055290618566565b60405180910390fd5b6105877f4f032bf6fe2b2c420b65d774c9410fb13f5ae61081afc00c76f06f90431b4a4f60001b61566d565b6105b37fa78aeb911302ea44265179c98aa7aa7b8f3c0e1485ff4a84b3739e1868c59b1760001b61566d565b6105df7fd2b02124783e95a62696357569b79795ebd96ac913a0a472febf27af8db87e7360001b61566d565b60008160010160009054906101000a900473ffffffffffffffffffffffffffffffffffffffff1690506106347fe2573bdd30af156689bb9a98a91824f4f831fb3d710ed0119eeb02501798386860001b61566d565b6106607f98657fc75b2189ad39f85acbe4c6227e074f318e4850b7145725d809bbe6ea5960001b61566d565b60008260000160009054906101000a900473ffffffffffffffffffffffffffffffffffffffff1690506106b57fc90adc5f2a519fa1ddd4d4a6ebad5dfd27c04701df4c840951e2d03778340a0b60001b61566d565b6106e17fa4e702b68a3b7abd80275d138b86c9deb08861432da4fb870323def0aa60048160001b61566d565b61070d7fc6dd48fc97bd31b5e32d60a1fad53c4fabc56c4d4b5145d2a42d20f79b830ecc60001b61566d565b3373ffffffffffffffffffffffffffffffffffffffff168273ffffffffffffffffffffffffffffffffffffffff161461077b576040517f08c379a0000000000000000000000000000000000000000000000000000000008152600401610772906185f8565b60405180910390fd5b6107a77f9e410d1e6bd419ef56701c79325481086a5809ff24cfe45c07109f1337a51dd260001b61566d565b6107d37fb75eba0efd26763294f84d18bc6efd465a134b093670e1cac6478add44139c8060001b61566d565b6107ff7f3119068ec6858f870178eb8ef066381c88364620dd10a97e0ddd5d053bd9753460001b61566d565b600061082d7f5db243345ee8330d1d265d2773f9c0768c6e4eedfe50e50027f572639b208bc560001b61566d565b6108597fb0ab57d33d3e5ae6ed73b0f87f18b942b14b73f0d968be79117a03c6fccae2ae60001b61566d565b60005b8460030160008473ffffffffffffffffffffffffffffffffffffffff1673ffffffffffffffffffffffffffffffffffffffff16815260200190815260200160002060000180549050811015610e57576108d77f5a2ea8e005df24de2da4111e6fd9611669480647142d52f45d59899f6453bb3360001b61566d565b6109037fd3f8fe95ea038c82d200485c9018a9ed43ed8acdae98a41e58a8fc46fab6131f60001b61566d565b60008560030160008573ffffffffffffffffffffffffffffffffffffffff1673ffffffffffffffffffffffffffffffffffffffff168152602001908152602001600020600001828154811061095b5761095a618618565b5b906000526020600020015490506109947f839faec5af0db8610e2751b7bdf3ba54be9dc9556562c039d9ac98e078fe1b7e60001b61566d565b6109c07fe5d75748aebab3bde44df9a8b32b1de14729b50346495ad5fbef9b6dac7d058a60001b61566d565b8560030160008573ffffffffffffffffffffffffffffffffffffffff1673ffffffffffffffffffffffffffffffffffffffff16815260200190815260200160002060010160008281526020019081526020016000209250610a437f965850d691064c2f9eecbc9b43507c2bc736e08ce82a012aadbf81fb0e19a1a260001b61566d565b610a6f7f1c1aac063afaa2fb759c01209c5dcabe3c7f69e7ff233747b0e65fb987d0842160001b61566d565b60016003811115610a8357610a826184b4565b5b8360030160009054906101000a900460ff166003811115610aa757610aa66184b4565b5b03610b6a57610ad87ff0b86dbffd9983d9584ecd1fdc3f2fcdcb2fefe86e88821f5c9d8f7aa504049260001b61566d565b610b047f60156b04c4b888afdfb557a78353367c74cc60fdc37401592ba4defaeb7e1d6760001b61566d565b610b307fc32f4562a838fe03b13c8621967ad9ae14722d64f605ad2ff495a2d854f449c760001b61566d565b610b6484868560000160009054906101000a900473ffffffffffffffffffffffffffffffffffffffff168660020154615670565b50610e43565b610b967fd999f2e4090183efd21ab4f49fdcaeb2af619b5236f1312b8b040f04807b571f60001b61566d565b610bc27f6b2f7ecdc5a2b492ca59e8e538cdd81f55717162fe26c6dce3a2ffe6768b16be60001b61566d565b600380811115610bd557610bd46184b4565b5b8360030160009054906101000a900460ff166003811115610bf957610bf86184b4565b5b03610cbc57610c2a7f52e2e6db2ddf7685f841f7ad11b4301c1a05990f0d5830f4e0559a2d09f535b760001b61566d565b610c567fef180a0e172f9a0410bb0ef7dc7ea038c10e92bbf672cba04366e039d86aecea60001b61566d565b610c827f11241a3246934c555f14ffe8ec88cbfce4c9da8a677c632579b814f0328ee1e360001b61566d565b610cb684868560000160009054906101000a900473ffffffffffffffffffffffffffffffffffffffff1686600101546157cc565b50610e42565b610ce87f76d331926b1c41060d0d18789e854041d133b437254f75364bbb1542d8774b0660001b61566d565b610d147ff01306255579e26b050198570341e02c5b5fc385b3fa95f1bf1d2e5ab98b4a1460001b61566d565b60026003811115610d2857610d276184b4565b5b8360030160009054906101000a900460ff166003811115610d4c57610d4b6184b4565b5b03610e1457610d7d7fdb9276a20d563860e89687a72c394ae52ef8657d1e461ec2b280799b4aadaa0860001b61566d565b610da97ff750dcd393ab6dc79f7c7c3962162428207f887b21e00baaff59f332c161d9fa60001b61566d565b610dd57f2a0c6de8d0e2164436d82d1cfc146c283068a3c9a9cf81bb9c4d893be6d3ffb960001b61566d565b610e0e84868560000160009054906101000a900473ffffffffffffffffffffffffffffffffffffffff168660010154876002015461598b565b50610e41565b610e407fc57bd940d8c8c532d55cf92c1ab0758917e3f614bcec51648e95d125b6977b8160001b61566d565b5b5b5b508080610e4f90618676565b91505061085c565b50610e847ff352b12a86bb65f873af93094bab5c024992c86cd396dace6957a71a1e65b7a960001b61566d565b610eb07f78c262da913b1be7f3b8171cd8c76948e090aa272a51bca01a249080b58f570860001b61566d565b60005b8460030160008573ffffffffffffffffffffffffffffffffffffffff1673ffffffffffffffffffffffffffffffffffffffff168152602001908152602001600020600001805490508110156114ae57610f2e7f4b2aa33ff5d8b8060216c16ec9b1b1e11c4ec0a8e154330cfabe78bc17b3d3ea60001b61566d565b610f5a7fedb50084ddf5fa0ed52f83c18b384a234536d3fc53c2cb1f2ca0e20cd69d11e260001b61566d565b60008560030160008673ffffffffffffffffffffffffffffffffffffffff1673ffffffffffffffffffffffffffffffffffffffff1681526020019081526020016000206000018281548110610fb257610fb1618618565b5b90600052602060002001549050610feb7f9cf18e01b6ce684df54ca684275fba8451d724ce5f12d6fb1be6755533b56af160001b61566d565b6110177fab775fde9e457904a1cd17f18aa8a9698fb1f032b66636c2c8ab0d54b3c3781860001b61566d565b8560030160008673ffffffffffffffffffffffffffffffffffffffff1673ffffffffffffffffffffffffffffffffffffffff1681526020019081526020016000206001016000828152602001908152602001600020925061109a7fdd5c182a8aa08d76dd74d5ae2e7837d438504756fedffd280a8ec78cb2729b0c60001b61566d565b6110c67f6165a68adf9f351b9e6151497605a1b48b3e3edb604e2956f1734441777577a760001b61566d565b600160038111156110da576110d96184b4565b5b8360030160009054906101000a900460ff1660038111156110fe576110fd6184b4565b5b036111c15761112f7f70dba8fd946910f9da7f2710eec3cdb092998d166a61ed2f566a0df9e395cbb060001b61566d565b61115b7f70434e1309d1458ec5cb8ec95494042fb503daf6b25e5bcfbf55ce6808c0cc4960001b61566d565b6111877f5de1708b5d495d3577352392054bf9ddb478e0090944116feff063817a8c790760001b61566d565b6111bb85858560000160009054906101000a900473ffffffffffffffffffffffffffffffffffffffff168660020154615670565b5061149a565b6111ed7fb7af5b102ef730c96f5415d79eb7d54c19af326752f58ae691bd73e59379fef060001b61566d565b6112197fef51dec34c68802b8d23506de57f47d134785ffcce441366881c5c72e186229160001b61566d565b60038081111561122c5761122b6184b4565b5b8360030160009054906101000a900460ff1660038111156112505761124f6184b4565b5b03611313576112817f5013411b1f44e3cc0cc343e9a45581b9da3de857249ceb89faa7fb563537770260001b61566d565b6112ad7f256ae3ef140a0d8a0cbc37a347198764794fb9a0c122566fa1146b625ff3cd9260001b61566d565b6112d97f03cd976c3a1cfcf464297388febe48e0b85463df80e6577d164845239e30511f60001b61566d565b61130d85858560000160009054906101000a900473ffffffffffffffffffffffffffffffffffffffff1686600101546157cc565b50611499565b61133f7fa4b2cb4535073fd9b8b0c27cd9e9f525c8c04213222b98c43fe549702fc4d3c160001b61566d565b61136b7f47565400d5fbeadf37dbfcabaa7168444cfe68b2246b30e5055b211be759d0a360001b61566d565b6002600381111561137f5761137e6184b4565b5b8360030160009054906101000a900460ff1660038111156113a3576113a26184b4565b5b0361146b576113d47f64e9240971b42de96d3278702d39b115ea2ff8e7b2fad5061ebccb44042687b360001b61566d565b6114007f40d298a13d843d5820d055f6ac7269bf2abff714092034cb54b09288aa80002460001b61566d565b61142c7f080e98d2e97000064a64a30bab7e775e020777b6110e2ce9de0dcc910f3c5bc460001b61566d565b61146585858560000160009054906101000a900473ffffffffffffffffffffffffffffffffffffffff168660010154876002015461598b565b50611498565b6114977f8bcf922a69db6cac29ef5202425baa68db4da609d5d73d6136a5caa54b23daec60001b61566d565b5b5b5b5080806114a690618676565b915050610eb3565b506114db7fb2be664ae0b9fa02fa0a640353b116377076036b04d8b2668c2c842c871949a960001b61566d565b6115077f7e1837691da0f263bd2d92bf737852c4e15498ee1d99c785491465af26808cc160001b61566d565b6002806000600154815260200190815260200160002060040160006101000a81548160ff02191690836003811115611542576115416184b4565b5b02179055506115737f1901ea1d72ed1655eef1f169b603dcfbf2b6c5509ab6523e8fdd00d12d5c2d2860001b61566d565b61159f7f438e8faacc9a30cb944713232aa0031ceb9094595a79626ae02074d7319275f660001b61566d565b6115a93387615b4e565b506115d67fc635b34504357099a76671dfab42ba320e16f8139fe0ecfd6bdb791fcb2da26e60001b61566d565b6116027fb72cce96176a26e53205ed3b4e01053b8dc1f73ac801d1631f2eb87b78e9da0360001b61566d565b6116426002600088815260200190815260200160002060000160009054906101000a900473ffffffffffffffffffffffffffffffffffffffff1687615b4e565b5061166f7f23fd236185eca9c5ce0f8f6be4cd8f587b554327651b0311ad7a1ae90620db2360001b61566d565b61169b7fb94b0930d78318fe5e2aa36a714c306b9e9d7c272ff8c224e67ef523781ec43160001b61566d565b60016005546116aa91906186be565b6005819055506116dc7f2a5a0484241d3edbfe0a62370189bf020b3d42ee181d3b2ec9c33796b9eecee960001b61566d565b6117087f0ddb6ad67a3d594a85d1930b3a2144737a4979058846c0f0575749d8c942a84460001b61566d565b60016004546117179190618714565b6004819055506117497ff5429c8c81fcbe4d4a1cbe155ba8e59e3bf3ccd537d6818041161ef7c5530be360001b61566d565b6117757f478b9460cb866aee2a3cdb56f25fe03f3e9bcd86d5dfb4e6ae7c221e5d9e7a6760001b61566d565b3373ffffffffffffffffffffffffffffffffffffffff167f53846ec8c50c47d6bdc98e83d93c31f08be4d825f219475cd3c58022b45b0751876040516117bb91906178c7565b60405180910390a26117ef7f1c53249f1dd13150e382cbeb2dead5f5bce880e325d3166a25ba43762d5da73260001b61566d565b61181b7fc178ec644b96678e7d506212db8540d54cf118fbe30de8fedf8befb13744880560001b61566d565b85945050505050919050565b60006118557fb39deaf1058e03c74657df116b191caf2b301166ff2f7537c79a21bddc7f1e4c60001b61566d565b6118817f8ab9ec8b26c8a987b56cacbd4917f77a0e164c26f298f0e88019d1a1ea980aff60001b61566d565b6118ad7fe6d2611387e766163806edd7d6981e9e43067d458cfbba37be2f6b516b5a1a3e60001b61566d565b60006002600084815260200190815260200160002090506118f07fdd2f7716729ac418dc4a73a1a85eff42dcd46023658f26cd47630044807890cd60001b61566d565b61191c7fd307c8c83206cc4d34a5cc99abdd773c960e3c27703408fb51430c119939cba960001b61566d565b6119487f5849703bf62b819a265068e11ab392848ec01b818cac86c79f59ad54dafc879360001b61566d565b6001600381111561195c5761195b6184b4565b5b8160040160009054906101000a900460ff1660038111156119805761197f6184b4565b5b146119c0576040517f08c379a00000000000000000000000000000000000000000000000000000000081526004016119b790618566565b60405180910390fd5b6119ec7f9a3c4597a82d39b9289cbd7efc7a4eab9a840b6bb26c1d9ae31b72c16650be9e60001b61566d565b611a187f82651a49b4806c1165d0001c44289fb2ff8a4511c0607714a5d37820c9e2ad5860001b61566d565b611a447f41ebf7a46cc7901163dbdfabbb32537d1f614bf44e32f391a1aaf378c790490460001b61566d565b611a707f1197e8dbf08db358cf801c6231c14abd912edc7ac175d6c408b661e74c23df8360001b61566d565b3373ffffffffffffffffffffffffffffffffffffffff168160010160009054906101000a900473ffffffffffffffffffffffffffffffffffffffff1673ffffffffffffffffffffffffffffffffffffffff161480611b1d57503373ffffffffffffffffffffffffffffffffffffffff168160000160009054906101000a900473ffffffffffffffffffffffffffffffffffffffff1673ffffffffffffffffffffffffffffffffffffffff16145b611b5c576040517f08c379a0000000000000000000000000000000000000000000000000000000008152600401611b53906187ba565b60405180910390fd5b611b887ff5345a843fb5bed2506cd416f22964a3ff9f9f28b1ae632a21aec03c0987cd2160001b61566d565b611bb47f6f86b71778c7e4fb450192a31c344aaae45c61bc00a2b6d2e762765ce9b75c8e60001b61566d565b611be07fd8b20c499640d6d6fbcfbe725144b62031d7727fcd79908ac91eaa6d433e2e5f60001b61566d565b611c206002600085815260200190815260200160002060010160009054906101000a900473ffffffffffffffffffffffffffffffffffffffff1684615b4e565b50611c4d7f86d14d7461f42dda03edb63649f1b34909a2cbfda7b989689fd016356c1690f460001b61566d565b611c797fb53a0f1ee912b65bcfcd77486ac29e6adc2b56cc3e5f9538d56e4b2f925830bf60001b61566d565b611cb96002600085815260200190815260200160002060000160009054906101000a900473ffffffffffffffffffffffffffffffffffffffff1684615b4e565b50611ce67f878c0f51fbbc7d0c93811eca65a863a573f767b3b7fd623a4c08fe2e7d31fd4560001b61566d565b611d127fc856f8f6352925b4545a27218b9f244f2c6b70731788ce515882b5cfdbe9707660001b61566d565b60036002600085815260200190815260200160002060040160006101000a81548160ff02191690836003811115611d4c57611d4b6184b4565b5b0217905550611d7d7f6229205c1920cc8d82c4f73f0343a48f97f306ca41c6618fdf787d99a21c976660001b61566d565b611da97fc4dd8fa379f55de753c832ccf24b894ec403f4e243f3d090b616538524c4c8ce60001b61566d565b6001600454611db89190618714565b600481905550611dea7f8f1908e21de56bd6ebbdb27984d7f9b3318df35be3818dfa0f2dce4fedc8388560001b61566d565b611e167f0f950d061f9e5de1b821190a78eb25f50b2bd4a7205079a78b90124d8a70f93260001b61566d565b6001915050919050565b600063150b7a0260e01b9050949350505050565b6000806000611e657f90dfbcaefbb8f6b06268cd57dd01a43a063bf40b81c878f0f25637a268e21c2360001b61566d565b611e917fc9b509ff6eea298ee530389782673057e5c361e576e7b17583820ac2c915c36360001b61566d565b611ebd7f33063944a6f8893d28b7ecc8c937fa4cf58c3df640ff4e5325f682822586921260001b61566d565b6000600260008681526020019081526020016000209050611f007f27edc4e7ad001a51d95cd1b1b12388947e4c435de38ed3955f736f5ec5faa27360001b61566d565b611f2c7f0a029970e2ec7a24849a7ff5783eb61bea45095046ade12c7df80c2ebb5349b260001b61566d565b8060000160009054906101000a900473ffffffffffffffffffffffffffffffffffffffff168160010160009054906101000a900473ffffffffffffffffffffffffffffffffffffffff168260040160009054906101000a900460ff166003811115611f9a57611f996184b4565b5b935093509350509193909250565b6060611fd67faa96b713a91b295f4fe2f86fd1f6c5768d0f06e1f47f63fd4fb9dd8a8620056460001b61566d565b6120027f8d745c1088b7096576689b16e87a56f8ea77022f5b3613e5785ef9ffdef309f360001b61566d565b61202e7fe95ea4590e4d2a1f1b0840c4186bf188ffb94ec94dc1876efe26b211676703bd60001b61566d565b600360008373ffffffffffffffffffffffffffffffffffffffff1673ffffffffffffffffffffffffffffffffffffffff1681526020019081526020016000208054806020026020016040519081016040528092919081815260200182805480156120b757602002820191906000526020600020905b8154815260200190600101908083116120a3575b50505050509050919050565b60006120f17f0989ef4436ccc0da4de9a293b01810610dfd5f4efa03dcdd2886082a887f170960001b61566d565b61211d7f7ec6f07b098e6259b080d22687739796897e745800efa2882b4454355e6750a560001b61566d565b6121497fce266ef04e3403d6b984b62e5f9acd0c6e566f661f39f8948406e236efa013a260001b61566d565b600033905061217a7f54630407c3b1d797a9b2a37d7788319309562c33e8811ed5aa4024da3989224960001b61566d565b6121a67fd72abcda38607e9dc49f3489fe39366efd2bae79fa38f85ccc936c1233a9134460001b61566d565b6121d27f48bc429878b8980b083e61053206d3c45905b74ac62e84359ba9e25c72f7b60860001b61566d565b600073ffffffffffffffffffffffffffffffffffffffff168773ffffffffffffffffffffffffffffffffffffffff1603612241576040517f08c379a00000000000000000000000000000000000000000000000000000000081526004016122389061884c565b60405180910390fd5b61226d7fd3d4b61943ae92e20f238f084e3d9c1b6a71c151ccd64a2d5bcc227893f4994560001b61566d565b6122997fbdfeaad49e99d89f91165bd254b27ff246500495d83ae382636467bf7514007f60001b61566d565b6122c57f0ce69a68da56605f647c37d269c927b5e4c8d3b80241be269cda36367b47a36760001b61566d565b6122f17f4614f81e2f2de117f27657ae1c9ed7b2d3f66381b2d47197a37559a46eb217f360001b61566d565b8073ffffffffffffffffffffffffffffffffffffffff168773ffffffffffffffffffffffffffffffffffffffff160361235f576040517f08c379a0000000000000000000000000000000000000000000000000000000008152600401612356906188de565b60405180910390fd5b61238b7f1fd3fe15b2300d6f987e7eb741b6895a9d9336bc1f27b1ae686bf594302e752a60001b61566d565b6123b77f5f15ad76f6fd24edc4fd9862ea6c42ea46579086816a8761556d2caca217dc9560001b61566d565b6123e37f909fe58e208885fffc7c59ee3db7647f84f1abe9805eaccea29de059be97a12d60001b61566d565b61240f7fd9eed5974e7090ff3ac1f1c3199cea9dcb93a20c2b5197807953b70adc74499160001b61566d565b60008b5111612453576040517f08c379a000000000000000000000000000000000000000000000000000000000815260040161244a90618970565b60405180910390fd5b61247f7f9fdf1536397f91eed7cd64248079cb4528303218c8728318915ae5edf290a60860001b61566d565b6124ab7ff1111382deb0f8cfe2518ca0f16ebc91cde63d843808b4fc484d4c0d83e8a0d360001b61566d565b6124d77fca0728c17d66327635c7b017cf27fdee2b9eba327207b0cb52823002c352474c60001b61566d565b6125037f1502f21f4e45e43cc8b14241050af3f99c8f5970d64ce78533898bfa9bb230bf60001b61566d565b6000865111612547576040517f08c379a000000000000000000000000000000000000000000000000000000000815260040161253e90618a02565b60405180910390fd5b6125737f0716f92878abb4e25b306e3caa4726812f5352a978636c7c8f6489d7bc1f8fe760001b61566d565b61259f7f1606e375c9df609732c4ae5f4ae3b0c1f8d370aa2ade09cfc9feb1299892a3f060001b61566d565b6125cb7fb29531fd7ef5b5e30144810f0284763a4db080d9784dd1a1a2af68293d72d6c760001b61566d565b6125f77feb0a185cb434e63b732cfab5326665c30cbd15af7a0e45bdd59bd272ec05f4d060001b61566d565b89518b51148015612609575088518b51145b8015612616575087518b51145b612655576040517f08c379a000000000000000000000000000000000000000000000000000000000815260040161264c90618a94565b60405180910390fd5b6126817f89ca0df0bbb4ba8e083aa7877692491cc9ea43f112ad219cb7f82850b054c8a060001b61566d565b6126ad7f2a2ffec25b3190b19cea61d957037c04b2e5b6e85aa5d3612df8bca16d7f5bd460001b61566d565b6126d97f05895e57cc83d823b1b3c0a1913cab9748752037b660512c83b3352646354f4060001b61566d565b6127057fb340f2d9a2ba0df74e851cb63d41968dc2720104407025f87fd067e7da10b41360001b61566d565b84518651148015612717575083518651145b8015612724575082518651145b612763576040517f08c379a000000000000000000000000000000000000000000000000000000000815260040161275a90618b26565b60405180910390fd5b61278f7fa4ace26fead648acc6c321c62fa1b53950d97dcca56459a07b85b70cea55bd0760001b61566d565b6127bb7f909c4eccc65ed8bfa94e306890e93582b89f6c82c1deec549e0f08c6878b092b60001b61566d565b600160008154809291906127ce90618676565b91905055506127ff7f029bc9aed6a367f6fba7edfcdb5ce78ec4054021607438eca969c0bbfb2dd02e60001b61566d565b61282b7f77ccc8c11f99998334c0ee3005dc8c340b046906875eaffb3e5631bd4ceb197e60001b61566d565b600154600260006001548152602001908152602001600020600201819055506128767ffd602bb3584d740bfb461d7ee5e260600a852b6ee7f58f560a8c37e42d13fa1060001b61566d565b6128a27f0badc94f6b8c397297483860e6802d292860de01407a821297d66b3fc20a3af460001b61566d565b8060026000600154815260200190815260200160002060000160006101000a81548173ffffffffffffffffffffffffffffffffffffffff021916908373ffffffffffffffffffffffffffffffffffffffff1602179055506129257fa49dc64c119c8a682a94f223874e71c993b3be57e3f98b953a94d783b4aa554860001b61566d565b6129517fa8675eabd2e1cc764bf18161cc009fc68686a876e7865bbea4eb9d76e5bcc8d960001b61566d565b8660026000600154815260200190815260200160002060010160006101000a81548173ffffffffffffffffffffffffffffffffffffffff021916908373ffffffffffffffffffffffffffffffffffffffff1602179055506129d47fbac9865667e9643f1484ae53f6a124b4b9f7340af0a535091f9b3938ca16244960001b61566d565b612a007fc1649f370fc0b7b2289c8c50d5b9a345edd82dac2777bb49f89a98d0ed230a4660001b61566d565b60005b8b518110156135b957612a387f404d1fa7159cb1799c32c78ac8bf9d7303583c87a85fed97bb1b903fa2aa0b1160001b61566d565b612a647fa2d3ff6554d4ee303c8fd2a1dac557fed47a0272430d7e7052d684d5b674f3c060001b61566d565b612ad88c8281518110612a7a57612a79618618565b5b60200260200101518c8381518110612a9557612a94618618565b5b60200260200101518c8481518110612ab057612aaf618618565b5b60200260200101518c8581518110612acb57612aca618618565b5b6020026020010151616219565b50612b057f398c64e67d00bdefdc8ac17af2e050d9ff4f1ffdd0082f9695cf349b256c35ff60001b61566d565b612b317f8d788a1387cade97ae97a4d25847505c4c0cd934c0884adf4671aaaf9d9ddcc760001b61566d565b60016003811115612b4557612b446184b4565b5b898281518110612b5857612b57618618565b5b602002602001015160ff166003811115612b7557612b746184b4565b5b6003811115612b8757612b866184b4565b5b03612c5757612bb87fd3d1ade9e7db7abe016f0aedfb88f2e68cc8f807e72f052df1708cb016a41ca460001b61566d565b612be47fd8f43c078803f11b570499feba6589e34774a8e3745807cd1c8c9a4211504bcf60001b61566d565b612c107f73883b5ed20f15351a0f594ee914944ef96cca5f1a6cfcc2b83d7293ed3e60eb60001b61566d565b612c51828d8381518110612c2757612c26618618565b5b60200260200101518c8481518110612c4257612c41618618565b5b602002602001015160016166df565b50612f9c565b612c837fa1554273a18ff82733f73657cc0ccde5da6ba2498b091946335776b5ef4f673f60001b61566d565b612caf7f21d13861e466bd99a7df961d2e0c79cafdea6cd2a5d5d7e6a9b8998386f4967e60001b61566d565b600380811115612cc257612cc16184b4565b5b898281518110612cd557612cd4618618565b5b602002602001015160ff166003811115612cf257612cf16184b4565b5b6003811115612d0457612d036184b4565b5b03612dd457612d357f090fd6d9652bd7c0bd3c377ec366f65d14d5bc8ad01ac350a1f8b33a1642010460001b61566d565b612d617f7c3946525c1608f51a8ac8a348ab31ea45b737320280e55875dee854275b7b7260001b61566d565b612d8d7f45bdd65ef2daafd4f598c5384f9bd5387b6de671533c8638ce3300eb40c8cc6660001b61566d565b612dce828d8381518110612da457612da3618618565b5b60200260200101518d8481518110612dbf57612dbe618618565b5b60200260200101516001616b07565b50612f9b565b612e007fdd41d4fd64e356b395c62b5a5000d5fa22c4f469f8ac0c04f1bd354fc27ec08c60001b61566d565b612e2c7f7f2c99cd1efb1cfa4c802e4866e73716fd2495ea50ef6d8c2c401014004fc80760001b61566d565b60026003811115612e4057612e3f6184b4565b5b898281518110612e5357612e52618618565b5b602002602001015160ff166003811115612e7057612e6f6184b4565b5b6003811115612e8257612e816184b4565b5b03612f6d57612eb37ff85f5ab894a05bab48f42aca43150b3956a2a1183b2640b7f785adaa53ecfbe260001b61566d565b612edf7f18c22cf4a0e956b15b3fa36269c33bfbfe0a08f77a9566ac87d8728c161555b160001b61566d565b612f0b7fad3759b59c6f4a90efd44516dc6f7c4acf1a79201ec8c86f722f5d7dbd3a861c60001b61566d565b612f67828d8381518110612f2257612f21618618565b5b60200260200101518c8481518110612f3d57612f3c618618565b5b60200260200101518e8581518110612f5857612f57618618565b5b60200260200101516001616f57565b50612f9a565b612f997fd4578c1fa779af8d774669ef7d9f6d8c1063617aaead937b5f6ce9e48df7e9fc60001b61566d565b5b5b5b612fc87f6332514b684522f6d5bb4a1a2de727577260a7eda77ae5f8d043d9df9558985860001b61566d565b612ff47f8359a0aafb9536c19f0236ed49fecddb25291d94ad1645afdf9f9a552afc0ddf60001b61566d565b60026000600154815260200190815260200160002060030160008373ffffffffffffffffffffffffffffffffffffffff1673ffffffffffffffffffffffffffffffffffffffff16815260200190815260200160002060000160018261305991906186be565b90806001815401808255809150506001900390600052602060002001600090919091909150556130ab7faee132b2bdad5d5b8a1778d62739ef2ef93dae591252de9dbb3a0c61cb56e53060001b61566d565b6130d77fba4dbe7e1fb6a972a020eb6b4f19abc4ca9ef08ef8bd78862bf30ed7747f38ba60001b61566d565b8b81815181106130ea576130e9618618565b5b602002602001015160026000600154815260200190815260200160002060030160008473ffffffffffffffffffffffffffffffffffffffff1673ffffffffffffffffffffffffffffffffffffffff168152602001908152602001600020600101600060018461315991906186be565b815260200190815260200160002060000160006101000a81548173ffffffffffffffffffffffffffffffffffffffff021916908373ffffffffffffffffffffffffffffffffffffffff1602179055506131d47f2ef9f856d77afed6a2c289b4693c9e7fce95ebd65ee02845af8e4fbe0d5f246c60001b61566d565b6132007fa5ff34f760a7f32b20c50a6001d61b485a1e597299ff010a7dc83828636262cd60001b61566d565b8a818151811061321357613212618618565b5b602002602001015160026000600154815260200190815260200160002060030160008473ffffffffffffffffffffffffffffffffffffffff1673ffffffffffffffffffffffffffffffffffffffff168152602001908152602001600020600101600060018461328291906186be565b8152602001908152602001600020600101819055506132c37f7024c8ccd157d2a3dea4a05780984df10d27e2519154b08a95bc8bc0d32007bd60001b61566d565b6132ef7f094b144edc9b648387bfa5d4f876dd5c6bdb70c4f4e70a695dc5505dab6e848260001b61566d565b89818151811061330257613301618618565b5b602002602001015160026000600154815260200190815260200160002060030160008473ffffffffffffffffffffffffffffffffffffffff1673ffffffffffffffffffffffffffffffffffffffff168152602001908152602001600020600101600060018461337191906186be565b8152602001908152602001600020600201819055506133b27f6296061d3d31caa180d4bb0a2475c5cf1aab699f9b8c4c73c187046f2b4d97a860001b61566d565b6133de7f4f16e2033dd1a345e2d4afa740f32d0629eab542fe81cbb64efeac2f091b103a60001b61566d565b8881815181106133f1576133f0618618565b5b602002602001015160ff16600381111561340e5761340d6184b4565b5b60026000600154815260200190815260200160002060030160008473ffffffffffffffffffffffffffffffffffffffff1673ffffffffffffffffffffffffffffffffffffffff168152602001908152602001600020600101600060018461347591906186be565b815260200190815260200160002060030160006101000a81548160ff021916908360038111156134a8576134a76184b4565b5b02179055506134d97f46643161b59c83d7893847f58662c5b56a9d35bae10c785370cb4748f347d4ec60001b61566d565b6135057f7ed6922c4569d8bcdc48e7324776a6789ffe595bf0ccc20f55b92e28a49944a360001b61566d565b600160026000600154815260200190815260200160002060030160008473ffffffffffffffffffffffffffffffffffffffff1673ffffffffffffffffffffffffffffffffffffffff168152602001908152602001600020600101600060018461356e91906186be565b815260200190815260200160002060030160016101000a81548160ff021916908360038111156135a1576135a06184b4565b5b021790555080806135b190618676565b915050612a03565b506135e67fb26da4eddcb07089c77414ff69ea2d0014b02cd1a48f3b0df1a682ec4d6b682460001b61566d565b6136127f5992f51f5e0c0274ceaa69a4816ddebfb4fb4622fb6b3b0b163825451ac3541160001b61566d565b60005b86518110156141cb5761364a7f943f357542097c612fddd5b72bfe1a9b66e571b414e4d4274cfe40f746c22a8360001b61566d565b6136767fbf9706f0d5a64f68b0331172a97a79e146157eeafa9cbc34ccb512b9d1754ec560001b61566d565b6136ea87828151811061368c5761368b618618565b5b60200260200101518783815181106136a7576136a6618618565b5b60200260200101518784815181106136c2576136c1618618565b5b60200260200101518785815181106136dd576136dc618618565b5b6020026020010151616219565b506137177f7eab4f6ceeb655e2a27febd7e4848867aff428955401b10c0a7b90fdae7811b360001b61566d565b6137437ffbeb844ff61fd44a5d71cad25cfb8408d656cadce91072685e8b03067cb8273260001b61566d565b60016003811115613757576137566184b4565b5b84828151811061376a57613769618618565b5b602002602001015160ff166003811115613787576137866184b4565b5b6003811115613799576137986184b4565b5b03613869576137ca7fbd712ec2cc21b2aab0cf7add6aba61db8472601e0e14036a1e283881814f3d7c60001b61566d565b6137f67f986d5a231043767d4c7b5e51b15740295124410cc9f37ed1eb687575775632b060001b61566d565b6138227fd2808d9f93ac2162e77a5cfcd121cd270c636fca57cd1028719ae0844b036f8d60001b61566d565b6138638888838151811061383957613838618618565b5b602002602001015187848151811061385457613853618618565b5b602002602001015160006166df565b50613bae565b6138957f540a27a3fd6da533f513af57ad7dd80c264b586402e6121215a888479dff908960001b61566d565b6138c17f3d6e34a4d75873be2f5587e9e2912d30172cfe042d93213f671af91ede721d8860001b61566d565b6003808111156138d4576138d36184b4565b5b8482815181106138e7576138e6618618565b5b602002602001015160ff166003811115613904576139036184b4565b5b6003811115613916576139156184b4565b5b036139e6576139477f40940e33024bfbc3e62522cbf1c0e4a064b516588c7b187d1c4d3f7861feea7260001b61566d565b6139737fc7c35f49b886da5cd322f62793f1db9681dbd3d9596c8d5b190a719480b7a5c760001b61566d565b61399f7f1b4a0c75682e26b3c453f02f70a4e41f58e8f029d17e4d94e9f2b09c6a031f5660001b61566d565b6139e0888883815181106139b6576139b5618618565b5b60200260200101518884815181106139d1576139d0618618565b5b60200260200101516000616b07565b50613bad565b613a127f358769efa53add56a1763116101e944ab46b189319836d301930eb8ce710e37460001b61566d565b613a3e7f411d7f899819579c9df9e0c1de1a40c7cee44c094edbbddb4bee57a2cc6b8dfe60001b61566d565b60026003811115613a5257613a516184b4565b5b848281518110613a6557613a64618618565b5b602002602001015160ff166003811115613a8257613a816184b4565b5b6003811115613a9457613a936184b4565b5b03613b7f57613ac57fd42401474f54fee30a5d1743dacb01e33d4537a71ae9a91634fe908a24ff2a0460001b61566d565b613af17f9d79c4bad7c795b181d0fcb66b501fc2522860bfe94c29d316bb7cb12d05f89660001b61566d565b613b1d7f534aefbb3ea3f28500516008ba7f8c25aa86d1968de158e0236e89469c89bd9f60001b61566d565b613b7988888381518110613b3457613b33618618565b5b6020026020010151878481518110613b4f57613b4e618618565b5b6020026020010151898581518110613b6a57613b69618618565b5b60200260200101516000616f57565b50613bac565b613bab7f87192d09d97441fc2f8493f6337c04e3a15b645fa1f875302acf8b86cfaac7f860001b61566d565b5b5b5b613bda7f84d506c0aa9cfeba3bd54b37c70bb641e6c97ee1104b8404f1e4e33886f9f2d560001b61566d565b613c067fd316a0750f295fe40d0cb2eae988c0f1b67d3964dadb0e6c38913007559251c660001b61566d565b60026000600154815260200190815260200160002060030160008973ffffffffffffffffffffffffffffffffffffffff1673ffffffffffffffffffffffffffffffffffffffff168152602001908152602001600020600001600182613c6b91906186be565b9080600181540180825580915050600190039060005260206000200160009091909190915055613cbd7f8dd927510fc7b51362bbf4c2f73596bd79eef1b5cbf01dcdf88b88d9b008595260001b61566d565b613ce97f8cddb666c0651af6ec6229c57904d407e052b3593f44467c6f0d24d9afc092fc60001b61566d565b868181518110613cfc57613cfb618618565b5b602002602001015160026000600154815260200190815260200160002060030160008a73ffffffffffffffffffffffffffffffffffffffff1673ffffffffffffffffffffffffffffffffffffffff1681526020019081526020016000206001016000600184613d6b91906186be565b815260200190815260200160002060000160006101000a81548173ffffffffffffffffffffffffffffffffffffffff021916908373ffffffffffffffffffffffffffffffffffffffff160217905550613de67fe3dc5f0ebc554edaa0c07cb3529c9df64deb08726404a5cb8bc4eaf259225c8f60001b61566d565b613e127f6d62de9017926f0175147d516438410158851a01aef2af6631e3c678250cc89960001b61566d565b858181518110613e2557613e24618618565b5b602002602001015160026000600154815260200190815260200160002060030160008a73ffffffffffffffffffffffffffffffffffffffff1673ffffffffffffffffffffffffffffffffffffffff1681526020019081526020016000206001016000600184613e9491906186be565b815260200190815260200160002060010181905550613ed57f41af15519067e8e70ce556b8e51ec23a243ba69efd4094d61d79d74f3622c0ba60001b61566d565b613f017f368f37551c83502bd2d8be736896164da643758ec2d2f6cf9eaef9435cd31b2760001b61566d565b848181518110613f1457613f13618618565b5b602002602001015160026000600154815260200190815260200160002060030160008a73ffffffffffffffffffffffffffffffffffffffff1673ffffffffffffffffffffffffffffffffffffffff1681526020019081526020016000206001016000600184613f8391906186be565b815260200190815260200160002060020181905550613fc47fd983fad81bf38181f2687761db62e5bcc519c7766f4d4efe69978bf419a9fa6b60001b61566d565b613ff07ff9894d694b9ce3e7c15915ce9e8ccc1a4be856a5efa23c998e9cf07199cba89160001b61566d565b83818151811061400357614002618618565b5b602002602001015160ff1660038111156140205761401f6184b4565b5b60026000600154815260200190815260200160002060030160008a73ffffffffffffffffffffffffffffffffffffffff1673ffffffffffffffffffffffffffffffffffffffff168152602001908152602001600020600101600060018461408791906186be565b815260200190815260200160002060030160006101000a81548160ff021916908360038111156140ba576140b96184b4565b5b02179055506140eb7f6eab5dde0db9d2b15dd5367a663f9a42581736ca5987716459c18be4d260e47460001b61566d565b6141177fdc28bd920eb23da4e413bcecb79848157b92ee43e6e10f7968bf4daa580378c160001b61566d565b600160026000600154815260200190815260200160002060030160008a73ffffffffffffffffffffffffffffffffffffffff1673ffffffffffffffffffffffffffffffffffffffff168152602001908152602001600020600101600060018461418091906186be565b815260200190815260200160002060030160016101000a81548160ff021916908360038111156141b3576141b26184b4565b5b021790555080806141c390618676565b915050613615565b506141f87fe84d27349d61c9acd9eeb0e0a1bd3bedd89a846753311346523c7f097680c30e60001b61566d565b6142247f789bdba9752f9009063db53c79f8a62b21b2ee2c91e281353fd614197ffc6a4e60001b61566d565b600160026000600154815260200190815260200160002060040160006101000a81548160ff021916908360038111156142605761425f6184b4565b5b02179055506142917f57a8502f471e4c281e39a661c897530775ef5dbffdabe47495735fe03267b78c60001b61566d565b6142bd7f481a720d4f1c01463aaec49b49299424783a0b7f1ca2a1f5157a1146d121f01d60001b61566d565b600360008273ffffffffffffffffffffffffffffffffffffffff1673ffffffffffffffffffffffffffffffffffffffff16815260200190815260200160002060015490806001815401808255809150506001900390600052602060002001600090919091909150556143517f54bcf0cb9336b90ef494886cb1635980858e60a1a2b2c9b7023c1d1e755b833760001b61566d565b61437d7fb0ee3f20e082f00550d21958f768c2435739209c1e9e597f438f8c88d8b715d360001b61566d565b600360008873ffffffffffffffffffffffffffffffffffffffff1673ffffffffffffffffffffffffffffffffffffffff16815260200190815260200160002060015490806001815401808255809150506001900390600052602060002001600090919091909150556144117f3caf7723faf03bd941962b508fdc57ff1c9747bba2e7898494d25c9016f6df9360001b61566d565b61443d7fbc4216283dce30714e00a61700216057594353c53e3ad3896a458c6090985fa460001b61566d565b8673ffffffffffffffffffffffffffffffffffffffff168173ffffffffffffffffffffffffffffffffffffffff167f5593c8d475af51603aa57c734339c52df3afca57726170f19fdf61f2999c4ea660015460405161449c91906178c7565b60405180910390a36144d07fcc95098a6dd14014609633b5ec2f60da374837114306e015cbb5033de95d44ce60001b61566d565b6144fc7f87f04f786722b2d84cf61dd51e649616ced524d9b51553ba8e2893ad2ed4a08360001b61566d565b600160045461450b91906186be565b60048190555061453d7f1ef9c368afb22e9eac644c7f7a7f4c302a786840c78a235b8a292e4d8378b4a260001b61566d565b6145697fae9c8bcf75e22ba68bad716e7ceaa7275167cd9eda74390667946a6b8d9535d860001b61566d565b6001549150509998505050505050505050565b6145a87f4e01c8990009f5565b8cca8058068ee7bb901534518e641abdd3a1ce22430f4660001b61747d565b6145d47f95879a5412f0389920f95eda8329b4debe4cd5124c35735111acbea6540510b260001b61747d565b6146007fb50ff9557577824f9225b0225089d5e46704879296347b6c4c2cc4647b2036e360001b61747d565b61462c7f4e0a8863079af0373e0c5c925db1f018430f2db64d314cc9279e40cd72a4cf0a60001b61747d565b600115156000803373ffffffffffffffffffffffffffffffffffffffff1673ffffffffffffffffffffffffffffffffffffffff16815260200190815260200160002060009054906101000a900460ff161515146146be576040517f08c379a00000000000000000000000000000000000000000000000000000000081526004016146b590618b92565b60405180910390fd5b6146ea7fbe69170a29816e561f47cd676339a8396d06e803a8fc0d6d93d1cd174a7a149260001b61747d565b6147167fd7403a287d749f17e4ae2050e7b8b996eee106ff5b6510888d07e893d1774f7960001b61747d565b6147427f1a37b06a8a95ee91e291f97840e7183514848c8d4042f6008fb8d5011dbe994360001b61747d565b61476e7fb6075601ccda6af5092fcf38a7588a91be90eeab4692086ddcb55be3f107e19b60001b61747d565b61479a7f596654066e3bf12828ab2a1a2df18c051090aabf50089878631bb0aa27ce514f60001b61747d565b6147c67fe895025d8d11a364ca783d5c876450c13c4875ed2031ee182f7c01ffb741684160001b61747d565b600115156000808373ffffffffffffffffffffffffffffffffffffffff1673ffffffffffffffffffffffffffffffffffffffff16815260200190815260200160002060009054906101000a900460ff16151514614858576040517f08c379a000000000000000000000000000000000000000000000000000000000815260040161484f90618bfe565b60405180910390fd5b6148847f5a350a4cdd461011b07002fb007943b49c0b46983943ecc5173ce679ddd8183160001b61747d565b6148b07f0451d25bc9f83ae03643b13db45e0abc5a1317fdbd6e1049de1a851db0a6598960001b61747d565b6148dc7f9c333e3f90f9db3f295f24ba43e9a3e724befa0c862890fe588f77a22184cd8260001b61747d565b60008060008373ffffffffffffffffffffffffffffffffffffffff1673ffffffffffffffffffffffffffffffffffffffff16815260200190815260200160002060006101000a81548160ff02191690831515021790555050565b6060806060806149687f68e3ac941569a8fabaa0a9368b81ec8b4cd5fb257751a7fe2da0563553d1393760001b61566d565b6149947faebcd5584045afb76f86e304762bbe21ddfff39f23d438fab63f15c63ee58b9a60001b61566d565b6149c07fe219a32e87c6c1847835c0dc1a0411c6d4c4dba35d7cf56bcf9fab5e33c0002460001b61566d565b6000600260008881526020019081526020016000209050614a037f3a9d448c8653fe1ce504e05f3ac9218a1b00e4efcfbd95012c3a345976277ae060001b61566d565b614a2f7f9b92c9a7da5c7ad1745cd1919ce5d79da3d1fa1ab47dd5ab812fac8d5d63525160001b61566d565b60008160030160008873ffffffffffffffffffffffffffffffffffffffff1673ffffffffffffffffffffffffffffffffffffffff168152602001908152602001600020600001805480602002602001604051908101604052809291908181526020018280548015614abf57602002820191906000526020600020905b815481526020019060010190808311614aab575b50505050509050614af27f38277b83af21f48bc1870e1ce19c4d8aed3686c2fe74baec48d0e940d7f8af4260001b61566d565b614b1e7f5fb8bcdbb54090e1de4107078efe2ba43ea4b828bcfa784f9f72a3a3dabe155f60001b61566d565b6000815167ffffffffffffffff811115614b3b57614b3a61795b565b5b604051908082528060200260200182016040528015614b695781602001602082028036833780820191505090505b509050614b987f875743d6c5a24e66e1d30c3baa1a1f23638324bef0eaca3cffdc11a18a562af960001b61566d565b614bc47ff7c350ecef00daa126690d5916799f332db2aa5228b372f18434e67c824fba1560001b61566d565b6000825167ffffffffffffffff811115614be157614be061795b565b5b604051908082528060200260200182016040528015614c0f5781602001602082028036833780820191505090505b509050614c3e7fe1ba69266b58cadfd8a9d2d5bd6f3ba08873eaffe873f289ee07ac2c6aacfe5860001b61566d565b614c697e7bdf1040c77ef4d0f82cf3e386671efffa70e014a3ee08001035456bdf104e60001b61566d565b6000835167ffffffffffffffff811115614c8657614c8561795b565b5b604051908082528060200260200182016040528015614cb45781602001602082028036833780820191505090505b509050614ce37f8c4a9b1f6269400732b46cfe5bd043467be880462072ec49c8cc5a6c41a9effb60001b61566d565b614d0f7f2a4d3d132459aec8db03d3ba212b4ecd1e1e944da3f525d2285b2735a5969eec60001b61566d565b6000845167ffffffffffffffff811115614d2c57614d2b61795b565b5b604051908082528060200260200182016040528015614d5a5781602001602082028036833780820191505090505b509050614d897f6139d7399825c564646e6673bbb8bb5669f008deef913fecfc18fbb710c8dcf260001b61566d565b614db47e2136380d1181465b31f46454c5a5a4a1a1e467248f1ba758a3e7e8cd02ce4360001b61566d565b60005b85518110156151c257614dec7fb3a799bfd933116fef0e14c192dd4154729a4cf5420526f2194e6b20eb00af4c60001b61566d565b614e187f78efb8e5e4518a383f736ddb87da5d2ef4ad30610793e6b555524391df8c728960001b61566d565b60008760030160008e73ffffffffffffffffffffffffffffffffffffffff1673ffffffffffffffffffffffffffffffffffffffff1681526020019081526020016000206001016000888481518110614e7357614e72618618565b5b602002602001015181526020019081526020016000206040518060a00160405290816000820160009054906101000a900473ffffffffffffffffffffffffffffffffffffffff1673ffffffffffffffffffffffffffffffffffffffff1673ffffffffffffffffffffffffffffffffffffffff16815260200160018201548152602001600282015481526020016003820160009054906101000a900460ff166003811115614f2357614f226184b4565b5b6003811115614f3557614f346184b4565b5b81526020016003820160019054906101000a900460ff166003811115614f5e57614f5d6184b4565b5b6003811115614f7057614f6f6184b4565b5b815250509050614fa27ffa6dbf6e344c85bec9df56f7449c929198f3f1e3d7493487bbf753b99fe56b6f60001b61566d565b614fce7f68c9b8fef86e3244eb95b3c706bf8370af5042091262f698973067a58b7d4ec660001b61566d565b8060000151868381518110614fe657614fe5618618565b5b602002602001019073ffffffffffffffffffffffffffffffffffffffff16908173ffffffffffffffffffffffffffffffffffffffff168152505061504c7f1adc0f7b4b898a72bff161f0a9b8bf5066bebb1c9688a856be03a04e23e08def60001b61566d565b6150787fe19cd3cb09efd4023151ef899b9dcc18a89331f1ed3f8b88d33418211442204060001b61566d565b80602001518583815181106150905761508f618618565b5b6020026020010181815250506150c87f1d61f17b28cfd9addada3f88c598c096ee7d40438a6b562fe920f97f0858e22b60001b61566d565b6150f47f5678238cac3a9d307bb42b1e8004015f7a3551fa0484489906f5684eb10c7ce960001b61566d565b806040015184838151811061510c5761510b618618565b5b6020026020010181815250506151447f17f9efae80f2df2d79770634dac96289ebc461180be51860938e52904756d25160001b61566d565b6151707fc62595da5e9713844d7abdc72ae952eb04eed3d763bc6cd00aeeb709d090221360001b61566d565b80606001516003811115615187576151866184b4565b5b83838151811061519a57615199618618565b5b602002602001019060ff16908160ff16815250505080806151ba90618676565b915050614db7565b506151ef7f959277c38b88761f51c38a4e5a2dd8bd423f9585cb57851b4b40bad0bed37d2760001b61566d565b61521b7fdf7529a942bc8ba7b9d2f98786ccd4af4d54b475a9b86c16aa210716c39d7a3f60001b61566d565b83838383995099509950995050505050505092959194509250565b600063bc197c8160e01b905095945050505050565b60055481565b60045481565b600063f23a6e6160e01b905095945050505050565b6152987f4e01c8990009f5565b8cca8058068ee7bb901534518e641abdd3a1ce22430f4660001b61747d565b6152c47f95879a5412f0389920f95eda8329b4debe4cd5124c35735111acbea6540510b260001b61747d565b6152f07fb50ff9557577824f9225b0225089d5e46704879296347b6c4c2cc4647b2036e360001b61747d565b61531c7f4e0a8863079af0373e0c5c925db1f018430f2db64d314cc9279e40cd72a4cf0a60001b61747d565b600115156000803373ffffffffffffffffffffffffffffffffffffffff1673ffffffffffffffffffffffffffffffffffffffff16815260200190815260200160002060009054906101000a900460ff161515146153ae576040517f08c379a00000000000000000000000000000000000000000000000000000000081526004016153a590618b92565b60405180910390fd5b6153da7fbe69170a29816e561f47cd676339a8396d06e803a8fc0d6d93d1cd174a7a149260001b61747d565b6154067fd7403a287d749f17e4ae2050e7b8b996eee106ff5b6510888d07e893d1774f7960001b61747d565b6154327f6626439242a4e07e8ffb0f490b80d9f3655647fe7a3a169f1cdb08ff214a690460001b61747d565b61545e7f611e3a11ae8ce0a01491e203568a6de35f5f8606943ceb850b75e91cf3e913b560001b61747d565b61548a7f254522ea6a214c3efd4efba584a9e1e0e86e675dd1e0e10f88be904170a83e0460001b61747d565b6154b67fa0975796ec9fd6ed95914dcc19cb0041059463587b5a1fa795f87b977e49ff3d60001b61747d565b600073ffffffffffffffffffffffffffffffffffffffff168173ffffffffffffffffffffffffffffffffffffffff1603615525576040517f08c379a000000000000000000000000000000000000000000000000000000000815260040161551c90618c6a565b60405180910390fd5b6155517f544b949d11a3d508060047ad5a4f9842719898f86299f9a315f8bebcde92c4f860001b61747d565b61557d7f55b7aeff4095d6bbe4599597e2b7f4f1378b58ed3b32cc69979426e64c70471660001b61747d565b6155a97f58cb21faf543df8e0bb8b893d0614bd7b28432b23b56a90e2f7a81830cc21d4e60001b61747d565b60016000808373ffffffffffffffffffffffffffffffffffffffff1673ffffffffffffffffffffffffffffffffffffffff16815260200190815260200160002060006101000a81548160ff02191690831515021790555050565b60007f01ffc9a7000000000000000000000000000000000000000000000000000000007bffffffffffffffffffffffffffffffffffffffffffffffffffffffff1916827bffffffffffffffffffffffffffffffffffffffffffffffffffffffff1916149050919050565b50565b600061569e7fa02f588f05826df2b35018c12005caa1dacd56d3fa9dfadcee7399e272d794d560001b61566d565b6156ca7fc0732a3c88f41c4b3e1b0e34d7b7d479400d9985d03834997723ae8c36e9b7cd60001b61566d565b6156f67f379c6af9dbfb53ec881460526ccd5666685f6dfea7d891cd0c6c45ef9716856360001b61566d565b61570385848460016166df565b506157307f4d329116a8da27c4bbc8ee49f1dbf4bfbf85cbb4673b9a361217ae47bdb923b460001b61566d565b61575c7f63e02216140e03d423094110fd25dfebe7f6df07637afe84045ca730640c0e8a60001b61566d565b61576883868685617480565b6157947f3e4ca97a5a0ea5c125c690f0777bbf59b47cef4f28d7db44ce6ecf3b5e318bf260001b61566d565b6157c07f44fb7fbe3609867a4aad0a78060d2634ab04cb319e1f0b716e57ad7baaa0d16b60001b61566d565b60019050949350505050565b60006157fa7ff37c26cd1aca9de791e502e6c82a3593631c13bd2cee4315bc8e79c873c6efdd60001b61566d565b6158267f7a3942f3d373393919558ced23b6295f51eff4cf83bca6899c2a38fba89616f560001b61566d565b6158527fa6265e1db9d6f49907a652bba7370e0e32cf923b5f6adc5906e4a9abd0f6f5ed60001b61566d565b61585f8584846001616b07565b5061588c7fa29690a61b6db7443f246182ae451f5cc7cb4f16f23d971b8f2a83c99a03702460001b61566d565b6158b87f6e95180c7a4876444a00a53808e8fb083271eb0dd5c797ac7c67f1f8a06c546060001b61566d565b8273ffffffffffffffffffffffffffffffffffffffff1663b88d4fde8686856040518463ffffffff1660e01b81526004016158f593929190618cc1565b600060405180830381600087803b15801561590f57600080fd5b505af1158015615923573d6000803e3d6000fd5b505050506159537fbb930db27f14319c3a1ffd061b01504ddeeb68e671c953793144873d30266c2660001b61566d565b61597f7f2260b3771e070b13566ffe6f38d2d6573fde19e232022af42756832a2e4f0ac960001b61566d565b60019050949350505050565b60006159b97f2b676aedeff5b5928b4c2a12b880b8b09564cda6eb92c3e2a770b38f7d729e0f60001b61566d565b6159e57f811988aac676fef7d532985bbda3dd4e10930c25fe475a25193cd4e9aedca7ac60001b61566d565b615a117f44acf33a49a39e74506bd384cb40b300d62a3337f464c9ac778749d1ed5cf97e60001b61566d565b615a1f868584866001616f57565b50615a4c7fc1c62a6585dcfda8562b50ffa1ac64e1872b21f73698088a98a3f6ff36c7f3e360001b61566d565b615a787fd2e25701981931663555d5a6db54b8f7858dcc3853a089278bdc42f097afe2bf60001b61566d565b8373ffffffffffffffffffffffffffffffffffffffff1663f242432a878786866040518563ffffffff1660e01b8152600401615ab79493929190618d57565b600060405180830381600087803b158015615ad157600080fd5b505af1158015615ae5573d6000803e3d6000fd5b50505050615b157f96708001c8eb8d2a11f3f7efd56bb80332e2291d3cc9eede7ce84e0854d92efd60001b61566d565b615b417f58180690720957513f1cf6fde65bb42e65f7ad508254c24a42e21154452d7abe60001b61566d565b6001905095945050505050565b6000615b7c7f52825902e1cc4bb17b422d4012ac6b07f57f04acdf12bff224638b2d5bbe737d60001b61566d565b615ba87fa67bd82e6090ec98a14bb0f87c892bc720b32744702324f0db60137c5e880c9560001b61566d565b615bd47fef3af14d1cd9e0f83dd9fdefddb4e04ec625a84167d516dfd880dfe9fee93b4e60001b61566d565b6000600360008573ffffffffffffffffffffffffffffffffffffffff1673ffffffffffffffffffffffffffffffffffffffff168152602001908152602001600020805480602002602001604051908101604052809291908181526020018280548015615c5f57602002820191906000526020600020905b815481526020019060010190808311615c4b575b50505050509050615c927f2fbf9a0f23857b01520e6234676b7381165b47d6194c8d45f1cb76f8c1e5d7cf60001b61566d565b615cbe7fe0ce0038d6446b912c1dd49c49126dac676d7c0c89bc3bf030b4b7e0717b9f3760001b61566d565b6001600360008673ffffffffffffffffffffffffffffffffffffffff1673ffffffffffffffffffffffffffffffffffffffff1681526020019081526020016000208054905003615e5057615d347f880f58817b5ce422925afc1110229ba44939b26ba9b8e674bdd1ca9d0fffd21360001b61566d565b615d607f02f963bcd9da46afb42a0969a837ac9ca16b76a3de549dc47af35df414b5756660001b61566d565b615d8c7fc15c05375d5353cac7b7c70f587e6332b45333a84454c4bf6b8dba22bf88983360001b61566d565b6000600360008673ffffffffffffffffffffffffffffffffffffffff1673ffffffffffffffffffffffffffffffffffffffff168152602001908152602001600020600081548110615de057615ddf618618565b5b9060005260206000200181905550615e1a7fc02046616fd540659f8ae954883ca2fceef1c6123e03a468bb7c3a4eefcf83bf60001b61566d565b615e467f3a31c30c7093ec78b9f7812af7cc2d314a2bb4ce9ff0d2a9e5f6031b2bb9271260001b61566d565b6001915050616213565b615e7c7f0f226a81c4305554594483b86a686c9b2f1402357fcedb234e535f47418eb45060001b61566d565b615ea87f4e22ad95acdf25cbd0775e743b056990390d001c832846328b480c273a6464d560001b61566d565b615ed47f44ed2c983324514202e4287a45b22da231f072103859611ef48ca75a6eec43ca60001b61566d565b60005b60018251615ee59190618714565b81101561621057615f187f4cef91ed754041b677f6cde5ef7153016abdeb8736cbec741967e2cd26e4266f60001b61566d565b615f447f7a87539a7e4e576fd5d379e6a01126aa3c58857d1d37fa53573d5742c4bb7dda60001b61566d565b83828281518110615f5857615f57618618565b5b6020026020010151036161d157615f917f8228f4579fa5e541affbbbf572f1a47f584f8a93481d9428c0a45e7354e2935760001b61566d565b615fbd7f83d14f671b52853604e5ec020f7196796921c660865eef378fc51be37118825a60001b61566d565b615fe97f95b9493a228b6ff9950557f5228e56d593ed6e66cf9cfba9fe47724a733c7c7160001b61566d565b600360008673ffffffffffffffffffffffffffffffffffffffff1673ffffffffffffffffffffffffffffffffffffffff168152602001908152602001600020600183516160369190618714565b8154811061604757616046618618565b5b9060005260206000200154600360008773ffffffffffffffffffffffffffffffffffffffff1673ffffffffffffffffffffffffffffffffffffffff16815260200190815260200160002082815481106160a3576160a2618618565b5b90600052602060002001819055506160dd7fa82ef907a6c23075fd8b46b194dbdbd6491662b87fe0b19e783eae5c7e82a36e60001b61566d565b6161097fedf1872613eaf4113d8e5634be390ecf2a7db42e311d6758d835759be4d2c2b060001b61566d565b600360008673ffffffffffffffffffffffffffffffffffffffff1673ffffffffffffffffffffffffffffffffffffffff16815260200190815260200160002080548061615857616157618daf565b5b6001900381819060005260206000200160009055905561619a7f227e66ed4b53b796ce1347ea4e7493a0931f7bb31ffaf826dceddf17f58fb81d60001b61566d565b6161c67f73298b36eb611542097abe9e05ccefd11208ae5de89524ee37a41ed1a142654660001b61566d565b600192505050616213565b6161fd7f807dd6544bfd79e6f0f149a8015e79181af364afe47b086fcf5551b9e3ff1d0e60001b61566d565b808061620890618676565b915050615ed7565b50505b92915050565b60006162477f0587bd55e138f05e63fcdd769e9f1a1aedd1a1fbc41c1e7c975901258c5689a160001b61566d565b6162737f9451c0c6b46f7681e704653d62302eb3ea46aca9a7d39cdb7115ce7d5a47587b60001b61566d565b61629f7f633a41181c8b418df5d5481e5deb1444178c389f3bc1f5e92e2fb328a523c1f660001b61566d565b6162cb7fcd465e09cb27dffa958eb413ea3101df65dddc57a76b37dc6a8fb562ef71391660001b61566d565b600073ffffffffffffffffffffffffffffffffffffffff168573ffffffffffffffffffffffffffffffffffffffff160361633a576040517f08c379a000000000000000000000000000000000000000000000000000000000815260040161633190618e50565b60405180910390fd5b6163667f265fcfe6dd9a3b2b7eb46a4a37d521e7b31936d2668f69a6247869062fd77a7c60001b61566d565b6163927f05432fdf1d5ab1443c06470b29bba65294223222cd0cd59f6e1da8a35fd31e9460001b61566d565b6163be7f44257a2c1c5ae8e792d8f358763c2015f464f7b9a85c62b113d1cf9f6b71997f60001b61566d565b6163ea7f116f2e33c9ece36e02ebb61671214bca9c3c2f38fdc9aee954507fd73673dbe660001b61566d565b600060038111156163fe576163fd6184b4565b5b60ff168260ff1611801561642a57506003808111156164205761641f6184b4565b5b60ff168260ff1611155b616469576040517f08c379a000000000000000000000000000000000000000000000000000000000815260040161646090618ee2565b60405180910390fd5b6164957fe598e8a87fbfcc7e13e7b22cdf720df6ce2fbc9491c546d322768a138414504060001b61566d565b6164c17ff68fc2e13ef2b05a3d3a0a05e8c1d9c9d4a7d68b5ca46dfb240c08cc921ba75760001b61566d565b6164ed7f32dcc36ade98e28fbdb54b0a48cb298c8459445e5b1851231d45418e7e9036e160001b61566d565b6165197fc95db4cba59c0ecd5c2c3ef9d3eba05286f671754ae27818f557882a7d7e217260001b61566d565b6000841161655c576040517f08c379a000000000000000000000000000000000000000000000000000000000815260040161655390618f74565b60405180910390fd5b6165887f43719c5b65567bd93ca5b67bf9319ea9928bc59efbae23600cd0eaeeba833cf660001b61566d565b6165b47fac144a7bf3182ed8362a978d7813d3953e22e107431c37c66292aaded0d70e9460001b61566d565b6165e07fcb70b045d0ad8e64d1aa76186c21850dcd8e77424896385b228b0940e8ed25a560001b61566d565b61660c7f85e8543e17bb36e259aa8325b87893224100247a6bec9d496cb0d9c8d14c0b8660001b61566d565b6000831161664f576040517f08c379a000000000000000000000000000000000000000000000000000000000815260040161664690619006565b60405180910390fd5b61667b7f6ab1be9cb1c51a80bfc1e8f0f49ac7526c58987546be726be32981e99342623160001b61566d565b6166a77f4d506cb20d027954d6a6087d5b1630c4cf38f8b37e20c8809e8ee60964ca888560001b61566d565b6166d37f55c3e294b24a7e340951d45646c3f3147292e1abbd1f255f6be50c621004ce9460001b61566d565b60019050949350505050565b600061670d7f32ebbdb95f3e904cc28b293edff1b2be7dfefd8df951a32ea65be7868ec0c11860001b61566d565b6167397f57534a2e226bab107f1e0f7b7006b031cbba5c12a0254b36d34713cae0aad07f60001b61566d565b6167657f3cdb3783c1e3c909ba3f981f221a432d919c320631d511bd0c7922e0c055254360001b61566d565b6167917f999bce3af24298c82d6c3be4ad934a412b206e45c7c6738f8fd018ef92a3fb1d60001b61566d565b8373ffffffffffffffffffffffffffffffffffffffff166370a08231866040518263ffffffff1660e01b81526004016167ca9190619026565b602060405180830381865afa1580156167e7573d6000803e3d6000fd5b505050506040513d601f19601f8201168201806040525081019061680b9190619056565b83111561684d576040517f08c379a0000000000000000000000000000000000000000000000000000000008152600401616844906190f5565b60405180910390fd5b6168797fb30d226cd79f95bad282e2ff876ff0938dab559b372f7f6c34f18876a0d3342d60001b61566d565b6168a57f1cd2b1db6aa52ff4803c7bbfd9f1f10267f36932075aec1b837e65c9e46e0c9660001b61566d565b6168d17fb56ad6c534b1621f5995fa5ee3ab57d2f4bc853fb144a2b912a5c850b32b6c9860001b61566d565b8115616a76576169037f2dd5cf0fbc9d1ec918dbcdad4975e2b9d33d7f0b3eced5594910ab9ec612bbad60001b61566d565b61692f7f9e10a6e0ac5f32ce2f213c480e9ee3217e622198bc2f1d2a39e9bee0d61154dc60001b61566d565b61695b7fba8cb337286ecdaa0a22ba0e1995b363d0ceda12c31d8724c9643be77fc69c5f60001b61566d565b6169877faae62b458b71d8477136ea92236b667f76f3d8b50656832653556b539d14654160001b61566d565b8373ffffffffffffffffffffffffffffffffffffffff1663dd62ed3e86306040518363ffffffff1660e01b81526004016169c2929190619115565b602060405180830381865afa1580156169df573d6000803e3d6000fd5b505050506040513d601f19601f82011682018060405250810190616a039190619056565b831115616a45576040517f08c379a0000000000000000000000000000000000000000000000000000000008152600401616a3c906191b0565b60405180910390fd5b616a717fb18956bf6356f997725efb5e990f8619911eda0db9116303891e1ec70dd1ae4f60001b61566d565b616aa3565b616aa27fc3c5bf64513c679614ff41c3becfa8942e828d723d0c3b771a1caa5c79af241360001b61566d565b5b616acf7fb538202522a7f3d4df59ec76061dbf8b7afad2d7a333fef9a48819b006f0a9e460001b61566d565b616afb7f8f1b23a4f073ad2090272647dff4a649a5f08b744eef5431f36a5fa1575e780760001b61566d565b60019050949350505050565b6000616b357ff2f9f954a83b9529da6f978b75fae2d2834e33a668bcc245b1b954e66d37cc1d60001b61566d565b616b617f79191f862d628e64abe6353f097e95293d5554f15dd6a4b177083b82fbfc5e2a60001b61566d565b616b8d7f2cbc4d83542f721851aca6b5f2ac00277ce141acfcc7523e2f340bce8bc3e41660001b61566d565b616bb97fe3649b30a390feefedd48c985e6823d8502e8555f25d877243d927180ba5fb3260001b61566d565b8373ffffffffffffffffffffffffffffffffffffffff16636352211e846040518263ffffffff1660e01b8152600401616bf291906178c7565b602060405180830381865afa158015616c0f573d6000803e3d6000fd5b505050506040513d601f19601f82011682018060405250810190616c3391906191e5565b73ffffffffffffffffffffffffffffffffffffffff168573ffffffffffffffffffffffffffffffffffffffff1614616ca0576040517f08c379a0000000000000000000000000000000000000000000000000000000008152600401616c9790619284565b60405180910390fd5b616ccc7f4eed99d20979e5932d99522d58be613eb8528732c2a652a1938bf457c8c79a6360001b61566d565b616cf87ff9b605dfa2d456d46ae75c5383c17ad25a991cd36e58e71ce19579d4d3613ecb60001b61566d565b616d247ff82e9aad0ab53ecf0f24c8dbfbda756d4a518aaf5dfdb79490bfd7f66810ddd660001b61566d565b8115616ec657616d567f4a9971660cadcbaf04983cfe8b13b4c6be5b268aa98f6afa2329e2c901e9486860001b61566d565b616d827f6af036ce230b2640790ad1854d5be4e7126b733e43f366b96a305e877148d43360001b61566d565b616dae7ffd7bbe1d91526d2b121f360596122d105737e9d41900c6e8f3c4ccdf4eece77860001b61566d565b616dda7fa8c6cb0dcaa9a43cde93e532ec1303072c176e8cb967fb6620c27acaf0dbbaca60001b61566d565b8373ffffffffffffffffffffffffffffffffffffffff1663e985e9c586306040518363ffffffff1660e01b8152600401616e15929190619115565b602060405180830381865afa158015616e32573d6000803e3d6000fd5b505050506040513d601f19601f82011682018060405250810190616e5691906192d0565b616e95576040517f08c379a0000000000000000000000000000000000000000000000000000000008152600401616e8c9061936f565b60405180910390fd5b616ec17fdb78d835b1a12635957fe0f4d144e56da96b9cd01bdb3fa598b7a1122dfbcd1f60001b61566d565b616ef3565b616ef27f8c76ce3cc737f141e3b0226fe1646db5e06a9020af03886ebd30ed01e8a352a760001b61566d565b5b616f1f7f27d4a8b64c3be1746edb11cd428d85ed0f181c91cb406f5040511b43b8c889f660001b61566d565b616f4b7f1f10250134302586f42c0218fa5a2728abcf8e87545dc5f8ba12a917d2a501cf60001b61566d565b60019050949350505050565b6000616f857fd006a04be24bdff18175bd7a10f232422cd0dab80d128462d3e7487082e0961760001b61566d565b616fb17fa97e83cfc6971d5b8bc21c0c9fe2876267edc76ee6ed39904abe7e94be63779360001b61566d565b616fdd7fb3699d85a292e5afd292c6ca243c82ae263aa2c7e7e8f51a08b8d292594147e960001b61566d565b6170097f1ae485edc06df493400f911195c591f25003900e3ac4ea8fc10794cdd50b043a60001b61566d565b6000831161704c576040517f08c379a000000000000000000000000000000000000000000000000000000000815260040161704390619401565b60405180910390fd5b6170787fff073cd67659122b4541c030a192986840096b96e4c0e550a5b4745cbc27b1fb60001b61566d565b6170a47fdb64be1816bf700fcbf74910e1d3f7d14394849775e8fe5595836e358aeeb38760001b61566d565b6170d07f5a9b83fed5f20384d26668b0f0a030aff35d7ef1706718295b0880bfa2ebfe4960001b61566d565b6170fc7f06ac467ba6f1f37de2122dcac8c8855816bbe268db45675efd4638c42d7d3c3a60001b61566d565b60008411801561718657508473ffffffffffffffffffffffffffffffffffffffff1662fdd58e87856040518363ffffffff1660e01b8152600401617141929190619421565b602060405180830381865afa15801561715e573d6000803e3d6000fd5b505050506040513d601f19601f820116820180604052508101906171829190619056565b8411155b6171c5576040517f08c379a00000000000000000000000000000000000000000000000000000000081526004016171bc906194bc565b60405180910390fd5b6171f17f4cc6153c8d4e12d94bed94a7017be19b19a8d15b530cbaae5a73a6407512357360001b61566d565b61721d7fc8222f1802c3a25eaea56fabdf2d745e4f7d2268f9738811508c5957a56cb9f360001b61566d565b6172497f972031279bebcb3c35a4cd060790fb7e73369d8328a5882521153310cd2c6cc860001b61566d565b81156173eb5761727b7f515ecff5f7b6c45494bb573866cf4d5f71c085113ab2d1ef5779f92a5675537960001b61566d565b6172a77f2c4769bd7191d17e99b76f4f30e0214ff230011c0c44d5901df137d0ed89cd5a60001b61566d565b6172d37f02889dcbf95627a67661ed0047d1f42bc220cb3033f5a0b84aacd350c83803e860001b61566d565b6172ff7fa27ce8e62ec207eafb9203ade3bbf3df1f1c68a361ec97ddb9c75a645bf3c00b60001b61566d565b8473ffffffffffffffffffffffffffffffffffffffff1663e985e9c587306040518363ffffffff1660e01b815260040161733a929190619115565b602060405180830381865afa158015617357573d6000803e3d6000fd5b505050506040513d601f19601f8201168201806040525081019061737b91906192d0565b6173ba576040517f08c379a00000000000000000000000000000000000000000000000000000000081526004016173b19061954e565b60405180910390fd5b6173e67f8431a6b54b57fe468f417e9d6e68370c451a4d550f93ca7acb9674721e5657be60001b61566d565b617418565b6174177f556628703634fdb9fcf29296047c076334aeecf9fed27f66c18825fbb514680460001b61566d565b5b6174447f5c6739f31541c8e6a7711b16c061afa5878cf66c7c117b293994bd747641c33d60001b61566d565b6174707fc5972cf290ec49fac0d9977dd86c1a559d5266020a40e1e48a4b03047f39d32660001b61566d565b6001905095945050505050565b50565b617503846323b872dd60e01b8585856040516024016174a19392919061956e565b604051602081830303815290604052907bffffffffffffffffffffffffffffffffffffffffffffffffffffffff19166020820180517bffffffffffffffffffffffffffffffffffffffffffffffffffffffff8381831617835250505050617509565b50505050565b600061756b826040518060400160405280602081526020017f5361666545524332303a206c6f772d6c6576656c2063616c6c206661696c65648152508573ffffffffffffffffffffffffffffffffffffffff166175d09092919063ffffffff16565b90506000815111156175cb578080602001905181019061758b91906192d0565b6175ca576040517f08c379a00000000000000000000000000000000000000000000000000000000081526004016175c190619617565b60405180910390fd5b5b505050565b60606175df84846000856175e8565b90509392505050565b60608247101561762d576040517f08c379a0000000000000000000000000000000000000000000000000000000008152600401617624906196a9565b60405180910390fd5b617636856176fc565b617675576040517f08c379a000000000000000000000000000000000000000000000000000000000815260040161766c90619715565b60405180910390fd5b6000808673ffffffffffffffffffffffffffffffffffffffff16858760405161769e91906197af565b60006040518083038185875af1925050503d80600081146176db576040519150601f19603f3d011682016040523d82523d6000602084013e6176e0565b606091505b50915091506176f082828661771f565b92505050949350505050565b6000808273ffffffffffffffffffffffffffffffffffffffff163b119050919050565b6060831561772f5782905061777f565b6000835111156177425782518084602001fd5b816040517f08c379a0000000000000000000000000000000000000000000000000000000008152600401617776919061980a565b60405180910390fd5b9392505050565b6000604051905090565b600080fd5b600080fd5b60007fffffffff0000000000000000000000000000000000000000000000000000000082169050919050565b6177cf8161779a565b81146177da57600080fd5b50565b6000813590506177ec816177c6565b92915050565b60006020828403121561780857617807617790565b5b6000617816848285016177dd565b91505092915050565b60008115159050919050565b6178348161781f565b82525050565b600060208201905061784f600083018461782b565b92915050565b6000819050919050565b61786881617855565b811461787357600080fd5b50565b6000813590506178858161785f565b92915050565b6000602082840312156178a1576178a0617790565b5b60006178af84828501617876565b91505092915050565b6178c181617855565b82525050565b60006020820190506178dc60008301846178b8565b92915050565b600073ffffffffffffffffffffffffffffffffffffffff82169050919050565b600061790d826178e2565b9050919050565b61791d81617902565b811461792857600080fd5b50565b60008135905061793a81617914565b92915050565b600080fd5b600080fd5b6000601f19601f8301169050919050565b7f4e487b7100000000000000000000000000000000000000000000000000000000600052604160045260246000fd5b6179938261794a565b810181811067ffffffffffffffff821117156179b2576179b161795b565b5b80604052505050565b60006179c5617786565b90506179d1828261798a565b919050565b600067ffffffffffffffff8211156179f1576179f061795b565b5b6179fa8261794a565b9050602081019050919050565b82818337600083830152505050565b6000617a29617a24846179d6565b6179bb565b905082815260208101848484011115617a4557617a44617945565b5b617a50848285617a07565b509392505050565b600082601f830112617a6d57617a6c617940565b5b8135617a7d848260208601617a16565b91505092915050565b60008060008060808587031215617aa057617a9f617790565b5b6000617aae8782880161792b565b9450506020617abf8782880161792b565b9350506040617ad087828801617876565b925050606085013567ffffffffffffffff811115617af157617af0617795565b5b617afd87828801617a58565b91505092959194509250565b617b128161779a565b82525050565b6000602082019050617b2d6000830184617b09565b92915050565b617b3c81617902565b82525050565b600060ff82169050919050565b617b5881617b42565b82525050565b6000606082019050617b736000830186617b33565b617b806020830185617b33565b617b8d6040830184617b4f565b949350505050565b600060208284031215617bab57617baa617790565b5b6000617bb98482850161792b565b91505092915050565b600081519050919050565b600082825260208201905092915050565b6000819050602082019050919050565b617bf781617855565b82525050565b6000617c098383617bee565b60208301905092915050565b6000602082019050919050565b6000617c2d82617bc2565b617c378185617bcd565b9350617c4283617bde565b8060005b83811015617c73578151617c5a8882617bfd565b9750617c6583617c15565b925050600181019050617c46565b5085935050505092915050565b60006020820190508181036000830152617c9a8184617c22565b905092915050565b600067ffffffffffffffff821115617cbd57617cbc61795b565b5b602082029050602081019050919050565b600080fd5b6000617ce6617ce184617ca2565b6179bb565b90508083825260208201905060208402830185811115617d0957617d08617cce565b5b835b81811015617d325780617d1e888261792b565b845260208401935050602081019050617d0b565b5050509392505050565b600082601f830112617d5157617d50617940565b5b8135617d61848260208601617cd3565b91505092915050565b600067ffffffffffffffff821115617d8557617d8461795b565b5b602082029050602081019050919050565b6000617da9617da484617d6a565b6179bb565b90508083825260208201905060208402830185811115617dcc57617dcb617cce565b5b835b81811015617df55780617de18882617876565b845260208401935050602081019050617dce565b5050509392505050565b600082601f830112617e1457617e13617940565b5b8135617e24848260208601617d96565b91505092915050565b600067ffffffffffffffff821115617e4857617e4761795b565b5b602082029050602081019050919050565b617e6281617b42565b8114617e6d57600080fd5b50565b600081359050617e7f81617e59565b92915050565b6000617e98617e9384617e2d565b6179bb565b90508083825260208201905060208402830185811115617ebb57617eba617cce565b5b835b81811015617ee45780617ed08882617e70565b845260208401935050602081019050617ebd565b5050509392505050565b600082601f830112617f0357617f02617940565b5b8135617f13848260208601617e85565b91505092915050565b60008060008060008060008060006101208a8c031215617f3f57617f3e617790565b5b60008a013567ffffffffffffffff811115617f5d57617f5c617795565b5b617f698c828d01617d3c565b99505060208a013567ffffffffffffffff811115617f8a57617f89617795565b5b617f968c828d01617dff565b98505060408a013567ffffffffffffffff811115617fb757617fb6617795565b5b617fc38c828d01617dff565b97505060608a013567ffffffffffffffff811115617fe457617fe3617795565b5b617ff08c828d01617eee565b96505060806180018c828d0161792b565b95505060a08a013567ffffffffffffffff81111561802257618021617795565b5b61802e8c828d01617d3c565b94505060c08a013567ffffffffffffffff81111561804f5761804e617795565b5b61805b8c828d01617dff565b93505060e08a013567ffffffffffffffff81111561807c5761807b617795565b5b6180888c828d01617dff565b9250506101008a013567ffffffffffffffff8111156180aa576180a9617795565b5b6180b68c828d01617eee565b9150509295985092959850929598565b60006180d1826178e2565b9050919050565b6180e1816180c6565b81146180ec57600080fd5b50565b6000813590506180fe816180d8565b92915050565b60006020828403121561811a57618119617790565b5b6000618128848285016180ef565b91505092915050565b6000806040838503121561814857618147617790565b5b600061815685828601617876565b92505060206181678582860161792b565b9150509250929050565b600081519050919050565b600082825260208201905092915050565b6000819050602082019050919050565b6181a681617902565b82525050565b60006181b8838361819d565b60208301905092915050565b6000602082019050919050565b60006181dc82618171565b6181e6818561817c565b93506181f18361818d565b8060005b8381101561822257815161820988826181ac565b9750618214836181c4565b9250506001810190506181f5565b5085935050505092915050565b600081519050919050565b600082825260208201905092915050565b6000819050602082019050919050565b61826481617b42565b82525050565b6000618276838361825b565b60208301905092915050565b6000602082019050919050565b600061829a8261822f565b6182a4818561823a565b93506182af8361824b565b8060005b838110156182e05781516182c7888261826a565b97506182d283618282565b9250506001810190506182b3565b5085935050505092915050565b6000608082019050818103600083015261830781876181d1565b9050818103602083015261831b8186617c22565b9050818103604083015261832f8185617c22565b90508181036060830152618343818461828f565b905095945050505050565b600080600080600060a0868803121561836a57618369617790565b5b60006183788882890161792b565b95505060206183898882890161792b565b945050604086013567ffffffffffffffff8111156183aa576183a9617795565b5b6183b688828901617dff565b935050606086013567ffffffffffffffff8111156183d7576183d6617795565b5b6183e388828901617dff565b925050608086013567ffffffffffffffff81111561840457618403617795565b5b61841088828901617a58565b9150509295509295909350565b600080600080600060a0868803121561843957618438617790565b5b60006184478882890161792b565b95505060206184588882890161792b565b945050604061846988828901617876565b935050606061847a88828901617876565b925050608086013567ffffffffffffffff81111561849b5761849a617795565b5b6184a788828901617a58565b9150509295509295909350565b7f4e487b7100000000000000000000000000000000000000000000000000000000600052602160045260246000fd5b600082825260208201905092915050565b7f5745423342415a4141525f4552524f523a2054524144455f535441545553204960008201527f534e542043524541544544000000000000000000000000000000000000000000602082015250565b6000618550602b836184e3565b915061855b826184f4565b604082019050919050565b6000602082019050818103600083015261857f81618543565b9050919050565b7f5745423342415a4141525f4552524f523a2043414c4c455220494e535420544860008201527f4520455845435554455200000000000000000000000000000000000000000000602082015250565b60006185e2602a836184e3565b91506185ed82618586565b604082019050919050565b60006020820190508181036000830152618611816185d5565b9050919050565b7f4e487b7100000000000000000000000000000000000000000000000000000000600052603260045260246000fd5b7f4e487b7100000000000000000000000000000000000000000000000000000000600052601160045260246000fd5b600061868182617855565b91507fffffffffffffffffffffffffffffffffffffffffffffffffffffffffffffffff82036186b3576186b2618647565b5b600182019050919050565b60006186c982617855565b91506186d483617855565b9250827fffffffffffffffffffffffffffffffffffffffffffffffffffffffffffffffff0382111561870957618708618647565b5b828201905092915050565b600061871f82617855565b915061872a83617855565b92508282101561873d5761873c618647565b5b828203905092915050565b7f5745423342415a4141525f4552524f523a2045584543555445522049534e542060008201527f43524541544f52204f5220455845435554455200000000000000000000000000602082015250565b60006187a46033836184e3565b91506187af82618748565b604082019050919050565b600060208201905081810360008301526187d381618797565b9050919050565b7f5745423342415a4141525f4552524f523a2045584543555445525f414444524560008201527f53535f4e4f545f56414c49440000000000000000000000000000000000000000602082015250565b6000618836602c836184e3565b9150618841826187da565b604082019050919050565b6000602082019050818103600083015261886581618829565b9050919050565b7f5745423342415a4141525f4552524f523a2043524541544f525f414e445f455860008201527f4543555445525f4152455f455155414c00000000000000000000000000000000602082015250565b60006188c86030836184e3565b91506188d38261886c565b604082019050919050565b600060208201905081810360008301526188f7816188bb565b9050919050565b7f5745423342415a4141525f4552524f523a2043524541544f525f544f4b454e5f60008201527f414444524553535f454d50545900000000000000000000000000000000000000602082015250565b600061895a602d836184e3565b9150618965826188fe565b604082019050919050565b600060208201905081810360008301526189898161894d565b9050919050565b7f5745423342415a4141525f4552524f523a2045584543555445525f544f4b454e60008201527f5f414444524553535f454d505459000000000000000000000000000000000000602082015250565b60006189ec602e836184e3565b91506189f782618990565b604082019050919050565b60006020820190508181036000830152618a1b816189df565b9050919050565b7f5745423342415a41525f5041524d533a43524541544f525f5041524d535f4c4560008201527f4e5f4552524f5200000000000000000000000000000000000000000000000000602082015250565b6000618a7e6027836184e3565b9150618a8982618a22565b604082019050919050565b60006020820190508181036000830152618aad81618a71565b9050919050565b7f5745423342415a41525f5041524d533a45584543555445525f5041524d535f4c60008201527f454e5f4552524f52000000000000000000000000000000000000000000000000602082015250565b6000618b106028836184e3565b9150618b1b82618ab4565b604082019050919050565b60006020820190508181036000830152618b3f81618b03565b9050919050565b7f4552525f4e4f545f4f574e455200000000000000000000000000000000000000600082015250565b6000618b7c600d836184e3565b9150618b8782618b46565b602082019050919050565b60006020820190508181036000830152618bab81618b6f565b9050919050565b7f4552525f414444525f4e4f545f4f574e45520000000000000000000000000000600082015250565b6000618be86012836184e3565b9150618bf382618bb2565b602082019050919050565b60006020820190508181036000830152618c1781618bdb565b9050919050565b7f4552525f5a45524f5f4144445200000000000000000000000000000000000000600082015250565b6000618c54600d836184e3565b9150618c5f82618c1e565b602082019050919050565b60006020820190508181036000830152618c8381618c47565b9050919050565b600082825260208201905092915050565b50565b6000618cab600083618c8a565b9150618cb682618c9b565b600082019050919050565b6000608082019050618cd66000830186617b33565b618ce36020830185617b33565b618cf060408301846178b8565b8181036060830152618d0181618c9e565b9050949350505050565b7f3078303100000000000000000000000000000000000000000000000000000000600082015250565b6000618d41600483618c8a565b9150618d4c82618d0b565b602082019050919050565b600060a082019050618d6c6000830187617b33565b618d796020830186617b33565b618d8660408301856178b8565b618d9360608301846178b8565b8181036080830152618da481618d34565b905095945050505050565b7f4e487b7100000000000000000000000000000000000000000000000000000000600052603160045260246000fd5b7f5745423342415a4141525f4552524f523a20434f4e54524143545f544f4b454e60008201527f5f414444524553535f49535f5a45524f00000000000000000000000000000000602082015250565b6000618e3a6030836184e3565b9150618e4582618dde565b604082019050919050565b60006020820190508181036000830152618e6981618e2d565b9050919050565b7f5745423342415a41525f4552524f523a204e4f545f56414c49445f545241444560008201527f5f54595045000000000000000000000000000000000000000000000000000000602082015250565b6000618ecc6025836184e3565b9150618ed782618e70565b604082019050919050565b60006020820190508181036000830152618efb81618ebf565b9050919050565b7f5745423342415a41525f4552524f523a20544f4b454e49445f4d5553545f504f60008201527f5349544956450000000000000000000000000000000000000000000000000000602082015250565b6000618f5e6026836184e3565b9150618f6982618f02565b604082019050919050565b60006020820190508181036000830152618f8d81618f51565b9050919050565b7f5745423342415a41525f4552524f523a20414d4f554e545f4d5553545f504f5360008201527f4954495645000000000000000000000000000000000000000000000000000000602082015250565b6000618ff06025836184e3565b9150618ffb82618f94565b604082019050919050565b6000602082019050818103600083015261901f81618fe3565b9050919050565b600060208201905061903b6000830184617b33565b92915050565b6000815190506190508161785f565b92915050565b60006020828403121561906c5761906b617790565b5b600061907a84828501619041565b91505092915050565b7f5745423342415a4141525f4552524f523a204552525f4e4f545f454e4f55474860008201527f5f46554e44535f45524332300000000000000000000000000000000000000000602082015250565b60006190df602c836184e3565b91506190ea82619083565b604082019050919050565b6000602082019050818103600083015261910e816190d2565b9050919050565b600060408201905061912a6000830185617b33565b6191376020830184617b33565b9392505050565b7f5745423342415a41525f4552524f523a204552525f4e4f545f414c4c4f575f5360008201527f50454e445f46554e445300000000000000000000000000000000000000000000602082015250565b600061919a602a836184e3565b91506191a58261913e565b604082019050919050565b600060208201905081810360008301526191c98161918d565b9050919050565b6000815190506191df81617914565b92915050565b6000602082840312156191fb576191fa617790565b5b6000619209848285016191d0565b91505092915050565b7f5745423342415a4141525f4552524f523a204552525f4e4f545f4f574e5f494460008201527f5f45524337323100000000000000000000000000000000000000000000000000602082015250565b600061926e6027836184e3565b915061927982619212565b604082019050919050565b6000602082019050818103600083015261929d81619261565b9050919050565b6192ad8161781f565b81146192b857600080fd5b50565b6000815190506192ca816192a4565b92915050565b6000602082840312156192e6576192e5617790565b5b60006192f4848285016192bb565b91505092915050565b7f5745423342415a41525f4552524f523a204552525f4e4f545f414c4c4f575f5460008201527f4f5f5452414e5345525f4954454e535f45524337323100000000000000000000602082015250565b60006193596036836184e3565b9150619364826192fd565b604082019050919050565b600060208201905081810360008301526193888161934c565b9050919050565b7f5745423342415a4141525f4552524f523a205354414b455f455243313135355f60008201527f49445f53484f554c445f475245415445525f5448454e5f300000000000000000602082015250565b60006193eb6038836184e3565b91506193f68261938f565b604082019050919050565b6000602082019050818103600083015261941a816193de565b9050919050565b60006040820190506194366000830185617b33565b61944360208301846178b8565b9392505050565b7f5745423342415a4141525f4552524f523a204552525f4e4f545f454e4f55474860008201527f5f46554e44535f45524331313535000000000000000000000000000000000000602082015250565b60006194a6602e836184e3565b91506194b18261944a565b604082019050919050565b600060208201905081810360008301526194d581619499565b9050919050565b7f5745423342415a41525f4552524f523a204552525f4e4f545f414c4c4f575f5460008201527f4f5f5452414e5345525f4954454e535f45524331313535000000000000000000602082015250565b60006195386037836184e3565b9150619543826194dc565b604082019050919050565b600060208201905081810360008301526195678161952b565b9050919050565b60006060820190506195836000830186617b33565b6195906020830185617b33565b61959d60408301846178b8565b949350505050565b7f5361666545524332303a204552433230206f7065726174696f6e20646964206e60008201527f6f74207375636365656400000000000000000000000000000000000000000000602082015250565b6000619601602a836184e3565b915061960c826195a5565b604082019050919050565b60006020820190508181036000830152619630816195f4565b9050919050565b7f416464726573733a20696e73756666696369656e742062616c616e636520666f60008201527f722063616c6c0000000000000000000000000000000000000000000000000000602082015250565b60006196936026836184e3565b915061969e82619637565b604082019050919050565b600060208201905081810360008301526196c281619686565b9050919050565b7f416464726573733a2063616c6c20746f206e6f6e2d636f6e7472616374000000600082015250565b60006196ff601d836184e3565b915061970a826196c9565b602082019050919050565b6000602082019050818103600083015261972e816196f2565b9050919050565b600081519050919050565b600081905092915050565b60005b8381101561976957808201518184015260208101905061974e565b83811115619778576000848401525b50505050565b600061978982619735565b6197938185619740565b93506197a381856020860161974b565b80840191505092915050565b60006197bb828461977e565b915081905092915050565b600081519050919050565b60006197dc826197c6565b6197e681856184e3565b93506197f681856020860161974b565b6197ff8161794a565b840191505092915050565b6000602082019050818103600083015261982481846197d1565b90509291505056fea2646970667358221220534ca01f481e717700ffbf71062f51118adc7129f672edbd01de2a4ffc834d4c64736f6c634300080e0033",
  "immutableReferences": {},
  "source": "// SPDX-License-Identifier: MIT\npragma solidity 0.8.14;\nfunction c_0x7f183659(bytes32 c__0x7f183659) pure {}\n\n\nimport \"@openzeppelin/contracts/token/ERC20/IERC20.sol\";\nimport \"@openzeppelin/contracts/token/ERC20/utils/SafeERC20.sol\";\nimport \"@openzeppelin/contracts/token/ERC1155/ERC1155.sol\";\nimport \"@openzeppelin/contracts/token/ERC721/ERC721.sol\";\nimport \"@openzeppelin/contracts/token/ERC1155/utils/ERC1155Holder.sol\";\nimport \"@openzeppelin/contracts/token/ERC721/utils/ERC721Holder.sol\";\nimport \"@openzeppelin/contracts/utils/Context.sol\";\n\n/// @author drBrown\n/// @title MultiAccessControl contract\ncontract MultiAccessControl {\nfunction c_0x0b167a52(bytes32 c__0x0b167a52) internal pure {}\n\n    mapping(address => bool) internal _owners;\n\n    modifier isOwner() {c_0x0b167a52(0x4e01c8990009f5565b8cca8058068ee7bb901534518e641abdd3a1ce22430f46); /* function */ \n\nc_0x0b167a52(0x95879a5412f0389920f95eda8329b4debe4cd5124c35735111acbea6540510b2); /* line */ \n        c_0x0b167a52(0xb50ff9557577824f9225b0225089d5e46704879296347b6c4c2cc4647b2036e3); /* requirePre */ \nc_0x0b167a52(0x4e0a8863079af0373e0c5c925db1f018430f2db64d314cc9279e40cd72a4cf0a); /* statement */ \nrequire(_owners[msg.sender] == true, \"ERR_NOT_OWNER\");c_0x0b167a52(0xbe69170a29816e561f47cd676339a8396d06e803a8fc0d6d93d1cd174a7a1492); /* requirePost */ \n\nc_0x0b167a52(0xd7403a287d749f17e4ae2050e7b8b996eee106ff5b6510888d07e893d1774f79); /* line */ \n        _;\n    }\n\n    constructor() {c_0x0b167a52(0x8a4d28d3016c7420790906de72dd384c4de505dc5cc6a363acec50ed37e7336e); /* function */ \n\nc_0x0b167a52(0xeecc2ff2126c3f056972c2145427c4a62dabd7e3b65cd0b1114fc5d2d4f04f64); /* line */ \n        c_0x0b167a52(0xaff8edf95aa3f557276bd89f9b56139ba8f54d960573577ca8e08614b373614d); /* statement */ \n_owners[msg.sender] = true;\n    }\n\n    function addOwnership(address payable newOwner) external isOwner {c_0x0b167a52(0x6626439242a4e07e8ffb0f490b80d9f3655647fe7a3a169f1cdb08ff214a6904); /* function */ \n\nc_0x0b167a52(0x611e3a11ae8ce0a01491e203568a6de35f5f8606943ceb850b75e91cf3e913b5); /* line */ \n        c_0x0b167a52(0x254522ea6a214c3efd4efba584a9e1e0e86e675dd1e0e10f88be904170a83e04); /* requirePre */ \nc_0x0b167a52(0xa0975796ec9fd6ed95914dcc19cb0041059463587b5a1fa795f87b977e49ff3d); /* statement */ \nrequire(newOwner != address(0), \"ERR_ZERO_ADDR\");c_0x0b167a52(0x544b949d11a3d508060047ad5a4f9842719898f86299f9a315f8bebcde92c4f8); /* requirePost */ \n\nc_0x0b167a52(0x55b7aeff4095d6bbe4599597e2b7f4f1378b58ed3b32cc69979426e64c704716); /* line */ \n        c_0x0b167a52(0x58cb21faf543df8e0bb8b893d0614bd7b28432b23b56a90e2f7a81830cc21d4e); /* statement */ \n_owners[newOwner] = true;\n    }\n\n    function removeOwnership(address payable existingOwner) external isOwner {c_0x0b167a52(0x1a37b06a8a95ee91e291f97840e7183514848c8d4042f6008fb8d5011dbe9943); /* function */ \n\nc_0x0b167a52(0xb6075601ccda6af5092fcf38a7588a91be90eeab4692086ddcb55be3f107e19b); /* line */ \n        c_0x0b167a52(0x596654066e3bf12828ab2a1a2df18c051090aabf50089878631bb0aa27ce514f); /* requirePre */ \nc_0x0b167a52(0xe895025d8d11a364ca783d5c876450c13c4875ed2031ee182f7c01ffb7416841); /* statement */ \nrequire(_owners[existingOwner] == true, \"ERR_ADDR_NOT_OWNER\");c_0x0b167a52(0x5a350a4cdd461011b07002fb007943b49c0b46983943ecc5173ce679ddd81831); /* requirePost */ \n\nc_0x0b167a52(0x0451d25bc9f83ae03643b13db45e0abc5a1317fdbd6e1049de1a851db0a65989); /* line */ \n        c_0x0b167a52(0x9c333e3f90f9db3f295f24ba43e9a3e724befa0c862890fe588f77a22184cd82); /* statement */ \n_owners[existingOwner] = false;\n    }\n}\n\n/// @author drBrown\n/// @title Web3BazaarEscrow contract\ncontract Web3BazaarEscrow is\n    Context,\n    ERC1155Holder,\n    ERC721Holder,\n    MultiAccessControl\n{\nfunction c_0x5e51bd03(bytes32 c__0x5e51bd03) internal pure {}\n\n    event NewTrade(\n        address indexed creator,\n        address indexed executor,\n        uint256 tradeId\n    );\n    event FinishTrade(address indexed executor, uint256 tradeId);\n\n    uint256 private _tradeId;\n    mapping(uint256 => Trade) internal _transactions;\n    mapping(address => uint256[]) internal _openTrades;\n\n    uint256 public openTradeCount;\n    uint256 public totalCompletedTrade;\n\n    enum TradeStatus {\n        NON,\n        TRADE_CREATED,\n        TRADE_COMPLETED,\n        TRADE_CANCELLED\n    }\n    enum UserStatus {\n        NON,\n        OPEN,\n        DEPOSIT,\n        CLAIM\n    }\n    enum TradeType {\n        NON,\n        ERC20,\n        ERC1155,\n        ERC721\n    }\n\n    struct TradeCounterpart {\n        address contractAddr;\n        uint256 idAsset;\n        uint256 amount;\n        TradeType traderType;\n        UserStatus traderStatus;\n    }\n    struct Trade {\n        address creator;\n        address executor;\n        uint256 id;\n        mapping(address => TradeUser) _traders;\n        TradeStatus tradeStatus;\n    }\n    struct TradeUser {\n        uint256[] tokenAddressIdx;\n        mapping(uint256 => TradeCounterpart) _counterpart;\n    }\n\n    constructor() MultiAccessControl() {c_0x5e51bd03(0x06186cae3d9aec97f03a0d7c6a8d11bb60d89e01cd9042a0b81f8834faf2386b); /* function */ \n\nc_0x5e51bd03(0x3910c50f3b329af42b3ba79e1d1ef24c9dc1cb46840b92af9b01279aa865a09e); /* line */ \n        c_0x5e51bd03(0x594b2e2289fd3f7a2faa29a8e69ca851c37c54ecbc188df3054b59eea2ff9fe2); /* statement */ \nopenTradeCount = 0;\nc_0x5e51bd03(0xc81d80ba28a8013069dc950af238b5e0e3c215b66b9020b38eb4004b7181b885); /* line */ \n        c_0x5e51bd03(0x3545153257d3ca322df103026634faee269508aa58af19bd475e01a8fce4a6da); /* statement */ \ntotalCompletedTrade = 0;\n    }\n\n    // External functions\n\n    /// cancelTrade -  To invalidate an already created trade. Can be called by both the trade creator or executor\n    /// @param tradeId to cancel\n    /// @dev changes the status of the trade to cancelled\n    /// @return all true  if trade was cancelled\n    function cancelTrade(uint256 tradeId) external returns (bool) {c_0x5e51bd03(0xb39deaf1058e03c74657df116b191caf2b301166ff2f7537c79a21bddc7f1e4c); /* function */ \n\nc_0x5e51bd03(0x8ab9ec8b26c8a987b56cacbd4917f77a0e164c26f298f0e88019d1a1ea980aff); /* line */ \n        c_0x5e51bd03(0xe6d2611387e766163806edd7d6981e9e43067d458cfbba37be2f6b516b5a1a3e); /* statement */ \nTrade storage store = _transactions[tradeId];\nc_0x5e51bd03(0xdd2f7716729ac418dc4a73a1a85eff42dcd46023658f26cd47630044807890cd); /* line */ \n        c_0x5e51bd03(0xd307c8c83206cc4d34a5cc99abdd773c960e3c27703408fb51430c119939cba9); /* requirePre */ \nc_0x5e51bd03(0x5849703bf62b819a265068e11ab392848ec01b818cac86c79f59ad54dafc8793); /* statement */ \nrequire(\n            store.tradeStatus == TradeStatus.TRADE_CREATED,\n            \"WEB3BAZAAR_ERROR: TRADE_STATUS ISNT CREATED\"\n        );c_0x5e51bd03(0x9a3c4597a82d39b9289cbd7efc7a4eab9a840b6bb26c1d9ae31b72c16650be9e); /* requirePost */ \n\nc_0x5e51bd03(0x82651a49b4806c1165d0001c44289fb2ff8a4511c0607714a5d37820c9e2ad58); /* line */ \n        c_0x5e51bd03(0x41ebf7a46cc7901163dbdfabbb32537d1f614bf44e32f391a1aaf378c7904904); /* requirePre */ \nc_0x5e51bd03(0x1197e8dbf08db358cf801c6231c14abd912edc7ac175d6c408b661e74c23df83); /* statement */ \nrequire(\n            store.executor == msg.sender || store.creator == msg.sender,\n            \"WEB3BAZAAR_ERROR: EXECUTER ISNT CREATOR OR EXECUTER\"\n        );c_0x5e51bd03(0xf5345a843fb5bed2506cd416f22964a3ff9f9f28b1ae632a21aec03c0987cd21); /* requirePost */ \n\n\nc_0x5e51bd03(0x6f86b71778c7e4fb450192a31c344aaae45c61bc00a2b6d2e762765ce9b75c8e); /* line */ \n        c_0x5e51bd03(0xd8b20c499640d6d6fbcfbe725144b62031d7727fcd79908ac91eaa6d433e2e5f); /* statement */ \nremoveTradeForUser(_transactions[tradeId].executor, tradeId);\nc_0x5e51bd03(0x86d14d7461f42dda03edb63649f1b34909a2cbfda7b989689fd016356c1690f4); /* line */ \n        c_0x5e51bd03(0xb53a0f1ee912b65bcfcd77486ac29e6adc2b56cc3e5f9538d56e4b2f925830bf); /* statement */ \nremoveTradeForUser(_transactions[tradeId].creator, tradeId);\n\nc_0x5e51bd03(0x878c0f51fbbc7d0c93811eca65a863a573f767b3b7fd623a4c08fe2e7d31fd45); /* line */ \n        c_0x5e51bd03(0xc856f8f6352925b4545a27218b9f244f2c6b70731788ce515882b5cfdbe97076); /* statement */ \n_transactions[tradeId].tradeStatus = TradeStatus.TRADE_CANCELLED;\nc_0x5e51bd03(0x6229205c1920cc8d82c4f73f0343a48f97f306ca41c6618fdf787d99a21c9766); /* line */ \n        c_0x5e51bd03(0xc4dd8fa379f55de753c832ccf24b894ec403f4e243f3d090b616538524c4c8ce); /* statement */ \nopenTradeCount = openTradeCount - 1;\n\nc_0x5e51bd03(0x8f1908e21de56bd6ebbdb27984d7f9b3318df35be3818dfa0f2dce4fedc83885); /* line */ \n        c_0x5e51bd03(0x0f950d061f9e5de1b821190a78eb25f50b2bd4a7205079a78b90124d8a70f932); /* statement */ \nreturn true;\n    }\n\n    /// executeTrade - to confirm a swap proposed by a creator counter-party. executor calls it to initiate the trade\n    /// @param tradeId to execute trade\n    /// @dev verifies assets ownership from both parties before swapping them.\n    /// @return id of the trade\n    function executeTrade(uint256 tradeId) external returns (uint256) {c_0x5e51bd03(0x85a4ab16a62707685d3d5146de2399d830586e4bbc347da2848cc1707e07683d); /* function */ \n\nc_0x5e51bd03(0x2d799d7c3b2716deb74d78d46dfd3128e7da95489dbcb8ffd1d83df9db541083); /* line */ \n        c_0x5e51bd03(0x305e0393645eef35316f89f264c193ccc688efadc28de47df35d119de12eb914); /* statement */ \nTrade storage store = _transactions[tradeId];\nc_0x5e51bd03(0x9117edaa54bf7ac425b4729de5826845921a03c08aafaae631464e96c00d4b07); /* line */ \n        c_0x5e51bd03(0x016be87c0ebf5504ceb5c6249e61369cd3d996eae6816ca002ce78968e44b3b5); /* requirePre */ \nc_0x5e51bd03(0xf338da8f8bd7c25577554e736f91a6791ead1e49690eea1cd459a07188732bdc); /* statement */ \nrequire(\n            store.tradeStatus == TradeStatus.TRADE_CREATED,\n            \"WEB3BAZAAR_ERROR: TRADE_STATUS ISNT CREATED\"\n        );c_0x5e51bd03(0x4f032bf6fe2b2c420b65d774c9410fb13f5ae61081afc00c76f06f90431b4a4f); /* requirePost */ \n\n\nc_0x5e51bd03(0xa78aeb911302ea44265179c98aa7aa7b8f3c0e1485ff4a84b3739e1868c59b17); /* line */ \n        c_0x5e51bd03(0xd2b02124783e95a62696357569b79795ebd96ac913a0a472febf27af8db87e73); /* statement */ \naddress executer = store.executor;\nc_0x5e51bd03(0xe2573bdd30af156689bb9a98a91824f4f831fb3d710ed0119eeb025017983868); /* line */ \n        c_0x5e51bd03(0x98657fc75b2189ad39f85acbe4c6227e074f318e4850b7145725d809bbe6ea59); /* statement */ \naddress creator = store.creator;\nc_0x5e51bd03(0xc90adc5f2a519fa1ddd4d4a6ebad5dfd27c04701df4c840951e2d03778340a0b); /* line */ \n        c_0x5e51bd03(0xa4e702b68a3b7abd80275d138b86c9deb08861432da4fb870323def0aa600481); /* requirePre */ \nc_0x5e51bd03(0xc6dd48fc97bd31b5e32d60a1fad53c4fabc56c4d4b5145d2a42d20f79b830ecc); /* statement */ \nrequire(\n            executer == msg.sender,\n            \"WEB3BAZAAR_ERROR: CALLER INST THE EXECUTER\"\n        );c_0x5e51bd03(0x9e410d1e6bd419ef56701c79325481086a5809ff24cfe45c07109f1337a51dd2); /* requirePost */ \n\nc_0x5e51bd03(0xb75eba0efd26763294f84d18bc6efd465a134b093670e1cac6478add44139c80); /* line */ \n        c_0x5e51bd03(0x3119068ec6858f870178eb8ef066381c88364620dd10a97e0ddd5d053bd97534); /* statement */ \nTradeCounterpart storage tempSwap;\nc_0x5e51bd03(0x5db243345ee8330d1d265d2773f9c0768c6e4eedfe50e50027f572639b208bc5); /* line */ \n        c_0x5e51bd03(0xb0ab57d33d3e5ae6ed73b0f87f18b942b14b73f0d968be79117a03c6fccae2ae); /* statement */ \nfor (\n            uint256 i = 0;\n            i < store._traders[creator].tokenAddressIdx.length;\n            i++\n        ) {\nc_0x5e51bd03(0x5a2ea8e005df24de2da4111e6fd9611669480647142d52f45d59899f6453bb33); /* line */ \n            c_0x5e51bd03(0xd3f8fe95ea038c82d200485c9018a9ed43ed8acdae98a41e58a8fc46fab6131f); /* statement */ \nuint256 tokenAddressIdx = store._traders[creator].tokenAddressIdx[\n                i\n            ];\nc_0x5e51bd03(0x839faec5af0db8610e2751b7bdf3ba54be9dc9556562c039d9ac98e078fe1b7e); /* line */ \n            c_0x5e51bd03(0xe5d75748aebab3bde44df9a8b32b1de14729b50346495ad5fbef9b6dac7d058a); /* statement */ \ntempSwap = store._traders[creator]._counterpart[tokenAddressIdx];\nc_0x5e51bd03(0x965850d691064c2f9eecbc9b43507c2bc736e08ce82a012aadbf81fb0e19a1a2); /* line */ \n            c_0x5e51bd03(0x1c1aac063afaa2fb759c01209c5dcabe3c7f69e7ff233747b0e65fb987d08421); /* statement */ \nif (tempSwap.traderType == TradeType.ERC20) {c_0x5e51bd03(0xf0b86dbffd9983d9584ecd1fdc3f2fcdcb2fefe86e88821f5c9d8f7aa5040492); /* branch */ \n\nc_0x5e51bd03(0x60156b04c4b888afdfb557a78353367c74cc60fdc37401592ba4defaeb7e1d67); /* line */ \n                c_0x5e51bd03(0xc32f4562a838fe03b13c8621967ad9ae14722d64f605ad2ff495a2d854f449c7); /* statement */ \nswapERC20(\n                    creator,\n                    executer,\n                    tempSwap.contractAddr,\n                    tempSwap.amount\n                );\n            } else {c_0x5e51bd03(0xd999f2e4090183efd21ab4f49fdcaeb2af619b5236f1312b8b040f04807b571f); /* statement */ \nc_0x5e51bd03(0x6b2f7ecdc5a2b492ca59e8e538cdd81f55717162fe26c6dce3a2ffe6768b16be); /* branch */ \nif (tempSwap.traderType == TradeType.ERC721) {c_0x5e51bd03(0x52e2e6db2ddf7685f841f7ad11b4301c1a05990f0d5830f4e0559a2d09f535b7); /* branch */ \n\nc_0x5e51bd03(0xef180a0e172f9a0410bb0ef7dc7ea038c10e92bbf672cba04366e039d86aecea); /* line */ \n                c_0x5e51bd03(0x11241a3246934c555f14ffe8ec88cbfce4c9da8a677c632579b814f0328ee1e3); /* statement */ \nswapERC721(\n                    creator,\n                    executer,\n                    tempSwap.contractAddr,\n                    tempSwap.idAsset\n                );\n            } else {c_0x5e51bd03(0x76d331926b1c41060d0d18789e854041d133b437254f75364bbb1542d8774b06); /* statement */ \nc_0x5e51bd03(0xf01306255579e26b050198570341e02c5b5fc385b3fa95f1bf1d2e5ab98b4a14); /* branch */ \nif (tempSwap.traderType == TradeType.ERC1155) {c_0x5e51bd03(0xdb9276a20d563860e89687a72c394ae52ef8657d1e461ec2b280799b4aadaa08); /* branch */ \n\nc_0x5e51bd03(0xf750dcd393ab6dc79f7c7c3962162428207f887b21e00baaff59f332c161d9fa); /* line */ \n                c_0x5e51bd03(0x2a0c6de8d0e2164436d82d1cfc146c283068a3c9a9cf81bb9c4d893be6d3ffb9); /* statement */ \nswapERC1155(\n                    creator,\n                    executer,\n                    tempSwap.contractAddr,\n                    tempSwap.idAsset,\n                    tempSwap.amount\n                );\n            }else { c_0x5e51bd03(0xc57bd940d8c8c532d55cf92c1ab0758917e3f614bcec51648e95d125b6977b81); /* branch */ \n}}}\n        }\nc_0x5e51bd03(0xf352b12a86bb65f873af93094bab5c024992c86cd396dace6957a71a1e65b7a9); /* line */ \n        c_0x5e51bd03(0x78c262da913b1be7f3b8171cd8c76948e090aa272a51bca01a249080b58f5708); /* statement */ \nfor (\n            uint256 i = 0;\n            i < store._traders[executer].tokenAddressIdx.length;\n            i++\n        ) {\nc_0x5e51bd03(0x4b2aa33ff5d8b8060216c16ec9b1b1e11c4ec0a8e154330cfabe78bc17b3d3ea); /* line */ \n            c_0x5e51bd03(0xedb50084ddf5fa0ed52f83c18b384a234536d3fc53c2cb1f2ca0e20cd69d11e2); /* statement */ \nuint256 tokenAddressIdx = store._traders[executer].tokenAddressIdx[\n                i\n            ];\nc_0x5e51bd03(0x9cf18e01b6ce684df54ca684275fba8451d724ce5f12d6fb1be6755533b56af1); /* line */ \n            c_0x5e51bd03(0xab775fde9e457904a1cd17f18aa8a9698fb1f032b66636c2c8ab0d54b3c37818); /* statement */ \ntempSwap = store._traders[executer]._counterpart[tokenAddressIdx];\nc_0x5e51bd03(0xdd5c182a8aa08d76dd74d5ae2e7837d438504756fedffd280a8ec78cb2729b0c); /* line */ \n            c_0x5e51bd03(0x6165a68adf9f351b9e6151497605a1b48b3e3edb604e2956f1734441777577a7); /* statement */ \nif (tempSwap.traderType == TradeType.ERC20) {c_0x5e51bd03(0x70dba8fd946910f9da7f2710eec3cdb092998d166a61ed2f566a0df9e395cbb0); /* branch */ \n\nc_0x5e51bd03(0x70434e1309d1458ec5cb8ec95494042fb503daf6b25e5bcfbf55ce6808c0cc49); /* line */ \n                c_0x5e51bd03(0x5de1708b5d495d3577352392054bf9ddb478e0090944116feff063817a8c7907); /* statement */ \nswapERC20(\n                    executer,\n                    creator,\n                    tempSwap.contractAddr,\n                    tempSwap.amount\n                );\n            } else {c_0x5e51bd03(0xb7af5b102ef730c96f5415d79eb7d54c19af326752f58ae691bd73e59379fef0); /* statement */ \nc_0x5e51bd03(0xef51dec34c68802b8d23506de57f47d134785ffcce441366881c5c72e1862291); /* branch */ \nif (tempSwap.traderType == TradeType.ERC721) {c_0x5e51bd03(0x5013411b1f44e3cc0cc343e9a45581b9da3de857249ceb89faa7fb5635377702); /* branch */ \n\nc_0x5e51bd03(0x256ae3ef140a0d8a0cbc37a347198764794fb9a0c122566fa1146b625ff3cd92); /* line */ \n                c_0x5e51bd03(0x03cd976c3a1cfcf464297388febe48e0b85463df80e6577d164845239e30511f); /* statement */ \nswapERC721(\n                    executer,\n                    creator,\n                    tempSwap.contractAddr,\n                    tempSwap.idAsset\n                );\n            } else {c_0x5e51bd03(0xa4b2cb4535073fd9b8b0c27cd9e9f525c8c04213222b98c43fe549702fc4d3c1); /* statement */ \nc_0x5e51bd03(0x47565400d5fbeadf37dbfcabaa7168444cfe68b2246b30e5055b211be759d0a3); /* branch */ \nif (tempSwap.traderType == TradeType.ERC1155) {c_0x5e51bd03(0x64e9240971b42de96d3278702d39b115ea2ff8e7b2fad5061ebccb44042687b3); /* branch */ \n\nc_0x5e51bd03(0x40d298a13d843d5820d055f6ac7269bf2abff714092034cb54b09288aa800024); /* line */ \n                c_0x5e51bd03(0x080e98d2e97000064a64a30bab7e775e020777b6110e2ce9de0dcc910f3c5bc4); /* statement */ \nswapERC1155(\n                    executer,\n                    creator,\n                    tempSwap.contractAddr,\n                    tempSwap.idAsset,\n                    tempSwap.amount\n                );\n            }else { c_0x5e51bd03(0x8bcf922a69db6cac29ef5202425baa68db4da609d5d73d6136a5caa54b23daec); /* branch */ \n}}}\n        }\nc_0x5e51bd03(0xb2be664ae0b9fa02fa0a640353b116377076036b04d8b2668c2c842c871949a9); /* line */ \n        c_0x5e51bd03(0x7e1837691da0f263bd2d92bf737852c4e15498ee1d99c785491465af26808cc1); /* statement */ \n_transactions[_tradeId].tradeStatus = TradeStatus.TRADE_COMPLETED;\nc_0x5e51bd03(0x1901ea1d72ed1655eef1f169b603dcfbf2b6c5509ab6523e8fdd00d12d5c2d28); /* line */ \n        c_0x5e51bd03(0x438e8faacc9a30cb944713232aa0031ceb9094595a79626ae02074d7319275f6); /* statement */ \nremoveTradeForUser(msg.sender, tradeId);\nc_0x5e51bd03(0xc635b34504357099a76671dfab42ba320e16f8139fe0ecfd6bdb791fcb2da26e); /* line */ \n        c_0x5e51bd03(0xb72cce96176a26e53205ed3b4e01053b8dc1f73ac801d1631f2eb87b78e9da03); /* statement */ \nremoveTradeForUser(_transactions[tradeId].creator, tradeId);\nc_0x5e51bd03(0x23fd236185eca9c5ce0f8f6be4cd8f587b554327651b0311ad7a1ae90620db23); /* line */ \n        c_0x5e51bd03(0xb94b0930d78318fe5e2aa36a714c306b9e9d7c272ff8c224e67ef523781ec431); /* statement */ \ntotalCompletedTrade = totalCompletedTrade + 1;\nc_0x5e51bd03(0x2a5a0484241d3edbfe0a62370189bf020b3d42ee181d3b2ec9c33796b9eecee9); /* line */ \n        c_0x5e51bd03(0x0ddb6ad67a3d594a85d1930b3a2144737a4979058846c0f0575749d8c942a844); /* statement */ \nopenTradeCount = openTradeCount - 1;\nc_0x5e51bd03(0xf5429c8c81fcbe4d4a1cbe155ba8e59e3bf3ccd537d6818041161ef7c5530be3); /* line */ \n        c_0x5e51bd03(0x478b9460cb866aee2a3cdb56f25fe03f3e9bcd86d5dfb4e6ae7c221e5d9e7a67); /* statement */ \nemit FinishTrade(msg.sender, tradeId);\nc_0x5e51bd03(0x1c53249f1dd13150e382cbeb2dead5f5bce880e325d3166a25ba43762d5da732); /* line */ \n        c_0x5e51bd03(0xc178ec644b96678e7d506212db8540d54cf118fbe30de8fedf8befb137448805); /* statement */ \nreturn tradeId;\n    }\n\n    /// starttrade - to verify creator and executor assets ownership and start the trade\n\n    /// @param creatorTokenAddress array containing the address of the contract of each asset to be swapped by the creator\n    /// @param creatorTokenId array containing tokenId of each asset (only applicable for erc721 and erc1155) to be swapped by the creator\n    /// @param creatorAmount array containing the amount of each token (only applicable for erc1155 and erc20) to be swapped by the creator\n    /// @param creatorTokenType array containing the token standard of each asset (erc20, erc721 and erc1155) to be swapped by the creator\n    /// @param executerAddress wallet address of counterparty\n    /// @param executorTokenAddress array containing the address of the contract of each asset to be swapped by the executor\n    /// @param executorTokenId array containing tokenId of each asset (only applicable for erc721 and erc1155) to be swapped by the executor\n    /// @param executorAmount array containing the amount of each token (only applicable for erc1155 and erc20) to be swapped by the executor\n    /// @param executorTokenType array containing the token standard of each asset (erc20, erc721 and erc1155) to be swapped by the executor\n    /// @dev checks if both users own all assets requested by the trade creator and initiates the trade if verification returns true\n    /// @return all trades created by a user\n    function startTrade(\n        address[] memory creatorTokenAddress,\n        uint256[] memory creatorTokenId,\n        uint256[] memory creatorAmount,\n        uint8[] memory creatorTokenType,\n        address executerAddress,\n        address[] memory executorTokenAddress,\n        uint256[] memory executorTokenId,\n        uint256[] memory executorAmount,\n        uint8[] memory executorTokenType\n    ) external returns (uint256) {c_0x5e51bd03(0x0989ef4436ccc0da4de9a293b01810610dfd5f4efa03dcdd2886082a887f1709); /* function */ \n\nc_0x5e51bd03(0x7ec6f07b098e6259b080d22687739796897e745800efa2882b4454355e6750a5); /* line */ \n        c_0x5e51bd03(0xce266ef04e3403d6b984b62e5f9acd0c6e566f661f39f8948406e236efa013a2); /* statement */ \naddress creatorAddress = msg.sender;\nc_0x5e51bd03(0x54630407c3b1d797a9b2a37d7788319309562c33e8811ed5aa4024da39892249); /* line */ \n        c_0x5e51bd03(0xd72abcda38607e9dc49f3489fe39366efd2bae79fa38f85ccc936c1233a91344); /* requirePre */ \nc_0x5e51bd03(0x48bc429878b8980b083e61053206d3c45905b74ac62e84359ba9e25c72f7b608); /* statement */ \nrequire(\n            executerAddress != address(0),\n            \"WEB3BAZAAR_ERROR: EXECUTER_ADDRESS_NOT_VALID\"\n        );c_0x5e51bd03(0xd3d4b61943ae92e20f238f084e3d9c1b6a71c151ccd64a2d5bcc227893f49945); /* requirePost */ \n\nc_0x5e51bd03(0xbdfeaad49e99d89f91165bd254b27ff246500495d83ae382636467bf7514007f); /* line */ \n        c_0x5e51bd03(0x0ce69a68da56605f647c37d269c927b5e4c8d3b80241be269cda36367b47a367); /* requirePre */ \nc_0x5e51bd03(0x4614f81e2f2de117f27657ae1c9ed7b2d3f66381b2d47197a37559a46eb217f3); /* statement */ \nrequire(\n            executerAddress != creatorAddress,\n            \"WEB3BAZAAR_ERROR: CREATOR_AND_EXECUTER_ARE_EQUAL\"\n        );c_0x5e51bd03(0x1fd3fe15b2300d6f987e7eb741b6895a9d9336bc1f27b1ae686bf594302e752a); /* requirePost */ \n\nc_0x5e51bd03(0x5f15ad76f6fd24edc4fd9862ea6c42ea46579086816a8761556d2caca217dc95); /* line */ \n        c_0x5e51bd03(0x909fe58e208885fffc7c59ee3db7647f84f1abe9805eaccea29de059be97a12d); /* requirePre */ \nc_0x5e51bd03(0xd9eed5974e7090ff3ac1f1c3199cea9dcb93a20c2b5197807953b70adc744991); /* statement */ \nrequire(\n            creatorTokenAddress.length > 0,\n            \"WEB3BAZAAR_ERROR: CREATOR_TOKEN_ADDRESS_EMPTY\"\n        );c_0x5e51bd03(0x9fdf1536397f91eed7cd64248079cb4528303218c8728318915ae5edf290a608); /* requirePost */ \n\nc_0x5e51bd03(0xf1111382deb0f8cfe2518ca0f16ebc91cde63d843808b4fc484d4c0d83e8a0d3); /* line */ \n        c_0x5e51bd03(0xca0728c17d66327635c7b017cf27fdee2b9eba327207b0cb52823002c352474c); /* requirePre */ \nc_0x5e51bd03(0x1502f21f4e45e43cc8b14241050af3f99c8f5970d64ce78533898bfa9bb230bf); /* statement */ \nrequire(\n            executorTokenAddress.length > 0,\n            \"WEB3BAZAAR_ERROR: EXECUTER_TOKEN_ADDRESS_EMPTY\"\n        );c_0x5e51bd03(0x0716f92878abb4e25b306e3caa4726812f5352a978636c7c8f6489d7bc1f8fe7); /* requirePost */ \n\n\nc_0x5e51bd03(0x1606e375c9df609732c4ae5f4ae3b0c1f8d370aa2ade09cfc9feb1299892a3f0); /* line */ \n        c_0x5e51bd03(0xb29531fd7ef5b5e30144810f0284763a4db080d9784dd1a1a2af68293d72d6c7); /* requirePre */ \nc_0x5e51bd03(0xeb0a185cb434e63b732cfab5326665c30cbd15af7a0e45bdd59bd272ec05f4d0); /* statement */ \nrequire(\n            creatorTokenAddress.length == creatorTokenId.length &&\n                creatorTokenAddress.length == creatorAmount.length &&\n                creatorTokenAddress.length == creatorTokenType.length,\n            \"WEB3BAZAR_PARMS:CREATOR_PARMS_LEN_ERROR\"\n        );c_0x5e51bd03(0x89ca0df0bbb4ba8e083aa7877692491cc9ea43f112ad219cb7f82850b054c8a0); /* requirePost */ \n\nc_0x5e51bd03(0x2a2ffec25b3190b19cea61d957037c04b2e5b6e85aa5d3612df8bca16d7f5bd4); /* line */ \n        c_0x5e51bd03(0x05895e57cc83d823b1b3c0a1913cab9748752037b660512c83b3352646354f40); /* requirePre */ \nc_0x5e51bd03(0xb340f2d9a2ba0df74e851cb63d41968dc2720104407025f87fd067e7da10b413); /* statement */ \nrequire(\n            executorTokenAddress.length == executorTokenId.length &&\n                executorTokenAddress.length == executorAmount.length &&\n                executorTokenAddress.length == executorTokenType.length,\n            \"WEB3BAZAR_PARMS:EXECUTER_PARMS_LEN_ERROR\"\n        );c_0x5e51bd03(0xa4ace26fead648acc6c321c62fa1b53950d97dcca56459a07b85b70cea55bd07); /* requirePost */ \n\n\nc_0x5e51bd03(0x909c4eccc65ed8bfa94e306890e93582b89f6c82c1deec549e0f08c6878b092b); /* line */ \n        _tradeId++;\nc_0x5e51bd03(0x029bc9aed6a367f6fba7edfcdb5ce78ec4054021607438eca969c0bbfb2dd02e); /* line */ \n        c_0x5e51bd03(0x77ccc8c11f99998334c0ee3005dc8c340b046906875eaffb3e5631bd4ceb197e); /* statement */ \n_transactions[_tradeId].id = _tradeId;\nc_0x5e51bd03(0xfd602bb3584d740bfb461d7ee5e260600a852b6ee7f58f560a8c37e42d13fa10); /* line */ \n        c_0x5e51bd03(0x0badc94f6b8c397297483860e6802d292860de01407a821297d66b3fc20a3af4); /* statement */ \n_transactions[_tradeId].creator = creatorAddress;\nc_0x5e51bd03(0xa49dc64c119c8a682a94f223874e71c993b3be57e3f98b953a94d783b4aa5548); /* line */ \n        c_0x5e51bd03(0xa8675eabd2e1cc764bf18161cc009fc68686a876e7865bbea4eb9d76e5bcc8d9); /* statement */ \n_transactions[_tradeId].executor = executerAddress;\nc_0x5e51bd03(0xbac9865667e9643f1484ae53f6a124b4b9f7340af0a535091f9b3938ca162449); /* line */ \n        c_0x5e51bd03(0xc1649f370fc0b7b2289c8c50d5b9a345edd82dac2777bb49f89a98d0ed230a46); /* statement */ \nfor (uint256 i = 0; i < creatorTokenAddress.length; i++) {\nc_0x5e51bd03(0x404d1fa7159cb1799c32c78ac8bf9d7303583c87a85fed97bb1b903fa2aa0b11); /* line */ \n            c_0x5e51bd03(0xa2d3ff6554d4ee303c8fd2a1dac557fed47a0272430d7e7052d684d5b674f3c0); /* statement */ \nverifyTradeIntegrity(\n                creatorTokenAddress[i],\n                creatorTokenId[i],\n                creatorAmount[i],\n                creatorTokenType[i]\n            );\nc_0x5e51bd03(0x398c64e67d00bdefdc8ac17af2e050d9ff4f1ffdd0082f9695cf349b256c35ff); /* line */ \n            c_0x5e51bd03(0x8d788a1387cade97ae97a4d25847505c4c0cd934c0884adf4671aaaf9d9ddcc7); /* statement */ \nif (TradeType(creatorTokenType[i]) == TradeType.ERC20) {c_0x5e51bd03(0xd3d1ade9e7db7abe016f0aedfb88f2e68cc8f807e72f052df1708cb016a41ca4); /* branch */ \n\nc_0x5e51bd03(0xd8f43c078803f11b570499feba6589e34774a8e3745807cd1c8c9a4211504bcf); /* line */ \n                c_0x5e51bd03(0x73883b5ed20f15351a0f594ee914944ef96cca5f1a6cfcc2b83d7293ed3e60eb); /* statement */ \nverifyERC20(\n                    creatorAddress,\n                    creatorTokenAddress[i],\n                    creatorAmount[i],\n                    true\n                );\n            } else {c_0x5e51bd03(0xa1554273a18ff82733f73657cc0ccde5da6ba2498b091946335776b5ef4f673f); /* statement */ \nc_0x5e51bd03(0x21d13861e466bd99a7df961d2e0c79cafdea6cd2a5d5d7e6a9b8998386f4967e); /* branch */ \nif (TradeType(creatorTokenType[i]) == TradeType.ERC721) {c_0x5e51bd03(0x090fd6d9652bd7c0bd3c377ec366f65d14d5bc8ad01ac350a1f8b33a16420104); /* branch */ \n\nc_0x5e51bd03(0x7c3946525c1608f51a8ac8a348ab31ea45b737320280e55875dee854275b7b72); /* line */ \n                c_0x5e51bd03(0x45bdd65ef2daafd4f598c5384f9bd5387b6de671533c8638ce3300eb40c8cc66); /* statement */ \nverifyERC721(\n                    creatorAddress,\n                    creatorTokenAddress[i],\n                    creatorTokenId[i],\n                    true\n                );\n            } else {c_0x5e51bd03(0xdd41d4fd64e356b395c62b5a5000d5fa22c4f469f8ac0c04f1bd354fc27ec08c); /* statement */ \nc_0x5e51bd03(0x7f2c99cd1efb1cfa4c802e4866e73716fd2495ea50ef6d8c2c401014004fc807); /* branch */ \nif (TradeType(creatorTokenType[i]) == TradeType.ERC1155) {c_0x5e51bd03(0xf85f5ab894a05bab48f42aca43150b3956a2a1183b2640b7f785adaa53ecfbe2); /* branch */ \n\nc_0x5e51bd03(0x18c22cf4a0e956b15b3fa36269c33bfbfe0a08f77a9566ac87d8728c161555b1); /* line */ \n                c_0x5e51bd03(0xad3759b59c6f4a90efd44516dc6f7c4acf1a79201ec8c86f722f5d7dbd3a861c); /* statement */ \nverifyERC1155(\n                    creatorAddress,\n                    creatorTokenAddress[i],\n                    creatorAmount[i],\n                    creatorTokenId[i],\n                    true\n                );\n            }else { c_0x5e51bd03(0xd4578c1fa779af8d774669ef7d9f6d8c1063617aaead937b5f6ce9e48df7e9fc); /* branch */ \n}}}\nc_0x5e51bd03(0x6332514b684522f6d5bb4a1a2de727577260a7eda77ae5f8d043d9df95589858); /* line */ \n            c_0x5e51bd03(0x8359a0aafb9536c19f0236ed49fecddb25291d94ad1645afdf9f9a552afc0ddf); /* statement */ \n_transactions[_tradeId]\n                ._traders[creatorAddress]\n                .tokenAddressIdx\n                .push(i + 1);\nc_0x5e51bd03(0xaee132b2bdad5d5b8a1778d62739ef2ef93dae591252de9dbb3a0c61cb56e530); /* line */ \n            c_0x5e51bd03(0xba4dbe7e1fb6a972a020eb6b4f19abc4ca9ef08ef8bd78862bf30ed7747f38ba); /* statement */ \n_transactions[_tradeId]\n                ._traders[creatorAddress]\n                ._counterpart[i + 1]\n                .contractAddr = creatorTokenAddress[i];\nc_0x5e51bd03(0x2ef9f856d77afed6a2c289b4693c9e7fce95ebd65ee02845af8e4fbe0d5f246c); /* line */ \n            c_0x5e51bd03(0xa5ff34f760a7f32b20c50a6001d61b485a1e597299ff010a7dc83828636262cd); /* statement */ \n_transactions[_tradeId]\n                ._traders[creatorAddress]\n                ._counterpart[i + 1]\n                .idAsset = creatorTokenId[i];\nc_0x5e51bd03(0x7024c8ccd157d2a3dea4a05780984df10d27e2519154b08a95bc8bc0d32007bd); /* line */ \n            c_0x5e51bd03(0x094b144edc9b648387bfa5d4f876dd5c6bdb70c4f4e70a695dc5505dab6e8482); /* statement */ \n_transactions[_tradeId]\n                ._traders[creatorAddress]\n                ._counterpart[i + 1]\n                .amount = creatorAmount[i];\nc_0x5e51bd03(0x6296061d3d31caa180d4bb0a2475c5cf1aab699f9b8c4c73c187046f2b4d97a8); /* line */ \n            c_0x5e51bd03(0x4f16e2033dd1a345e2d4afa740f32d0629eab542fe81cbb64efeac2f091b103a); /* statement */ \n_transactions[_tradeId]\n                ._traders[creatorAddress]\n                ._counterpart[i + 1]\n                .traderType = TradeType(creatorTokenType[i]);\nc_0x5e51bd03(0x46643161b59c83d7893847f58662c5b56a9d35bae10c785370cb4748f347d4ec); /* line */ \n            c_0x5e51bd03(0x7ed6922c4569d8bcdc48e7324776a6789ffe595bf0ccc20f55b92e28a49944a3); /* statement */ \n_transactions[_tradeId]\n                ._traders[creatorAddress]\n                ._counterpart[i + 1]\n                .traderStatus = UserStatus.OPEN;\n        }\nc_0x5e51bd03(0xb26da4eddcb07089c77414ff69ea2d0014b02cd1a48f3b0df1a682ec4d6b6824); /* line */ \n        c_0x5e51bd03(0x5992f51f5e0c0274ceaa69a4816ddebfb4fb4622fb6b3b0b163825451ac35411); /* statement */ \nfor (uint256 i = 0; i < executorTokenAddress.length; i++) {\nc_0x5e51bd03(0x943f357542097c612fddd5b72bfe1a9b66e571b414e4d4274cfe40f746c22a83); /* line */ \n            c_0x5e51bd03(0xbf9706f0d5a64f68b0331172a97a79e146157eeafa9cbc34ccb512b9d1754ec5); /* statement */ \nverifyTradeIntegrity(\n                executorTokenAddress[i],\n                executorTokenId[i],\n                executorAmount[i],\n                executorTokenType[i]\n            );\nc_0x5e51bd03(0x7eab4f6ceeb655e2a27febd7e4848867aff428955401b10c0a7b90fdae7811b3); /* line */ \n            c_0x5e51bd03(0xfbeb844ff61fd44a5d71cad25cfb8408d656cadce91072685e8b03067cb82732); /* statement */ \nif (TradeType(executorTokenType[i]) == TradeType.ERC20) {c_0x5e51bd03(0xbd712ec2cc21b2aab0cf7add6aba61db8472601e0e14036a1e283881814f3d7c); /* branch */ \n\nc_0x5e51bd03(0x986d5a231043767d4c7b5e51b15740295124410cc9f37ed1eb687575775632b0); /* line */ \n                c_0x5e51bd03(0xd2808d9f93ac2162e77a5cfcd121cd270c636fca57cd1028719ae0844b036f8d); /* statement */ \nverifyERC20(\n                    executerAddress,\n                    executorTokenAddress[i],\n                    executorAmount[i],\n                    false\n                );\n            } else {c_0x5e51bd03(0x540a27a3fd6da533f513af57ad7dd80c264b586402e6121215a888479dff9089); /* statement */ \nc_0x5e51bd03(0x3d6e34a4d75873be2f5587e9e2912d30172cfe042d93213f671af91ede721d88); /* branch */ \nif (TradeType(executorTokenType[i]) == TradeType.ERC721) {c_0x5e51bd03(0x40940e33024bfbc3e62522cbf1c0e4a064b516588c7b187d1c4d3f7861feea72); /* branch */ \n\nc_0x5e51bd03(0xc7c35f49b886da5cd322f62793f1db9681dbd3d9596c8d5b190a719480b7a5c7); /* line */ \n                c_0x5e51bd03(0x1b4a0c75682e26b3c453f02f70a4e41f58e8f029d17e4d94e9f2b09c6a031f56); /* statement */ \nverifyERC721(\n                    executerAddress,\n                    executorTokenAddress[i],\n                    executorTokenId[i],\n                    false\n                );\n            } else {c_0x5e51bd03(0x358769efa53add56a1763116101e944ab46b189319836d301930eb8ce710e374); /* statement */ \nc_0x5e51bd03(0x411d7f899819579c9df9e0c1de1a40c7cee44c094edbbddb4bee57a2cc6b8dfe); /* branch */ \nif (TradeType(executorTokenType[i]) == TradeType.ERC1155) {c_0x5e51bd03(0xd42401474f54fee30a5d1743dacb01e33d4537a71ae9a91634fe908a24ff2a04); /* branch */ \n\nc_0x5e51bd03(0x9d79c4bad7c795b181d0fcb66b501fc2522860bfe94c29d316bb7cb12d05f896); /* line */ \n                c_0x5e51bd03(0x534aefbb3ea3f28500516008ba7f8c25aa86d1968de158e0236e89469c89bd9f); /* statement */ \nverifyERC1155(\n                    executerAddress,\n                    executorTokenAddress[i],\n                    executorAmount[i],\n                    executorTokenId[i],\n                    false\n                );\n            }else { c_0x5e51bd03(0x87192d09d97441fc2f8493f6337c04e3a15b645fa1f875302acf8b86cfaac7f8); /* branch */ \n}}}\nc_0x5e51bd03(0x84d506c0aa9cfeba3bd54b37c70bb641e6c97ee1104b8404f1e4e33886f9f2d5); /* line */ \n            c_0x5e51bd03(0xd316a0750f295fe40d0cb2eae988c0f1b67d3964dadb0e6c38913007559251c6); /* statement */ \n_transactions[_tradeId]\n                ._traders[executerAddress]\n                .tokenAddressIdx\n                .push(i + 1);\nc_0x5e51bd03(0x8dd927510fc7b51362bbf4c2f73596bd79eef1b5cbf01dcdf88b88d9b0085952); /* line */ \n            c_0x5e51bd03(0x8cddb666c0651af6ec6229c57904d407e052b3593f44467c6f0d24d9afc092fc); /* statement */ \n_transactions[_tradeId]\n                ._traders[executerAddress]\n                ._counterpart[i + 1]\n                .contractAddr = executorTokenAddress[i];\nc_0x5e51bd03(0xe3dc5f0ebc554edaa0c07cb3529c9df64deb08726404a5cb8bc4eaf259225c8f); /* line */ \n            c_0x5e51bd03(0x6d62de9017926f0175147d516438410158851a01aef2af6631e3c678250cc899); /* statement */ \n_transactions[_tradeId]\n                ._traders[executerAddress]\n                ._counterpart[i + 1]\n                .idAsset = executorTokenId[i];\nc_0x5e51bd03(0x41af15519067e8e70ce556b8e51ec23a243ba69efd4094d61d79d74f3622c0ba); /* line */ \n            c_0x5e51bd03(0x368f37551c83502bd2d8be736896164da643758ec2d2f6cf9eaef9435cd31b27); /* statement */ \n_transactions[_tradeId]\n                ._traders[executerAddress]\n                ._counterpart[i + 1]\n                .amount = executorAmount[i];\nc_0x5e51bd03(0xd983fad81bf38181f2687761db62e5bcc519c7766f4d4efe69978bf419a9fa6b); /* line */ \n            c_0x5e51bd03(0xf9894d694b9ce3e7c15915ce9e8ccc1a4be856a5efa23c998e9cf07199cba891); /* statement */ \n_transactions[_tradeId]\n                ._traders[executerAddress]\n                ._counterpart[i + 1]\n                .traderType = TradeType(executorTokenType[i]);\nc_0x5e51bd03(0x6eab5dde0db9d2b15dd5367a663f9a42581736ca5987716459c18be4d260e474); /* line */ \n            c_0x5e51bd03(0xdc28bd920eb23da4e413bcecb79848157b92ee43e6e10f7968bf4daa580378c1); /* statement */ \n_transactions[_tradeId]\n                ._traders[executerAddress]\n                ._counterpart[i + 1]\n                .traderStatus = UserStatus.OPEN;\n        }\nc_0x5e51bd03(0xe84d27349d61c9acd9eeb0e0a1bd3bedd89a846753311346523c7f097680c30e); /* line */ \n        c_0x5e51bd03(0x789bdba9752f9009063db53c79f8a62b21b2ee2c91e281353fd614197ffc6a4e); /* statement */ \n_transactions[_tradeId].tradeStatus = TradeStatus.TRADE_CREATED;\nc_0x5e51bd03(0x57a8502f471e4c281e39a661c897530775ef5dbffdabe47495735fe03267b78c); /* line */ \n        c_0x5e51bd03(0x481a720d4f1c01463aaec49b49299424783a0b7f1ca2a1f5157a1146d121f01d); /* statement */ \n_openTrades[creatorAddress].push(_tradeId);\nc_0x5e51bd03(0x54bcf0cb9336b90ef494886cb1635980858e60a1a2b2c9b7023c1d1e755b8337); /* line */ \n        c_0x5e51bd03(0xb0ee3f20e082f00550d21958f768c2435739209c1e9e597f438f8c88d8b715d3); /* statement */ \n_openTrades[executerAddress].push(_tradeId);\nc_0x5e51bd03(0x3caf7723faf03bd941962b508fdc57ff1c9747bba2e7898494d25c9016f6df93); /* line */ \n        c_0x5e51bd03(0xbc4216283dce30714e00a61700216057594353c53e3ad3896a458c6090985fa4); /* statement */ \nemit NewTrade(creatorAddress, executerAddress, _tradeId);\nc_0x5e51bd03(0xcc95098a6dd14014609633b5ec2f60da374837114306e015cbb5033de95d44ce); /* line */ \n        c_0x5e51bd03(0x87f04f786722b2d84cf61dd51e649616ced524d9b51553ba8e2893ad2ed4a083); /* statement */ \nopenTradeCount = openTradeCount + 1;\nc_0x5e51bd03(0x1ef9c368afb22e9eac644c7f7a7f4c302a786840c78a235b8a292e4d8378b4a2); /* line */ \n        c_0x5e51bd03(0xae9c8bcf75e22ba68bad716e7ceaa7275167cd9eda74390667946a6b8d9535d8); /* statement */ \nreturn _tradeId;\n    }\n\n    // External visible functions\n\n    /// getTrade - this method returns data about the trade based on tradeId\n    /// @param tradeId to obtain information\n    /// @dev indexes and returns information about the trade\n    /// @return creator address, executor address and trade status\n    function getTrade(uint256 tradeId)\n        external\n        view\n        returns (\n            address,\n            address,\n            uint8\n        )\n    {c_0x5e51bd03(0x90dfbcaefbb8f6b06268cd57dd01a43a063bf40b81c878f0f25637a268e21c23); /* function */ \n\nc_0x5e51bd03(0xc9b509ff6eea298ee530389782673057e5c361e576e7b17583820ac2c915c363); /* line */ \n        c_0x5e51bd03(0x33063944a6f8893d28b7ecc8c937fa4cf58c3df640ff4e5325f6828225869212); /* statement */ \nTrade storage store = _transactions[tradeId];\nc_0x5e51bd03(0x27edc4e7ad001a51d95cd1b1b12388947e4c435de38ed3955f736f5ec5faa273); /* line */ \n        c_0x5e51bd03(0x0a029970e2ec7a24849a7ff5783eb61bea45095046ade12c7df80c2ebb5349b2); /* statement */ \nreturn (store.creator, store.executor, uint8(store.tradeStatus));\n    }\n\n    /// getTrade - this method returns data about the trade based on tradeId and user wallet\n    /// @param tradeId to obtain information\n    /// @param userWallet to check trades for that wallet address\n    /// @dev indexes internal sctructure and information based on tradeId and wallet address\n    /// @return arrays of tokenAddress, tokenIds, tokenAmount, tokenType\n    function getTradeWithAddress(uint256 tradeId, address userWallet)\n        external\n        view\n        returns (\n            address[] memory,\n            uint256[] memory,\n            uint256[] memory,\n            uint8[] memory\n        )\n    {c_0x5e51bd03(0x68e3ac941569a8fabaa0a9368b81ec8b4cd5fb257751a7fe2da0563553d13937); /* function */ \n\nc_0x5e51bd03(0xaebcd5584045afb76f86e304762bbe21ddfff39f23d438fab63f15c63ee58b9a); /* line */ \n        c_0x5e51bd03(0xe219a32e87c6c1847835c0dc1a0411c6d4c4dba35d7cf56bcf9fab5e33c00024); /* statement */ \nTrade storage store = _transactions[tradeId];\nc_0x5e51bd03(0x3a9d448c8653fe1ce504e05f3ac9218a1b00e4efcfbd95012c3a345976277ae0); /* line */ \n        c_0x5e51bd03(0x9b92c9a7da5c7ad1745cd1919ce5d79da3d1fa1ab47dd5ab812fac8d5d635251); /* statement */ \nuint256[] memory tokenAddressIdx = store\n            ._traders[userWallet]\n            .tokenAddressIdx;\n\nc_0x5e51bd03(0x38277b83af21f48bc1870e1ce19c4d8aed3686c2fe74baec48d0e940d7f8af42); /* line */ \n        c_0x5e51bd03(0x5fb8bcdbb54090e1de4107078efe2ba43ea4b828bcfa784f9f72a3a3dabe155f); /* statement */ \naddress[] memory _tradeTokenAddress = new address[](\n            tokenAddressIdx.length\n        );\nc_0x5e51bd03(0x875743d6c5a24e66e1d30c3baa1a1f23638324bef0eaca3cffdc11a18a562af9); /* line */ \n        c_0x5e51bd03(0xf7c350ecef00daa126690d5916799f332db2aa5228b372f18434e67c824fba15); /* statement */ \nuint256[] memory _tradeTokenIds = new uint256[](tokenAddressIdx.length);\nc_0x5e51bd03(0xe1ba69266b58cadfd8a9d2d5bd6f3ba08873eaffe873f289ee07ac2c6aacfe58); /* line */ \n        c_0x5e51bd03(0x007bdf1040c77ef4d0f82cf3e386671efffa70e014a3ee08001035456bdf104e); /* statement */ \nuint256[] memory _tradeTokenAmount = new uint256[](\n            tokenAddressIdx.length\n        );\nc_0x5e51bd03(0x8c4a9b1f6269400732b46cfe5bd043467be880462072ec49c8cc5a6c41a9effb); /* line */ \n        c_0x5e51bd03(0x2a4d3d132459aec8db03d3ba212b4ecd1e1e944da3f525d2285b2735a5969eec); /* statement */ \nuint8[] memory _tradeType = new uint8[](tokenAddressIdx.length);\n\nc_0x5e51bd03(0x6139d7399825c564646e6673bbb8bb5669f008deef913fecfc18fbb710c8dcf2); /* line */ \n        c_0x5e51bd03(0x002136380d1181465b31f46454c5a5a4a1a1e467248f1ba758a3e7e8cd02ce43); /* statement */ \nfor (uint256 y = 0; y < tokenAddressIdx.length; y++) {\nc_0x5e51bd03(0xb3a799bfd933116fef0e14c192dd4154729a4cf5420526f2194e6b20eb00af4c); /* line */ \n            c_0x5e51bd03(0x78efb8e5e4518a383f736ddb87da5d2ef4ad30610793e6b555524391df8c7289); /* statement */ \nTradeCounterpart memory tInfo = store\n                ._traders[userWallet]\n                ._counterpart[tokenAddressIdx[y]];\nc_0x5e51bd03(0xfa6dbf6e344c85bec9df56f7449c929198f3f1e3d7493487bbf753b99fe56b6f); /* line */ \n            c_0x5e51bd03(0x68c9b8fef86e3244eb95b3c706bf8370af5042091262f698973067a58b7d4ec6); /* statement */ \n_tradeTokenAddress[y] = tInfo.contractAddr;\nc_0x5e51bd03(0x1adc0f7b4b898a72bff161f0a9b8bf5066bebb1c9688a856be03a04e23e08def); /* line */ \n            c_0x5e51bd03(0xe19cd3cb09efd4023151ef899b9dcc18a89331f1ed3f8b88d334182114422040); /* statement */ \n_tradeTokenIds[y] = tInfo.idAsset;\nc_0x5e51bd03(0x1d61f17b28cfd9addada3f88c598c096ee7d40438a6b562fe920f97f0858e22b); /* line */ \n            c_0x5e51bd03(0x5678238cac3a9d307bb42b1e8004015f7a3551fa0484489906f5684eb10c7ce9); /* statement */ \n_tradeTokenAmount[y] = tInfo.amount;\nc_0x5e51bd03(0x17f9efae80f2df2d79770634dac96289ebc461180be51860938e52904756d251); /* line */ \n            c_0x5e51bd03(0xc62595da5e9713844d7abdc72ae952eb04eed3d763bc6cd00aeeb709d0902213); /* statement */ \n_tradeType[y] = uint8(tInfo.traderType);\n        }\nc_0x5e51bd03(0x959277c38b88761f51c38a4e5a2dd8bd423f9585cb57851b4b40bad0bed37d27); /* line */ \n        c_0x5e51bd03(0xdf7529a942bc8ba7b9d2f98786ccd4af4d54b475a9b86c16aa210716c39d7a3f); /* statement */ \nreturn (\n            _tradeTokenAddress,\n            _tradeTokenIds,\n            _tradeTokenAmount,\n            _tradeType\n        );\n    }\n\n    /// tradePerUser - Returns all open trades for a given wallet address\n    /// @param u to check open trades based on wallet address\n    /// @dev returns all trades open for an address stored in the _openTrades index\n    /// @return all trades open for a user\n    function tradePerUser(address u) external view returns (uint256[] memory) {c_0x5e51bd03(0xaa96b713a91b295f4fe2f86fd1f6c5768d0f06e1f47f63fd4fb9dd8a86200564); /* function */ \n\nc_0x5e51bd03(0x8d745c1088b7096576689b16e87a56f8ea77022f5b3613e5785ef9ffdef309f3); /* line */ \n        c_0x5e51bd03(0xe95ea4590e4d2a1f1b0840c4186bf188ffb94ec94dc1876efe26b211676703bd); /* statement */ \nreturn (_openTrades[u]);\n    }\n\n    // External functions that are pure\n    // ...\n\n    /// public function\n    /// ...\n\n    /// internal function\n\n    /// verifyERC721 - verifies ERC721 token ownership from wallet address\n    /// @param from for wallet address\n    /// @param tokenAddress address of the ERC721 contract\n    /// @param tokenAddress tokenId of that token\n    /// @param verifyAproval to verify Bazaar smart contract's approval to move this token\n    /// @dev verifyERC721 to check the ownership of ERC721 tokens specified in a trade created for that wallet address\n    /// @return true if verification is sucessful\n    function verifyERC721(\n        address from,\n        address tokenAddress,\n        uint256 tokenId,\n        bool verifyAproval\n    ) internal view returns (bool) {c_0x5e51bd03(0xf2f9f954a83b9529da6f978b75fae2d2834e33a668bcc245b1b954e66d37cc1d); /* function */ \n\nc_0x5e51bd03(0x79191f862d628e64abe6353f097e95293d5554f15dd6a4b177083b82fbfc5e2a); /* line */ \n        c_0x5e51bd03(0x2cbc4d83542f721851aca6b5f2ac00277ce141acfcc7523e2f340bce8bc3e416); /* requirePre */ \nc_0x5e51bd03(0xe3649b30a390feefedd48c985e6823d8502e8555f25d877243d927180ba5fb32); /* statement */ \nrequire(\n            from == ERC721(tokenAddress).ownerOf(tokenId),\n            \"WEB3BAZAAR_ERROR: ERR_NOT_OWN_ID_ERC721\"\n        );c_0x5e51bd03(0x4eed99d20979e5932d99522d58be613eb8528732c2a652a1938bf457c8c79a63); /* requirePost */ \n\nc_0x5e51bd03(0xf9b605dfa2d456d46ae75c5383c17ad25a991cd36e58e71ce19579d4d3613ecb); /* line */ \n        c_0x5e51bd03(0xf82e9aad0ab53ecf0f24c8dbfbda756d4a518aaf5dfdb79490bfd7f66810ddd6); /* statement */ \nif (verifyAproval) {c_0x5e51bd03(0x4a9971660cadcbaf04983cfe8b13b4c6be5b268aa98f6afa2329e2c901e94868); /* branch */ \n\nc_0x5e51bd03(0x6af036ce230b2640790ad1854d5be4e7126b733e43f366b96a305e877148d433); /* line */ \n            c_0x5e51bd03(0xfd7bbe1d91526d2b121f360596122d105737e9d41900c6e8f3c4ccdf4eece778); /* requirePre */ \nc_0x5e51bd03(0xa8c6cb0dcaa9a43cde93e532ec1303072c176e8cb967fb6620c27acaf0dbbaca); /* statement */ \nrequire(\n                ERC721(tokenAddress).isApprovedForAll(from, address(this)),\n                \"WEB3BAZAR_ERROR: ERR_NOT_ALLOW_TO_TRANSER_ITENS_ERC721\"\n            );c_0x5e51bd03(0xdb78d835b1a12635957fe0f4d144e56da96b9cd01bdb3fa598b7a1122dfbcd1f); /* requirePost */ \n\n        }else { c_0x5e51bd03(0x8c76ce3cc737f141e3b0226fe1646db5e06a9020af03886ebd30ed01e8a352a7); /* branch */ \n}\nc_0x5e51bd03(0x27d4a8b64c3be1746edb11cd428d85ed0f181c91cb406f5040511b43b8c889f6); /* line */ \n        c_0x5e51bd03(0x1f10250134302586f42c0218fa5a2728abcf8e87545dc5f8ba12a917d2a501cf); /* statement */ \nreturn true;\n    }\n\n    /// verifyERC20 - verifies ERC20 token ownership and amount available from wallet address\n    /// @param from for wallet address\n    /// @param tokenAddress address of the ERC20 contract\n    /// @param amount of that token\n    /// @param verifyAproval to verify Bazaar smart contract's approval to move this token\n    /// @dev verifyERC20 to check the ownership of ERC20 tokens and amounts specified in a trade created for that wallet address\n    /// @return true if the amount owned by the user is equal or superior to the value specified in the trade\n    function verifyERC20(\n        address from,\n        address tokenAddress,\n        uint256 amount,\n        bool verifyAproval\n    ) internal view returns (bool) {c_0x5e51bd03(0x32ebbdb95f3e904cc28b293edff1b2be7dfefd8df951a32ea65be7868ec0c118); /* function */ \n\nc_0x5e51bd03(0x57534a2e226bab107f1e0f7b7006b031cbba5c12a0254b36d34713cae0aad07f); /* line */ \n        c_0x5e51bd03(0x3cdb3783c1e3c909ba3f981f221a432d919c320631d511bd0c7922e0c0552543); /* requirePre */ \nc_0x5e51bd03(0x999bce3af24298c82d6c3be4ad934a412b206e45c7c6738f8fd018ef92a3fb1d); /* statement */ \nrequire(\n            amount <= IERC20(tokenAddress).balanceOf(from),\n            \"WEB3BAZAAR_ERROR: ERR_NOT_ENOUGH_FUNDS_ERC20\"\n        );c_0x5e51bd03(0xb30d226cd79f95bad282e2ff876ff0938dab559b372f7f6c34f18876a0d3342d); /* requirePost */ \n\nc_0x5e51bd03(0x1cd2b1db6aa52ff4803c7bbfd9f1f10267f36932075aec1b837e65c9e46e0c96); /* line */ \n        c_0x5e51bd03(0xb56ad6c534b1621f5995fa5ee3ab57d2f4bc853fb144a2b912a5c850b32b6c98); /* statement */ \nif (verifyAproval) {c_0x5e51bd03(0x2dd5cf0fbc9d1ec918dbcdad4975e2b9d33d7f0b3eced5594910ab9ec612bbad); /* branch */ \n\nc_0x5e51bd03(0x9e10a6e0ac5f32ce2f213c480e9ee3217e622198bc2f1d2a39e9bee0d61154dc); /* line */ \n            c_0x5e51bd03(0xba8cb337286ecdaa0a22ba0e1995b363d0ceda12c31d8724c9643be77fc69c5f); /* requirePre */ \nc_0x5e51bd03(0xaae62b458b71d8477136ea92236b667f76f3d8b50656832653556b539d146541); /* statement */ \nrequire(\n                amount <= IERC20(tokenAddress).allowance(from, address(this)),\n                \"WEB3BAZAR_ERROR: ERR_NOT_ALLOW_SPEND_FUNDS\"\n            );c_0x5e51bd03(0xb18956bf6356f997725efb5e990f8619911eda0db9116303891e1ec70dd1ae4f); /* requirePost */ \n\n        }else { c_0x5e51bd03(0xc3c5bf64513c679614ff41c3becfa8942e828d723d0c3b771a1caa5c79af2413); /* branch */ \n}\nc_0x5e51bd03(0xb538202522a7f3d4df59ec76061dbf8b7afad2d7a333fef9a48819b006f0a9e4); /* line */ \n        c_0x5e51bd03(0x8f1b23a4f073ad2090272647dff4a649a5f08b744eef5431f36a5fa1575e7807); /* statement */ \nreturn true;\n    }\n\n    /// VerifyERC1155 - Verifies ERC1155 token ownership and amount available from wallet address\n    /// @param from for wallet address\n    /// @param tokenAddress address of the ERC1155 contract\n    /// @param amount of that token\n    /// @param tokenId of that token\n    /// @param verifyAproval to check the ownership of ERC1155 tokens and amounts specified in a trade created for that wallet address\n    /// @return true if the amount owned by the user is equal or superior to the value specified in the trade\n    function verifyERC1155(\n        address from,\n        address tokenAddress,\n        uint256 amount,\n        uint256 tokenId,\n        bool verifyAproval\n    ) internal view returns (bool) {c_0x5e51bd03(0xd006a04be24bdff18175bd7a10f232422cd0dab80d128462d3e7487082e09617); /* function */ \n\nc_0x5e51bd03(0xa97e83cfc6971d5b8bc21c0c9fe2876267edc76ee6ed39904abe7e94be637793); /* line */ \n        c_0x5e51bd03(0xb3699d85a292e5afd292c6ca243c82ae263aa2c7e7e8f51a08b8d292594147e9); /* requirePre */ \nc_0x5e51bd03(0x1ae485edc06df493400f911195c591f25003900e3ac4ea8fc10794cdd50b043a); /* statement */ \nrequire(\n            tokenId > 0,\n            \"WEB3BAZAAR_ERROR: STAKE_ERC1155_ID_SHOULD_GREATER_THEN_0\"\n        );c_0x5e51bd03(0xff073cd67659122b4541c030a192986840096b96e4c0e550a5b4745cbc27b1fb); /* requirePost */ \n\nc_0x5e51bd03(0xdb64be1816bf700fcbf74910e1d3f7d14394849775e8fe5595836e358aeeb387); /* line */ \n        c_0x5e51bd03(0x5a9b83fed5f20384d26668b0f0a030aff35d7ef1706718295b0880bfa2ebfe49); /* requirePre */ \nc_0x5e51bd03(0x06ac467ba6f1f37de2122dcac8c8855816bbe268db45675efd4638c42d7d3c3a); /* statement */ \nrequire(\n            amount > 0 &&\n                amount <= ERC1155(tokenAddress).balanceOf(from, tokenId),\n            \"WEB3BAZAAR_ERROR: ERR_NOT_ENOUGH_FUNDS_ERC1155\"\n        );c_0x5e51bd03(0x4cc6153c8d4e12d94bed94a7017be19b19a8d15b530cbaae5a73a64075123573); /* requirePost */ \n\nc_0x5e51bd03(0xc8222f1802c3a25eaea56fabdf2d745e4f7d2268f9738811508c5957a56cb9f3); /* line */ \n        c_0x5e51bd03(0x972031279bebcb3c35a4cd060790fb7e73369d8328a5882521153310cd2c6cc8); /* statement */ \nif (verifyAproval) {c_0x5e51bd03(0x515ecff5f7b6c45494bb573866cf4d5f71c085113ab2d1ef5779f92a56755379); /* branch */ \n\nc_0x5e51bd03(0x2c4769bd7191d17e99b76f4f30e0214ff230011c0c44d5901df137d0ed89cd5a); /* line */ \n            c_0x5e51bd03(0x02889dcbf95627a67661ed0047d1f42bc220cb3033f5a0b84aacd350c83803e8); /* requirePre */ \nc_0x5e51bd03(0xa27ce8e62ec207eafb9203ade3bbf3df1f1c68a361ec97ddb9c75a645bf3c00b); /* statement */ \nrequire(\n                ERC1155(tokenAddress).isApprovedForAll(from, address(this)),\n                \"WEB3BAZAR_ERROR: ERR_NOT_ALLOW_TO_TRANSER_ITENS_ERC1155\"\n            );c_0x5e51bd03(0x8431a6b54b57fe468f417e9d6e68370c451a4d550f93ca7acb9674721e5657be); /* requirePost */ \n\n        }else { c_0x5e51bd03(0x556628703634fdb9fcf29296047c076334aeecf9fed27f66c18825fbb5146804); /* branch */ \n}\nc_0x5e51bd03(0x5c6739f31541c8e6a7711b16c061afa5878cf66c7c117b293994bd747641c33d); /* line */ \n        c_0x5e51bd03(0xc5972cf290ec49fac0d9977dd86c1a559d5266020a40e1e48a4b03047f39d326); /* statement */ \nreturn true;\n    }\n\n    /// SwapERC721-  moves token ERC721 from one address to another\n    /// @param from owner address\n    /// @param to destination address\n    /// @param tokenAddress of the ERC20 contract\n    /// @param tokenId of that token\n    /// @dev Swaps token ERC721 from one address to another. First calls method verifyERC721 to check token ownership then swaps it from the owner to the destination address\n    /// @return true if swap is successful\n    function swapERC721(\n        address from,\n        address to,\n        address tokenAddress,\n        uint256 tokenId\n    ) internal returns (bool) {c_0x5e51bd03(0xf37c26cd1aca9de791e502e6c82a3593631c13bd2cee4315bc8e79c873c6efdd); /* function */ \n\nc_0x5e51bd03(0x7a3942f3d373393919558ced23b6295f51eff4cf83bca6899c2a38fba89616f5); /* line */ \n        c_0x5e51bd03(0xa6265e1db9d6f49907a652bba7370e0e32cf923b5f6adc5906e4a9abd0f6f5ed); /* statement */ \nverifyERC721(from, tokenAddress, tokenId, true);\nc_0x5e51bd03(0xa29690a61b6db7443f246182ae451f5cc7cb4f16f23d971b8f2a83c99a037024); /* line */ \n        c_0x5e51bd03(0x6e95180c7a4876444a00a53808e8fb083271eb0dd5c797ac7c67f1f8a06c5460); /* statement */ \nERC721(tokenAddress).safeTransferFrom(from, to, tokenId, \"\");\nc_0x5e51bd03(0xbb930db27f14319c3a1ffd061b01504ddeeb68e671c953793144873d30266c26); /* line */ \n        c_0x5e51bd03(0x2260b3771e070b13566ffe6f38d2d6573fde19e232022af42756832a2e4f0ac9); /* statement */ \nreturn true;\n    }\n\n    /// SwapERC1155 - moves tokens ERC1155 from one address to another\n    /// @param from owner address\n    /// @param to for destination address\n    /// @param tokenAddress of the ERC1155 contract\n    /// @param tokenId of that token\n    /// @param amount of that token\n    /// @dev Swaps token(s) ERC721 from one address to another. First calls method verifyERC1155 to check token ownership and amount held then swaps them from the owner to the destination address\n    /// @return true if swap is successful\n    function swapERC1155(\n        address from,\n        address to,\n        address tokenAddress,\n        uint256 tokenId,\n        uint256 amount\n    ) internal returns (bool) {c_0x5e51bd03(0x2b676aedeff5b5928b4c2a12b880b8b09564cda6eb92c3e2a770b38f7d729e0f); /* function */ \n\nc_0x5e51bd03(0x811988aac676fef7d532985bbda3dd4e10930c25fe475a25193cd4e9aedca7ac); /* line */ \n        c_0x5e51bd03(0x44acf33a49a39e74506bd384cb40b300d62a3337f464c9ac778749d1ed5cf97e); /* statement */ \nverifyERC1155(from, tokenAddress, amount, tokenId, true);\nc_0x5e51bd03(0xc1c62a6585dcfda8562b50ffa1ac64e1872b21f73698088a98a3f6ff36c7f3e3); /* line */ \n        c_0x5e51bd03(0xd2e25701981931663555d5a6db54b8f7858dcc3853a089278bdc42f097afe2bf); /* statement */ \nERC1155(tokenAddress).safeTransferFrom(\n            from,\n            to,\n            tokenId,\n            amount,\n            \"0x01\"\n        );\nc_0x5e51bd03(0x96708001c8eb8d2a11f3f7efd56bb80332e2291d3cc9eede7ce84e0854d92efd); /* line */ \n        c_0x5e51bd03(0x58180690720957513f1cf6fde65bb42e65f7ad508254c24a42e21154452d7abe); /* statement */ \nreturn true;\n    }\n\n    /// Swap ERC20 - moves tokens ERC20 from one address to another\n    /// @param from owner ess\n    /// @param to for destination address\n    /// @param tokenAddress address of the ERC20 contract\n    /// @param amount of that token\n    /// @dev Swaps token(s) ERC20 from one address to another. First calls method verifyERC20 to check token ownership and amount held then swaps them from the owner to the destination address\n    /// @return true if swap is successful\n    function swapERC20(\n        address from,\n        address to,\n        address tokenAddress,\n        uint256 amount\n    ) internal returns (bool) {c_0x5e51bd03(0xa02f588f05826df2b35018c12005caa1dacd56d3fa9dfadcee7399e272d794d5); /* function */ \n\nc_0x5e51bd03(0xc0732a3c88f41c4b3e1b0e34d7b7d479400d9985d03834997723ae8c36e9b7cd); /* line */ \n        c_0x5e51bd03(0x379c6af9dbfb53ec881460526ccd5666685f6dfea7d891cd0c6c45ef97168563); /* statement */ \nverifyERC20(from, tokenAddress, amount, true);\nc_0x5e51bd03(0x4d329116a8da27c4bbc8ee49f1dbf4bfbf85cbb4673b9a361217ae47bdb923b4); /* line */ \n        c_0x5e51bd03(0x63e02216140e03d423094110fd25dfebe7f6df07637afe84045ca730640c0e8a); /* statement */ \nSafeERC20.safeTransferFrom(IERC20(tokenAddress), from, to, amount);\nc_0x5e51bd03(0x3e4ca97a5a0ea5c125c690f0777bbf59b47cef4f28d7db44ce6ecf3b5e318bf2); /* line */ \n        c_0x5e51bd03(0x44fb7fbe3609867a4aad0a78060d2634ab04cb319e1f0b716e57ad7baaa0d16b); /* statement */ \nreturn true;\n    }\n\n    /// private functions\n\n    /// removeTradeForUser - remove an open trade from _openTrades array\n    /// @param u user address to check open trades\n    /// @param tradeId  from the trade you want to remove\n    /// @dev retrieves the value of the state of the variable `storedData`\n    /// @return all trades open for a user\n    function removeTradeForUser(address u, uint256 tradeId)\n        private\n        returns (bool)\n    {c_0x5e51bd03(0x52825902e1cc4bb17b422d4012ac6b07f57f04acdf12bff224638b2d5bbe737d); /* function */ \n\nc_0x5e51bd03(0xa67bd82e6090ec98a14bb0f87c892bc720b32744702324f0db60137c5e880c95); /* line */ \n        c_0x5e51bd03(0xef3af14d1cd9e0f83dd9fdefddb4e04ec625a84167d516dfd880dfe9fee93b4e); /* statement */ \nuint256[] memory userTrades = _openTrades[u];\n\nc_0x5e51bd03(0x2fbf9a0f23857b01520e6234676b7381165b47d6194c8d45f1cb76f8c1e5d7cf); /* line */ \n        c_0x5e51bd03(0xe0ce0038d6446b912c1dd49c49126dac676d7c0c89bc3bf030b4b7e0717b9f37); /* statement */ \nif (_openTrades[u].length == 1) {c_0x5e51bd03(0x880f58817b5ce422925afc1110229ba44939b26ba9b8e674bdd1ca9d0fffd213); /* branch */ \n\nc_0x5e51bd03(0x02f963bcd9da46afb42a0969a837ac9ca16b76a3de549dc47af35df414b57566); /* line */ \n            c_0x5e51bd03(0xc15c05375d5353cac7b7c70f587e6332b45333a84454c4bf6b8dba22bf889833); /* statement */ \n_openTrades[u][0] = 0;\nc_0x5e51bd03(0xc02046616fd540659f8ae954883ca2fceef1c6123e03a468bb7c3a4eefcf83bf); /* line */ \n            c_0x5e51bd03(0x3a31c30c7093ec78b9f7812af7cc2d314a2bb4ce9ff0d2a9e5f6031b2bb92712); /* statement */ \nreturn true;\n        }else { c_0x5e51bd03(0x0f226a81c4305554594483b86a686c9b2f1402357fcedb234e535f47418eb450); /* branch */ \n}\nc_0x5e51bd03(0x4e22ad95acdf25cbd0775e743b056990390d001c832846328b480c273a6464d5); /* line */ \n        c_0x5e51bd03(0x44ed2c983324514202e4287a45b22da231f072103859611ef48ca75a6eec43ca); /* statement */ \nfor (uint256 i = 0; i < userTrades.length - 1; i++) {\nc_0x5e51bd03(0x4cef91ed754041b677f6cde5ef7153016abdeb8736cbec741967e2cd26e4266f); /* line */ \n            c_0x5e51bd03(0x7a87539a7e4e576fd5d379e6a01126aa3c58857d1d37fa53573d5742c4bb7dda); /* statement */ \nif (userTrades[i] == tradeId) {c_0x5e51bd03(0x8228f4579fa5e541affbbbf572f1a47f584f8a93481d9428c0a45e7354e29357); /* branch */ \n\nc_0x5e51bd03(0x83d14f671b52853604e5ec020f7196796921c660865eef378fc51be37118825a); /* line */ \n                c_0x5e51bd03(0x95b9493a228b6ff9950557f5228e56d593ed6e66cf9cfba9fe47724a733c7c71); /* statement */ \n_openTrades[u][i] = _openTrades[u][userTrades.length - 1];\nc_0x5e51bd03(0xa82ef907a6c23075fd8b46b194dbdbd6491662b87fe0b19e783eae5c7e82a36e); /* line */ \n                c_0x5e51bd03(0xedf1872613eaf4113d8e5634be390ecf2a7db42e311d6758d835759be4d2c2b0); /* statement */ \n_openTrades[u].pop();\nc_0x5e51bd03(0x227e66ed4b53b796ce1347ea4e7493a0931f7bb31ffaf826dceddf17f58fb81d); /* line */ \n                c_0x5e51bd03(0x73298b36eb611542097abe9e05ccefd11208ae5de89524ee37a41ed1a1426546); /* statement */ \nreturn true;\n            }else { c_0x5e51bd03(0x807dd6544bfd79e6f0f149a8015e79181af364afe47b086fcf5551b9e3ff1d0e); /* branch */ \n}\n        }\n    }\n\n    /// vverifyTradeIntegrity- verifies integrety of data from tokens be swapped\n    /// @param tokenAddress  to check open trades for wallet address\n    /// @param tokenId from the trade you want to remove\n    /// @param amount tradeId from the trade you want to remove\n    /// @param tokenType tradeId from the trade you want to remove\n    /// @dev retrieves the value of the state variable `storedData`\n    /// @return all trades open for a user\n    function verifyTradeIntegrity(\n        address tokenAddress,\n        uint256 tokenId,\n        uint256 amount,\n        uint8 tokenType\n    ) private pure returns (bool) {c_0x5e51bd03(0x0587bd55e138f05e63fcdd769e9f1a1aedd1a1fbc41c1e7c975901258c5689a1); /* function */ \n\nc_0x5e51bd03(0x9451c0c6b46f7681e704653d62302eb3ea46aca9a7d39cdb7115ce7d5a47587b); /* line */ \n        c_0x5e51bd03(0x633a41181c8b418df5d5481e5deb1444178c389f3bc1f5e92e2fb328a523c1f6); /* requirePre */ \nc_0x5e51bd03(0xcd465e09cb27dffa958eb413ea3101df65dddc57a76b37dc6a8fb562ef713916); /* statement */ \nrequire(\n            tokenAddress != address(0),\n            \"WEB3BAZAAR_ERROR: CONTRACT_TOKEN_ADDRESS_IS_ZERO\"\n        );c_0x5e51bd03(0x265fcfe6dd9a3b2b7eb46a4a37d521e7b31936d2668f69a6247869062fd77a7c); /* requirePost */ \n\nc_0x5e51bd03(0x05432fdf1d5ab1443c06470b29bba65294223222cd0cd59f6e1da8a35fd31e94); /* line */ \n        c_0x5e51bd03(0x44257a2c1c5ae8e792d8f358763c2015f464f7b9a85c62b113d1cf9f6b71997f); /* requirePre */ \nc_0x5e51bd03(0x116f2e33c9ece36e02ebb61671214bca9c3c2f38fdc9aee954507fd73673dbe6); /* statement */ \nrequire(\n            tokenType > uint8(TradeType.NON) &&\n                tokenType <= uint8(TradeType.ERC721),\n            \"WEB3BAZAR_ERROR: NOT_VALID_TRADE_TYPE\"\n        );c_0x5e51bd03(0xe598e8a87fbfcc7e13e7b22cdf720df6ce2fbc9491c546d322768a1384145040); /* requirePost */ \n\nc_0x5e51bd03(0xf68fc2e13ef2b05a3d3a0a05e8c1d9c9d4a7d68b5ca46dfb240c08cc921ba757); /* line */ \n        c_0x5e51bd03(0x32dcc36ade98e28fbdb54b0a48cb298c8459445e5b1851231d45418e7e9036e1); /* requirePre */ \nc_0x5e51bd03(0xc95db4cba59c0ecd5c2c3ef9d3eba05286f671754ae27818f557882a7d7e2172); /* statement */ \nrequire(tokenId > 0, \"WEB3BAZAR_ERROR: TOKENID_MUST_POSITIVE\");c_0x5e51bd03(0x43719c5b65567bd93ca5b67bf9319ea9928bc59efbae23600cd0eaeeba833cf6); /* requirePost */ \n\nc_0x5e51bd03(0xac144a7bf3182ed8362a978d7813d3953e22e107431c37c66292aaded0d70e94); /* line */ \n        c_0x5e51bd03(0xcb70b045d0ad8e64d1aa76186c21850dcd8e77424896385b228b0940e8ed25a5); /* requirePre */ \nc_0x5e51bd03(0x85e8543e17bb36e259aa8325b87893224100247a6bec9d496cb0d9c8d14c0b86); /* statement */ \nrequire(amount > 0, \"WEB3BAZAR_ERROR: AMOUNT_MUST_POSITIVE\");c_0x5e51bd03(0x6ab1be9cb1c51a80bfc1e8f0f49ac7526c58987546be726be32981e993426231); /* requirePost */ \n\nc_0x5e51bd03(0x4d506cb20d027954d6a6087d5b1630c4cf38f8b37e20c8809e8ee60964ca8885); /* line */ \n        c_0x5e51bd03(0x55c3e294b24a7e340951d45646c3f3147292e1abbd1f255f6be50c621004ce94); /* statement */ \nreturn true;\n    }\n}\n",
  "sourcePath": "/Users/vitorpedroviana/project/wallid/dev/web3/web3bazaar/mainnet-contracts/.coverage_contracts/Web3BazaarEscrow.sol",
  "compiler": {
    "name": "solc",
    "version": "0.8.14+commit.80d49f37.Emscripten.clang"
  },
  "schemaVersion": "3.4.8",
  "updatedAt": "2022-07-23T02:16:15.688Z",
  "networkType": "ethereum",
  "devdoc": {
    "author": "drBrown",
    "kind": "dev",
    "methods": {
      "cancelTrade(uint256)": {
        "details": "changes the status of the trade to cancelled",
        "params": {
          "tradeId": "to cancel"
        },
        "returns": {
          "_0": "all true  if trade was cancelled"
        }
      },
      "executeTrade(uint256)": {
        "details": "verifies assets ownership from both parties before swapping them.",
        "params": {
          "tradeId": "to execute trade"
        },
        "returns": {
          "_0": "id of the trade"
        }
      },
      "getTrade(uint256)": {
        "details": "indexes and returns information about the trade",
        "params": {
          "tradeId": "to obtain information"
        },
        "returns": {
          "_0": "creator address, executor address and trade status"
        }
      },
      "getTradeWithAddress(uint256,address)": {
        "details": "indexes internal sctructure and information based on tradeId and wallet address",
        "params": {
          "tradeId": "to obtain information",
          "userWallet": "to check trades for that wallet address"
        },
        "returns": {
          "_0": "arrays of tokenAddress, tokenIds, tokenAmount, tokenType"
        }
      },
      "onERC721Received(address,address,uint256,bytes)": {
        "details": "See {IERC721Receiver-onERC721Received}. Always returns `IERC721Receiver.onERC721Received.selector`."
      },
      "startTrade(address[],uint256[],uint256[],uint8[],address,address[],uint256[],uint256[],uint8[])": {
        "details": "checks if both users own all assets requested by the trade creator and initiates the trade if verification returns true",
        "params": {
          "creatorAmount": "array containing the amount of each token (only applicable for erc1155 and erc20) to be swapped by the creator",
          "creatorTokenAddress": "array containing the address of the contract of each asset to be swapped by the creator",
          "creatorTokenId": "array containing tokenId of each asset (only applicable for erc721 and erc1155) to be swapped by the creator",
          "creatorTokenType": "array containing the token standard of each asset (erc20, erc721 and erc1155) to be swapped by the creator",
          "executerAddress": "wallet address of counterparty",
          "executorAmount": "array containing the amount of each token (only applicable for erc1155 and erc20) to be swapped by the executor",
          "executorTokenAddress": "array containing the address of the contract of each asset to be swapped by the executor",
          "executorTokenId": "array containing tokenId of each asset (only applicable for erc721 and erc1155) to be swapped by the executor",
          "executorTokenType": "array containing the token standard of each asset (erc20, erc721 and erc1155) to be swapped by the executor"
        },
        "returns": {
          "_0": "all trades created by a user"
        }
      },
      "supportsInterface(bytes4)": {
        "details": "See {IERC165-supportsInterface}."
      },
      "tradePerUser(address)": {
        "details": "returns all trades open for an address stored in the _openTrades index",
        "params": {
          "u": "to check open trades based on wallet address"
        },
        "returns": {
          "_0": "all trades open for a user"
        }
      }
    },
    "title": "Web3BazaarEscrow contract",
    "version": 1
  },
  "userdoc": {
    "kind": "user",
    "methods": {
      "cancelTrade(uint256)": {
        "notice": "cancelTrade -  To invalidate an already created trade. Can be called by both the trade creator or executor"
      },
      "executeTrade(uint256)": {
        "notice": "executeTrade - to confirm a swap proposed by a creator counter-party. executor calls it to initiate the trade"
      },
      "getTrade(uint256)": {
        "notice": "getTrade - this method returns data about the trade based on tradeId"
      },
      "getTradeWithAddress(uint256,address)": {
        "notice": "getTrade - this method returns data about the trade based on tradeId and user wallet"
      },
      "tradePerUser(address)": {
        "notice": "tradePerUser - Returns all open trades for a given wallet address"
      }
    },
    "version": 1
  }
}